:100000000C9461000C947E000C947E000C947E0095
:100010000C947E000C947E000C947E000C947E0068
:100020000C947E000C94E3140C947E000C94F41455
:100030000C947E000C947E000C947E000C947E0048
:100040000C947E000C947E000C940D010C94A8007E
:100050000C947E000C947E000C947E000C947E0028
:100060000C947E000C947E000A0023204C61736186
:1000700075724772626C2031332E30326500563112
:10008000332E30326500494E46494E4954594E414F
:100090004ECDCCCC3D0AD7233C17B7D13877CC2BEB
:1000A000329595E6241FB14F0A000020410000C898
:1000B0004200401C4620BCBE4CCA1B0E5AAEC59D19
:1000C000740011241FBECFEFD8E0DEBFCDBF11E01A
:1000D000A0E0B1E0EEE9F9E302C005900D92A03591
:1000E000B107D9F717E0A0E5B1E001C01D92AB3729
:1000F000B107E1F70E9480000C94CD1C0C94000025
:1001000078940E948D010E9408030E9460110E9451
:1001100081140E949E110E94B9110E949B07FDCF7D
:10012000909152019F5F903809F490E02091530123
:100130009217E1F3E0915201F0E0EA55F94F808324
:10014000909352018091C10080628093C100089514
:100150001F920F920FB60F9211248F939F93EF93DC
:10016000FF938091530190915401992331F092E1D2
:100170009093C600109254010DC0E82FF0E0EA55AC
:10018000F94F90819093C6008F5F803809F480E02A
:100190008093530190915201891729F48091C100F5
:1001A0008F7D8093C100FF91EF919F918F910F9070
:1001B0000FBE0F901F9018959091510180915001A2
:1001C0009817D1F3E0915101F0E0E955FA4F8081A1
:1001D000909151019F5F90935101909151019F3FE8
:1001E00011F410925101F89490910001903471F43F
:1001F00090915501992351F091E090935401909181
:10020000C10090629093C10010925501909100013D
:100210009F5F90930001789408951F920F920FB6FC
:100220000F9211242F933F934F935F936F937F937C
:100230008F939F93AF93BF93EF93FF939091C600DB
:10024000913211F487E024C09E3719F40E94DE1326
:100250002DC0943189F480910001813448F081E00F
:10026000809354018091C10080628093C1001EC0C0
:1002700081E0809355011AC0E09150018E2F8F5F6D
:100280008F3F09F480E020915101821721F481E031
:100290000E94D2130BC0F0E0E955FA4F908380938F
:1002A000500180910001815080930001FF91EF91F6
:1002B000BF91AF919F918F917F916F915F914F917E
:1002C0003F912F910F900FBE0F901F901895809126
:1002D000000180950895EF92FF92CF93DF93E82E6F
:1002E000E7017E01F92EE70102C00E94900089918A
:1002F0008823D9F7DF91CF91FF90EF900895CF93A6
:10030000DF93EC0102C00E949000FE0121968491CF
:100310008823C9F7DF91CF9108951092C50080E13D
:100320008093C400E0ECF0E080818D7F8083E1EC7D
:10033000F0E080818061808380818860808380811B
:10034000806880838AE690E00E947F0188E690E0E2
:100350000E947F0108958F929F92AF92BF92CF9299
:10036000DF92EF92FF920F931F93DF93CF93CDB75E
:10037000DEB7A0970FB6F894DEBF0FBECDBF490120
:100380005A01611571058105910521F480E30E94F0
:1003900090003CC06E010894C11CD11CEE24FF24C7
:1003A0008701A50194010E94DA1AF60161936F0199
:1003B0000894E11CF11C011D111DB901CA01611550
:1003C00071058105910569F7D801C7010197A10958
:1003D000B1096E010894C11CD11CC80ED91E11C0F0
:1003E000F60180818A3010F4805D01C0895C0E9432
:1003F00090000894E108F108010911090894C10866
:10040000D108E114F1040105110551F7A0960FB6CA
:10041000F894DEBF0FBECDBFCF91DF911F910F913A
:10042000FF90EF90DF90CF90BF90AF909F908F9014
:100430000895EF92FF920F931F937B018C0197FF1A
:100440000BC08DE20E94900010950095F094E0940E
:10045000E11CF11C011D111DC801B7012AE030E0AB
:1004600040E050E00E94AB011F910F91FF90EF9090
:100470000895AF92BF92CF92DF92EF92FF920F93C7
:100480001F93CF93DF937B018C0120E030E0A90123
:100490000E94321887FF07C08DE20E94900017FB70
:1004A000109517F91095C801B7012FE632E143E026
:1004B0005AE30E94BB17D62EC72EB82EA92EA6012E
:1004C0009501652F742F832F922F0E949E187B0118
:1004D0000027F7FC0095102FC801B7012AE030E093
:1004E00040E050E00E94AB018EE20E949000C80103
:1004F000B7010E94D1189B01AC01D601F5016B2F09
:100500007A2F8F2F9E2F0E94BA17C3E0D0E021C010
:1005100020E030E040E251E40E94081AB62EC72ED7
:10052000D82EE92E0E949E18162F862F805D0E94DD
:100530009000612F70E0882777FD8095982F0E94AA
:10054000D1189B01AC016B2D7C2D8D2D9E2D0E9411
:10055000BA1721972FEFCF3FD207D1F6DF91CF9176
:100560001F910F91FF90EF90DF90CF90BF90AF90D1
:100570000895AF92BF92CF92DF92EF92FF920F93C6
:100580001F93DF93CF9300D0CDB7DEB75B017A0125
:100590008901F9012081FA01E20FF11D2081222356
:1005A00039F1FC01208321542A3110F085E01EC06E
:1005B000F80180818F5F80836A01C80ED11CC6015B
:1005C000BE016F5F7F4F0E94FC1AF501608371834B
:1005D0008283938389819A818C159D0531F08E19D0
:1005E000F801808321E030E005C084E0809357016A
:1005F00020E030E0C9010F900F90CF91DF911F9163
:100600000F91FF90EF90DF90CF90BF90AF90089543
:1006100082E3E7E5F1E0DF011D928A95E9F780E0EA
:1006200090E6AAE6B6E480935B0190935C01A09308
:100630005D01B0935E0180E090E4ACE9B5E48093A5
:100640005F0190936001A0936101B093620181E02A
:1006500080935A0180E090E0A0EAB0E480936F01BB
:1006600090937001A0937101B09372018093730114
:1006700090937401A0937501B093760180937B01F0
:1006800090937C01A0937D01B0937E0180937F01C4
:1006900090938001A0938101B09382011092560142
:1006A0001092260708952F923F924F925F926F9279
:1006B0007F928F929F92AF92BF92CF92DF92EF92F2
:1006C000FF920F931F93DF93CF93CDB7DEB765975C
:1006D0000FB6F894DEBF0FBECDBF9D8B8C8B1982F9
:1006E000109257011B8A52E0C52ED12CCC0EDD1E74
:1006F00043E0A42EB12CAC0EBD1E7E010894E11C7B
:10070000F11C06E011E032E0832E93C06B817C8106
:100710008D819E810E94AD1A0E949E188A81873425
:1007200021F08D3409F081C052C065317105E9F1C5
:1007300066317105BCF46430710551F165307105A5
:1007400044F46115710531F16130710509F065C03E
:1007500025C06A30710509F463C06431710509F080
:100760005CC020C06733710549F16833710544F4FA
:100770006E317105E9F06633710509F04EC01BC09A
:100780006A357105F1F06B35710509F046C01CC082
:1007900023E041C01093580131E043C080925801DA
:1007A00082E042C01093590140C0109259013DC0EF
:1007B00094E09B8B3AC01092870137C01093870159
:1007C00034C010935A0131C010925A012EC06235C4
:1007D0007105B9F0633571053CF46035710571F050
:1007E00061357105D1F41FC06435710581F0643540
:1007F000710554F06535710581F40CC0A6E0AB8B32
:1008000014C0B8E0BB8B11C0E9E0EB8B0EC0FAE07E
:10081000FB8B0BC02BE02B8B08C00093570105C04E
:1008200035E03B8B02C087E08B8B8091570188239A
:1008300051F4C601B5014C895D8997010E94B90246
:10084000009709F063CF80915701882309F05AC3BC
:100850001982DE011796E3E6F1E08CE001900D923B
:100860008150E1F710E066247724AA24BB242224D7
:100870005524442433244E010894811C911CC2C089
:1008800080915901882379F06B817C818D819E81D3
:1008900023E333E34BEC51E40E94081AF62EE72ED3
:1008A000D82EC92E04C0FB80EC80DD80CE800A816A
:1008B000003509F47FC0013534F4063481F00C347E
:1008C00009F0A0C096C0033509F48AC003350CF4C2
:1008D00099C0802F8855833008F094C032C0A7019A
:1008E0009601652F7E2D832F9C2D20E030E0A901FD
:1008F0000E94321818161CF094E0909357018091D2
:100900005801813079F4A7019601852F9E2DA32FE0
:10091000BC2D80935F0190936001A0936101B0931F
:10092000620170C0A7019601852F9E2DA32FBC2DBB
:1009300080935B0190935C01A0935D01B0935E0195
:1009400061C080915A01112707FD10958823A1F0FD
:10095000F801E855F040EE0FFF1FEE0FFF1FE80D06
:10096000F91DA7019601852F9E2DA32FBC2D8683EF
:100970009783A087B1871CC008551040000F111F36
:10098000000F111F080D191DD80116966D917D914C
:100990008D919C911997EF2DFE2DAD2DBC2D9F01B2
:1009A000AD010E94BB17F80166837783808791872A
:1009B00011E028C05B814C813D812E81FB89F5309F
:1009C00051F4652F742F832F922F0E94AD1A0E942D
:1009D0009E185B0117C0252E542E432E322E12C0B6
:1009E0006B817C818D819E810E94A3186093880118
:1009F00009C06B817C818D819E810E94AD1A0E940D
:100A00009E183B01CE010296BE016D5F7F4F4C895F
:100A10005D8994010E94B902009709F031CF80915D
:100A20005701882309F06EC22B89263009F452C27F
:100A3000273098F4233009F4B7C0243030F4213043
:100A400009F1223009F053C25CC03B89343009F40B
:100A5000B4C0353009F04BC20FC18B89893009F41D
:100A60003FC28A3038F4873009F436C2883009F042
:100A70003EC234C29B899A3009F434C29B3009F0DB
:100A800036C232C2112309F432C20091870183E0D9
:100A9000089F80011124F801EE0FFF1FEE0FFF1FCA
:100AA000E159FE4F6F81788589859A852081318152
:100AB000428153810E94BB173B014C01F801EE0FAC
:100AC000FF1FEE0FFF1FED58FE4F6B857C858D8558
:100AD0009E8520813181428153810E94BB171B0179
:100AE0002C01F801EE0FFF1FEE0FFF1FE958FE4F1C
:100AF0006F85788989899A892081318142815381E2
:100B0000A9C0112309F4F3C10091870183E0089F74
:100B100080011124F801EE0FFF1FEE0FFF1FE159B6
:100B2000FE4F6F81788589859A8520813181428148
:100B300053810E94BB173B014C01F801EE0FFF1FD0
:100B4000EE0FFF1FED58FE4F6B857C858D859E85D2
:100B500020813181428153810E94BB171B012C01EE
:100B6000F801EE0FFF1FEE0FFF1FE958FE4F6F85D4
:100B7000788989899A8920813181428153810E94B3
:100B8000BB177B018C01A0905B01B0905C01C09011
:100B90005D01D0905E01C401B301A201910180907A
:100BA00088010E94BD0BA3C1622D752D842D932D4C
:100BB000409188010E94070B9AC10E94A9178CE0FE
:100BC000E3E6F1E0DF01282F1D922A95E9F7FE0107
:100BD0003796DF011D928A95E9F760E070E0CB015E
:100BE0009B01AC017B018C010E94610B109287017B
:100BF000EF82F88609871A87EB86FC860D871E87A9
:100C0000EF86F88A098B1A8B60916F0170917001E1
:100C10008091710190917201A80197010E94BB1708
:100C20003B014C01609173017091740180917501D9
:100C300090917601A80197010E94BB171B012C011E
:100C400060917701709178018091790190917A019A
:100C5000A80197010E94BB177B018C01A0905F0146
:100C6000B0906001C0906101D0906201C401B301F5
:100C7000A2019101882495CFB2E0AB16B10408F02F
:100C800036C1E2E06E16710409F09CC0C501880F00
:100C9000991F8A0D9B1D8C01000F111F000F111F42
:100CA00001591E4F2F81388549855A85D8012D93CA
:100CB0003D934D935C9313977C01EE0CFF1CEE0C5F
:100CC000FF1CE3E7F1E0EE0EFF1E2B853C854D8512
:100CD0005E85D7012D933D934D935C9313978F843D
:100CE0009888A988BA88FC01EE0FFF1FEE0FFF1F3E
:100CF000E958FE4F80829182A282B382909187014F
:100D000083E0989F60011124F601EE0FFF1FEE0FA4
:100D1000FF1FE159FE4F6091630170916401809162
:100D200065019091660120813181428153810E9449
:100D3000BB17F80120813181428153810E94BA178B
:100D40006F83788789879A87F601EE0FFF1FEE0F72
:100D5000FF1FED58FE4F609167017091680180910F
:100D6000690190916A0120813181428153810E9401
:100D7000BB17D7012D913D914D915C910E94BA17FF
:100D80006B877C878D879E87F601EE0FFF1FEE0F26
:100D9000FF1FE958FE4F60916B0170916C018091CB
:100DA0006D0190916E0120813181428153810E94B9
:100DB000BB17A50194010E94BA176F87788B898BA6
:100DC0009A8B95C0B4E16B16710409F090C085014F
:100DD000000F111F0A0D1B1D9091870183E0989F42
:100DE000600111247801EE0CFF1CEE0CFF1CEFE6F5
:100DF000F1E0EE0EFF1EF601EE0FFF1FEE0FFF1FDC
:100E0000E159FE4F60916301709164018091650129
:100E10009091660120813181428153810E94BB17EC
:100E2000D7016D937D938D939C9313977801EE0C6E
:100E3000FF1CEE0CFF1CE3E7F1E0EE0EFF1EF601D7
:100E4000EE0FFF1FEE0FFF1FED58FE4F6091670181
:100E5000709168018091690190916A0120813181CE
:100E6000428153810E94BB17D7016D937D938D936F
:100E70009C931397000F111F000F111F09581E4F4D
:100E8000F601EE0FFF1FEE0FFF1FE958FE4F6091B6
:100E90006B0170916C0180916D0190916E012081C8
:100EA0003181428153810E94BB17F80160837183B5
:100EB0008283938380E090E0DC018F839887A98709
:100EC000BA878B879C87AD87BE878F87988BA98BC6
:100ED000BA8B0DC081E009C082E007C083E005C085
:100EE00084E003C085E001C086E00E94080BA3E611
:100EF000B1E0FE0137968CE001900D928150E1F750
:100F00008091570165960FB6F894DEBF0FBECDBF36
:100F1000CF91DF911F910F91FF90EF90DF90CF90D5
:100F2000BF90AF909F908F907F906F905F904F9009
:100F30003F902F9008951F93CF93DF93C0E0D0E0B0
:100F40000E94DC00CF34D10524F082E00E94D2134D
:100F50000CC0813230F0FE01E95DF84F80832196AC
:100F600002C0209769F38A3059F7C95DD84F1882BB
:100F700080915601882301F10E94E113609363017F
:100F80007093640180936501909366010E94F2134F
:100F900060936701709368018093690190936A017F
:100FA0000E94031460936B0170936C0180936D0138
:100FB00090936E01109256010E94DB13882379F101
:100FC00081E091E00E946B010E94D813C82FD0E00D
:100FD000C930D10519F483E091E08EC0C830D10545
:100FE00019F485E091E088C0C730D10519F487E095
:100FF00091E082C0C130D10519F489E091E07CC054
:10100000C230D10519F48BE091E076C0C330D10530
:1010100019F48DE091E070C08FE091E078C080918C
:1010200027078A3219F08E3509F04EC090912607B5
:10103000992309F044C089E297E090937807809360
:1010400077071091280717FD0AC002970E946B01CD
:1010500081E191E00E946B0183E00E94D213E09154
:101060007707F091780780E090E007C0820F911D2C
:101070008038910510F08058904021912223B1F7DB
:101080009695879580589F4F212F30E040912707F4
:101090008217930769F04E3519F480E391E02CC074
:1010A00087E297E00E946B0183E00E94D213A7C001
:1010B0004E3509F0A4C081E080932607A0C08A3293
:1010C00079F5109226072CC087E297E09093780775
:1010D0008093770794C00E945303C82FD0E02097D5
:1010E000F9F0C430D10519F482E391E005C0C530B0
:1010F000D10529F484E391E00E946B0111C0C63050
:10110000D10519F486E391E0F7CF88E391E00E94DE
:101110006B01BE01882777FD8095982F0E941902E8
:1011200010E089B18695869580FD04C08AE391E040
:101130000E946B0189B186958695869580FD04C0D5
:101140008CE391E00E946B01309B1AC086B18695BA
:1011500080FF16C086B18695869580FF11C086B146
:1011600086958695869580FF0BC086B182958F7097
:1011700080FF06C086B182958695877080FD21C06C
:10118000309904C08EE391E00E946B0186B1869590
:1011900080FD04C081E491E00E946B0186B18695D8
:1011A000869580FD04C084E491E00E946B0186B1C5
:1011B00086958695869580FD04C087E491E00E941F
:1011C0006B011123A1F08AE491E00E946B010E945F
:1011D000E1130E9439028CE491E00E946B010E94AD
:1011E000F2130E9439028EE790E00E947F018EE4A4
:1011F00091E00E946B01DF91CF911F910895809142
:10120000770790917807FC0120812F3309F063CF95
:1012100011E087CF81E08093560108952F923F928D
:101220004F925F926F927F928F929F92AF92BF92F6
:10123000CF92DF92EF92FF920F931F93DF93CF93A2
:10124000CDB7DEB762970FB6F894DEBF0FBECDBF45
:101250009A8B898B5A016B0138014901FC01628923
:101260007389848995890E94CF187B018C01A6011E
:1012700095010E94081A0E941F180E94A3185B0182
:101280006C01E989FA8961A772A783A794A7C801AD
:10129000B701A40193010E94081A0E941F180E941E
:1012A000A3181B012C01E989FA8965A776A787A7EE
:1012B00090AB61A972A983A994A920E737E140E026
:1012C00050E00E94BB1A6D837E838F839887C6018E
:1012D000B5010E94CF185B016C016D817E818F8109
:1012E00098850E94D11869837A838B839C83C80177
:1012F000B701A80197010E94081A962E872E782E12
:10130000692EC601B501A60195010E94081A6987D8
:101310007A878B879C8769817A818B819C819B01ED
:10132000AC010E94BB176D877E878F87988BA401C5
:101330009301652F742F832F922FB985AA85EB8493
:10134000AC842B2F3A2F4E2D5A2D0E94BA17BD85F3
:10135000AE85EF84A8882B2F3A2F4E2D5A2D0E9450
:1013600036180E941F180E949E18E62EF72E082F8E
:10137000192FC201B1010E94CF189B01AC010E943C
:10138000081A262E572E482E392ED401F3012B2F62
:101390003A2F4F2F5E2F0E94BA175B016C016D81AF
:1013A0007E818F81988590958095709561957F4F0E
:1013B0008F4F9F4F0E94D1189B01AC010E94BB1719
:1013C0009B01AC01C601B5010E9436180E940C19A0
:1013D000E989FA89A684B784C088D1883501460195
:1013E0006E187F08800A910A0E949E18661A770A72
:1013F000880A990A97FE49C0C601B5010E94D11812
:101400009B01AC01BD85AE85EF8498886B2F7A2F48
:101410008E2D992D0E94081AB985AA85EB849C848B
:101420002B2F3A2F4E2D592D0E94BA17222D352DD4
:10143000442D532D0E94BB177B018C0169817A8159
:101440008B819C8120E030E040E850E40E94081A43
:101450009B01AC01C801B7010E9436180E941F18F9
:101460000E949E18E62EF72E082F192F17FF03C093
:10147000EE24FF248701AE14BF04C006D10614F485
:1014800086017501662477244301E989FA89E5AA72
:10149000F6AA07AB10AF6E0C7F1C801E911E61AECA
:1014A00072AE83AE94AE62960FB6F894DEBF0FBEF6
:1014B000CDBFCF91DF911F910F91FF90EF90DF9003
:1014C000CF90BF90AF909F908F907F906F905F90E4
:1014D0004F903F902F900895AF92BF92CF92DF929E
:1014E000EF92FF920F931F937B018C0159016A01C8
:1014F000A80197010E94081A7B018C01C601B50161
:1015000020E03AEB4BE55AEC0E94081A9B01AC0133
:10151000C801B7010E94BA170E946F1A1F910F915C
:10152000FF90EF90DF90CF90BF90AF9008956F92B3
:101530007F928F929F92AF92BF92CF92DF92EF9263
:10154000FF920F931F93CF93DF938C01EB01FC016C
:1015500080A5882309F04CC0628C738C848C958C98
:10156000DA8CCB8CBC8CAD8CC401B301D601F501F7
:101570002B2F3A2F4F2F5E2F0E94321887FF38C033
:10158000F80122A133A144A155A1C401B3010E94D5
:101590006C0A8B01F82EE92EA6019501652F742F98
:1015A000832F922FF701202F312F4F2F5E2F0E9474
:1015B000321887FF03C00D2D1C2D7501A601950162
:1015C000652F7C2D832F9A2DF701202F312F4F2F40
:1015D0005E2D0E943218882359F09701802F912F99
:1015E000A32FBE2D8A8F9B8FAC8FBD8F81E08FA3E1
:1015F000DF91CF911F910F91FF90EF90DF90CF90EF
:10160000BF90AF909F908F907F906F9008950895B6
:101610002091A6012F5F203109F420E0332727FD18
:1016200030954091A70150E042175307D1F36091E4
:10163000A60170E04DE350E0649FF001659FF00D5E
:10164000749FF00D1124E855FE4F80832093A6016E
:101650000E94B31308952091A6019091A70181E003
:10166000291709F480E008959091A6018091A701BF
:10167000981779F04091A70150E08DE390E0489FE2
:101680009001499F300D589F300D112428553E4F31
:1016900002C020E030E0C90108959091A601809138
:1016A000A701981741F08091A7018F5F803109F45D
:1016B00080E08093A70108951092A6011092A701DF
:1016C0000895AF92BF92CF92DF92EF92FF920F9365
:1016D0001F93CF93DF9359016A012DEC3BE343E065
:1016E00052E40E94081A0E94D819CAE8D1E0609317
:1016F0008A0170938B0180938C0190938D01C601B8
:10170000B5012DEC3BE343E052E40E94081A0E942D
:10171000D819FE01349660938E017183828393837E
:10172000C801B7012DEC3BE343E052E40E94081AE4
:101730000E94D81928966093920179838A839B83AB
:1017400080E090E0DC018093960190939701A09354
:101750009801B09399018CE0EAE9F1E0DF011D9274
:101760008A95E9F7DF91CF911F910F91FF90EF904C
:10177000DF90CF90BF90AF9008952F923F924F92FD
:101780005F926F927F928F929F92AF92BF92CF9211
:10179000DF92EF92FF920F931F93DF93CF93CDB71A
:1017A000DEB7A5970FB6F894DEBF0FBECDBF190107
:1017B0002A01AE8EBF8EC8A2D9A22DEC3BE343E036
:1017C00052E40E94081A0E94D81969877A878B8789
:1017D0009C87C201B1012DEC3BE343E052E40E943F
:1017E000081A0E94D8196D877E878F87988BC80149
:1017F000B7012DEC3BE343E052E40E94081A0E943B
:10180000D819698B7A8B8B8B9C8B8091A6018F5F0B
:10181000803109F480E0E82EFF24E7FCF094FCA27C
:10182000EBA28091A70190E00BA11CA1801791076A
:10183000C1F3809189018823A1F00E94E1135B012B
:101840006C010E94F2131B012C010E9403147B0106
:101850008C01C601B501A20191010E94610B109299
:1018600089018091A601282F30E03A8329838DE3F6
:1018700090E0289FF001299FF00D389FF00D112472
:10188000E855FE4F108286A2158680918A019091BC
:101890008B01A0918C01B0918D01E984FA840B85B4
:1018A0001C85E816F9060A071B0714F428E02587AB
:1018B00020918E0130918F014091900150919101C2
:1018C000ED84FE840F851889E216F30604071507D8
:1018D00084F46DE370E009811A81069FF001079F8F
:1018E000F00D169FF00D1124E855FE4F65856061DF
:1018F0006587609092017090930180909401909020
:101900009501E988FA880B891C89E614F704080513
:10191000190584F46DE370E009811A81069FF001D6
:10192000079FF00D169FF00D1124E855FE4F6585B9
:1019300060626587E984FA840B851C85E81AF90AD8
:101940000A0B1B0BC801B701ADE3B0E009811A8196
:101950000A9FF0010B9FF00D1A9FF00D1124E8551E
:10196000FE4F7B018C0197FF07C0EE24FF24870107
:10197000E61AF70A080B190BE182F282038314833B
:10198000AD84BE84CF84D888A21AB30AC40AD50A0B
:101990002DE330E049815A81429FF001439FF00DD1
:1019A000529FF00D1124E855FE4FA6019501D7FE78
:1019B00007C022273327A9012A193B094C095D09D1
:1019C0002583368347835087E988FA880B891C89E9
:1019D000E618F7080809190937014801A801970115
:1019E00017FF07C022273327A9012E193F09400BF3
:1019F000510BADE3B0E009811A810A9FF0010B9F02
:101A0000F00D1A9FF00D1124E855FE4F2187328703
:101A1000438754872580368047805084E180F28058
:101A200003811481E214F3040405150510F4820106
:101A30007101ED82FE820F831887E216F306040718
:101A4000150720F42D833E834F8358872DE330E024
:101A500049815A81429F2001439F500C529F500C54
:101A60001124A8EAB1E04A0E5B1EED80FE800F81D2
:101A70001885D2011E96ED92FD920D931C935197FD
:101A8000E114F1040105110509F401C40E94D11803
:101A90002DEC3BE343E052E40E943618362E7D8B5A
:101AA0008E8B9F8BC601B5010E94D1182DEC3BE3B4
:101AB00043E052E40E943618688F798F8A8F9B8F9B
:101AC000C401B3010E94D1182DEC3BE343E052E482
:101AD0000E943618762E7C8F8D8F9AA34D893E8971
:101AE0002F89632D742F832F922FF901232D342FEB
:101AF0004F2F5E2F0E94081A7B018C01588D498D53
:101B00003A8D2B8D652F742F832F922FDA01F901D7
:101B10002B2F3A2F4F2F5E2F0E94081A9B01AC01EA
:101B2000C801B7010E94BB177B018C014C8D3D8D14
:101B30002AA1672D742F832F922FF901272D342F7F
:101B40004F2F5E2F0E94081A9B01AC01C801B701FC
:101B50000E94BB170E946F1A5B016C01F20162A325
:101B600073A384A395A360E070E080E89FE3A601DF
:101B700095010E943618F62E072F182FE92E6E8D2C
:101B80007F8D88A199A12F2D302F412F5E2D0E948E
:101B9000081A962E872E682E292E92012A5E3F4F14
:101BA0003F8F2E8FC601B501D4012B2F3A2F462D22
:101BB000522D0E94081AD20156966D937D938D93F3
:101BC0009C9359976D817E818F8198850E94D11851
:101BD0005B016C01D4012B2F3A2F462D522D0E9410
:101BE000081A0E941F180E94A318F201628B738BBF
:101BF000848B958BC601B5012F2D302F412F5E2D83
:101C00000E94081A20E03AEB4BED59E40E94081AB2
:101C100020E030E84BEB55E40E9436180E941F1874
:101C20000E949E18D201D1966D937D938D939C93C3
:101C3000D4974D893E892F89632D742F832F922F3E
:101C40002F2D302F412F5E2D0E94081A6D837D8B22
:101C50008E8B9F8B588D498D3A8D2B8D652F742FD0
:101C6000832F922F2F2D302F412F5E2D0E94081A87
:101C7000688F798F8A8F9B8F4C8D3D8D2AA1672D20
:101C8000742F832F922F2F2D302F412F5E2D0E94E6
:101C9000081A362E272E8C8F9D8F9091A601809149
:101CA000A701981709F4D4C09090960180909701ED
:101CB0007090980160909901A4019301652F742F91
:101CC000832F922F20E030E0A9010E94D41918162A
:101CD0000CF0BEC060919A0170919B0180919C01B3
:101CE00090919D019058BD81AD89FE89EF892B2F80
:101CF0003A2F4F2F5E2F0E94081A7B018C01588DBE
:101D0000498D3A8D2B8D652F742F832F922F209123
:101D10009E0130919F014091A0015091A1010E942C
:101D2000081A9B01AC01C801B7010E94BA177B01D8
:101D30008C01A1013C8D2D8D652F742F832F922F47
:101D40002091A2013091A3014091A4015091A501DD
:101D50000E94081A9B01AC01C801B7010E94BA1782
:101D6000C62EA72ED82EB92E23E333E343E75FE335
:101D70000E94321887FF6CC0F201F688AE8DBF8DCD
:101D80001196EC90119712961C91129713960C9144
:101D9000A4019301652F742F832F922FD701F8018F
:101DA0002B2F3A2F4F2F5E2F0E94321887FF02C031
:101DB000740183016C2D7A2D8D2D9B2D23E333E34C
:101DC00043E75FEB0E94D41918160CF048C060E09E
:101DD00070E080E89FE32C2D3A2D4D2D5B2D0E9465
:101DE000BA1720E030E040E05FE30E94081A0E944A
:101DF0006F1A5B016C0120E030EA4CE856E40E9467
:101E0000081A3B014C0160E070E080E89FE3A60106
:101E100095010E94BA179B01AC01C401B3010E9455
:101E200036180E946F1AD62EC72EB82EA92EA701DB
:101E30009801652F7E2D832F902FD601F5012B2F32
:101E40003A2F4F2F5E2F0E94321887FD08C005C021
:101E5000FF24EE2410E000E002C0760185018DE34E
:101E600090E029813A81289FF001299FF00D389F49
:101E7000F00D1124E855FE4FA7019801852F9E2DE6
:101E8000A32FB02F868F978FA0A3B1A322A133A138
:101E900044A155A160E070E0CB010E946C0A5B0197
:101EA000982E692EA7019801652F7E2D832F902FE4
:101EB0002A2D3B2D492D562D0E94321887FD04C036
:101EC000FA2CEB2C192D062D8DE390E049815A81D7
:101ED000489F6001499FD00C589FD00C112488EA7C
:101EE00091E0C80ED91EA7019801852F9E2DA32F22
:101EF000B02FF601828F938FA48FB58F6689778973
:101F0000808D918D2A2D3B2D492D562D0E94321802
:101F1000181634F081E0D60198968C93989702C0F9
:101F2000F60110A68DE390E0E980FA80E89EF001CA
:101F3000E99EF00DF89EF00D1124E855FE4F81E06A
:101F400087A35D814D893E892F89852F942FA32FEB
:101F5000B22F80939A0190939B01A0939C01B09320
:101F60009D01588D498D3A8D2B8D852F942FA32F50
:101F7000B22F80939E0190939F01A093A001B093F4
:101F8000A101A1013C8D2D8D852F922DA32FB22F64
:101F90008093A2019093A301A093A401B093A50103
:101FA00086899789A08DB18D809396019093970132
:101FB000A0939801B0939901FBA0F092A601098526
:101FC0001A852B853C8500938A0110938B01209301
:101FD0008C0130938D012D853E854F855889209346
:101FE0008E0130938F014093900150939101898924
:101FF0009A89AB89BC898093920190939301A093B5
:102000009401B0939501F090A601E0E0F0E000E0CB
:1020100010E04424439472C0FF2011F430E1F32E09
:10202000FA948F2D992787FD9095ADE3B0E08A9FB4
:1020300040018B9F900C9A9F900C112428EA31E06C
:10204000820E931E0115110509F456C0309709F44C
:1020500053C0D80198968C919897882309F03FC077
:102060005E967C905E975F966C905F9790965C9082
:10207000909791963C90A28CB38CC48CD58CA30184
:10208000652F742F852D932DA60195010E94D419DB
:1020900018162CF5F80122A133A144A155A1C601BF
:1020A000B5010E946C0AE62ED72EC82EB92EA301C8
:1020B000652F742F852D932DAC2DBB2D2E2D3D2DF1
:1020C000AD010E94321887FF04C0E72CD62CC52C26
:1020D000B32C8E2D9D2DAC2DBB2DF80105C0F80124
:1020E000868D978DA0A1B1A1828F938FA48FB58F7C
:1020F000D80197964C929797F80184018091A70197
:102100002F2D332727FD309590E02817390709F048
:1021100083CF4091A70100E010E080E090E02DE344
:10212000C22ED12C1BC02C9D70012D9DF00C3C9D0E
:10213000F00C1124E8EAF1E0EE0EFF1E009741F0EA
:102140000115110529F0B8014DA30E94970A4DA170
:102150004F5F403109F440E0C80187016091A6015A
:10216000242F332727FD309570E026173707D9F63F
:10217000009731F00115110519F0B8010E94970A76
:10218000C090A701EE24FF248DE3282E312C4FC0F0
:10219000029D5001039DB00C129DB00C112428EA41
:1021A00031E0A20EB31EE114F104D9F1D7019796E4
:1021B0008C919797882321F4F50187A1882389F1D1
:1021C000D70156966D907D908D909C9059975A9618
:1021D0006D917D918D919C915D97A40193010E94D9
:1021E000361869837A838B839C83029DF001039D5B
:1021F000F00D129DF00D1124E855FE4F628D738D88
:10220000848D958DA40193010E9436188B019C0149
:10221000C70149815A816B817C810E940E09F701B7
:1022200017A2C394FC2DF03109F4CC2475018091E0
:10223000A6010C2D112707FD109590E0081719072E
:1022400009F0A6CFD7015696AD90BD90CD90DC9009
:1022500059975A966D917D918D919C915D97A601AC
:1022600095010E9436183B014C0160E070E0CB0103
:10227000A60195010E9436188B019C01C701B4018B
:10228000A3010E940E09F70117A20E94B313A5969D
:102290000FB6F894DEBF0FBECDBFCF91DF911F9177
:1022A0000F91FF90EF90DF90CF90BF90AF909F90F5
:1022B0008F907F906F905F904F903F902F900895F8
:1022C000DF92EF92FF920F931F931092A60110924C
:1022D000A7014CE0D42EEAE8F1E0DF018D2D1D923C
:1022E0008A95E9F760E070E080EA90E49B01AC0138
:1022F0000F2EF0E0EF2EF0E0FF2EF0E00F2FF0E0D9
:102300001F2FF02D0E94610B10928901EAE9F1E084
:10231000DF011D92DA94E9F7E0929601F0929701BD
:1023200000939801109399011F910F91FF90EF90E6
:10233000DF90089581E08093890108958AB1837FB9
:102340008AB987B1807C87B9089587BD08958823AD
:1023500011F05C9A08955C980895882311F05F9AB3
:1023600008955F980895882311F05D9A08955D9807
:102370000895569A17BC84B5806884BD84B5816081
:1023800084BD84E085BD549A579A80E00E94A711CD
:1023900080E00E94AD11559A80E00E94B31108952B
:1023A0008091A1059091A205A091A305B091A405EB
:1023B00020918D0530918E0540918F0550919005AB
:1023C000820F931FA41FB51F80938D0590938E05D8
:1023D000A0938F05B0939005813021E7920722E00A
:1023E000A20720E0B20770F080509147A240B040B1
:1023F00080938D0590938E05A0938F05B0939005E3
:1024000081E0089580E00895AF92BF92CF92DF926D
:10241000EF92FF920F931F93CF93DF937B018C0179
:1024200080E4E81686E0F80680E0080780E01807F8
:1024300030F4F0E4EF2EF6E0FF2E012D112D60E0D8
:1024400070E788E399E3A80197010E94DA1A203027
:1024500080E0380781E0480780E0580730F4C90180
:10246000A0E0B0E040E050E02FC0203080E038072E
:1024700088E0480780E05807A0F4E3E056954795C8
:1024800037952795EA95D1F7C901A0E0B0E073E050
:10249000880F991FAA1FBB1F7A95D1F741E050E022
:1024A00013C066E056954795379527956A95D1F7FD
:1024B000C901A0E0B0E046E0880F991FAA1FBB1F2A
:1024C0004A95D1F742E050E0609181004F5F687F0C
:1024D000462B40938100309389002093880080939D
:1024E000A1059093A205A093A305B093A405C09164
:1024F0008705D09188056EA170E0882777FD8095CB
:10250000982F0E94D1185B016C01C801B7010E948D
:10251000CF187B018C016A897B898C899D890E94F7
:10252000CF189B01AC01C801B7010E9436189B016E
:10253000AC01C601B5010E94081A0E94A318862F9B
:10254000662309F481E00E94A511DF91CF911F91CC
:102550000F91FF90EF90DF90CF90BF90AF900895D4
:102560002F923F924F925F926F927F928F929F92A3
:10257000AF92BF92CF92DF92EF92FF920F931F9391
:10258000DF93CF9300D000D0CDB7DEB7382EDB017C
:10259000CA010597A109B10989839A83AB83BC83DA
:1025A000332011F48BE301C083E018E3182795B1C1
:1025B000812F8873977C892B85B906E0702EB6E051
:1025C0006B2E5524539444244394AFE32A2E86B1B2
:1025D00031108225442049F080FD07C0662021F497
:1025E00091E01927442401C06A94552049F082FDE6
:1025F00007C0772021F4A2E01A27552401C07A945D
:10260000442019F4552009F48BC085B1912F97709F
:10261000892B85B98AE18A95F1F785B1892785B932
:1026200069817A818B819C810E94CF184B015C016A
:102630002BEA3AEA4AEA50E40E94081A062FF72EDB
:10264000E82ED92E20E030E040E85FE30E94321807
:1026500087FD62C0602F7F2D8E2D9D2D20E030E004
:102660004FE753E40E94D41918160CF04EC0C50170
:10267000B40120E030E04AE754E40E943618C62E48
:10268000B72EA82E892E20E030E04AE755E40E94BC
:10269000081A062FF72EE82ED92E20E030E040E869
:1026A0005FE30E94321887FD2AC0602F7F2D8E2D98
:1026B0009D2D20E03FEF4FE757E40E94D4191816F4
:1026C000BCF46C2D7B2D8A2D982D20E030E040E26B
:1026D00051E40E94081A0E94A31806C080E991E004
:1026E0000197F1F76150704061157105B9F76FCF2F
:1026F000602F7F2D8E2D9D2D0E94A31802C061E0BA
:1027000070E0CB010197F1F762CF602F7F2D8E2D06
:102710009D2D0E94A31801C061E06A95F1F757CF83
:102720008CE0E8E7F5E0DF011D928A95E9F70F906C
:102730000F900F900F90CF91DF911F910F91FF900D
:10274000EF90DF90CF90BF90AF909F908F907F9051
:102750006F905F904F903F902F9008958091A605C5
:102760008111FFCF08958091A605882359F481E057
:102770008093A60588E38093860580916F00826030
:1027800080936F0008951092A6051092880510920C
:102790008705EFE6F0E080818D7F808380E00E94F6
:1027A000A51108958093A50581E08093850508957E
:1027B0008091A5050895809185050895109285055D
:1027C0000895609178057091790580917A059091CE
:1027D0007B050E94D1182DEC3BE343E052E40E94BC
:1027E0003618089560917C0570917D0580917E0575
:1027F00090917F050E94D1182DEC3BE343E052E419
:102800000E9436180895609180057091810580912D
:102810008205909183050E94D1182DEC3BE343E0A3
:1028200052E40E94361808956F927F928F929F9281
:10283000AF92BF92CF92DF92EF92FF920F931F93CE
:102840005B016C0139014A010E94AE13C601B5015A
:102850002DEC3BE343E052E40E94081A20E030E014
:1028600040E05FE30E94BB170E940C190E949E1873
:10287000609378057093790580937A0590937B0532
:10288000C401B3012DEC3BE343E052E40E94081A7B
:1028900020E030E040E05FE30E94BB170E940C198B
:1028A0000E949E1860937C0570937D0580937E0541
:1028B00090937F05C801B7012DEC3BE343E052E460
:1028C0000E94081A20E030E040E05FE30E94BB175E
:1028D0000E940C190E949E186093800570938105D8
:1028E00080938205909383051F910F91FF90EF9045
:1028F000DF90CF90BF90AF909F908F907F906F9020
:102900000895EF92FF920F931F9384B18F6384B960
:1029100085B1807C886385B9E1E8F0E080818F7EB5
:102920008083808188608083E0E8F0E080818D7F13
:10293000808380818E7F808380818F73808380817C
:102940008F7C80831092B0001092B100E0E7F0E03D
:1029500080818160808360E476E080E090E00E9486
:1029600004128CE0E8E7F5E0DF011D928A95E9F7B3
:1029700060E070E080EA90E49B01AC010F2EF0E093
:10298000EF2EF0E0FF2EF0E00F2FF0E01F2FF02DE4
:102990000E94141410928D0510928E0510928F05CE
:1029A0001092900510928805109287051092850567
:1029B0001092A505109284050E94C3131F910F91D8
:1029C000FF90EF9008951F920F920FB60F9211246F
:1029D0008F9385B1887F85B91092B1008F910F9048
:1029E0000FBE0F901F9018951F920F920FB60F9267
:1029F00011242F933F934F935F936F937F938F9304
:102A00009F93AF93BF93CF93DF93EF93FF93809107
:102A10008405882309F08AC281E08093840580912F
:102A20008505882349F00E94C3130E945C0B0E9415
:102A30009A110E940A0978C2309B1AC086B1869505
:102A400080FF16C086B18695869580FF11C086B13D
:102A500086958695869580FF0BC086B182958F708E
:102A600080FF06C086B182958695877080FD07C07D
:102A700088E08093A50581E08093850555C295B1D6
:102A800020918605822F8873977C892B85B985B123
:102A9000887F822B85B98AEF8093B20082E0809391
:102AA000B10078948091870590918805009709F08E
:102AB0005DC00E94340BFC019093880580938705CC
:102AC000009719F40E94C3132FC28081882309F054
:102AD0004DC061A572A583A594A5609389057093E7
:102AE0008A0580938B0590938C0520E838E341E0BC
:102AF00050E020938D0530938E0540938F055093C1
:102B000090050E940412E0918705F0918805868562
:102B10009785A089B189B595A79597958795B09523
:102B2000A095909581959F4FAF4FBF4F8093910592
:102B300090939205A0939305B09394058093950587
:102B400090939605A0939705B09398058093990567
:102B500090939A05A0939B05B0939C0510929D05B8
:102B600010929E0510929F051092A005C0918705B6
:102B7000D09188058881833009F4C5C1843038F448
:102B8000813009F4BAC1823008F0B9C10AC0853079
:102B900009F4BFC1853008F4B8C1863009F0C4C15A
:102BA000BAC16D85609386058091910590919205DB
:102BB000A0919305B091940529813A814B815C8164
:102BC000820F931FA41FB51F8093910590939205C8
:102BD000A0939305B0939405181619061A061B06C0
:102BE0007CF56160609386052E853F85488959890B
:102BF000821B930BA40BB50B8093910590939205C8
:102C0000A0939305B093940566956695669580911B
:102C1000780590917905A0917A05B0917B0560FFC8
:102C200004C00197A109B10903C00196A11DB11DFE
:102C30008093780590937905A0937A05B0937B05EE
:102C40008091950590919605A0919705B091980572
:102C50002D813E814F815885820F931FA41FB51F80
:102C60008093950590939605A0939705B09398054A
:102C7000181619061A061B0684F56091860562600F
:102C8000609386052E853F8548895989821B930B61
:102C9000A40BB50B8093950590939605A09397058B
:102CA000B093980562956F7080917C0590917D0539
:102CB000A0917E05B0917F0560FF04C00197A10936
:102CC000B10903C00196A11DB11D80937C059093AD
:102CD0007D05A0937E05B0937F0580919905909125
:102CE0009A05A0919B05B0919C0529853A854B8555
:102CF0005C85820F931FA41FB51F80939905909345
:102D00009A05A0939B05B0939C05181619061A0600
:102D10001B068CF5609186056460609386052E85A0
:102D20003F8548895989821B930BA40BB50B80936F
:102D3000990590939A05A0939B05B0939C05629585
:102D4000669567708091800590918105A0918205BC
:102D5000B091830560FF04C00197A109B10903C0C8
:102D60000196A11DB11D8093800590938105A093CC
:102D70008205B093830580919D0590919E05A09159
:102D80009F05B091A0050196A11DB11D80939D05E1
:102D900090939E05A0939F05B093A0052091860572
:102DA00038E32327209386052E853F854889598956
:102DB00082179307A407B50708F0B0C02DA93EA954
:102DC0004FA958AD82179307A407B50740F50E9495
:102DD000D011882309F4A8C089A99AA9ABA9BCA9D4
:102DE0002091890530918A0540918B0550918C0581
:102DF000820F931FA41FB51F8093890590938A05A6
:102E0000A0938B05B0938C052A893B894C895D89F9
:102E1000281739074A075B0708F04AC041C029ADA7
:102E20003AAD4BAD5CAD82179307A407B50769F4C3
:102E300080E898E3A1E0B0E080938D0590938E0543
:102E4000A0938F05B09390056FC082179307A407D6
:102E5000B507B8F10E94D011882309F465C08091AC
:102E6000890590918A05A0918B05B0918C0529A9BF
:102E70003AA94BA95CA9821B930BA40BB50B8093B9
:102E8000890590938A05A0938B05B0938C052DA599
:102E90003EA54FA558A982179307A407B50740F48C
:102EA0002093890530938A0540938B0550938C05B8
:102EB0006091890570918A0580918B0590918C05B0
:102EC00019C06A897B898C899D89209189053091F7
:102ED0008A0540918B0550918C05261737074807C6
:102EE000590711F16093890570938A0580938B05CA
:102EF00090938C050E94041217C081E001C080E00D
:102F00000E94A7110BC081E001C080E00E94AD11BA
:102F100005C081E001C080E00E94B31110928805D5
:102F2000109287050E944D0B10928405FF91EF913E
:102F3000DF91CF91BF91AF919F918F917F916F91D1
:102F40005F914F913F912F910F900FBE0F901F9067
:102F500018950E94AE1380E048E552E060E070E012
:102F60000E94B01281E040E157E260E070E00E9410
:102F7000B01208955058BB27AA270ED0C4C1B5D1AE
:102F800030F0BAD120F031F49F3F11F41EF4AAC101
:102F90000EF4E095E7FB77C1E92FC6D180F3BA17AD
:102FA000620773078407950718F071F49EF5F5C161
:102FB0000EF4E0950B2EBA2FA02D0B01B901900154
:102FC0000C01CA01A0011124FF27591B99F0593F98
:102FD00050F4503E68F11A16F040A22F232F342FE0
:102FE0004427585FF3CF469537952795A795F0402E
:102FF0005395C9F77EF41F16BA0B620B730B840B43
:10300000BAF09150A1F0FF0FBB1F661F771F881FFA
:10301000C2F70EC0BA0F621F731F841F48F4879552
:1030200077956795B795F7959E3F08F0B3CF939541
:10303000880F08F09927EE0F97958795089596D1F8
:1030400080F09F3740F491110EF4A8C160E070E069
:1030500080E89FE3089526F01B16611D711D811DF8
:1030600018C132C1ECD008F481E008950CD04BC1F6
:1030700043D140F03AD130F021F45F3F19F003C161
:1030800051118CC12FC150D198F39923C9F3552305
:10309000B1F3951B550BBB27AA276217730784074B
:1030A00038F09F5F5F4F220F331F441FAA1FA9F301
:1030B00033D00E2E3AF0E0E830D091505040E695F3
:1030C000001CCAF729D0FE2F27D0660F771F881F54
:1030D000BB1F261737074807AB07B0E809F0BB0B43
:1030E000802DBF01FF2793585F4F2AF09E3F510567
:1030F00068F0C9C053C15F3FECF3983EDCF386959E
:1031000077956795B795F7959F5FC9F7880F911DDC
:103110009695879597F90895E1E0660F771F881FC8
:10312000BB1F621773078407BA0720F0621B730B7B
:10313000840BBA0BEE1F88F7E095089504D06894CD
:10314000B1112CC10895F8D088F09F5790F0B92F95
:103150009927B751A0F0D1F0660F771F881F991FEC
:103160001AF0BA95C9F712C0B13081F016D1B1E0AA
:10317000089513C1672F782F8827B85F39F0B93FBA
:10318000CCF3869577956795B395D9F73EF49095EE
:103190008095709561957F4F8F4F9F4F0895E8946C
:1031A00009C097FB3EF490958095709561957F4F8F
:1031B0008F4F9F4F9923A9F0F92F96E9BB2793953D
:1031C000F695879577956795B795F111F8CFFAF44D
:1031D000BB0F11F460FF1BC06F5F7F4F8F4F9F4F7E
:1031E00016C0882311F096E911C0772321F09EE8DC
:1031F000872F762F05C0662371F096E8862F70E042
:1032000060E02AF09A95660F771F881FDAF7880F1B
:103210009695879597F90895A9D080F09F3740F447
:1032200091110EF0BBC060E070E080E89FEB089564
:1032300026F41B16611D711D811D2BC045C0990F01
:103240000008550FAA0BE0E8FEEF16161706E80770
:10325000F907C0F012161306E407F50798F0621B91
:10326000730B840B950B39F40A2661F0232B242B66
:10327000252B21F408950A2609F4A140A6958FEF85
:10328000811D811D089597F99F6780E870E060E0D7
:103290000895882371F4772321F09850872B762F97
:1032A00007C0662311F499270DC09051862B70E05A
:1032B00060E02AF09A95660F771F881FDAF7880F6B
:1032C0009695879597F908959F3F31F0915020F496
:1032D000879577956795B795880F911D96958795F2
:1032E00097F908959FEF80EC089500240A9416162C
:1032F000170618060906089500240A9412161306E4
:10330000140605060895092E0394000C11F4882371
:1033100052F0BB0F40F4BF2B11F460FF04C06F5F8D
:103320007F4F8F4F9F4F089557FD9058440F551F63
:1033300059F05F3F71F04795880F97FB991F61F037
:103340009F3F79F087950895121613061406551FAE
:10335000F2CF4695F1DF08C0161617061806991F1A
:10336000F1CF86957105610508940895E5DFA0F019
:10337000BEE7B91788F4BB279F3860F41616B11D55
:10338000672F782F8827985FF7CF86957795679571
:10339000B11D93959639C8F30895E894BB27662725
:1033A0007727CB0197F908954ADF08F48FEF089546
:1033B000C3DF58F19E5758F19851A0F0E9F09830CA
:1033C00020F5092E9927660F771F881F991F0A94E9
:1033D000D1F712C0062E672F782F8827985F11F437
:1033E000000C07C0993FB4F3869577956795939540
:1033F000D9F7611D711D811D3EF4909580957095E2
:1034000061957F4F8F4F9F4F08956894C7CFC5CF69
:103410000BD079CF6ADF28F06FDF18F0952309F021
:1034200032CF60CF1124BACF7FDFA0F3959FD1F3C5
:10343000950F50E0551F629FF001729FBB27F00D62
:10344000B11D639FAA27F00DB11DAA1F649F6627B7
:10345000B00DA11D661F829F2227B00DA11D621F06
:10346000739FB00DA11D621F839FA00D611D221FC0
:10347000749F3327A00D611D231F849F600D211DA4
:10348000822F762F6A2F11249F5750408AF0E1F047
:1034900088234AF0EE0FFF1FBB1F661F771F881F90
:1034A00091505040A9F79E3F510570F0ECCE76CF79
:1034B0005F3FECF3983EDCF3869577956795B7957B
:1034C000F795E7959F5FC1F7FE2B880F911D9695A5
:1034D000879597F9089511F40EF404CFF5CE2CDFFB
:1034E000D0F39923D9F3CEF39F57550B87FF3CD0E8
:1034F0000024A0E640EA900180585695979528F45C
:10350000805C660F771F881F20F026173707480753
:1035100030F4621B730B840B202931294A2BA695AA
:1035200017940794202531254A2758F7660F771FEF
:10353000881F20F026173707480730F4620B730BFB
:10354000840B200D311D411DA09581F7B901842FF9
:103550009158880F96958795089508DF20F09F373A
:1035600008F41CCF96CEB0CE91505040660F771F16
:10357000881FD2F70895629FD001739FF001829F48
:10358000E00DF11D649FE00DF11D929FF00D839FF2
:10359000F00D749FF00D659FF00D9927729FB00D8F
:1035A000E11DF91F639FB00DE11DF91FBD01CF01A2
:1035B00011240895A1E21A2EAA1BBB1BFD010DC008
:1035C000AA1FBB1FEE1FFF1FA217B307E407F507D3
:1035D00020F0A21BB30BE40BF50B661F771F881FAF
:1035E000991F1A9469F760957095809590959B0145
:1035F000AC01BD01CF010895A1E0B0E0E2E0FBE144
:103600000C949A1C5B016115710521F0DB018C9310
:1036100011969C93482F592F6A01F601E1906F0192
:103620008F018E2D90E00E94731C0097B1F7FE2D44
:10363000FD3229F4D601ED908D0121E007C0BE2DA9
:10364000BB3219F4F601E1908F0120E06801089483
:10365000C108D108C60166E870E043E050E0298364
:103660000E947B1C2981009711F572E0E72EF12C56
:10367000E00EF11EC70169E870E045E050E00E94ED
:103680007B1C2981009729F467E0E62EF12CE00EDF
:10369000F11EA114B10421F0D5011196FC92EE9215
:1036A00020FF0FC130E020E090E88FEF12C1C6018B
:1036B0006EE870E043E050E029830E947B1C298182
:1036C000009731F060E070E0CB01662477240AC0F7
:1036D000A114B10409F4F9C00E5F1F4FF501118365
:1036E0000083F3C03E2D30533A30A0F52260E22F24
:1036F000F0E0AF014870507022FF07C0411551053E
:1037000071F50894611C711C2AC04115510519F00E
:103710000894610871086B017C0152E0CC0CDD1C3F
:10372000EE1CFF1C5A95D1F76C0D7D1D8E1D9F1D43
:10373000660F771F881F991F630F711D811D911DD3
:103740006839F9E97F07F9E98F07F9E19F0738F050
:10375000246005C03E3F39F423FD3FC02860D801F6
:10376000ED908D01BFCF353311F03531B1F5F80152
:1037700031913D3211F4206102C03B3241F4D80155
:1037800011963C911197319642E050E002C041E021
:1037900050E030533A3020F08F01041B150B1DC050
:1037A00040E050E0BCE040385B075CF4DA01AA0F6F
:1037B000BB1FAA0FBB1F4A0F5B1F440F551F430FB0
:1037C000511D319130538F013A3060F324FF03C013
:1037D000509541955F4F640E751EC22EDD2421FF6A
:1037E00008C0A114B10429F001501040F501118363
:1037F00000830E94CF187B018C01F3E0CF22DD24EF
:1038000033E0C316D10421F417FB109517F9109576
:10381000C801B70120E030E0A9010E9432188823D6
:1038200009F44AC077FE09C045EAC42E40E0D42E10
:10383000709461947108739404C03DEBC32E30E022
:10384000D32E26E0822E912C90E2A92EB12C0FC00F
:10385000F6012591359145915491C801B7010E9417
:10386000081AE62EF72E082F192F6A187B086A14FB
:103870007B0474F7B594A794089481089108811487
:10388000910429F08CEF9FEFC80ED91EF0CFB7013D
:10389000C801282F220F292F221F2F3F39F020E0A7
:1038A00030E0A9010E943218882331F482E290E0CE
:1038B00090937A07809379073E2D2F2D902F812F9B
:1038C00008C030E020E090E803C030E020E090EC59
:1038D0008FE7F901AC016F2F722F852F942F21965E
:1038E000EEE00C94B61C91111EC0803219F0895084
:1038F0008550D0F70895FB01DC014150504088F01D
:103900008D9181341CF08B350CF4805E65916134AF
:103910001CF06B350CF4605E861B611171F3990B22
:103920000895881BFCCF9927882708952F923F92EE
:103930004F925F926F927F928F929F92AF92BF92BF
:10394000CF92DF92EF92FF920F931F93CF93DF936B
:10395000CDB7DEB7CA1BDB0B0FB6F894DEBF0FBEC8
:10396000CDBF09942A88398848885F846E847D8415
:103970008C849B84AA84B984C884DF80EE80FD8017
:103980000C811B81AA81B981CE0FD11D0FB6F8948D
:0E399000DEBF0FBECDBFED010895F894FFCF4E
:10399E00FE210050004C0052004200490054004FDE
:1039AE0000202D3E20636865636B73756D206F7507
:1039BE007473696465205B3132382C3235355D00A5
:1039CE005E004E00450055005700440043004C3148
:1039DE00004C32004C33004C3400580059000A00A1
:00000001FF
