:100000000C9464000C9481000C9481000C94810089
:100010000C9481000C9481000C9481000C9481005C
:100020000C9481000C947F110C9481000C9490111D
:100030000C9481000C9481000C9481000C9481003C
:100040000C9481000C9481000C9479010C9418019B
:100050000C9481000C9481000C9481000C9481001C
:100060000C9481000C94810097066404B00464042D
:10007000BD04C004C304160516054B054E05510505
:1000800053055505570559055B051A0690060806E0
:10009000900630063B064606510666067B0690062D
:1000A0009006250690069006130690069006900688
:1000B00090067805A805D8057B127B1258145A14AF
:1000C0005E1460146414661411241FBECFEFD8E0D0
:1000D000DEBFCDBF11E0A0E0B1E0E8EFFFE202C07B
:1000E00005900D92A230B107D9F716E0A2E0B1E079
:1000F00001C01D92A438B107E1F70E9483000C945F
:10010000FA170C94000078940E94AD000E949002AF
:100110000E940E090E9424110E94650E0E94800E0A
:100120000E94380480E090E00895909106019F5F5E
:10013000903809F490E0209105019217E1F3E091E5
:100140000601F0E0EC5FF94F808390930601809107
:10015000C10080628093C10008951092C50083E3BE
:100160008093C400E0ECF0E080818D7F8083E1EC3F
:10017000F0E08081806180838081886080838081DD
:10018000806880838EE70E94950085E00C9495003E
:10019000CF92DF92EF92FF92CF93C82FCB01BA019B
:1001A00020E030E04AE754E40E94E4160E94B416CE
:1001B0006B017C0188EFF81A8C2D80680E949500F5
:1001C000D701C60180789F73AA27BB2727E0B69581
:1001D000A795979587952A95D1F780580E94950005
:1001E000D701C6018827907CAF71BB273EE0B6954A
:1001F000A795979587953A95D1F780580E949500D5
:10020000D701C60188279927A07EBF7045E1B69522
:10021000A795979587954A95D1F780580E949500A4
:100220008C2FCF91FF90EF90DF90CF900C949500A2
:100230001F920F920FB60F9211248F939F93EF93FB
:10024000FF938091050190910401992331F096E08C
:100250009093C6001092040117C090910301992356
:1002600031F095E09093C600109203010DC0E82F85
:10027000F0E0EC5FF94F90819093C6008F5F80387B
:1002800009F480E08093050190910601891305C06F
:100290008091C1008F7D8093C100FF91EF919F916C
:1002A0008F910F900FBE0F901F901895E09107014E
:1002B000F0E0EB5FFA4F8081909107019F5F909390
:1002C00007019F3F11F410920701F89490910001EB
:1002D000913441F491E0909303019091C1009062B8
:1002E0009093C100909100019F5F909300017894DA
:1002F00008951F920F920FB60F9211242F933F93E0
:100300004F935F936F937F938F939F93AF93BF931D
:10031000EF93FF938091C6008032A8F4813011F4EE
:1003200081E229C0823019F40E94881032C08330E3
:1003300019F40E94F7022DC0843019F40E94FB02C8
:1003400028C083E218C0E091080191E09E0F9F3F12
:1003500009F490E020910001213441F421E0209340
:1003600004012091C10020622093C1002091070167
:10037000921304C082E20E947C100BC0F0E0EB5F9D
:10038000FA4F8083909308018091000181508093FF
:100390000001FF91EF91BF91AF919F918F917F915C
:1003A0006F915F914F913F912F910F900FBE0F90E2
:1003B0001F90189580910201882351F083B78160C6
:1003C00083BF889583B78E7F83BF0E940B03F2CFD4
:1003D000909107018091080198130EC00E940703B5
:1003E00083B7816083BF889583B78E7F83BF0E9468
:1003F000FF020E940B03ECCF0E945601873039F5B3
:1004000081E08093020180910201882351F083B73B
:10041000816083BF889583B78E7F83BF0E940B0363
:10042000F2CF909107018091080198130EC00E94AD
:10043000070383B7816083BF889583B78E7F83BFAF
:100440000E94FF020E940B03ECCF0C94560108950A
:1004500080910201882379F0909107018091080131
:10046000981303C00E94070306C00E9456018830FB
:1004700019F41092020180E00895809100018095A6
:1004800008950F931F936091100170E080E090E059
:10049000605871098109910927E0660F771F881F4D
:1004A000991F2A95D1F700910F0110E020E030E06C
:1004B0000058110921093109600F711F821F931F14
:1004C00037E0660F771F881F991F3A95D1F7009183
:1004D0000E0110E020E030E0005811092109310937
:1004E000600F711F821F931F47E0660F771F881FE1
:1004F000991F4A95D1F720910D01620F711D811D41
:10050000911D60587109810998400E94AD1520E045
:1005100030E04AE754E40E9412151F910F910895AC
:1005200021E02093120180E090E0AAEFB5E48093EF
:10053000130190931401A0931501B093160110922A
:1005400017018CE0E1E2F1E0DF011D928A95E9F705
:10055000109218011092190110921A0110921B01A9
:1005600010921C0110921D0110921E0110921F0189
:100570001092200180E090E0A0EAB0E480932D0189
:1005800090932E01A0932F01B093300180933101FD
:1005900090933201A0933301B0933401109235014E
:1005A0001092360110923701109238018093390170
:1005B00090933A01A0933B01B0933C0180933D019D
:1005C00090933E01A0933F01B093400110924101EE
:1005D00010924201109243011092440120930C01A9
:1005E00020930B0120930A0110920901089581E0E4
:1005F00080930C01089581E080930B0108950E947F
:100600008308811103C081E080930A01089581E08D
:10061000809309010895CF930E948308811110925D
:100620000A0180910C01811105C080910B01882382
:1006300009F41CC110920C0180910A01882319F061
:1006400081E40E94950080910901882329F084E4C7
:100650000E949500109209014A9903C082E40E9409
:1006600095004B9903C083E40E9495000E9482107C
:10067000C82F803211F00E949500309905C0C43215
:1006800019F084E20E949500319905C0C53219F035
:1006900085E20E949500329905C0C63219F086E2C3
:1006A0000E949500339905C0CA3219F08AE20E946F
:1006B0009500349905C0CB3219F08BE20E94950069
:1006C000359905C0CD3219F08DE20E9495000E9447
:1006D0008E10E091200123E0E29FF0011124EE0F43
:1006E000FF1FEE0FFF1FEE5EFE4F238D348D458DF5
:1006F000568D0E949614AB01BC0188E70E94C80089
:100700000E949F10E091200123E0E29FF00111245C
:10071000EE0FFF1FEE0FFF1FEA5EFE4F238D348D9D
:10072000458D568D0E949614AB01BC0189E70E944D
:10073000C8000E94B010E091200123E0E29FF00188
:100740001124EE0FFF1FEE0FFF1FE65EFE4F238DFD
:10075000348D458D568D0E949614AB01BC018AE7FD
:100760000E94C80080910B01882309F47BC010927D
:100770000B0140E050E86BEB74E486E70E94C80090
:1007800020912D0130912E0140912F015091300187
:100790006091390170913A0180913B0190913C0147
:1007A0000E949614AB01BC0181E60E94C800209112
:1007B0003101309132014091330150913401609107
:1007C0003D0170913E0180913F01909140010E9456
:1007D0009614AB01BC0182E60E94C800209135014D
:1007E00030913601409137015091380160914101BB
:1007F0007091420180914301909144010E949614AE
:10080000AB01BC0183E60E94C800409113015091E6
:100810001401609115017091160187E60E94C800CD
:100820006091170170E080E090E00E94AB15AB0191
:10083000BC0188E60E94C80040911801509119013E
:1008400060911A0170911B0189E60E94C8004091D5
:100850001C0150911D0160911E0170911F018AE6DB
:100860000E94C80089E0CF910C949500CF91089523
:10087000CF93DF93CDB7DEB728970FB6F894DEBFDE
:100880000FBECDBF99249394BCE03B2E0E94DA01A9
:10089000182F0E948510882319F090920C015AC2DB
:1008A00017FD48C28FEB810F8A3108F00AC1412F32
:1008B00050E0FA01E154F109E131F10508F0FFC01F
:1008C000EC5CFF4F0C94D117A0901301B090140171
:1008D000C0901501D09016018091290190912A01B4
:1008E000A0912B01B0912C0189839A83AB83BC83A7
:1008F0002091250130912601409127015091280136
:1009000040902101509022016090230170902401B9
:100910001434D9F460911C0170911D0180911E0165
:1009200090911F012D833E834F8358870E947F152E
:100930007F936F9380901701E980FA800B811C816F
:100940002D813E814F81588508C01F921F92809053
:100950001701E980FA800B811C81C301B20161C0DB
:10096000609118017091190180911A0190911B01F9
:10097000409117010E945208DAC110921201D7C1AA
:1009800090921201D4C10E948614A1E2B1E0E32D3D
:100990001D92EA95E9F7E12CF12C8701A801970156
:1009A000C801B7010E94B2081092200160912D0188
:1009B00070912E0180912F0190913001609321015F
:1009C000709322018093230190932401209131019F
:1009D000309132014091330150913401209325012F
:1009E000309326014093270150932801E090350170
:1009F000F09036010091370110913801E092290101
:100A0000F0922A0100932B0110932C01A090130166
:100A1000B0901401C0901501D09016011F921F9242
:100A2000812C0E9440090F900F9081C10E945910A3
:100A300081E090E0193411F080E090E08C01000F2B
:100A4000111F080F191F0E948E10F801EE0FFF1FD3
:100A5000EE0FFF1FEE5EFE4F638F748F858F968FB4
:100A60000E949F10F801EE0FFF1FEE0FFF1FEA5EBE
:100A7000FE4F638F748F858F968F0E94B010F801A0
:100A8000EE0FFF1FEE0FFF1FE65EFE4F638F748FAA
:100A9000858F968F4CC11092200149C19092200100
:100AA00046C182E009C083E007C084E005C085E05C
:100AB00003C086E001C087E00E94530838C18CE380
:100AC00034C18FE9810F8A3108F02EC18091110164
:100AD000843009F027C1812F90E0FC01E456F10930
:100AE000E731F10508F01CC1EB5BFF4F0C94D11707
:100AF00080911201813099F40E944102E09120011D
:100B000023E0E29FF0011124EE0FFF1FEE0FFF1F05
:100B1000EE5EFE4F238D348D458D568D0EC0C090F8
:100B20002101D0902201E0902301F09024010E9445
:100B300041029B01AC01C701B6010E94971460936A
:100B40002101709322018093230190932401EFC02F
:100B500080911201813099F40E944102E0912001BC
:100B6000A3E0EA9FF0011124EE0FFF1FEE0FFF1F1D
:100B7000EA5EFE4F238D348D458D568D0EC0C0909C
:100B80002501D0902601E0902701F09028010E94D5
:100B900041029B01AC01C701B6010E94971460930A
:100BA0002501709326018093270190932801BFC0EF
:100BB00080911201813099F40E944102E09120015C
:100BC000B3E0EB9FF0011124EE0FFF1FEE0FFF1FAC
:100BD000E65EFE4F238D348D458D568D0EC0C09040
:100BE0002901D0902A01E0902B01F0902C010E9465
:100BF00041029B01AC01C701B6010E9497146093AA
:100C0000290170932A0180932B0190932C018FC0AE
:100C10000E944102609313017093140180931501A7
:100C20009093160184C00E9441020E947F15609338
:100C300017017DC00E944102609318017093190151
:100C400080931A0190931B0172C00E94410260932D
:100C50001C0170931D0180931E0190931F0167C0BA
:100C60000E94410260932D0170932E0180932F0109
:100C7000909330015CC00E944102609331017093F7
:100C80003201809333019093340151C00E9441029C
:100C9000609335017093360180933701909338014A
:100CA00046C00E94410220912D0130912E014091B9
:100CB0002F01509130010E94971460933901709375
:100CC0003A0180933B0190933C0131C00E94410264
:100CD0002091310130913201409133015091340122
:100CE0000E94971460933D0170933E0180933F01F1
:100CF000909340011CC00E94410220913501309127
:100D0000360140913701509138010E949714609349
:100D1000410170934201809343019093440107C0C5
:100D20008EE303C08AE301C083E20E947C1010922C
:100D3000110110C0E0911101E43048F481E08E0F00
:100D400080931101F0E0E35FFE4F108303C08AE35C
:100D50000E947C100E940B0399CD2F923F924F92DC
:100D60005F926F927F928F929F92AF92BF92CF923B
:100D7000DF92EF92FF920F931F93CF93DF93CDB744
:100D8000DEB760970FB6F894DEBF0FBECDBF1C0173
:100D90002A013B0148015901FC0162897389848958
:100DA00095890E94AB156B017C01A30192010E9401
:100DB000E4160E94FB140E947F152B013C01F101F7
:100DC00061A772A783A794A7A5019401C701B601E3
:100DD0000E94E4160E94FB140E947F154B015C01E7
:100DE000F10165A776A787A790AB21A932A943A9EE
:100DF00054A9A0EEBEE20E94901769837A838B8388
:100E00009C830E94AD156D837E838F839887C30179
:100E1000B2010E94AB152B013C01A7019601C7014D
:100E2000B6010E94E4166B017C01A3019201C3018B
:100E3000B2010E94E41669877A878B879C872D818F
:100E40003E814F815885CA01B9010E9497146D8770
:100E50007E878F87988B29853A854B855C85C7016E
:100E6000B6010E9496142D853E854F8558890E94B3
:100E700012150E94FB140E947A152B013C01C5013A
:100E8000B4010E94AB159B01AC010E94E4164B011A
:100E90005C01A70196010E9496146B017C01698197
:100EA0007A818B819C8190958095709561957F4F1B
:100EB0008F4F9F4F0E94AD159B01AC010E9497146C
:100EC0009B01AC01C701B6010E9412150E94E815F2
:100ED000F101C684D784E088F188A701960124191E
:100EE00035094609570929833A834B835C830E945D
:100EF0007A1529813A814B815C81261B370B480B7F
:100F0000590BDA01C90157FF3DC0C701B6010E9464
:100F1000AD159B01AC016D857E858F8598890E94FA
:100F2000E41629853A854B855C850E949614A501B7
:100F300094010E9497144B015C0120E030E040E8EE
:100F400050E46D817E818F8198850E94E4169B011B
:100F5000AC01C501B4010E9412150E94FB140E944D
:100F60007A1597FF03C060E070E0CB012B013C01D4
:100F7000C616D706E806F90614F42601370180E004
:100F800090E0DC01F10145AA56AA67AA70AE840D73
:100F9000951DA61DB71D81AF92AFA3AFB4AF6096EC
:100FA0000FB6F894DEBF0FBECDBFDF91CF911F917A
:100FB0000F91FF90EF90DF90CF90BF90AF909F90F8
:100FC0008F907F906F905F904F903F902F900895FB
:100FD0004F925F926F927F92AF92BF92CF92DF92C9
:100FE000EF92FF920F931F93CF93DF938C01EB014E
:100FF000FC0180A5811147C0428C538C648C758C98
:10100000AA8CBB8CCC8CDD8C9501A601C301B201EE
:101010000E940E1587FF37C0A3019201C301B201E0
:101020000E94E4162B013C0120E03AEB4BE55AEC20
:10103000F80162A173A184A195A10E94E4169B010D
:10104000AC01C301B2010E9496140E944B177B01B0
:101050008C019B01AC01B501C6010E940E1587FFF2
:1010600002C0750186019701A801B501C6010E9461
:101070000E15882341F0A701B8014A8F5B8F6C8F52
:101080007D8F81E08FA3DF91CF911F910F91FF9012
:10109000EF90DF90CF90BF90AF907F906F905F9078
:1010A0004F9008950895EF92FF921F93CF93DF938F
:1010B0001F92CDB7DEB7109163011F5F1E3009F498
:1010C00010E0E12EFF24E7FCF0942091620130E073
:1010D0002E153F0529F489830E940B038981F5CFE2
:1010E000E09163019FE3E99FF0011124EC59FE4F69
:1010F0008083109363010F90DF91CF911F91FF9038
:10110000EF900C945E10209163019091620181E058
:10111000291301C080E008959091630180916201DC
:10112000981749F0809162012FE3829FC00111243A
:101130008C599E4F089580E090E00895909163014E
:1011400080916201981741F0809162018F5F8E302B
:1011500009F480E080936201089510926301109277
:10116000620108958F929F92AF92BF92CF92DF92C9
:10117000EF92FF920F931F9349015A016701780183
:101180002CE137EC41EB52E40E94E4160E94B416C5
:1011900060935601709357018093580190935901C1
:1011A00024E731ED45EB52E4C501B4010E94E41699
:1011B0000E94B41660935A0170935B0180935C01A6
:1011C00090935D0125E535E545E052E4C701B601A0
:1011D0000E94E4160E94B41660935E0170935F0152
:1011E0008093600190936101109245011092460135
:1011F00010924701109248018CE0E9E4F1E0DF0130
:101200001D928A95E9F71F910F91FF90EF90DF9063
:10121000CF90BF90AF909F908F900895EF92FF92E4
:101220000F931F93CF931092630110926201CCE051
:10123000E6E5F1E0DF018C2F1D928A95E9F7E12CBC
:10124000F12C870120E030E040EA50E4CA01B90106
:101250000E94B20810925501E9E4F1E0DF011D920D
:10126000CA95E9F7E0924501F092460100934701E3
:1012700010934801CF911F910F91FF90EF90089527
:101280002F923F924F925F926F927F928F929F9296
:10129000AF92BF92CF92DF92EF92FF920F931F9384
:1012A000CF93DF93CDB7DEB7E3970FB6F894DEBFE9
:1012B0000FBECDBF29013A01E982FA820B831C835C
:1012C0002A962EAC3FAC2A972CE137EC41EB52E446
:1012D0000E94E4160E94B4166C8F7D8F8E8F9F8FB4
:1012E00024E731ED45EB52E4C301B2010E94E4165C
:1012F0000E94B41668A379A38AA39BA325E535E5CC
:1013000045E052E4C801B7010E94E4160E94B416F9
:101310006CA37DA38EA39FA340906301042D0F5F58
:10132000098B0E3009F4198A4988042D112707FD0D
:1013300010958091620190E08017910719F40E9446
:101340000B03F7CF809155018823C1F00E94B010A4
:101350002B013C010E949F109B01AC0168AB39AB93
:101360004AAB5BAB0E948E108301720128A939A998
:101370004AA95BA90E94B2081092550180916301AD
:101380000FE3809F3001112483010C591E4F1A83F3
:10139000098321143104A1F081E0D8018C93B101BB
:1013A00080E090E00E94AB152CE137EC41EB52E479
:1013B0000E94E4160E94B416F80176AF65AF03C030
:1013C000A981BA811C92E981FA8186A21586809151
:1013D000560190915701A0915801B09159012C8C60
:1013E0003D8C4E8C5F8C281639064A065B0614F439
:1013F00028E0258700915A0110915B0120915C0142
:1014000030915D0148A059A06AA07BA0401651060A
:10141000620673062CF4E981FA81458540614587AF
:1014200020905E0130905F0140906001509061011A
:101430006CA07DA08EA09FA0621473048404950408
:101440002CF4E981FA814585406245876C8C7D8C5E
:101450008E8C9F8C681A790A8A0A9B0AC401B30190
:101460006D867E868F86988A97FE0BC066247724C9
:101470004301661A770A880A990A6D867E868F86E6
:10148000988A6D847E848F849888A981BA81119608
:101490006D927D928D929C92149768A079A08AA0FB
:1014A0009BA0601A710A820A930A6D827E828F82E3
:1014B00098866A8A7B8A8C8A9D8A97FE0CC0909453
:1014C000809470946094611C711C811C911C6A8AC8
:1014D0007B8A8C8A9D8AEA88FB880C891D89A98170
:1014E000BA811596ED92FD920D931C9318976CA0FE
:1014F0007DA08EA09FA06218730884089508698655
:101500007A868B869C869401830197FE07C030956E
:101510002095109501951F4F2F4F3F4FA981BA81FC
:1015200019960D931D932D933C931C972A883B8805
:101530004C885D886D847E848F8498882614370457
:101540004804590420F46A8A7B8A8C8A9D8A4A88D6
:101550005B886C887D88401651066206730610F41D
:1015600028013901A981BA811E964D925D926D9232
:101570007C925197411451046104710409F488C3A9
:101580000E94AD152CE137EC41EB52E40E9412159C
:101590006A8B7B8B8C8B9D8B6D817E818F819885F7
:1015A0000E94AD1524E731ED45EB52E40E9412157F
:1015B00068A779A78AA79BA769857A858B859C856B
:1015C0000E94AD1525E535E545E052E40E9412156F
:1015D0006CA77DA78EA79FA72A893B894C895D8927
:1015E000CA01B9010E94E4166D837E838F839887B8
:1015F00028A539A54AA55BA5CA01B9010E94E41630
:101600009B01AC016D817E818F8198850E9497142A
:101610006D837E838F8398872CA53DA54EA55FA5FE
:10162000CA01B9010E94E4169B01AC016D817E8163
:101630008F8198850E9497140E944B17688F798F2D
:101640008A8F9B8FE981FA8162A373A384A395A3F8
:101650009B01AC0160E070E080E89FE30E941215FE
:101660006D837E838F8398879B01AC01C601B50192
:101670000E94E4166B017C019B01AC01688D798DA1
:101680008A8D9B8D0E94E41669877D878E8B9F8B48
:10169000CB01AE89BF89E981FA81868B978BA08FB8
:1016A000B18FC301B2010E94AD154B015C01A701CE
:1016B00096010E94E4160E94FB140E947F15A981E6
:1016C000BA8152966D937D938D939C9355972D81FE
:1016D0003E814F815885C501B4010E94E41620E087
:1016E0003AEB4BED59E40E94E41620E030E84BE37E
:1016F00056E40E9412150E94FB140E947A15E9819B
:10170000FA8161AB72AB83AB94AB2D813E814F818B
:1017100058856A897B898C899D890E94E4166A8B29
:101720007B8B8C8B9D8B2D813E814F81588568A54D
:1017300079A58AA59BA50E94E4164B015C012D8129
:101740003E814F8158856CA57DA58EA59FA50E94E1
:10175000E4162B013C01909163018091620198177E
:1017600009F4ACC000914501109146012090470159
:101770003090480120E030E0A901B801C1010E9489
:10178000B01618160CF09AC08091490190914A0148
:10179000A0914B01B0914C01BC01CD0190582A8918
:1017A0003B894C895D890E94E4166B017C01209184
:1017B0004D0130914E0140914F0150915001C501B2
:1017C000B4010E94E4169B01AC01C701B6010E945E
:1017D00096146B017C01209151013091520140918E
:1017E000530150915401C301B2010E94E4169B01C0
:1017F000AC01C701B6010E9496146B017C0123E382
:1018000033E343E75FE30E940E1587FF57C0298546
:101810003D854E895F89B801C1010E940E1587FD83
:1018200004C009851D852E883F8823E333E343E701
:101830005FEBC701B6010E94B01618160CF042C04B
:10184000A701960160E070E080E89FE30E94961493
:1018500020E030E040E05FE30E94E4160E944B1776
:101860006B017C0120E030EC48E256E40E94E41673
:101870006D837E838F839887A701960160E070E077
:1018800080E89FE30E9496149B01AC016D817E81EC
:101890008F8198850E9412150E944B176B01F82EBC
:1018A000E92E9B01482F592FB801C1010E940E1546
:1018B00087FD08C086012F2C3E2C04C000E010E0FC
:1018C000212C312CC801D101E981FA81868F978FB3
:1018D000A0A3B1A320E03AEB4BE55AEC688D798DDB
:1018E0008A8D9B8D0E94E4169B01AC0160E070E044
:1018F000CB010E9496140E944B176B01F82EE92E23
:101900009B01482F592FB801C1010E940E1587FF76
:1019100003C0302F212F04C03C2D2D2D2F2C3E2C09
:10192000832F922FD101E981FA81828F938FA48F27
:10193000B58F96014F2D5E2D69857D858E899F8996
:101940000E940E15181634F081E0A981BA8198968C
:101950008C9303C0E981FA8110A681E0A981BA8144
:1019600097968C93EA88FB880C891D89E09249013F
:10197000F0924A0100934B0110934C0180924D016B
:1019800090924E01A0924F01B092500140925101AD
:1019900050925201609253017092540189859D8545
:1019A000AE89BF898093450190934601A09347017A
:1019B000B09348012988209263014C8C5D8C6E8C19
:1019C0007F8C40925601509257016092580170925C
:1019D000590168A079A08AA09BA060925A017092D8
:1019E0005B0180925C0190925D012CA03DA04EA015
:1019F0005FA020925E0130925F01409260015092A0
:101A00006101D0906301E0E0F0E000E010E04FE31E
:101A1000242E332433948091620190E02D2D3327BE
:101A200027FD30952817390709F46FC0D11002C07F
:101A30003EE0D32EDA94222D3D2D32037001112485
:101A4000A7014C595E4F7A010115110509F45AC0DE
:101A5000309709F457C0D80198968C9198975E9664
:101A60009C905E975F96AC905F979096BC90909795
:101A70009196CC9081113CC0428C538C648C758CB7
:101A8000A3019201692D7A2D8B2D9C2D0E94B016F9
:101A9000181674F5A3019201C301B2010E94E41665
:101AA0002B013C0120E03AEB4BE55AECF80162A136
:101AB00073A184A195A10E94E4169B01AC01C3010E
:101AC000B2010E9496140E944B17562E672E782E54
:101AD000892E262F372F482F592F692D7A2D8B2DA0
:101AE0009C2D0E940E1587FD03C0952C5301C82C18
:101AF000892D9A2DAB2DBC2DF801828F938FA48F49
:101B0000B58F37A2F801870186CFD090620100E03F
:101B100010E080E090E02FE3C22E2D2D332727FD2B
:101B200030954091630150E024173507C9F0C29EFB
:101B30007001C39EF00C1124F701EC59FE4F7F0198
:101B4000009731F00115110519F0B8010E94E8075E
:101B5000D394FEE0DF1201C0D12CC8018701DDCF94
:101B6000009731F00115110519F0B8010E94E8073E
:101B700030906201A12CB12C8FE3282E832D992760
:101B800087FD90952091630130E08217930709F457
:101B900042C0289E4001299E900C112484010C59BA
:101BA0001E4F4801A114B10479F1D50197968C918B
:101BB000811104C0F80187A1882331F1D50156961F
:101BC000CD90DD90ED90FC905997A7019601F4011E
:101BD000628D738D848D958D0E9412152B013C01B1
:101BE000A7019601D5015A966D917D918D919C9199
:101BF0005D970E941215AB01BC0193018201C501E2
:101C00000E94AD06F50117A23394FEE03F1201C019
:101C1000312C5401B3CFD5015696CD90DD90ED9087
:101C2000FC905997A701960160E070E0CB010E94FB
:101C300012152B013C01A7019601F501628D738DF0
:101C4000848D958D0E941215AB01BC019301820118
:101C5000C5010E94AD06D50197961C92E3960FB67A
:101C6000F894DEBF0FBECDBFDF91CF911F910F91D2
:101C7000FF90EF90DF90CF90BF90AF909F908F90AC
:101C80007F906F905F904F903F902F900C945E10DC
:101C9000E3960FB6F894DEBF0FBECDBFDF91CF91B4
:101CA0001F910F91FF90EF90DF90CF90BF90AF907A
:101CB0009F908F907F906F905F904F903F902F906C
:101CC000089581E08093550108958AB1837F8AB990
:101CD00087B1807C87B9089587BD0895882311F066
:101CE0005C9A08955C980895882311F05F9A08958E
:101CF0005F980895882311F05D9A08955D9808957E
:101D0000569A17BC81E884BD83E085BD549A579AE2
:101D100080E00E946E0E80E00E94740E559A80E072
:101D20000C947A0E8091E1049091E204A091E30476
:101D3000B091E4044091DD045091DE046091DF0431
:101D40007091E004840F951FA61FB71F813828E308
:101D5000920721E0A207B10550F48093DD0490932F
:101D6000DE04A093DF04B093E00480E0089580587F
:101D70009843A140B1098093DD049093DE04A093C1
:101D8000DF04B093E00481E008952F923F924F92D8
:101D90005F926F927F928F929F92AF92BF92CF92FB
:101DA000DF92EF92FF920F931F93CF93DF93182F41
:101DB0006A017B0185E0C81AD108E108F108111118
:101DC00002C08BE301C083E0C0E3C82795B18C2F2C
:101DD0008873977C892B85B9D6E006E0222423946A
:101DE0003324339486B1112311F09FE389273320E4
:101DF00049F080FD07C0011104C0A1E0CA27312CC1
:101E000001C00150222049F082FD0BC0D11103C056
:101E1000B2E0CB2702C0D15004C0332009F479C00E
:101E2000212C85B19C2F9770892B85B98AE18A95E1
:101E3000F1F785B1892785B9C701B6010E94AB15B5
:101E40002B013C012BEA3AEA4AEA50E40E94E416EC
:101E50004B015C0120E030E040E85FE30E940E159A
:101E600087FD53C020E030E04FE753E4C501B401E3
:101E70000E94B01618160CF043C020E030E04AE78C
:101E800054E4C301B2010E9412152B013C0120E071
:101E900030E04AE755E40E94E4164B015C0120E083
:101EA00030E040E85FE30E940E1587FD24C020E08B
:101EB0003FEF4FE757E4C501B4010E94B016181672
:101EC000A4F420E030E040E251E4C301B2010E94FA
:101ED000E4160E947F15CB01009709F483CFE0E957
:101EE000F1E03197F1F70197F7CFC501B4010E94F6
:101EF0007F15CB0102C081E090E00197F1F772CF2E
:101F0000C501B4010E947F1501C061E06A95F1F737
:101F100069CF8CE0E9EFF4E0DF011D928A95E9F7E3
:101F2000DF91CF911F910F91FF90EF90DF90CF90B5
:101F3000BF90AF909F908F907F906F905F904F90E9
:101F40003F902F9008958F929F92AF92BF92CF9221
:101F5000DF92EF92FF920F931F93CF93DF931F9225
:101F6000CDB7DEB76B017C0180E4C81686E0D806E9
:101F7000E104F10430F4A0E4CA2EA6E0DA2EE12C4C
:101F8000F12C60E070E788E399E3A70196010E94D5
:101F9000AF1721153105E1E04E07510518F4C901CD
:101FA00060E02FC021153105F8E04F075105A8F476
:101FB000BA01A901E3E07695679557954795EA95AB
:101FC000D1F7CA019A01AB01F3E0220F331F441F7E
:101FD000551FFA95D1F761E014C0BA01A90186E056
:101FE00076956795579547958A95D1F7CA019A01D5
:101FF000AB0166E0220F331F441F551F6A95D1F7CE
:1020000062E0709181006F5F787F672B6093810041
:1020100090938900809388002093E1043093E20438
:102020004093E3045093E4040091F7041091F80402
:10203000F80166A170E080E090E00E94AD154B01D0
:102040005C01C701B6010E94AB156B017C01F80170
:1020500062897389848995890E94AB159B01AC01C3
:10206000C701B6010E9412159B01AC01C501B40164
:102070000E94E4160E947F15862F69830E946C0ED1
:102080006981693210F082E005C06B3010F083E0A6
:1020900001C084E085BD0F90DF91CF911F910F911A
:1020A000FF90EF90DF90CF90BF90AF909F908F9078
:1020B00008958091D8048111FFCF08958091D804AC
:1020C00081110BC081E08093D80480E38093F604F3
:1020D00080916F00826080936F0008951092D80401
:1020E0001092F8041092F704EFE6F0E080818D7F03
:1020F000808380E00C946C0E8093D60481E0809302
:10210000D70408958091D60408958091D704089546
:1021100080E28093D6041092D70408956091F90468
:102120007091FA048091FB049091FC040E94AD151B
:102130002CE137EC41EB52E40E94121508956091B6
:10214000FD047091FE048091FF04909100050E94AF
:10215000AD1524E731ED45EB52E40E9412150895C8
:10216000609101057091020580910305909104052D
:102170000E94AD1525E535E545E052E40E941215B3
:1021800008958F929F92AF92BF92CF92DF92EF927B
:10219000FF920F931F93CF93DF9300D000D0CDB762
:1021A000DEB749015A016701780169837A838B831D
:1021B0009C830E9459102CE137EC41EB52E4698179
:1021C0007A818B819C810E94E4160E94B4166093F0
:1021D000F9047093FA048093FB049093FC0424E7C1
:1021E00031ED45EB52E4C501B4010E94E4160E94B2
:1021F000B4166093FD047093FE048093FF049093E3
:10220000000525E535E545E052E4C701B6010E9429
:10221000E4160E94B4166093010570930205809342
:102220000305909304050F900F900F900F90DF918E
:10223000CF911F910F91FF90EF90DF90CF90BF90C3
:10224000AF909F908F900895EF92FF920F931F93FE
:1022500084B18F6384B985B1807C806385B9E1E8FE
:10226000F0E080818F7E8083808188608083E0E8D9
:10227000F0E080818D7F808380818E7F808380816C
:102280008F73808380818F7C80831092B000109246
:10229000B100E0E7F0E080818160808360E476E077
:1022A00080E090E00E94A30F8CE0E9EFF4E0DF0112
:1022B0001D928A95E9F7E12CF12C870120E030E0AE
:1022C00040EA50E4CA01B9010E94C1101092DD0435
:1022D0001092DE041092DF041092E0041092F804D1
:1022E0001092F7041092D70480E28093D6041092E3
:1022F000E5041F910F91FF90EF900C946E101F92C8
:102300000F920FB60F9211248F9385B1887F85B9F4
:102310001092B1008F910F900FBE0F901F901895E3
:102320001F920F920FB60F9211240F931F932F93AA
:102330003F934F935F936F937F938F939F93AF934D
:10234000BF93CF93DF93EF93FF938091E5048111C7
:10235000C8C281E08093E5048091D704882339F0D6
:102360000E946E100E94AD080E94610EB8C2309BA0
:102370000AC0319B08C0329B06C0339B04C0349B0B
:1023800002C0359931C0309906C084E28093D604EA
:1023900081E08093D704319906C085E28093D6040A
:1023A00081E08093D704329906C086E28093D604F8
:1023B00081E08093D704339906C08AE28093D604E3
:1023C00081E08093D704349906C08BE28093D604D1
:1023D00081E08093D704359982C28DE28093D60440
:1023E00081E08093D7047BC295B18091F604887315
:1023F000977C892B85B985B1887F9091F604892BCC
:1024000085B98AEF8093B20082E08093B10078941E
:102410008091F7049091F804892B09F05DC00E9427
:102420008C089093F8048093F704009719F40E94A5
:102430006E1055C2FC012081223008F04DC061A50C
:1024400072A583A594A56093D9047093DA04809350
:10245000DB049093DC0400E41CE920E030E000930E
:10246000DD041093DE042093DF043093E0040E9427
:10247000A30FE091F704F091F80486859785A08971
:10248000B189B595A79597958795B095A0959095A5
:1024900081959F4FAF4FBF4F8093F2049093F30409
:1024A000A093F404B093F5048093EE049093EF04AA
:1024B000A093F004B093F1048093EA049093EB04AA
:1024C000A093EC04B093ED041092E6041092E7049C
:1024D0001092E8041092E904C091F704D091F80436
:1024E000888190E08830910508F0F9C1FC01E45A38
:1024F000FF4F0C94D1172D852093F6048091F204A0
:102500009091F304A091F404B091F50449815A81AB
:102510006B817C81840F951FA61FB71F8093F204E7
:102520009093F304A093F404B093F5044E855F8573
:1025300068897989181619061A061B0644F5216060
:102540002093F604841B950BA60BB70B8093F20423
:102550009093F304A093F404B093F5048091F904EC
:102560009091FA04A091FB04B091FC0423FF04C0F5
:102570000197A109B10903C00196A11DB11D809366
:10258000F9049093FA04A093FB04B093FC048091A7
:10259000EE049091EF04A091F004B091F1040D814C
:1025A0001E812F813885800F911FA21FB31F80933A
:1025B000EE049093EF04A093F004B093F104181686
:1025C00019061A061B0654F52091F6042260209382
:1025D000F604841B950BA60BB70B8093EE04909327
:1025E000EF04A093F004B093F1048091FD04909166
:1025F000FE04A091FF04B091000524FF04C00197E0
:10260000A109B10903C00196A11DB11D8093FD046C
:102610009093FE04A093FF04B09300058091EA0418
:102620009091EB04A091EC04B091ED0409851A851A
:102630002B853C85800F911FA21FB31F8093EA0456
:102640009093EB04A093EC04B093ED0418161906D4
:102650001A061B0654F52091F60424602093F60414
:10266000841B950BA60BB70B8093EA049093EB04A5
:10267000A093EC04B093ED048091010590910205C4
:10268000A0910305B091040525FF04C00197A1099D
:10269000B10903C00196A11DB11D8093010590935E
:1026A0000205A0930305B09304058091E604909180
:1026B000E704A091E804B091E9040196A11DB11DC1
:1026C0008093E6049093E704A093E804B093E904B0
:1026D0002091F60430E323272093F604841795070E
:1026E000A607B70708F0F5C04DA95EA96FA978AD98
:1026F00084179507A607B70740F50E94920E882316
:1027000009F4EDC089A99AA9ABA9BCA94091D90443
:102710005091DA046091DB047091DC04840F951F02
:10272000A61FB71F8093D9049093DA04A093DB040B
:10273000B093DC044A895B896C897D894817590705
:102740006A077B0708F04AC041C049AD5AAD6BAD7E
:102750007CAD84179507A607B70769F480E49CE968
:10276000A0E0B0E08093DD049093DE04A093DF044A
:10277000B093E004B4C084179507A607B707C8F163
:102780000E94920E882309F4AAC08091D9049091E6
:10279000DA04A091DB04B091DC0449A95AA96BA921
:1027A0007CA9841B950BA60BB70B8093D90490933F
:1027B000DA04A093DB04B093DC044DA55EA56FA5FD
:1027C00078A984179507A607B70740F44093D90462
:1027D0005093DA046093DB047093DC046091D904B5
:1027E0007091DA048091DB049091DC040E94A30FC5
:1027F00076C06A897B898C899D890091D904109162
:10280000DA042091DB043091DC040617170728074F
:10281000390751F06093D9047093DA048093DB0494
:102820009093DC040E94A30FE091F704F091F80468
:102830008081813009F053C025AD36AD40E050E0D5
:102840006091E6047091E7048091E8049091E904B6
:102850000E94AF17613071058105910509F03FC0F5
:10286000F8940E9428027894482F50E0405851096B
:102870002EEF31E0429FC001439F900D529F900D7B
:102880001124E091F704F091F80466A170E00E9431
:102890009B17862FC62F0E946C0EC93210F082E063
:1028A00005C0CB3010F083E001C084E085BD17C0C7
:1028B00081E001C080E00E946E0E0BC081E001C08B
:1028C00080E00E94740E05C081E001C080E00E949B
:1028D0007A0E1092F8041092F7040E949E0810924B
:1028E000E504FF91EF91DF91CF91BF91AF919F915F
:1028F0008F917F916F915F914F913F912F911F9198
:102900000F910F900FBE0F901F9018950E945910B5
:1029100048E552E060E070E080E00E94C50E40E1D2
:1029200057E260E070E081E00C94C50E5058BB2780
:10293000AA270ED0C4C1B5D130F0BAD120F031F4FD
:102940009F3F11F41EF4AAC10EF4E095E7FB77C196
:10295000E92FC6D180F3BA1762077307840795077A
:1029600018F071F49EF5F5C10EF4E0950B2EBA2F18
:10297000A02D0B01B90190010C01CA01A001112485
:10298000FF27591B99F0593F50F4503E68F11A1631
:10299000F040A22F232F342F4427585FF3CF4695C2
:1029A00037952795A795F0405395C9F77EF41F16E4
:1029B000BA0B620B730B840BBAF09150A1F0FF0FAE
:1029C000BB1F661F771F881FC2F70EC0BA0F621F9A
:1029D000731F841F48F4879577956795B795F7958A
:1029E0009E3F08F0B3CF9395880F08F09927EE0F1C
:1029F00097958795089596D180F09F3740F491116F
:102A00000EF4A8C160E070E080E89FE3089526F02E
:102A10001B16611D711D811D18C132C1ECD008F457
:102A200081E008950CD04BC143D140F03AD130F051
:102A300021F45F3F19F003C151118CC12FC150D156
:102A400098F39923C9F35523B1F3951B550BBB2775
:102A5000AA2762177307840738F09F5F5F4F220F22
:102A6000331F441FAA1FA9F333D00E2E3AF0E0E81B
:102A700030D091505040E695001CCAF729D0FE2F67
:102A800027D0660F771F881FBB1F261737074807F9
:102A9000AB07B0E809F0BB0B802DBF01FF279358AF
:102AA0005F4F2AF09E3F510568F0C9C053C15F3F98
:102AB000ECF3983EDCF3869577956795B795F79597
:102AC0009F5FC9F7880F911D9695879597F908958F
:102AD000E1E0660F771F881FBB1F6217730784072B
:102AE000BA0720F0621B730B840BBA0BEE1F88F73A
:102AF000E095089504D06894B1112CC10895F8D0E0
:102B000088F09F5790F0B92F9927B751A0F0D1F0D6
:102B1000660F771F881F991F1AF0BA95C9F712C060
:102B2000B13081F016D1B1E0089513C1672F782F2D
:102B30008827B85F39F0B93FCCF3869577956795CC
:102B4000B395D9F73EF490958095709561957F4F38
:102B50008F4F9F4F0895E89409C097FB3EF49095DE
:102B60008095709561957F4F8F4F9F4F9923A9F066
:102B7000F92F96E9BB279395F695879577956795F5
:102B8000B795F111F8CFFAF4BB0F11F460FF1BC039
:102B90006F5F7F4F8F4F9F4F16C0882311F096E9CC
:102BA00011C0772321F09EE8872F762F05C066237A
:102BB00071F096E8862F70E060E02AF09A95660F33
:102BC000771F881FDAF7880F9695879597F90895EC
:102BD000A9D080F09F3740F491110EF0BBC060E0A7
:102BE00070E080E89FEB089526F41B16611D711DAF
:102BF000811D2BC045C0990F0008550FAA0BE0E8B6
:102C0000FEEF16161706E807F907C0F012161306AE
:102C1000E407F50798F0621B730B840B950B39F4EE
:102C20000A2661F0232B242B252B21F408950A2654
:102C300009F4A140A6958FEF811D811D089597F994
:102C40009F6780E870E060E00895882371F477233F
:102C500021F09850872B762F07C0662311F499270F
:102C60000DC09051862B70E060E02AF09A95660FB7
:102C7000771F881FDAF7880F9695879597F908953B
:102C80009F3F31F0915020F4879577956795B795E0
:102C9000880F911D9695879597F908959FEF80EC81
:102CA000089500240A9416161706180609060895B2
:102CB00000240A9412161306140605060895092E18
:102CC0000394000C11F4882352F0BB0F40F4BF2B87
:102CD00011F460FF04C06F5F7F4F8F4F9F4F0895C7
:102CE00057FD9058440F551F59F05F3F71F04795BD
:102CF000880F97FB991F61F09F3F79F087950895A2
:102D0000121613061406551FF2CF4695F1DF08C0C0
:102D1000161617061806991FF1CF869571056105DD
:102D200008940895E5DFA0F0BEE7B91788F4BB2743
:102D30009F3860F41616B11D672F782F8827985F8B
:102D4000F7CF869577956795B11D93959639C8F31A
:102D50000895E894BB2766277727CB0197F9089554
:102D60004ADF08F48FEF0895C3DF58F19E5758F1FA
:102D70009851A0F0E9F0983020F5092E9927660FB8
:102D8000771F881F991F0A94D1F712C0062E672F4C
:102D9000782F8827985F11F4000C07C0993FB4F38F
:102DA0008695779567959395D9F7611D711D811D5E
:102DB0003EF490958095709561957F4F8F4F9F4F12
:102DC00008956894C7CFC5CF0BD079CF6ADF28F0BC
:102DD0006FDF18F0952309F032CF60CF1124BACFFE
:102DE0007FDFA0F3959FD1F3950F50E0551F629FB1
:102DF000F001729FBB27F00DB11D639FAA27F00D54
:102E0000B11DAA1F649F6627B00DA11D661F829F7A
:102E10002227B00DA11D621F739FB00DA11D621F5F
:102E2000839FA00D611D221F749F3327A00D611D7C
:102E3000231F849F600D211D822F762F6A2F11245E
:102E40009F5750408AF0E1F088234AF0EE0FFF1FB1
:102E5000BB1F661F771F881F91505040A9F79E3FE8
:102E6000510570F0ECCE76CF5F3FECF3983EDCF38B
:102E7000869577956795B795F795E7959F5FC1F725
:102E8000FE2B880F911D9695879597F9089511F45B
:102E90000EF404CFF5CE2CDFD0F39923D9F3CEF383
:102EA0009F57550B87FF35D00024A0E640EA9001DC
:102EB00080585695979528F4805C660F771F881F79
:102EC00020F026173707480730F4621B730B840B7A
:102ED000202931294A2BA6951794079420253125BE
:102EE0004A2758F7660F771F881F20F026173707E5
:102EF000480730F4620B730B840B200D311D411D0C
:102F0000A09581F7B901842F9158880F96958795E0
:102F1000089591505040660F771F881FD2F708958B
:102F20000E94D717A59F900DB49F900DA49F800D70
:102F3000911D1124089597FB072E16F4009407D0D5
:102F400077FD09D00E94E61707FC05D03EF4909566
:102F500081959F4F0895709561957F4F0895A1E2E7
:102F60001A2EAA1BBB1BFD010DC0AA1FBB1FEE1F03
:102F7000FF1FA217B307E407F50720F0A21BB30B4E
:102F8000E40BF50B661F771F881F991F1A9469F7CA
:102F900060957095809590959B01AC01BD01CF0126
:102FA0000895EE0FFF1F0590F491E02D0994A29F64
:102FB000B001B39FC001A39F700D811D1124911D0D
:102FC000B29F700D811D1124911D0895AA1BBB1B7A
:102FD00051E107C0AA1FBB1FA617B70710F0A61B19
:102FE000B70B881F991F5A95A9F780959095BC013A
:082FF000CD010895F894FFCF14
:022FF800FE00D9
:00000001FF
