:100000000C9468000C9485000C9485000C94850079
:100010000C9485000C9485000C9485000C9485004C
:100020000C9485000C945F110C9485000C94701155
:100030000C9485000C9485000C9485000C9485002C
:100040000C9485000C9485000C9476010C94190195
:100050000C9485000C9485000C9485000C9485000C
:100060000C9485000C9485007706440490044404A5
:100070003F053F059D04A004A304F604F6043F05D4
:100080003F052B052E0531053305350537053905A7
:100090003B05FA057006E805700610061B062606E5
:1000A000310646065B067006700605067006700689
:1000B000F305700670067006700658058805B805C9
:1000C0005B125B1238143A143E1440144414461464
:1000D00011241FBECFEFD8E0DEBFCDBF11E0A0E0FE
:1000E000B1E0E8EBFFE202C005900D92A230B1074B
:1000F000D9F716E0A2E0B1E001C01D92A338B10724
:10010000E1F70E9487000C94DA170C9400007894B1
:100110000E94B1000E9487020E94EE080E94041112
:100120000E94450E0E94600E0E94180480E090E03C
:100130000895909106019F5F903809F490E0209116
:1001400005019217E1F3E0910601F0E0ED5FF94F50
:100150008083909306018091C10080628093C100EA
:1001600008951092C50080E18093C400E0ECF0E0B7
:1001700080818D7F8083E1ECF0E0808180618083ED
:100180008081886080838081806880838EE70C9482
:100190009900CF92DF92EF92FF92CF93C82FCB01BD
:1001A000BA0120E030E04AE754E40E94C4160E94FD
:1001B00094166B017C0188EFF81A8C2D80680E94E0
:1001C0009900D701C60180789F73AA27BB2727E033
:1001D000B695A795979587952A95D1F780580E944F
:1001E0009900D701C6018827907CAF71BB273EE0FC
:1001F000B695A795979587953A95D1F780580E941F
:100200009900D701C60188279927A07EBF7045E1D4
:10021000B695A795979587954A95D1F780580E94EE
:1002200099008C2FCF91FF90EF90DF90CF900C949E
:1002300099001F920F920FB60F9211248F939F93E4
:10024000EF93FF938091050190910401992331F080
:1002500092E19093C600109204010DC0E82FF0E0E7
:10026000ED5FF94F90819093C6008F5F803809F45D
:1002700080E08093050190910601891305C080916B
:10028000C1008F7D8093C100FF91EF919F918F916D
:100290000F900FBE0F901F901895E0910701F0E0AE
:1002A000EC5FFA4F8081909107019F5F9093070167
:1002B0009F3F11F410920701F8949091000190343F
:1002C00071F490910301992351F091E0909304010E
:1002D0009091C10090629093C1001092030190919F
:1002E00000019F5F90930001789408951F920F92F0
:1002F0000FB60F9211242F933F934F935F936F93F9
:100300007F938F939F93AF93BF93EF93FF938091CE
:10031000C600813271F18E3719F40E94681037C01F
:100320008F3319F40E94EC0232C0863219F40E9415
:10033000F0022DC0843189F480910001813448F0AD
:1003400081E0809304018091C10080628093C100AC
:100350001EC081E0809303011AC0E091080191E082
:100360009E0F9F3F09F490E020910701921304C073
:1003700082E20E945C100BC0F0E0EC5FFA4F8083D9
:100380009093080180910001815080930001FF91BA
:10039000EF91BF91AF919F918F917F916F915F91FD
:1003A0004F913F912F910F900FBE0F901F90189576
:1003B00080910201882351F083B7816083BF8895C3
:1003C00083B78E7F83BF0E94FC02F2CF909107011A
:1003D0008091080198130CC083B7816083BF889512
:1003E00083B78E7F83BF0E94F4020E94FC02EECF8F
:1003F0000E944D01823029F581E0809302018091B5
:100400000201882351F083B7816083BF889583B749
:100410008E7F83BF0E94FC02F2CF909107018091F2
:10042000080198130CC083B7816083BF889583B798
:100430008E7F83BF0E94F4020E94FC02EECF0C94D8
:100440004D01089580910201882361F09091070188
:1004500080910801981731F00E944D01833019F402
:100460001092020180E00895809100018095089526
:100470000F931F9360910F0170E080E090E060584F
:1004800071098109910927E0660F771F881F991F5D
:100490002A95D1F700910E0110E020E030E00058DD
:1004A000110921093109600F711F821F931F37E065
:1004B000660F771F881F991F3A95D1F700910D019C
:1004C00010E020E030E00058110921093109600FE7
:1004D000711F821F931F47E0660F771F881F991FA8
:1004E0004A95D1F720910C01620F711D811D911D5C
:1004F00060587109810998400E948D1520E030E014
:100500004AE754E40E94F2141F910F91089521E0EC
:100510002093110180E090E0AAEFB5E480931201EE
:1005200090931301A0931401B0931501109216013A
:100530008CE0E0E2F1E0DF011D928A95E9F710928C
:100540001701109218011092190110921A011092BD
:100550001B0110921C0110921D0110921E0110929D
:100560001F0180E090E0A0EAB0E480932C0190931A
:100570002D01A0932E01B0932F0180933001909311
:100580003101A0933201B0933301109234011092E3
:100590003501109236011092370180933801909303
:1005A0003901A0933A01B0933B0180933C019093B1
:1005B0003D01A0933E01B0933F0110924001109283
:1005C0004101109242011092430120930B012093AC
:1005D0000A0120930901089581E080930B01089599
:1005E00081E080930A0108950E946308811103C08D
:1005F00081E0809309010895CF930E9463088111DF
:100600001092090180910B01811105C080910A01AE
:10061000882309F40BC110920B01809109018823F2
:1006200011F081E401C082E40E9499000E946210EE
:10063000C82F803211F00E949900309905C0C43251
:1006400019F084E20E949900319905C0C53219F071
:1006500085E20E949900329905C0C63219F086E2FF
:100660000E949900339905C0CA3219F08AE20E94AB
:100670009900349905C0CB3219F08BE20E949900A1
:10068000359905C0CD3219F08DE20E9499000E9483
:100690006E10E0911F0123E0E29FF0011124EE0FA4
:1006A000FF1FEE0FFF1FEF5EFE4F238D348D458D34
:1006B000568D0E947614AB01BC0188E70E94C900E8
:1006C0000E947F10E0911F0123E0E29FF0011124BE
:1006D000EE0FFF1FEE0FFF1FEB5EFE4F238D348DDD
:1006E000458D568D0E947614AB01BC0189E70E94AE
:1006F000C9000E949010E0911F0123E0E29FF001E9
:100700001124EE0FFF1FEE0FFF1FE75EFE4F238D3C
:10071000348D458D568D0E947614AB01BC018AE75D
:100720000E94C90080910A01882309F47BC01092BD
:100730000A0140E050E86BEB74E486E70E94C900D0
:1007400020912C0130912D0140912E0150912F01CB
:10075000609138017091390180913A0190913B018B
:100760000E947614AB01BC0181E60E94C900209171
:10077000300130913101409132015091330160914B
:100780003C0170913D0180913E0190913F010E949A
:100790007614AB01BC0182E60E94C90020913401AD
:1007A00030913501409136015091370160914001FF
:1007B0007091410180914201909143010E94761411
:1007C000AB01BC0183E60E94C90040911201509127
:1007D0001301609114017091150187E60E94C90010
:1007E0006091160170E080E090E00E948B15AB01F3
:1007F000BC0188E60E94C900409117015091180180
:100800006091190170911A0189E60E94C900409116
:100810001B0150911C0160911D0170911E018AE61F
:100820000E94C90087E1CF910C949900CF9108955F
:10083000CF93DF93CDB7DEB728970FB6F894DEBF1E
:100840000FBECDBF99249394BCE03B2E0E94D801EB
:10085000182F0E946510882319F090920B015AC23C
:1008600017FD48C28FEB810F8A3108F00AC1412F72
:1008700050E0FA01E154F109E531F10508F0FFC05B
:10088000EC5CFF4F0C94B117A0901201B0901301D3
:10089000C0901401D09015018091280190912901F8
:1008A000A0912A01B0912B0189839A83AB83BC83E9
:1008B000209124013091250140912601509127017A
:1008C00040902001509021016090220170902301FE
:1008D0001434D9F460911B0170911C0180911D01A9
:1008E00090911E012D833E834F8358870E945F1590
:1008F0007F936F9380901601E980FA800B811C81B1
:100900002D813E814F81588508C01F921F92809093
:100910001601E980FA800B811C81C301B20161C01C
:1009200060911701709118018091190190911A013D
:10093000409116010E943208DAC110921101D7C10C
:1009400090921101D4C10E946614A0E2B1E0E32D9F
:100950001D92EA95E9F7E12CF12C8701A801970196
:10096000C801B7010E94920810921F0160912C01EA
:1009700070912D0180912E0190912F0160932001A3
:1009800070932101809322019093230120913001E3
:100990003091310140913201509133012093240173
:1009A000309325014093260150932701E0903401B4
:1009B000F09035010091360110913701E092280145
:1009C000F092290100932A0110932B01A0901201AB
:1009D000B0901301C0901401D09015011F921F9286
:1009E000812C0E9420090F900F9081C10E94391024
:1009F00081E090E01B3411F080E090E08C01000F6A
:100A0000111F080F191F0E946E10F801EE0FFF1F33
:100A1000EE0FFF1FEF5EFE4F638F748F858F968FF3
:100A20000E947F10F801EE0FFF1FEE0FFF1FEB5E1D
:100A3000FE4F638F748F858F968F0E949010F80100
:100A4000EE0FFF1FEE0FFF1FE75EFE4F638F748FE9
:100A5000858F968F4CC110921F0149C190921F0142
:100A600046C182E009C083E007C084E005C085E09C
:100A700003C086E001C087E00E94330838C18CE3E0
:100A800034C18FE9810F8A3108F02EC180911001A5
:100A9000843009F027C1812F90E0FC01E456F10970
:100AA000E731F10508F01CC1E75BFF4F0C94B1176B
:100AB00080911101813099F40E943802E0911F0168
:100AC00023E0E29FF0011124EE0FFF1FEE0FFF1F46
:100AD000EF5EFE4F238D348D458D568D0EC0C09038
:100AE0002001D0902101E0902201F09023010E948A
:100AF00038029B01AC01C701B6010E9477146093D4
:100B00002001709321018093220190932301EFC073
:100B100080911101813099F40E943802E0911F0107
:100B2000A3E0EA9FF0011124EE0FFF1FEE0FFF1F5D
:100B3000EB5EFE4F238D348D458D568D0EC0C090DB
:100B40002401D0902501E0902601F09027010E9419
:100B500038029B01AC01C701B6010E947714609373
:100B60002401709325018093260190932701BFC033
:100B700080911101813099F40E943802E0911F01A7
:100B8000B3E0EB9FF0011124EE0FFF1FEE0FFF1FEC
:100B9000E75EFE4F238D348D458D568D0EC0C0907F
:100BA0002801D0902901E0902A01F0902B010E94A9
:100BB00038029B01AC01C701B6010E947714609313
:100BC00028017093290180932A0190932B018FC0F3
:100BD0000E943802609312017093130180931401F4
:100BE0009093150184C00E9438020E945F156093A3
:100BF00016017DC00E94380260931701709318019E
:100C00008093190190931A0172C00E943802609378
:100C10001B0170931C0180931D0190931E0167C0FE
:100C20000E94380260932C0170932D0180932E0155
:100C300090932F015CC00E94380260933001709342
:100C40003101809332019093330151C00E943802E8
:100C5000609334017093350180933601909337018E
:100C600046C00E94380220912C0130912D01409104
:100C70002E0150912F010E947714609338017093D8
:100C8000390180933A0190933B0131C00E943802B0
:100C90002091300130913101409132015091330166
:100CA0000E94771460933C0170933D0180933E0154
:100CB00090933F011CC00E94380220913401309172
:100CC000350140913601509137010E9477146093AD
:100CD000400170934101809342019093430107C00A
:100CE0008EE303C08AE301C083E20E945C1010928D
:100CF000100110C0E0911001E43048F481E08E0F43
:100D000080931001F0E0E45FFE4F108303C08AE39C
:100D10000E945C100E94FC0299CD2F923F924F924C
:100D20005F926F927F928F929F92AF92BF92CF927B
:100D3000DF92EF92FF920F931F93CF93DF93CDB784
:100D4000DEB760970FB6F894DEBF0FBECDBF1C01B3
:100D50002A013B0148015901FC0162897389848998
:100D600095890E948B156B017C01A30192010E9461
:100D7000C4160E94DB140E945F152B013C01F10197
:100D800061A772A783A794A7A5019401C701B60123
:100D90000E94C4160E94DB140E945F154B015C0187
:100DA000F10165A776A787A790AB21A932A943A92E
:100DB00054A9A0EEBEE20E94701769837A838B83E8
:100DC0009C830E948D156D837E838F839887C301DA
:100DD000B2010E948B152B013C01A7019601C701AE
:100DE000B6010E94C4166B017C01A3019201C301EC
:100DF000B2010E94C41669877A878B879C872D81F0
:100E00003E814F815885CA01B9010E9477146D87D0
:100E10007E878F87988B29853A854B855C85C701AE
:100E2000B6010E9476142D853E854F8558890E9413
:100E3000F2140E94DB140E945A152B013C01C501DB
:100E4000B4010E948B159B01AC010E94C4164B019A
:100E50005C01A70196010E9476146B017C016981F7
:100E60007A818B819C8190958095709561957F4F5B
:100E70008F4F9F4F0E948D159B01AC010E947714EC
:100E80009B01AC01C701B6010E94F2140E94C81573
:100E9000F101C684D784E088F188A701960124195E
:100EA00035094609570929833A834B835C830E949D
:100EB0005A1529813A814B815C81261B370B480BDF
:100EC000590BDA01C90157FF3DC0C701B6010E94A5
:100ED0008D159B01AC016D857E858F8598890E945B
:100EE000C41629853A854B855C850E947614A50138
:100EF00094010E9477144B015C0120E030E040E84F
:100F000050E46D817E818F8198850E94C4169B017B
:100F1000AC01C501B4010E94F2140E94DB140E94CE
:100F20005A1597FF03C060E070E0CB012B013C0134
:100F3000C616D706E806F90614F42601370180E044
:100F400090E0DC01F10145AA56AA67AA70AE840DB3
:100F5000951DA61DB71D81AF92AFA3AFB4AF60962C
:100F60000FB6F894DEBF0FBECDBFDF91CF911F91BA
:100F70000F91FF90EF90DF90CF90BF90AF909F9038
:100F80008F907F906F905F904F903F902F9008953B
:100F90004F925F926F927F92AF92BF92CF92DF9209
:100FA000EF92FF920F931F93CF93DF938C01EB018E
:100FB000FC0180A5811147C0428C538C648C758CD8
:100FC000AA8CBB8CCC8CDD8C9501A601C301B2012F
:100FD0000E94EE1487FF37C0A3019201C301B20142
:100FE0000E94C4162B013C0120E03AEB4BE55AEC81
:100FF000F80162A173A184A195A10E94C4169B016E
:10100000AC01C301B2010E9476140E942B177B0130
:101010008C019B01AC01B501C6010E94EE1487FF53
:1010200002C0750186019701A801B501C6010E94A1
:10103000EE14882341F0A701B8014A8F5B8F6C8FB3
:101040007D8F81E08FA3DF91CF911F910F91FF9052
:10105000EF90DF90CF90BF90AF907F906F905F90B8
:101060004F9008950895EF92FF921F93CF93DF93CF
:101070001F92CDB7DEB7109162011F5F1E3009F4D9
:1010800010E0E12EFF24E7FCF0942091610130E0B4
:101090002E153F0529F489830E94FC028981F5CF32
:1010A000E09162019FE3E99FF0011124ED59FE4FA9
:1010B0008083109362010F90DF91CF911F91FF9079
:1010C000EF900C943E10209162019091610181E0BB
:1010D000291301C080E0089590916201809161011F
:1010E000981749F0809161012FE3829FC00111247C
:1010F0008D599E4F089580E090E00895909162018F
:1011000080916101981741F0809161018F5F8E306D
:1011100009F480E0809361010895109262011092B9
:10112000610108958F929F92AF92BF92CF92DF920A
:10113000EF92FF920F931F9349015A0167017801C3
:101140002CE137EC41EB52E40E94C4160E94941645
:101150006093550170935601809357019093580105
:1011600024E731ED45EB52E4C501B4010E94C416F9
:101170000E9494166093590170935A0180935B0109
:1011800090935C0125E535E545E052E4C701B601E1
:101190000E94C4160E94941660935D0170935E01D4
:1011A00080935F0190936001109244011092450179
:1011B00010924601109247018CE0E8E4F1E0DF0173
:1011C0001D928A95E9F71F910F91FF90EF90DF90A4
:1011D000CF90BF90AF909F908F900895EF92FF9225
:1011E0000F931F93CF931092620110926101CCE094
:1011F000E5E5F1E0DF018C2F1D928A95E9F7E12CFE
:10120000F12C870120E030E040EA50E4CA01B90146
:101210000E94920810925401E8E4F1E0DF011D926F
:10122000CA95E9F7E0924401F09245010093460126
:1012300010934701CF911F910F91FF90EF90089568
:101240002F923F924F925F926F927F928F929F92D6
:10125000AF92BF92CF92DF92EF92FF920F931F93C4
:10126000CF93DF93CDB7DEB7E3970FB6F894DEBF29
:101270000FBECDBF29013A01E982FA820B831C839C
:101280002A962EAC3FAC2A972CE137EC41EB52E486
:101290000E94C4160E9494166C8F7D8F8E8F9F8F34
:1012A00024E731ED45EB52E4C301B2010E94C416BC
:1012B0000E94941668A379A38AA39BA325E535E52C
:1012C00045E052E4C801B7010E94C4160E9494167A
:1012D0006CA37DA38EA39FA340906201042D0F5F9A
:1012E000098B0E3009F4198A4988042D112707FD4E
:1012F00010958091610190E08017910719F40E9488
:10130000FC02F7CF809154018823C1F00E94901015
:101310002B013C010E947F109B01AC0168AB39ABF3
:101320004AAB5BAB0E946E108301720128A939A9F8
:101330004AA95BA90E94920810925401809162010F
:101340000FE3809F3001112483010D591E4F1A8332
:10135000098321143104A1F081E0D8018C93B101FB
:1013600080E090E00E948B152CE137EC41EB52E4D9
:101370000E94C4160E949416F80176AF65AF03C0B0
:10138000A981BA811C92E981FA8186A21586809191
:10139000550190915601A0915701B09158012C8CA4
:1013A0003D8C4E8C5F8C281639064A065B0614F479
:1013B00028E025870091590110915A0120915B0185
:1013C00030915C0148A059A06AA07BA0401651064C
:1013D000620673062CF4E981FA81458540614587F0
:1013E00020905D0130905E0140905F01509060015F
:1013F0006CA07DA08EA09FA0621473048404950449
:101400002CF4E981FA814585406245876C8C7D8C9E
:101410008E8C9F8C681A790A8A0A9B0AC401B301D0
:101420006D867E868F86988A97FE0BC06624772409
:101430004301661A770A880A990A6D867E868F8626
:10144000988A6D847E848F849888A981BA81119648
:101450006D927D928D929C92149768A079A08AA03B
:101460009BA0601A710A820A930A6D827E828F8223
:1014700098866A8A7B8A8C8A9D8A97FE0CC0909493
:10148000809470946094611C711C811C911C6A8A08
:101490007B8A8C8A9D8AEA88FB880C891D89A981B0
:1014A000BA811596ED92FD920D931C9318976CA03E
:1014B0007DA08EA09FA06218730884089508698695
:1014C0007A868B869C869401830197FE07C03095AF
:1014D0002095109501951F4F2F4F3F4FA981BA813D
:1014E00019960D931D932D933C931C972A883B8846
:1014F0004C885D886D847E848F8498882614370498
:101500004804590420F46A8A7B8A8C8A9D8A4A8816
:101510005B886C887D88401651066206730610F45D
:1015200028013901A981BA811E964D925D926D9272
:101530007C925197411451046104710409F488C3E9
:101540000E948D152CE137EC41EB52E40E94F2141D
:101550006A8B7B8B8C8B9D8B6D817E818F81988537
:101560000E948D1524E731ED45EB52E40E94F21400
:1015700068A779A78AA79BA769857A858B859C85AB
:101580000E948D1525E535E545E052E40E94F214F0
:101590006CA77DA78EA79FA72A893B894C895D8967
:1015A000CA01B9010E94C4166D837E838F83988718
:1015B00028A539A54AA55BA5CA01B9010E94C41690
:1015C0009B01AC016D817E818F8198850E9477148B
:1015D0006D837E838F8398872CA53DA54EA55FA53F
:1015E000CA01B9010E94C4169B01AC016D817E81C4
:1015F0008F8198850E9477140E942B17688F798FAE
:101600008A8F9B8FE981FA8162A373A384A395A338
:101610009B01AC0160E070E080E89FE30E94F2145F
:101620006D837E838F8398879B01AC01C601B501D2
:101630000E94C4166B017C019B01AC01688D798D01
:101640008A8D9B8D0E94C41669877D878E8B9F8BA8
:10165000CB01AE89BF89E981FA81868B978BA08FF8
:10166000B18FC301B2010E948D154B015C01A7012E
:1016700096010E94C4160E94DB140E945F15A98186
:10168000BA8152966D937D938D939C9355972D813E
:101690003E814F815885C501B4010E94C41620E0E7
:1016A0003AEB4BED59E40E94C41620E030E84BE3DE
:1016B00056E40E94F2140E94DB140E945A15E9813C
:1016C000FA8161AB72AB83AB94AB2D813E814F81CC
:1016D00058856A897B898C899D890E94C4166A8B8A
:1016E0007B8B8C8B9D8B2D813E814F81588568A58E
:1016F00079A58AA59BA50E94C4164B015C012D818A
:101700003E814F8158856CA57DA58EA59FA50E9421
:10171000C4162B013C0190916201809161019817E0
:1017200009F4ACC00091440110914501209046019C
:101730003090470120E030E0A901B801C1010E94CA
:10174000901618160CF09AC08091480190914901AA
:10175000A0914A01B0914B01BC01CD0190582A895A
:101760003B894C895D890E94C4166B017C012091E4
:101770004C0130914D0140914E0150914F01C501F6
:10178000B4010E94C4169B01AC01C701B6010E94BE
:1017900076146B017C0120915001309151014091F0
:1017A000520150915301C301B2010E94C4169B0122
:1017B000AC01C701B6010E9476146B017C0123E3E2
:1017C00033E343E75FE30E94EE1487FF57C02985A8
:1017D0003D854E895F89B801C1010E94EE1487FDE5
:1017E00004C009851D852E883F8823E333E343E742
:1017F0005FEBC701B6010E94901618160CF042C0AC
:10180000A701960160E070E080E89FE30E947614F3
:1018100020E030E040E05FE30E94C4160E942B17F6
:101820006B017C0120E030EC48E256E40E94C416D3
:101830006D837E838F839887A701960160E070E0B7
:1018400080E89FE30E9476149B01AC016D817E814C
:101850008F8198850E94F2140E942B176B01F82E3D
:10186000E92E9B01482F592FB801C1010E94EE14A7
:1018700087FD08C086012F2C3E2C04C000E010E03C
:10188000212C312CC801D101E981FA81868F978FF3
:10189000A0A3B1A320E03AEB4BE55AEC688D798D1B
:1018A0008A8D9B8D0E94C4169B01AC0160E070E0A4
:1018B000CB010E9476140E942B176B01F82EE92EA3
:1018C0009B01482F592FB801C1010E94EE1487FFD8
:1018D00003C0302F212F04C03C2D2D2D2F2C3E2C4A
:1018E000832F922FD101E981FA81828F938FA48F68
:1018F000B58F96014F2D5E2D69857D858E899F89D7
:101900000E94EE14181634F081E0A981BA819896ED
:101910008C9303C0E981FA8110A681E0A981BA8184
:1019200097968C93EA88FB880C891D89E092480180
:10193000F092490100934A0110934B0180924C01AF
:1019400090924D01A0924E01B0924F0140925001F1
:1019500050925101609252017092530189859D8588
:10196000AE89BF898093440190934501A0934601BD
:10197000B09347012988209262014C8C5D8C6E8C5B
:101980007F8C40925501509256016092570170929F
:10199000580168A079A08AA09BA06092590170921A
:1019A0005A0180925B0190925C012CA03DA04EA058
:1019B0005FA020925D0130925E0140925F015092E3
:1019C0006001D0906201E0E0F0E000E010E04FE361
:1019D000242E332433948091610190E02D2D332700
:1019E00027FD30952817390709F46FC0D11002C0C0
:1019F0003EE0D32EDA94222D3D2D320370011124C6
:101A0000A7014D595E4F7A010115110509F45AC01D
:101A1000309709F457C0D80198968C9198975E96A4
:101A20009C905E975F96AC905F979096BC909097D5
:101A30009196CC9081113CC0428C538C648C758CF7
:101A4000A3019201692D7A2D8B2D9C2D0E94901659
:101A5000181674F5A3019201C301B2010E94C416C5
:101A60002B013C0120E03AEB4BE55AECF80162A176
:101A700073A184A195A10E94C4169B01AC01C3016E
:101A8000B2010E9476140E942B17562E672E782ED4
:101A9000892E262F372F482F592F692D7A2D8B2DE0
:101AA0009C2D0E94EE1487FD03C0952C5301C82C79
:101AB000892D9A2DAB2DBC2DF801828F938FA48F89
:101AC000B58F37A2F801870186CFD090610100E081
:101AD00010E080E090E02FE3C22E2D2D332727FD6C
:101AE00030954091620150E024173507C9F0C29E3D
:101AF0007001C39EF00C1124F701ED59FE4F7F01D8
:101B0000009731F00115110519F0B8010E94C807BE
:101B1000D394FEE0DF1201C0D12CC8018701DDCFD4
:101B2000009731F00115110519F0B8010E94C8079E
:101B300030906101A12CB12C8FE3282E832D9927A1
:101B400087FD90952091620130E08217930709F498
:101B500042C0289E4001299E900C112484010D59F9
:101B60001E4F4801A114B10479F1D50197968C91CB
:101B7000811104C0F80187A1882331F1D50156965F
:101B8000CD90DD90ED90FC905997A7019601F4015E
:101B9000628D738D848D958D0E94F2142B013C0112
:101BA000A7019601D5015A966D917D918D919C91D9
:101BB0005D970E94F214AB01BC0193018201C50143
:101BC0000E948D06F50117A23394FEE03F1201C07A
:101BD000312C5401B3CFD5015696CD90DD90ED90C8
:101BE000FC905997A701960160E070E0CB010E943C
:101BF000F2142B013C01A7019601F501628D738D52
:101C0000848D958D0E94F214AB01BC019301820179
:101C1000C5010E948D06D50197961C92E3960FB6DA
:101C2000F894DEBF0FBECDBFDF91CF911F910F9112
:101C3000FF90EF90DF90CF90BF90AF909F908F90EC
:101C40007F906F905F904F903F902F900C943E103C
:101C5000E3960FB6F894DEBF0FBECDBFDF91CF91F4
:101C60001F910F91FF90EF90DF90CF90BF90AF90BA
:101C70009F908F907F906F905F904F903F902F90AC
:101C8000089581E08093540108958AB1837F8AB9D1
:101C900087B1807C87B9089587BD0895882311F0A6
:101CA0005C9A08955C980895882311F05F9A0895CE
:101CB0005F980895882311F05D9A08955D980895BE
:101CC000569A17BC81E884BD83E085BD549A579A23
:101CD00080E00E944E0E80E00E94540E559A80E0F3
:101CE0000C945A0E8091E0049091E104A091E204DA
:101CF000B091E3044091DC045091DD046091DE0476
:101D00007091DF04840F951FA61FB71F813828E349
:101D1000920721E0A207B10550F48093DC04909370
:101D2000DD04A093DE04B093DF0480E008958058C2
:101D30009843A140B1098093DC049093DD04A09303
:101D4000DE04B093DF0481E008952F923F924F921A
:101D50005F926F927F928F929F92AF92BF92CF923B
:101D6000DF92EF92FF920F931F93CF93DF93182F81
:101D70006A017B0185E0C81AD108E108F108111158
:101D800002C08BE301C083E0C8E3C82795B18C2F64
:101D90008873977C892B85B9D6E006E022242394AA
:101DA0003324339486B1112311F09FE38927332024
:101DB00049F080FD07C0011104C0A1E0CA27312C01
:101DC00001C00150222049F082FD0BC0D11103C097
:101DD000B2E0CB2702C0D15004C0332009F479C04F
:101DE000212C85B19C2F9770892B85B98AE18A9522
:101DF000F1F785B1892785B9C701B6010E948B1516
:101E00002B013C012BEA3AEA4AEA50E40E94C4164C
:101E10004B015C0120E030E040E85FE30E94EE14FB
:101E200087FD53C020E030E04FE753E4C501B40123
:101E30000E94901618160CF043C020E030E04AE7EC
:101E400054E4C301B2010E94F2142B013C0120E0D2
:101E500030E04AE755E40E94C4164B015C0120E0E3
:101E600030E040E85FE30E94EE1487FD24C020E0EC
:101E70003FEF4FE757E4C501B4010E9490161816D2
:101E8000A4F420E030E040E251E4C301B2010E943A
:101E9000C4160E945F15CB01009709F483CFE0E9D7
:101EA000F1E03197F1F70197F7CFC501B4010E9436
:101EB0005F15CB0102C081E090E00197F1F772CF8E
:101EC000C501B4010E945F1501C061E06A95F1F798
:101ED00069CF8CE0E8EFF4E0DF011D928A95E9F725
:101EE000DF91CF911F910F91FF90EF90DF90CF90F6
:101EF000BF90AF909F908F907F906F905F904F902A
:101F00003F902F9008958F929F92AF92BF92CF9261
:101F1000DF92EF92FF920F931F93CF93DF931F9265
:101F2000CDB7DEB76B017C0180E4C81686E0D80629
:101F3000E104F10430F4A0E4CA2EA6E0DA2EE12C8C
:101F4000F12C60E070E788E399E3A70196010E9415
:101F50008F1721153105E1E04E07510518F4C9012D
:101F600060E02FC021153105F8E04F075105A8F4B6
:101F7000BA01A901E3E07695679557954795EA95EB
:101F8000D1F7CA019A01AB01F3E0220F331F441FBE
:101F9000551FFA95D1F761E014C0BA01A90186E096
:101FA00076956795579547958A95D1F7CA019A0115
:101FB000AB0166E0220F331F441F551F6A95D1F70E
:101FC00062E0709181006F5F787F672B6093810082
:101FD00090938900809388002093E0043093E1047B
:101FE0004093E2045093E3040091F6041091F70447
:101FF000F80166A170E080E090E00E948D154B0131
:102000005C01C701B6010E948B156B017C01F801D0
:1020100062897389848995890E948B159B01AC0123
:10202000C701B6010E94F2149B01AC01C501B401C5
:102030000E94C4160E945F15862F69830E944C0E71
:102040006981693210F082E005C06B3010F083E0E6
:1020500001C084E085BD0F90DF91CF911F910F915A
:10206000FF90EF90DF90CF90BF90AF909F908F90B8
:1020700008958091D7048111FFCF08958091D704EE
:1020800081110BC081E08093D70488E38093F5042D
:1020900080916F00826080936F0008951092D70442
:1020A0001092F7041092F604EFE6F0E080818D7F45
:1020B000808380E00C944C0E8093D50481E0809363
:1020C000D60408958091D50408958091D60408958A
:1020D00080E28093D5041092D60408956091F804AC
:1020E0007091F9048091FA049091FB040E948D157F
:1020F0002CE137EC41EB52E40E94F2140895609118
:10210000FC047091FD048091FE049091FF040E94F4
:102110008D1524E731ED45EB52E40E94F214089549
:102120006091000570910105809102059091030571
:102130000E948D1525E535E545E052E40E94F21434
:1021400008958F929F92AF92BF92CF92DF92EF92BB
:10215000FF920F931F93CF93DF9300D000D0CDB7A2
:10216000DEB749015A016701780169837A838B835D
:102170009C830E9439102CE137EC41EB52E46981D9
:102180007A818B819C810E94C4160E949416609370
:10219000F8047093F9048093FA049093FB0424E705
:1021A00031ED45EB52E4C501B4010E94C4160E9412
:1021B00094166093FC047093FD048093FE04909346
:1021C000FF0425E535E545E052E4C701B6010E946C
:1021D000C4160E94941660930005709301058093C5
:1021E0000205909303050F900F900F900F90DF91D1
:1021F000CF911F910F91FF90EF90DF90CF90BF9004
:10220000AF909F908F900895EF92FF920F931F933E
:1022100084B18F6384B985B1807C886385B9E1E836
:10222000F0E080818F7E8083808188608083E0E819
:10223000F0E080818D7F808380818E7F80838081AC
:102240008F73808380818F7C80831092B000109286
:10225000B100E0E7F0E080818160808360E476E0B7
:1022600080E090E00E94830F8CE0E8EFF4E0DF0173
:102270001D928A95E9F7E12CF12C870120E030E0EE
:1022800040EA50E4CA01B9010E94A1101092DC0496
:102290001092DD041092DE041092DF041092F70415
:1022A0001092F6041092D60480E28093D504109226
:1022B000E4041F910F91FF90EF900C944E101F9229
:1022C0000F920FB60F9211248F9385B1887F85B935
:1022D0001092B1008F910F900FBE0F901F90189524
:1022E0001F920F920FB60F9211240F931F932F93EB
:1022F0003F934F935F936F937F938F939F93AF938E
:10230000BF93CF93DF93EF93FF938091E404811108
:10231000C8C281E08093E4048091D604882339F018
:102320000E944E100E948D080E94410EB8C2309B40
:102330000AC0319B08C0329B06C0339B04C0349B4B
:1023400002C0359931C0309906C084E28093D5042B
:1023500081E08093D604319906C085E28093D5044C
:1023600081E08093D604329906C086E28093D5043A
:1023700081E08093D604339906C08AE28093D50425
:1023800081E08093D604349906C08BE28093D50413
:1023900081E08093D604359982C28DE28093D50482
:1023A00081E08093D6047BC295B18091F504887357
:1023B000977C892B85B985B1887F9091F504892B0D
:1023C00085B98AEF8093B20082E08093B10078945F
:1023D0008091F6049091F704892B09F05DC00E946A
:1023E0006C089093F7048093F604009719F40E9408
:1023F0004E1055C2FC012081223008F04DC061A56D
:1024000072A583A594A56093D8047093D904809392
:10241000DA049093DB0400E41CE920E030E0009350
:10242000DC041093DD042093DE043093DF040E946B
:10243000830FE091F604F091F70486859785A089D3
:10244000B189B595A79597958795B095A0959095E5
:1024500081959F4FAF4FBF4F8093F1049093F2044B
:10246000A093F304B093F4048093ED049093EE04EE
:10247000A093EF04B093F0048093E9049093EA04EE
:10248000A093EB04B093EC041092E5041092E604E0
:102490001092E7041092E804C091F604D091F7047A
:1024A000888190E08830910508F0F9C1FC01E05A7C
:1024B000FF4F0C94B1172D852093F5048091F10402
:1024C0009091F204A091F304B091F40449815A81EF
:1024D0006B817C81840F951FA61FB71F8093F10429
:1024E0009093F204A093F304B093F4044E855F85B7
:1024F00068897989181619061A061B0644F52160A1
:102500002093F504841B950BA60BB70B8093F10465
:102510009093F204A093F304B093F4048091F80430
:102520009091F904A091FA04B091FB0423FF04C038
:102530000197A109B10903C00196A11DB11D8093A6
:10254000F8049093F904A093FA04B093FB048091EB
:10255000ED049091EE04A091EF04B091F0040D8190
:102560001E812F813885800F911FA21FB31F80937A
:10257000ED049093EE04A093EF04B093F0041816CA
:1025800019061A061B0654F52091F50422602093C3
:10259000F504841B950BA60BB70B8093ED04909369
:1025A000EE04A093EF04B093F0048091FC049091AA
:1025B000FD04A091FE04B091FF0424FF04C0019724
:1025C000A109B10903C00196A11DB11D8093FC04AE
:1025D0009093FD04A093FE04B093FF048091E9045E
:1025E0009091EA04A091EB04B091EC0409851A855E
:1025F0002B853C85800F911FA21FB31F8093E90498
:102600009093EA04A093EB04B093EC041816190617
:102610001A061B0654F52091F50424602093F50456
:10262000841B950BA60BB70B8093E9049093EA04E7
:10263000A093EB04B093EC04809100059091010508
:10264000A0910205B091030525FF04C00197A109DF
:10265000B10903C00196A11DB11D8093000590939F
:102660000105A0930205B09303058091E5049091C4
:10267000E604A091E704B091E8040196A11DB11D04
:102680008093E5049093E604A093E704B093E804F4
:102690002091F50438E323272093F5048417950748
:1026A000A607B70708F0F5C04DA95EA96FA978ADD8
:1026B00084179507A607B70740F50E94720E882376
:1026C00009F4EDC089A99AA9ABA9BCA94091D80485
:1026D0005091D9046091DA047091DB04840F951F46
:1026E000A61FB71F8093D8049093D904A093DA044F
:1026F000B093DB044A895B896C897D894817590747
:102700006A077B0708F04AC041C049AD5AAD6BADBE
:102710007CAD84179507A607B70769F480E49CE9A8
:10272000A0E0B0E08093DC049093DD04A093DE048D
:10273000B093DF04B4C084179507A607B707C8F1A4
:102740000E94720E882309F4AAC08091D804909147
:10275000D904A091DA04B091DB0449A95AA96BA964
:102760007CA9841B950BA60BB70B8093D804909380
:10277000D904A093DA04B093DB044DA55EA56FA540
:1027800078A984179507A607B70740F44093D804A3
:102790005093D9046093DA047093DB046091D804F9
:1027A0007091D9048091DA049091DB040E94830F28
:1027B00076C06A897B898C899D890091D8041091A3
:1027C000D9042091DA043091DB0406171707280793
:1027D000390751F06093D8047093D9048093DA04D8
:1027E0009093DB040E94830FE091F604F091F704CC
:1027F0008081813009F053C025AD36AD40E050E016
:102800006091E5047091E6048091E7049091E804FA
:102810000E948F17613071058105910509F03FC055
:10282000F8940E9422027894482F50E040585109B1
:102830002EEF31E0429FC001439F900D529F900DBB
:102840001124E091F604F091F70466A170E00E9473
:102850007B17862FC62F0E944C0EC93210F082E0E3
:1028600005C0CB3010F083E001C084E085BD17C007
:1028700081E001C080E00E944E0E0BC081E001C0EB
:1028800080E00E94540E05C081E001C080E00E94FB
:102890005A0E1092F7041092F6040E947E081092CD
:1028A000E404FF91EF91DF91CF91BF91AF919F91A0
:1028B0008F917F916F915F914F913F912F911F91D8
:1028C0000F910F900FBE0F901F9018950E94391016
:1028D00048E552E060E070E080E00E94A50E40E133
:1028E00057E260E070E081E00C94A50E5058BB27E1
:1028F000AA270ED0C4C1B5D130F0BAD120F031F43E
:102900009F3F11F41EF4AAC10EF4E095E7FB77C1D6
:10291000E92FC6D180F3BA176207730784079507BA
:1029200018F071F49EF5F5C10EF4E0950B2EBA2F58
:10293000A02D0B01B90190010C01CA01A0011124C5
:10294000FF27591B99F0593F50F4503E68F11A1671
:10295000F040A22F232F342F4427585FF3CF469502
:1029600037952795A795F0405395C9F77EF41F1624
:10297000BA0B620B730B840BBAF09150A1F0FF0FEE
:10298000BB1F661F771F881FC2F70EC0BA0F621FDA
:10299000731F841F48F4879577956795B795F795CA
:1029A0009E3F08F0B3CF9395880F08F09927EE0F5C
:1029B00097958795089596D180F09F3740F49111AF
:1029C0000EF4A8C160E070E080E89FE3089526F06F
:1029D0001B16611D711D811D18C132C1ECD008F498
:1029E00081E008950CD04BC143D140F03AD130F092
:1029F00021F45F3F19F003C151118CC12FC150D197
:102A000098F39923C9F35523B1F3951B550BBB27B5
:102A1000AA2762177307840738F09F5F5F4F220F62
:102A2000331F441FAA1FA9F333D00E2E3AF0E0E85B
:102A300030D091505040E695001CCAF729D0FE2FA7
:102A400027D0660F771F881FBB1F26173707480739
:102A5000AB07B0E809F0BB0B802DBF01FF279358EF
:102A60005F4F2AF09E3F510568F0C9C053C15F3FD8
:102A7000ECF3983EDCF3869577956795B795F795D7
:102A80009F5FC9F7880F911D9695879597F90895CF
:102A9000E1E0660F771F881FBB1F6217730784076B
:102AA000BA0720F0621B730B840BBA0BEE1F88F77A
:102AB000E095089504D06894B1112CC10895F8D020
:102AC00088F09F5790F0B92F9927B751A0F0D1F017
:102AD000660F771F881F991F1AF0BA95C9F712C0A1
:102AE000B13081F016D1B1E0089513C1672F782F6E
:102AF0008827B85F39F0B93FCCF38695779567950D
:102B0000B395D9F73EF490958095709561957F4F78
:102B10008F4F9F4F0895E89409C097FB3EF490951E
:102B20008095709561957F4F8F4F9F4F9923A9F0A6
:102B3000F92F96E9BB279395F69587957795679535
:102B4000B795F111F8CFFAF4BB0F11F460FF1BC079
:102B50006F5F7F4F8F4F9F4F16C0882311F096E90C
:102B600011C0772321F09EE8872F762F05C06623BA
:102B700071F096E8862F70E060E02AF09A95660F73
:102B8000771F881FDAF7880F9695879597F908952C
:102B9000A9D080F09F3740F491110EF0BBC060E0E7
:102BA00070E080E89FEB089526F41B16611D711DEF
:102BB000811D2BC045C0990F0008550FAA0BE0E8F6
:102BC000FEEF16161706E807F907C0F012161306EF
:102BD000E407F50798F0621B730B840B950B39F42F
:102BE0000A2661F0232B242B252B21F408950A2695
:102BF00009F4A140A6958FEF811D811D089597F9D5
:102C00009F6780E870E060E00895882371F477237F
:102C100021F09850872B762F07C0662311F499274F
:102C20000DC09051862B70E060E02AF09A95660FF7
:102C3000771F881FDAF7880F9695879597F908957B
:102C40009F3F31F0915020F4879577956795B79520
:102C5000880F911D9695879597F908959FEF80ECC1
:102C6000089500240A9416161706180609060895F2
:102C700000240A9412161306140605060895092E58
:102C80000394000C11F4882352F0BB0F40F4BF2BC7
:102C900011F460FF04C06F5F7F4F8F4F9F4F089507
:102CA00057FD9058440F551F59F05F3F71F04795FD
:102CB000880F97FB991F61F09F3F79F087950895E2
:102CC000121613061406551FF2CF4695F1DF08C001
:102CD000161617061806991FF1CF8695710561051E
:102CE00008940895E5DFA0F0BEE7B91788F4BB2784
:102CF0009F3860F41616B11D672F782F8827985FCC
:102D0000F7CF869577956795B11D93959639C8F35A
:102D10000895E894BB2766277727CB0197F9089594
:102D20004ADF08F48FEF0895C3DF58F19E5758F13A
:102D30009851A0F0E9F0983020F5092E9927660FF8
:102D4000771F881F991F0A94D1F712C0062E672F8C
:102D5000782F8827985F11F4000C07C0993FB4F3CF
:102D60008695779567959395D9F7611D711D811D9E
:102D70003EF490958095709561957F4F8F4F9F4F52
:102D800008956894C7CFC5CF0BD079CF6ADF28F0FC
:102D90006FDF18F0952309F032CF60CF1124BACF3E
:102DA0007FDFA0F3959FD1F3950F50E0551F629FF1
:102DB000F001729FBB27F00DB11D639FAA27F00D94
:102DC000B11DAA1F649F6627B00DA11D661F829FBB
:102DD0002227B00DA11D621F739FB00DA11D621FA0
:102DE000839FA00D611D221F749F3327A00D611DBD
:102DF000231F849F600D211D822F762F6A2F11249F
:102E00009F5750408AF0E1F088234AF0EE0FFF1FF1
:102E1000BB1F661F771F881F91505040A9F79E3F28
:102E2000510570F0ECCE76CF5F3FECF3983EDCF3CB
:102E3000869577956795B795F795E7959F5FC1F765
:102E4000FE2B880F911D9695879597F9089511F49B
:102E50000EF404CFF5CE2CDFD0F39923D9F3CEF3C3
:102E60009F57550B87FF35D00024A0E640EA90011C
:102E700080585695979528F4805C660F771F881FB9
:102E800020F026173707480730F4621B730B840BBA
:102E9000202931294A2BA6951794079420253125FE
:102EA0004A2758F7660F771F881F20F02617370725
:102EB000480730F4620B730B840B200D311D411D4C
:102EC000A09581F7B901842F9158880F9695879521
:102ED000089591505040660F771F881FD2F70895CC
:102EE0000E94B717A59F900DB49F900DA49F800DD1
:102EF000911D1124089597FB072E16F4009407D016
:102F000077FD09D00E94C61707FC05D03EF49095C6
:102F100081959F4F0895709561957F4F0895A1E227
:102F20001A2EAA1BBB1BFD010DC0AA1FBB1FEE1F43
:102F3000FF1FA217B307E407F50720F0A21BB30B8E
:102F4000E40BF50B661F771F881F991F1A9469F70A
:102F500060957095809590959B01AC01BD01CF0166
:102F60000895EE0FFF1F0590F491E02D0994A29FA4
:102F7000B001B39FC001A39F700D811D1124911D4D
:102F8000B29F700D811D1124911D0895AA1BBB1BBA
:102F900051E107C0AA1FBB1FA617B70710F0A61B59
:102FA000B70B881F991F5A95A9F780959095BC017A
:082FB000CD010895F894FFCF54
:022FB800FE0019
:00000001FF
