:100000000C94D6000C94F3000C94F3000C94F300C1
:100010000C94F3000C94F3000C94F3000C94F30094
:100020000C94F3000C94F3110C94F3000C94AF13A4
:100030000C94F3000C94F3000C94F3000C94F30074
:100040000C94F3000C94F3000C946A040C949D023D
:100050000C94F3000C94F3000C94F3000C94F30054
:100060000C94F3000C94F3000D0A000D0A4C61731C
:100070006175724772626C207631322E30326500C3
:100080000A004572726F723A20004572726F723ABE
:10009000204C696D6974204869740A004572726F5A
:1000A000723A204368696C6C6572204F66660A007C
:1000B0004572726F723A20506F776572204F666694
:1000C0000A004572726F723A20466C6F6174696EF5
:1000D0006720706F696E74206572726F720A0045D6
:1000E00072726F723A20556E737570706F727465AC
:1000F000642073746174656D656E740A0045727274
:100100006F723A20457870656374656420636F6D23
:100110006D616E64206C65747465720A004572725C
:100120006F723A20426164206E756D62657220665E
:100130006F726D61740A006F6B0A000A5365652067
:10014000636F6E6669672E6820666F7220636F6EDC
:1001500066696775726174696F6E2E0A000A4C6178
:10016000736175724772626C207631322E3032655F
:1001700000494E46494E4954594E414ECDCCCC3D96
:100180000AD7233C17B7D13877CC2B329595E62484
:100190001FB14F0A000020410000C84200401C4629
:1001A00020BCBE4CCA1B0E5AAEC59D7411241FBE86
:1001B000CFEFD8E0DEBFCDBF11E0A0E0B1E0E2E8D4
:1001C000F6E302C005900D92A830B107D9F717E009
:1001D000A8E0B1E001C01D92AC30B107E1F70E9488
:1001E0006D020C943F1B0C940000A0E0B0E0EBEF1C
:1001F000F0E00C940E1BEC015B016115710519F028
:10020000FB0191838083F9908F2D90E00E94FD1A6D
:10021000892BC9F7FDE2FF1621F4F990EE24E3944F
:1002200005C02BE2F21609F4F990EE248E0101507C
:100230001040C80161E771E043E050E00E945502C0
:10024000892B01F58E010E5F1F4FC80164E771E035
:1002500045E050E00E945502892B19F48E01095F98
:100260001F4FA114B10419F0F50111830083E0FCC4
:1002700004C070E090E080E814C070E090E080E896
:100280006FEF08C1C80169E771E043E050E00E94E8
:100290005502892B69F4A114B10429F470E090E0AF
:1002A00080EC6FE7F7C02296F501D183C083F6CFCB
:1002B0008824992440E050E060E070E0EF2DE053A6
:1002C000EA30A0F5F2E0EF2A8E2D90E09C01287034
:1002D0003070E2FE06C0232B79F50894811C911C36
:1002E0002BC0232B19F0089481089108DB01CA0167
:1002F00012E0880F991FAA1FBB1F1A95D1F7480F4C
:10030000591F6A1F7B1F440F551F661F771F4E0F13
:10031000511D611D711D483929E9520729E96207FC
:1003200029E1720748F084E0E82A06C0EE3F31F484
:10033000E3FC39C098E0E92AF990C0CFE53311F029
:10034000E53189F529912D3219F4E0E1EE2A05C055
:100350002B3219F081E090E003C0299182E090E017
:10036000E22FE053EA3018F0C81BD90B1CC020E084
:1003700030E0FCE020383F075CF4C901880F991F8A
:10038000880F991F280F391F220F331F2E0F311D81
:10039000E991E053EA3068F3E4FE03C0309521951B
:1003A0003F4F820E931ECE2CDD24E1FE07C0A11428
:1003B000B10421F02197F501D183C083CB01BA01AB
:1003C0000E94C2187B018C01F3E0CF22DD2423E0E0
:1003D000C216D10421F417FB109517F91095570197
:1003E0006801C801B70120E030E040E050E00E9421
:1003F0002518882309F44AC097FE0DC020E9E22E93
:1004000021E0F22E9094819491089394C0E2D0E080
:1004100000E010E012C098EAE92E91E0F92EF6CF44
:10042000F7012591359145915491C601B5010E947E
:10043000FD195B016C018C1A9D0A8C169D0684F7D0
:10044000D595C7950F5F1F4F0630110529F08CEF2A
:100450009FEFE80EF91EF1CFC501D6017C018D0199
:100460008C2D880F8D2D881F8F3F51F0C601B5014F
:1004700020E030E040E050E00E942518882331F46D
:1004800082E290E090930B0780930A077E2D9F2DC8
:10049000802F612F272F392F482F562FB901CA01DE
:1004A000CDB7DEB7ECE00C942A1BFB01DC01415018
:1004B000504088F08D9181341CF08B350CF4805EB7
:1004C000659161341CF06B350CF4605E861B611124
:1004D00071F3990B0895881BFCCF78940E942C032C
:1004E0000E94C2040E949E0A0E94EE160E9467119A
:1004F0000E946E110E943209FDCF282FE0910D015C
:100500009E2F9F5F903249F490E007C083B78160CF
:1005100083BF889583B78E7F83BF80910E01981724
:10052000A9F3F0E0E656F94F208390930D018091F6
:10053000C10080628093C10008951F920F920FB690
:100540000F9211248F939F93EF93FF9390910E013D
:1005500080910A01882341F083E18093C6001092C4
:100560000A0110920C011AC080910B01882349F0F6
:1005700081E18093C60010920B0181E080930C0111
:100580000DC0E92FF0E0E656F94F80818093C60058
:100590009F5F903209F490E090930E0180910D01DD
:1005A000981729F48091C1008F7D8093C100FF913D
:1005B000EF919F918F910F900FBE0F901F90189504
:1005C0009091090180910801891711F42FEF22C041
:1005D000E92FF0E0E652FA4F2081E92FEF5FE09338
:1005E0000901809100018F5F8093000180910C01CF
:1005F000882361F480910001813240F081E0809392
:100600000B018091C10080628093C100E03C11F435
:1006100010920901822F08959091000180EC891BAE
:100620000895CF93DF93EC0103C021960E947D02D1
:1006300088818823D1F7DF91CF910895CF93DF93FD
:10064000EC0102C00E947D02FE0121968491882364
:10065000C9F7DF91CF9108951092C50087E6809386
:10066000C400E0ECF0E080818D7F8083E1ECF0E07D
:1006700080818061808380818860808380818068C0
:10068000808381E080930B018081806280838BE690
:1006900090E00E941E0388E690E00E941E030895E9
:1006A0002F923F924F925F926F927F928F929F9282
:1006B000AF92BF92CF92DF92EF92FF920F931F9370
:1006C000DF93CF93CDB7DEB7A0970FB6F894DEBF18
:1006D0000FBECDBF6B017C0129013A016115710587
:1006E0008105910521F480E30E947D0247C08824A2
:1006F000992454011E010894211C311C8101080D0C
:10070000191DC701B601A30192010E94DB1AF8016D
:1007100060830894811C911CA11CB11CC701B60107
:10072000A30192010E94DB1AC901DA016C017D016B
:10073000C114D104E104F10409F77101E80CF91CBA
:100740003E010894611C711CD501C4010197A109E7
:10075000B1096C01C818D9080EC0F601EE0DFF1DD5
:1007600080818A3010F4805D01C0895C0E947D0226
:100770000894E108F1086E147F0479F7A0960FB68B
:10078000F894DEBF0FBECDBFCF91DF911F910F91C7
:10079000FF90EF90DF90CF90BF90AF909F908F90A1
:1007A0007F906F905F904F903F902F900895EF92C1
:1007B000FF920F931F937B018C0197FF0BC08DE27B
:1007C0000E947D0210950095F094E094E11CF11CCC
:1007D000011D111DC801B7012AE030E040E050E0E2
:1007E0000E9450031F910F91FF90EF900895AF92D8
:1007F000BF92CF92DF92EF92FF920F931F93CF930E
:10080000DF937B018C0120E030E040E050E00E946B
:10081000251888233CF48DE20E947D0217FB109579
:1008200017F91095C801B7012FE632E143E05AE30A
:100830000E94AE177B018C010E9491185B016C0134
:10084000CC24B7FCC094DC2CC601B5012AE030E012
:1008500040E050E00E9450038EE20E947D02C601FB
:10086000B5010E94C4189B01AC01C801B7010E94E8
:10087000AD17C3E0D0E01EC020E030E040E251E41C
:100880000E94FD195B016C010E9491187B018C0193
:10089000862F805D0E947D026E2D70E0882777FD97
:1008A0008095982F0E94C4189B01AC01C601B50128
:1008B0000E94AD1721972FEFCF3FD207E9F6DF91C6
:1008C000CF911F910F91FF90EF90DF90CF90BF904D
:1008D000AF9008951F920F920FB60F9211242F938D
:1008E0003F934F935F936F937F938F939F93AF93B8
:1008F000BF93EF93FF932091C600213221F485E04E
:100900000E94B1112AC02E3719F40E94BD1125C0D2
:10091000E09108019E2F9F5F903C09F490E0809148
:1009200009019817D1F0F0E0E652FA4F2083909336
:1009300008018091000181508093000190910C0189
:10094000913059F480910001813238F490930A017A
:100950008091C10080628093C100FF91EF91BF91AF
:10096000AF919F918F917F916F915F914F913F9147
:100970002F910F900FBE0F901F90189581E08093DC
:100980004101089582E3EFE0F1E0DF011D928A95D5
:10099000E9F780E090E4ACE9B6E48093130190932A
:1009A0001401A0931501B093160180E090E4ACE926
:1009B000B5E48093170190931801A0931901B093A7
:1009C0001A0181E0809312011092400110923F01C0
:1009D00080E090E0A0EAB0E48093270190932801A2
:1009E000A0932901B0932A0180932B0190932C01AD
:1009F000A0932D01B0932E0120E030E040E050E0C4
:100A000020932F01309330014093310150933201F4
:100A10008093330190933401A0933501B093360154
:100A20008093370190933801A0933901B0933A0134
:100A300020933B0130933C0140933D0150933E0194
:100A40001092410108952F923F924F925F926F92C0
:100A50007F928F929F92AF92BF92CF92DF92EF924E
:100A6000FF920F931F93DF93CF93CDB7DEB76797B6
:100A70000FB6F894DEBF0FBECDBF9B8B8A8B109252
:100A80000F01198A90E05E010894A11CB11C53E08B
:100A9000952EEE24E39442E0842E70C0253131057A
:100AA000F9F126313105ACF42430310549F1253016
:100AB00031053CF4672B39F12130310509F055C07F
:100AC00027C02A303105D1F02431310509F04DC05D
:100AD00024C02733310569F12833310544F42E3120
:100AE000310509F12633310509F03FC01FC02A3511
:100AF000310511F12B353105C1F521C045E033C079
:100B000083E0898B34C0E092100191E0998B2FC073
:100B100080921001A2E0A98B2AC0E092110127C0A7
:100B20001092110124C0B4E0B98B21C010923F0192
:100B30001EC0E0923F011BC0E092120118C010924B
:100B4000120115C02830310539F02930310551F036
:100B50002730310551F403C0E8E0E98B08C0F7E025
:100B6000F98B05C046E0498B02C090920F0180913D
:100B70000F01882371F59C2D8A89981BEA89FB89CE
:100B8000E90FF11DF080FF2021F18F2D81548A3172
:100B900010F082E01CC09F5F0A891B89090F111D9C
:100BA000C801B5010E94F500C980DA80C016D106DF
:100BB00069F00E94AE1A0E9491189B01A7E4FA16F0
:100BC00009F46CCFBDE4FB1691F6BCCF81E08093B5
:100BD0000F0180910F01882309F02BC3DE011396CA
:100BE000EBE1F1E08CE001900D928150E1F71C8A7D
:100BF0001D8A1E8A1F8A44245524222433247724E4
:100C000090E0A2C0C701B60123E333E34BEC51E40B
:100C10000E94FD194B015C01E0E56E1609F473C0FA
:100C2000E61544F0F6E46F1691F04CE4641609F012
:100C300088C080C083E5681609F475C068160CF496
:100C400080C0862D8855833008F07BC023C0C50145
:100C5000B40120E030E040E050E00E942518181672
:100C60001CF091E090930F0180911001813049F4C4
:100C70008092170190921801A0921901B0921A0166
:100C800060C08092130190921401A0921501B0925D
:100C9000160157C080911201E62DFF27E7FDF09560
:100CA000882389F0E855F040EE0FFF1FEE0FFF1F7D
:100CB000A1E0B0E0AC0FBD1FEA0FFB1F8282938260
:100CC000A482B5821DC08F0108551040000F111F6E
:100CD000000F111FE1E0F0E0EC0FFD1F0E0F1F1FD2
:100CE000D80112966D917D918D919C911597A501DA
:100CF00094010E94AE17F801628373838483958305
:100D0000772473941EC0F989F53029F0CC8ADD8AE6
:100D1000EE8AFF8A16C0C701B6010E94AE1A0E9471
:100D200091182B010EC0C701B6010E94961860935E
:100D3000400107C0C701B6010E94AE1A0E94911877
:100D40001B019F854A89941BEA89FB89E90FF11DE4
:100D50006080662029F1862D81548A3110F082E06E
:100D60001DC09F5F0A891B89090F111DC801BE01A3
:100D70006F5F7F4F0E94F5006B017C0189819A8132
:100D8000988B8F878017910741F0809111018823FC
:100D900009F038CF460157013FCF81E080930F0122
:100DA00080910F01882309F044C29989943009F495
:100DB000AFC0953050F4923009F450C0933008F031
:100DC0009CC0913009F02AC20EC0A989A63009F44E
:100DD0001EC2A63008F4FCC0A73009F41AC2A8301D
:100DE00009F01CC218C2772009F418C220913F01F3
:100DF00083E0289F80011124F801EE0FFF1FEE0F02
:100E0000FF1FE95DFE4F6B817C818D819E8120817A
:100E10003181428153810E94AE171B012C01000FCA
:100E2000111F000F111FF801E55DFE4F6F817885DE
:100E300089859A8520813181428153810E94AE1734
:100E40003B014C01015D1E4F6B857C858D859E8528
:100E5000F8012081318142815381A8C0772009F4B3
:100E6000DDC120913F0183E0289F80011124F8011A
:100E7000EE0FFF1FEE0FFF1FE95DFE4F6B817C81C0
:100E80008D819E8120813181428153810E94AE17E4
:100E90001B012C01000F111F000F111FF801E55D50
:100EA000FE4F6F81788589859A85208131814281C5
:100EB00053810E94AE173B014C01015D1E4F6B85B3
:100EC0007C858D859E85D8012D913D914D915C91BC
:100ED0000E94AE177B018C01A0901301B090140109
:100EE000C0901501D0901601C201B101A401930177
:100EF000809040010E94B50C91C12C893D894E899A
:100F00005F89B901CA01409140010E94010A86C16E
:100F10000E9401138CE0EBE1F1E0DF01482F1D920C
:100F20004A95E9F7FE013396DF011D928A95E9F7AC
:100F300060E070E080E090E09B01AC017B018C01FF
:100F40000E94360A10923F01EB82FC820D831E83C1
:100F5000EF82F88609871A87EB86FC860D871E8745
:100F600060912701709128018091290190912A01B7
:100F7000A80197010E94AE171B012C0160912B0163
:100F800070912C0180912D0190912E01A801970163
:100F90000E94AE173B014C0160912F01709130010E
:100FA0008091310190913201A80197010E94AE1702
:100FB0007B018C01A0901701B0901801C09019011D
:100FC000D0901A01C201B101A4019301882492CFEB
:100FD000B2E04B16510408F021C1E2E02E163104B4
:100FE00009F095C0F201EE0FFF1FE40DF51DEE0FA5
:100FF000FF1FEE0FFF1F37E2C32E31E0D32ECE0EC0
:10100000DF1E2B813C814D815E81D6012D933D9366
:101010004D935C9313979BE2A92E91E0B92EAE0EEF
:10102000BF1E2F81388549855A85D5012D933D9363
:101030004D935C931397EB84FC840D851E85E15DD5
:10104000FE4FE082F1820283138320913F0183E00F
:10105000289F40011124F401EE0FFF1FEE0FFF1F28
:10106000E95DFE4F60911B0170911C0180911D0193
:1010700090911E0120813181428153810E94AE17DF
:10108000F60120813181428153810E94AD176B832B
:101090007C838D839E83880C991C880C991CF40199
:1010A000E55DFE4F60911F0170912001809121014B
:1010B0009091220120813181428153810E94AE179B
:1010C000D5012D913D914D915C910E94AD176F839B
:1010D000788789879A87EFE2F1E08E0E9F1E6091F4
:1010E0002301709124018091250190912601D40162
:1010F0002D913D914D915C910E94AE17A8019701F1
:101100000E94AD176B877C878D879E8787C0B4E16F
:101110002B16310409F082C08201000F111F040D4B
:10112000151D20913F0183E0289F60011124000FCD
:10113000111F000F111F67E2E62E61E0F62EE00E90
:10114000F11EF601EE0FFF1FEE0FFF1FE95DFE4FD0
:1011500060911B0170911C0180911D0190911E01F5
:1011600020813181428153810E94AE17F701608353
:101170007183828393833BE2E32E31E0F32EE00E12
:10118000F11ECC0CDD1CCC0CDD1CF601E55DFE4F28
:1011900060911F01709120018091210190912201A5
:1011A00020813181428153810E94AE17D7016D9316
:1011B0007D938D939C931397015D1E4FEFE2F1E0B9
:1011C000CE0EDF1E609123017091240180912501D4
:1011D00090912601D6012D913D914D915C910E94F7
:1011E000AE17F801608371838283938380E090E07F
:1011F000A0E0B0E08B839C83AD83BE838F83988710
:10120000A987BA878B879C87AD87BE8707C081E097
:1012100003C082E001C083E00E94BF0AABE1B1E0FD
:10122000FE0133968CE001900D928150E1F78091A0
:101230000F0167960FB6F894DEBF0FBECDBFCF91FA
:10124000DF911F910F91FF90EF90DF90CF90BF90B3
:10125000AF909F908F907F906F905F904F903F9056
:101260002F9008950F931F93CF93DF93C0E0D0E0AA
:1012700010E001E00E94E002982F112331F010E00D
:10128000893209F411E0102718C08132B4F0883295
:1012900099F0CF34D1058CF48156FE01E654F94F14
:1012A0009E012F5F3F4F8A3120F490529083905ED1
:1012B00001C09083E90103C011E02097D9F29A3070
:1012C000C9F6C654D94F188280914101882301F193
:1012D0000E94C01160931B0170931C0180931D013B
:1012E00090931E010E94D11160931F017093200101
:1012F00080932101909322010E94E21160932301C7
:10130000709324018093250190932601109241014E
:101310000E94B711882319F00E94BA1128C0809149
:10132000BA06843249F48DE591E00E941E038BE3F6
:1013300091E00E941E031FC08F33A9F481E091E069
:101340000E9411030E94C0110E94F70383E091E004
:101350000E9411030E94D1110E94F70386E091E0E0
:101360000E94110308C08AEB96E00E942305C82F53
:10137000D0E0209719F487E391E03CC0C430D10558
:1013800001F1C530D10554F4C230D105A1F0C3300C
:10139000D105A4F4C130D10501F50AC0C730D1058B
:1013A000B1F0C830D105B1F0C630D105B1F40CC0F0
:1013B0008DE191E01FC08DEF90E01CC08FED90E0BB
:1013C00019C082EC90E016C080EB90E013C08CE96D
:1013D00090E010C08AE890E00DC082E890E00E94A2
:1013E0001E03BE01882777FD8095982F0E94D703A2
:1013F00080E890E00E941E03DF91CF911F910F9132
:101400000895089590918C0580918D0520E09813A2
:1014100021E0822F089590918C0580918D05981779
:1014200019F420E030E008C090918D058DE3989F7D
:10143000900111242E5B3E4FC901089590918C05B7
:1014400080918D05981741F080918D058F5F8231D5
:1014500009F480E080938D05089510928C05109218
:101460008D05089581E080939A0508958F929F924B
:10147000AF92BF92CF92DF92EF92FF920F931F93A2
:1014800049015A012DEC3BE343E052E40E94FD196F
:101490000E94CD192EE8C22E25E0D22E60938E0533
:1014A00070938F058093900590939105C501B401C9
:1014B0002DEC3BE343E052E40E94FD190E94CD195C
:1014C000F601349660939205718382839383C801F9
:1014D000B7012DEC3BE343E052E40E94FD190E946A
:1014E000CD1928E030E0C20ED31E60939605D601D8
:1014F00011967C93119712968C93129713969C9346
:1015000080E090E0A0E0B0E08093A7059093A8056C
:10151000A093A905B093AA058CE0EBE9F5E0DF0103
:101520001D928A95E9F71F910F91FF90EF90DF9040
:10153000CF90BF90AF909F908F90089510928C05A0
:1015400010928D058CE0EEE8F5E0DF01982F1D92FA
:101550009A95E9F710929A05EBE9F5E0DF011D9203
:101560008A95E9F780E090E0A0E0B0E08093A705DD
:101570009093A805A093A905B093AA050895682F94
:1015800080918C058F5F823109F480E0482F5527C8
:1015900047FD509507C083B7816083BF889583B7A7
:1015A0008E7F83BF80918D0590E08417950799F316
:1015B00080918C0590E02DE330E0829FF001839FC5
:1015C000F00D929FF00D1124EE5BFE4F608340936F
:1015D0008C050E94A11108958F929F92AF92BF92A5
:1015E000CF92DF92EF92FF920F931F93CF93DF93EF
:1015F000EC016B0188A5882309F051C0EA8CFB8CB3
:101600000C8D1D8DFB01B28CA38C948C858CC80134
:10161000B7012B2D3A2D492D582D0E9425188823CE
:101620000CF03DC0C801B701A80197010E94FD1947
:101630007B018C016AA17BA18CA19DA120E03AEBEA
:101640004BE55AE40E94FD199B01AC01C801B701AA
:101650000E94AE170E94641A7B018C016B2D7A2DBB
:10166000892D982D9701A8010E942518882324F41C
:10167000EB2CFA2C092D182D6B2D7A2D892D982DF8
:101680009701A8010E942518882349F0C701D801B5
:10169000F601828F938FA48FB58F81E087A3DF91AE
:1016A000CF911F910F91FF90EF90DF90CF90BF905F
:1016B000AF909F908F9008952F923F924F925F929C
:1016C0006F927F928F929F92AF92BF92CF92DF9252
:1016D000EF92FF920F931F93DF93CF93CDB7DEB7B7
:1016E00068970FB6F894DEBF0FBECDBF1C016A012C
:1016F0007B0128013901DC0152966D917D918D911C
:101700009C9155970E94C2184B015C01A70196015C
:101710000E94FD190E9412180E9496187B018C01EC
:10172000F10161A772A783A794A7C501B401A30122
:1017300092010E94FD190E9412180E949618698752
:101740007A878B879C87D1019D966D937D938D932E
:101750009C93D097D1966D917D918D919C91D497CA
:1017600020E737E140E050E00E94BC1A2B013C0129
:10177000C801B7010E94C2187B018C01C301B201EC
:101780000E94C4186D837E838F839887C501B4013E
:10179000A50194010E94FD195B016C01C801B7010C
:1017A000A80197010E94FD196D877E878F87988B0E
:1017B0006D817E818F8198859B01AC010E94AE175F
:1017C000698B7A8B8B8B9C8BC601B5012D853E85F1
:1017D0004F8558890E94AD1729893A894B895C89C0
:1017E0000E9429180E9412180E94911869837A8316
:1017F0008B839C8369857A858B859C850E94C21822
:101800009B01AC010E94FD196D8B7E8B8F8B988F95
:10181000A60195010E94AD177B018C017094609424
:1018200050944094411C511C611C711CC301B201B5
:101830000E94C4189B01AC010E94AE179B01AC0131
:10184000C801B7010E9429180E94FF18F101A6845F
:10185000B784C088D1888601750129813A814B817E
:101860005C81E21AF30A040B150B0E949118A8017F
:101870009701261B370B480B590BDA01C90157FF9B
:101880004AC0C601B5010E94C4189B01AC01698918
:101890007A898B899C890E94FD192D853E854F850B
:1018A00058890E94AD172D893E894F89588D0E9415
:1018B000AE177B018C016D817E818F81988520E040
:1018C00030E040E850E40E94FD199B01AC01C801E2
:1018D000B7010E9429180E9412180E949118AC01A9
:1018E000CB01DA01BC01CD0197FF04C060E070E0DC
:1018F00080E090E069837A838B839C83A616B70689
:10190000C806D90624F4A982BA82CB82DC8280E0A0
:1019100090E0A0E0B0E029813A814B815C81F10147
:1019200025AB36AB47AB50AF820F931FA41FB51F3B
:1019300081AF92AFA3AFB4AF68960FB6F894DEBF95
:101940000FBECDBFCF91DF911F910F91FF90EF9010
:10195000DF90CF90BF90AF909F908F907F906F90CF
:101960005F904F903F902F9008952F923F924F920B
:101970005F926F927F928F929F92AF92BF92CF921F
:10198000DF92EF92FF920F931F93DF93CF93CDB728
:10199000DEB7EC970FB6F894DEBF0FBECDBF2901BE
:1019A0003A01ADA6BEA6CFA6D8AA382C2DEC3BE3B3
:1019B00043E052E40E94FD190E94CD1969837A83A5
:1019C0008B839C83C301B2012DEC3BE343E052E4E3
:1019D0000E94FD190E94CD196D837E838F839887A5
:1019E000C801B7012DEC3BE343E052E40E94FD192E
:1019F0000E94CD1969877A878B879C8780918C0597
:101A00008F5F823109F480E0482E552447FC5094C2
:101A10005C8E4B8E07C083B7816083BF889583B788
:101A20008E7F83BF80918D0590E02B8D3C8D82173A
:101A3000930789F380919A058823A1F00E94C01131
:101A40003B014C010E94D1115B016C010E94E2112B
:101A50007B018C01C401B301A60195010E94360AE5
:101A600010929A0590918C058DE3989FA001112406
:101A70004E5B5E4F5A8F498FDA011C9296963C92CC
:101A800096971D961C921D9729803A804B805C800A
:101A900029A63AA64BA65CA6E0908E05F0908F058D
:101AA00000919005109191052E143F0440065106B7
:101AB0001CF488E01D968C932D803E804F805884C6
:101AC000A0909205B0909305C0909405D090950594
:101AD0002A143B044C045D0444F4A98DBA8D1D9670
:101AE0008C911D9780611D968C9369847A848B8478
:101AF0009C842091960530919705409198055091CE
:101B0000990562167306840695062CF4E98DFA8D04
:101B100085858062858789A59AA5ABA5BCA58E1908
:101B20009F09A00BB10B7C018D01A98DBA8D119677
:101B3000ED92FD920D931C93149717FF0DC088270B
:101B40009927DC018E199F09A00BB10BE98DFA8D45
:101B500081839283A383B483D201C1018A199B0933
:101B6000AC09BD095C016D01A98DBA8D1596AD92C8
:101B7000BD92CD92DC921897D7FE0DC08827992789
:101B8000DC018A199B09AC09BD09E98DFA8D8583B1
:101B90009683A783B087621A730A840A950AD401D0
:101BA000C30197FE07C088279927DC01861997098A
:101BB000A809B909E98DFA8D81879287A387B4872F
:101BC0002581368147815085218032804380548031
:101BD0002DA23EA24FA258A6221633064406550651
:101BE00020F42DA33EA34FA358A72DA03EA04FA0A5
:101BF00058A4281639064A065B0620F48DA39EA336
:101C0000AFA3B8A72DA13EA14FA158A5A98DBA8D0C
:101C10001E962D933D934D935C935197211531055D
:101C20004105510509F43AC3C801B7010E94C4181F
:101C30002DEC3BE343E052E40E94291869AB7AABF8
:101C40008BAB9CABC601B5010E94C4182DEC3BE3E5
:101C500043E052E40E9429186DAB7EAB8FAB98AF86
:101C6000C401B3010E94C4182DEC3BE343E052E4ED
:101C70000E9429181B012C0169A97AA98BA99CA98A
:101C80009B01AC010E94FD197B018C016DA97EA90D
:101C90008FA998AD9B01AC010E94FD199B01AC017D
:101CA000C801B7010E94AE177B018C01C201B101CE
:101CB000A20191010E94FD199B01AC01C801B7016D
:101CC0000E94AE170E94641A7B018C01E98DFA8D87
:101CD00062A373A384A395A360E070E080E89FE310
:101CE000A80197010E9429183B014C016DA57EA512
:101CF0008FA598A9A40193010E94FD195B016C01B5
:101D0000C801B701A60195010E94FD1969AF7AAF1C
:101D10008BAF9CAFA98DBA8D56966D937D938D93A5
:101D20009C9359976DA17EA18FA198A50E94C4187C
:101D30007B018C01A60195010E94FD190E941218D9
:101D40000E949618E98DFA8D628B738B848B958B2C
:101D5000C801B701A40193010E94FD1920E03AEBEC
:101D60004BED59E40E94FD1920E030E84BEB55E4BF
:101D70000E9429180E9412180E949118A98DBA8DEC
:101D8000D1966D937D938D939C93D49769A97AA9ED
:101D90008BA99CA9A40193010E94FD1969A37AA3B0
:101DA0008BA39CA36DA97EA98FA998ADA4019301D3
:101DB0000E94FD196D8F7E8F8F8F98A3C201B10194
:101DC000A40193010E94FD191B012C0190918C0527
:101DD00080918D05981709F4A6C06090A7057090B2
:101DE000A8058090A9059090AA05B301C40120E040
:101DF00030E040E050E00E94C91918160CF093C082
:101E000060919B0570919C0580919D0590919E0528
:101E1000905829A13AA14BA15CA10E94FD197B0118
:101E20008C016D8D7E8D8F8D98A120919F053091B5
:101E3000A0054091A1055091A2050E94FD199B01AA
:101E4000AC01C801B7010E94AD177B018C01C20132
:101E5000B1012091A3053091A4054091A5055091B1
:101E6000A6050E94FD199B01AC01C801B7010E94A3
:101E7000AD177B018C0123E333E343E75FE30E946B
:101E8000251888230CF04FC0B301C40129AD3AAD29
:101E90004BAD5CAD0E94251887FD06C089AD9AAD9B
:101EA000ABADBCAD3C014D01C801B70123E333E349
:101EB00043E75FEB0E94C9191816D4F560E070E0A3
:101EC00080E89FE3A80197010E94AD1720E030E071
:101ED00040E05FE30E94FD190E94641A7B018C01BF
:101EE00020E038EC4FE258E40E94FD195B016C01E0
:101EF00060E070E080E89FE3A80197010E94AD17C1
:101F00009B01AC01C601B5010E9429180E94641A08
:101F10007B018C01B301C4019701A8010E9425181F
:101F200087FD06C007C0EE24FF2400E010E002C0D9
:101F300073018401C701D801E98DFA8D868F978FCF
:101F4000A0A3B1A362A173A184A195A120E03AEB63
:101F50004BE55AE40E94FD1920E030E040E050E0FB
:101F60000E94AE170E94641AD62EC72EB82EA92E34
:101F7000B701C8012D2D3C2D4B2D5A2D0E9425183F
:101F800087FD04C0ED2CFC2C0B2D1A2DC701D801A8
:101F9000E98DFA8D828F938FA48FB58F66897789AB
:101FA000808D918D2D2D3C2D4B2D5A2D0E94251865
:101FB000181634F081E0A98DBA8D98968C9303C0E1
:101FC000E98DFA8D10A681E0A98DBA8D97968C9334
:101FD0002D8A3E8A4F8A588E2D8C3E8C4F8C58A06D
:101FE000298A3A8A4B8A5C8A29A13AA14BA15CA131
:101FF0002D873E874F87588BABE9B5E0FE013D96B4
:102000008CE001900D928150E1F7E98DFA8D86897F
:102010009789A08DB18D8093A7059093A805A09373
:10202000A905B093AA05FB8DF0938C05AEE8B5E049
:10203000FE0131968CE001900D928150E1F7709095
:102040008C05CC24DD24E0E0F0E06624639473C0CA
:10205000772011F442E1742E7A94C114D10409F46A
:102060005EC0309709F45BC0D60198968C91989722
:10207000882309F048C05E968C905E975F969C908E
:102080005F979096AC9090979196BC90E28CF38C71
:10209000048D158DB401C501A80197010E94C919CD
:1020A00018168CF5C801B701A80197010E94FD1907
:1020B0007B018C01F60162A173A184A195A120E0AE
:1020C0003AEB4BE55AE40E94FD199B01AC01C801B3
:1020D000B7010E94AE170E94641A162F072FF82E20
:1020E000E92EB401C501212F302F4F2D5E2D0E9406
:1020F000251887FD04C0812E902EAF2CBE2CC40164
:10210000D501F60105C0F601868D978DA0A1B1A17C
:10211000828F938FA48FB58FD60197966C92B72D2F
:10212000EDE3BE02C0011124F60132E4C32E31E01A
:10213000D32EC80ED91E80918D05272D332727FD5C
:10214000309590E02817390709F082CFF0908D057F
:1021500000E010E040E050E019C04115510539F0B1
:102160000115110521F0CA01B8010E94EC0A2F2DBA
:102170002F5F223109F420E0FF2D3DE3F302C0017F
:102180001124F22EA8018C010E5B1E4F80918C054C
:102190002F2D332727FD309590E028173907E9F6D2
:1021A0004115510539F00115110521F0CA01B80199
:1021B0000E94EC0A50908D058824992441C0452D39
:1021C0005DE345023001112482E491E0680E791E3E
:1021D0008114910479F1D40197968C91882321F48C
:1021E000F30187A1882331F1D4015696ED90FD903B
:1021F0000D911C9159975A966D917D918D919C915D
:102200005D97A80197010E9429185B016C01F301F9
:10221000628D738D848D958DA80197010E94291878
:102220008B019C01C401B601A5010E945C0BD40185
:1022300097961C925394B2E15B1609F4552443011E
:1022400080918C05252D332727FD309590E02817A8
:10225000390709F0B4CFF401E688F788008D118DB5
:10226000628D738D848D958DA80197010E94291828
:102270005B016C0160E070E080E090E0A8019701F4
:102280000E9429188B019C01C401B601A5010E947E
:102290005C0BD40197961C920E94A111EC960FB68C
:1022A000F894DEBF0FBECDBFCF91DF911F910F918C
:1022B000FF90EF90DF90CF90BF90AF909F908F9066
:1022C0007F906F905F904F903F902F9008958AB1CC
:1022D000837D8AB987B1807F87B90895569A17BCE4
:1022E00084B5806884BD84B5816084BD85B5816016
:1022F00085BD3C9A3D9A449A459A579A5F980895AD
:1023000087BD0895882311F044980895449A08954C
:10231000882311F045980895459A0895882311F06F
:102320005F9808955F9A08958091D705882341F0BA
:1023300083B7816083BF889583B78E7F83BFF8CFD3
:1023400008958091D705882359F481E08093D705BB
:1023500088E18093B90580916F00826080936F005F
:1023600008958093D90581E08093D80508958091E0
:10237000D80508958091D90508951092D80508953B
:102380006091AB057091AC058091AD059091AE0563
:102390000E94C4182DEC3BE343E052E40E9429184C
:1023A00008956091AF057091B0058091B10590914D
:1023B000B2050E94C4182DEC3BE343E052E40E94B6
:1023C000291808956091B3057091B4058091B50501
:1023D0009091B6050E94C4182DEC3BE343E052E413
:1023E0000E94291808951F920F920FB60F92112480
:1023F0008F9385B1887F85B91092B1008F910F902E
:102400000FBE0F901F9018952F923F924F925F92A0
:102410006F927F928F929F92AF92BF92CF92DF92F4
:10242000EF92FF920F931F93DF93CF9300D00F9201
:10243000CDB7DEB7382E462E4A832B8337014801AD
:102440008BEF9FEFAFEFBFEF680E791E8A1E9B1ECA
:10245000332011F099E301C098E341109260AA8102
:10246000A1119460BB81BB2311F088E3982728E178
:10247000522E592685B1952D9873877C982B95B946
:10248000E6E0E98386E0282E86B1FB81FF2311F088
:102490009FE08927332061F080FD0AC0A981AA232B
:1024A00021F4B1E05B26332403C0E981E150E983E4
:1024B000442049F082FD07C0222021F4F2E05F268B
:1024C000442401C02A94332031F4442021F48A8129
:1024D000882309F479C085B1952D9770892B85B92A
:1024E0008AE18A95F1F785B1982795B9C401B301BE
:1024F0000E94C2185B016C012BEA3AEA4AEA50E4F6
:102500000E94FD197B018C0120E030E040E85FE390
:102510000E942518882314F461E053C0C801B70154
:1025200020E030E04FE753E40E94C91918160CF080
:1025300044C0C601B50120E030E04AE754E40E94FF
:1025400029185B016C0120E030E04AE755E40E9465
:10255000FD197B018C0120E030E040E85FE30E9440
:10256000251888231CF461E070E023C0C801B7017E
:1025700020E03FEF4FE757E40E94C9191816ACF46A
:10258000C601B50120E030E040E251E40E94FD19AF
:102590000E94961806C080E991E00197F1F761501A
:1025A000704061157105B9F76FCFC801B7010E947E
:1025B0009618CB010197F1F767CFC801B7010E94C8
:1025C00096186A95F1F760CF8CE0EBEAF5E0DF0151
:1025D0001D928A95E9F70F900F900F90CF91DF91A0
:1025E0001F910F91FF90EF90DF90CF90BF90AF9031
:1025F0009F908F907F906F905F904F903F902F9023
:102600000895EF92FF920F931F938091D70588232F
:1026100041F083B7816083BF889583B78E7F83BF86
:10262000F8CF81E061E040E020E058EEE52E53E095
:10263000F52E012D112D0E94041281E061E040E091
:1026400021E030E1E32E37E2F32E012D112D0E941F
:1026500004121F910F91FF90EF9008959B01AC0120
:10266000203486E0380780E0480780E0580720F4EF
:1026700020E436E040E050E060E070E788E399E372
:102680000E94DB1AC901DA01803020E0920721E0C4
:10269000A20720E0B20738F4FC019C0140E050E0C2
:1026A00060E070E031C0803020E0920728E0A207AF
:1026B00020E0B207A8F423E0B695A79597958795F3
:1026C0002A95D1F7FC019C0140E050E0A3E0220FE5
:1026D000331F441F551FAA95D1F761E070E014C065
:1026E00076E0B695A795979587957A95D1F7FC01F1
:1026F0009C0140E050E066E0220F331F441F551F4D
:102700006A95D1F762E070E080918100962F9F5F1B
:10271000887F982B90938100F0938900E093880044
:102720002093CB053093CC054093CD055093CE0537
:10273000E091B705F091B80586A10E948011089537
:102740001092D7051092B8051092B705EFE6F0E0A9
:1027500080818D7F808380E00E94801108951F9288
:102760000F920FB60F9211242F933F934F935F93C5
:102770006F937F938F939F93AF93BF93EF93FF9349
:102780008091CA05882309F018C381E08093CA05A7
:102790008091D805882349F00E94A0130E942D0A39
:1027A0000E94320A0E94BE0406C3309B20C086B13C
:1027B000869580FF1CC086B18695869580FF17C0E0
:1027C00086B186958695869580FF11C089B18695DC
:1027D000869580FF0CC089B186958695869580FF89
:1027E00006C089B182958695877080FD29C0309B8F
:1027F0000FC086B1869580FF0BC086B18695869501
:1028000080FF06C086B186958695869580FD02C0BC
:1028100088E007C089B186958695869580FD07C0BA
:1028200087E08093D90581E08093D805C4C289B13F
:102830008695869580FD02C086E0F3CF89B1BBC244
:1028400095B12091B905822F8873977C892B85B922
:1028500085B1887F822B85B98AEF8093B20082E0B0
:102860008093B10078948091B7059091B805892B39
:1028700009F05DC00E940B0AFC019093B80580939B
:10288000B705009719F40E94A01395C28081882390
:1028900009F04DC061A572A583A594A56093D305E9
:1028A0007093D4058093D5059093D60520E838E33E
:1028B00041E050E02093CF053093D0054093D105FF
:1028C0005093D2050E942E13E091B705F091B80500
:1028D00086859785A089B189B595A79597958795A0
:1028E000B095A095909581959F4FAF4FBF4F809326
:1028F000BA059093BB05A093BC05B093BD0580932A
:10290000BE059093BF05A093C005B093C105809309
:10291000C2059093C305A093C405B093C50510925A
:10292000C6051092C7051092C8051092C905E0911E
:10293000B705F091B8058081813009F42AC2813051
:1029400038F0823009F42AC2833009F034C22AC236
:1029500025852093B9054091BA055091BB0560913A
:10296000BC057091BD0581819281A381B481480F1E
:10297000591F6A1F7B1F4093BA055093BB05609394
:10298000BC057093BD051416150616061706BCF592
:1029900021602093B90586859785A089B189481B58
:1029A000590B6A0B7B0B4093BA055093BB056093A0
:1029B000BC057093BD0526952695269520FF0CC075
:1029C0008091AB059091AC05A091AD05B091AE059D
:1029D0000197A109B1090BC08091AB059091AC059D
:1029E000A091AD05B091AE050196A11DB11D8093DA
:1029F000AB059093AC05A093AD05B093AE054091A7
:102A0000BE055091BF056091C0057091C1058581DB
:102A10009681A781B085480F591F6A1F7B1F40937D
:102A2000BE055093BF056093C0057093C105141691
:102A3000150616061706C4F52091B90522602093E5
:102A4000B90586859785A089B189481B590B6A0B02
:102A50007B0B4093BE055093BF056093C0057093F8
:102A6000C10522952F7020FF0CC08091AF05909179
:102A7000B005A091B105B091B2050197A109B109C6
:102A80000BC08091AF059091B005A091B105B091B8
:102A9000B2050196A11DB11D8093AF059093B005BD
:102AA000A093B105B093B2054091C2055091C30502
:102AB0006091C4057091C50581859285A385B48513
:102AC000480F591F6A1F7B1F4093C2055093C305CF
:102AD0006093C4057093C5051416150616061706EF
:102AE000CCF52091B90524602093B905868597859A
:102AF000A089B189481B590B6A0B7B0B4093C20517
:102B00005093C3056093C4057093C505229526951F
:102B1000277020FF0CC08091B3059091B405A0915F
:102B2000B505B091B6050197A109B1090BC0809117
:102B3000B3059091B405A091B505B091B605019685
:102B4000A11DB11D8093B3059093B405A093B50565
:102B5000B093B6052091C6053091C7054091C805D0
:102B60005091C9052F5F3F4F4F4F5F4F2093C605D0
:102B70003093C7054093C8055093C9058091B905A6
:102B800098E189278093B90586859785A089B189C1
:102B9000281739074A075B0708F007C185A996A9D6
:102BA000A7A9B0AD281739074A075B0708F054C03A
:102BB0002091CB053091CC054091CD055091CE05AB
:102BC0008091CF059091D005A091D105B091D2050B
:102BD000280F391F4A1F5B1F2093CF053093D00564
:102BE0004093D1055093D205213081E7380782E028
:102BF000480780E0580708F4DEC0205031474240C3
:102C000050402093CF053093D0054093D105509389
:102C1000D20581A992A9A3A9B4A92091D305309185
:102C2000D4054091D5055091D605820F931FA41F5E
:102C3000B51F8093D3059093D405A093D505B09389
:102C4000D6052289338944895589281739074A07C7
:102C50005B0708F077C06EC081AD92ADA3ADB4AD97
:102C6000281739074A075B0769F480E898E3A1E071
:102C7000B0E08093CF059093D005A093D105B09399
:102C8000D20599C0281739074A075B0708F463C0C3
:102C90002091CB053091CC054091CD055091CE05CA
:102CA0008091CF059091D005A091D105B091D2052A
:102CB000280F391F4A1F5B1F2093CF053093D00583
:102CC0004093D1055093D205213081E7380782E047
:102CD000480780E0580708F46EC020503147424052
:102CE00050402093CF053093D0054093D1055093A9
:102CF000D2058091D3059091D405A091D505B091CE
:102D0000D60521A932A943A954A9821B930BA40B70
:102D1000B50B8093D3059093D405A093D505B093BC
:102D2000D60525A536A547A550A982179307A40760
:102D3000B50740F42093D3053093D4054093D505CF
:102D40005093D6056091D3057091D4058091D50537
:102D50009091D6051BC02289338944895589809179
:102D6000D3059091D405A091D505B091D6058217D1
:102D70009307A407B507F9F02093D3053093D40542
:102D80004093D5055093D605CA01B9010E942E1370
:102D900012C080E00E94821180E005C081E00E94A4
:102DA000821103C081E00E9488111092B805109230
:102DB000B7050E941E0A1092CA05FF91EF91BF91BC
:102DC000AF919F918F917F916F915F914F913F91C3
:102DD0002F910F900FBE0F901F90189584B18F63A5
:102DE00084B985B1807C886185B9E1E8F0E08081B3
:102DF0008F7E8083808188608083E0E8F0E080813E
:102E00008D7F808380818E7F808380818F7380839C
:102E100080818F7C80831092B0001092B100E0E737
:102E2000F0E080818160808360E476E080E090E083
:102E30000E942E138CE0EBEAF5E0DF011D928A95EB
:102E4000E9F71092CF051092D0051092D10510929B
:102E5000D2051092B8051092B7051092D8051092BD
:102E6000D9051092CA050E94A01308956F927F920F
:102E70008F929F92AF92BF92CF92DF92EF92FF928A
:102E80000F931F935B016C0139014A018091D705B3
:102E9000882341F083B7816083BF889583B78E7F95
:102EA00083BFF8CFC601B5012DEC3BE343E052E40C
:102EB0000E94FD1920E030E040E05FE30E94AE1781
:102EC0000E94FF180E9491186093AB057093AC05A7
:102ED0008093AD059093AE05C401B3012DEC3BE3A7
:102EE00043E052E40E94FD1920E030E040E05FE35F
:102EF0000E94AE170E94FF180E9491186093AF05C0
:102F00007093B0058093B1059093B205C801B701E5
:102F10002DEC3BE343E052E40E94FD1920E030E059
:102F200040E05FE30E94AE170E94FF180E949118D4
:102F30006093B3057093B4058093B5059093B6057F
:102F40001F910F91FF90EF90DF90CF90BF90AF90C7
:102F50009F908F907F906F9008955058BB27AA271D
:102F60000ED0C6C1B7D130F0BCD120F031F49F3FB4
:102F700011F41EF4ACC10EF4E095E7FB77C1E92F24
:102F8000C8D180F3BA17620773078407950718F052
:102F900071F49EF5F7C10EF4E0950B2EBA2FA02D1B
:102FA0000B01B90190010C01CA01A0011124FF27F6
:102FB000591B99F0593F50F4503E68F11A16F040F1
:102FC000A22F232F342F4427585FF3CF46953795F0
:102FD0002795A795F0405395C9F77EF41F16BA0BB5
:102FE000620B730B840BBAF09150A1F0FF0FBB1F63
:102FF000661F771F881FC2F70EC0BA0F621F731FAC
:10300000841F48F4879577956795B795F7959E3F08
:1030100008F0B3CF9395880F08F09927EE0F979596
:103020008795089598D180F09F3740F491110EF460
:10303000AAC160E070E080E89FE3089526F01B16C7
:10304000611D711D811D18C132C1ECD008F481E0F1
:1030500008950CD04DC145D140F03CD130F021F461
:103060005F3F19F003C151118EC131C152D198F3A4
:103070009923C9F35523B1F3951B550BBB27AA27F9
:1030800062177307840738F09F5F5F4F220F331F6B
:10309000441FAA1FA9F333D00E2E3AF0E0E830D037
:1030A00091505040E695001CCAF729D0FE2F27D03A
:1030B000660F771F881FBB1F261737074807AB0708
:1030C000B0E809F0BB0B802DBF01FF2793585F4F7D
:1030D0002AF09E3F510568F0C9C055C15F3FECF32F
:1030E000983EDCF3869577956795B795F7959F5F42
:1030F000C9F7880F911D9695879597F90895E1E096
:10310000660F771F881FBB1F621773078407BA07F4
:1031100020F0621B730B840BBA0BEE1F88F7E0954F
:10312000089504D06894B1112EC10895FAD088F0A2
:103130009F5790F0B92F9927B751A0F0D1F0660FA3
:10314000771F881F991F1AF0BA95C9F712C0B130BE
:1031500081F018D1B1E0089515C1672F782F882725
:10316000B85F39F0B93FCCF3869577956795B395FD
:10317000D9F73EF490958095709561957F4F8F4F6C
:103180009F4F0895E89409C097FB3EF49095809571
:10319000709561957F4F8F4F9F4F9923A9F0F92F1D
:1031A00096E9BB279395F695879577956795B7959B
:1031B000F111F8CFFAF4BB0F11F460FF1BC06F5F81
:1031C0007F4F8F4F9F4F16C0882311F096E911C093
:1031D000772321F09EE8872F762F05C0662371F0B4
:1031E00096E8862F70E060E02AF09A95660F771FC8
:1031F000881FDAF7880F9695879597F90895ABD0D1
:1032000080F09F3740F491110EF0BDC060E070E097
:1032100080E89FEB089526F41B16611D711D811D2A
:103220002BC045C0990F0008550FAA0BE0E8FEEF30
:1032300016161706E807F907C0F012161306E4077A
:10324000F50798F0621B730B840B950B39F40A2673
:1032500061F0232B242B252B21F408950A2609F451
:10326000A140A6958FEF811D811D089597F99F6755
:1032700080E870E060E00895882371F4772321F0FE
:103280009850872B762F07C0662311F499270DC01D
:103290009051862B70E060E02AF09A95660F771FB8
:1032A000881FDAF7880F9695879597F908959F3FBD
:1032B00049F0915028F4869577956795B7959F5F6B
:1032C00080389F4F880F9695879597F908959FEFBF
:1032D00080EC089500240A941616170618060906AD
:1032E000089500240A94121613061406050608957C
:1032F000092E0394000C11F4882352F0BB0F40F404
:10330000BF2B11F460FF04C06F5F7F4F8F4F9F4F43
:10331000089557FD9058440F551F59F05F3F71F0C5
:103320004795880F97FB991F61F09F3F79F087952C
:103330000895121613061406551FF2CF4695F1DFB5
:1033400008C0161617061806991FF1CF8695710545
:10335000610508940895E5DFA0F0BEE7B91788F489
:10336000BB279F3860F41616B11D672F782F88276A
:10337000985FF7CF869577956795B11D93959639A8
:10338000C8F30895E894BB2766277727CB0197F900
:10339000089548DF08F48FEF0895C3DF58F19E5772
:1033A00058F19851A0F0E9F0983020F5092E9927AE
:1033B000660F771F881F991F0A94D1F712C0062E37
:1033C000672F782F8827985F11F4000C07C0993F6A
:1033D000B4F38695779567959395D9F7611D711D1F
:1033E000811D3EF490958095709561957F4F8F4F2C
:1033F0009F4F08956894C7CFC5CF0BD079CF6ADFB0
:1034000028F06FDF18F0952309F030CF60CF11243A
:10341000BACF7FDFA0F3959FD1F3950F50E0551FF2
:10342000629FF001729FBB27F00DB11D639FAA2719
:10343000F00DB11DAA1F649F6627B00DA11D661F68
:10344000829F2227B00DA11D621F739FB00DA11D89
:10345000621F839FA00D611D221F749F3327A00D43
:10346000611D231F849F600D211D822F762F6A2FDF
:1034700011249F5750408AF0E1F088234AF0EE0F64
:10348000FF1FBB1F661F771F881F91505040A9F771
:103490009E3F510570F0EACE76CF5F3FECF3983E49
:1034A000DCF3869577956795B795F795E7959F5FD8
:1034B000C1F7FE2B880F911D9695879597F9089572
:1034C00011F40EF404CFF3CE2CDFD0F39923D9F30B
:1034D000CEF39F57550B87FF48D056959795B0E090
:1034E00020F4660F771F881FBB1F1F930F930024C4
:1034F0009001A0018001F001A0E80E0F1F1F0A1E1D
:10350000511D601B710B8009B50B48F4600F711FD2
:10351000801DB51F0E1B1F0B0A0A510907C02E0F75
:103520003F1F4A1F0E0F1F1F0A1E511D660F771FD8
:10353000881FBB1FA695F795E795F8F6061717079E
:1035400008065B07211D311D411D0F911F91B90117
:10355000842F9158880F969587950895FCDE20F06A
:103560009F3708F410CF88CEA2CE91505040660FFE
:10357000771F881FD2F70895629FD001739FF001D3
:10358000829FE00DF11D649FE00DF11D929FF00DF3
:10359000839FF00D749FF00D659FF00D9927729F2A
:1035A000B00DE11DF91F639FB00DE11DF91FBD01B5
:1035B000CF0111240895A1E21A2EAA1BBB1BFD0105
:1035C0000DC0AA1FBB1FEE1FFF1FA217B307E40702
:1035D000F50720F0A21BB30BE40BF50B661F771F5A
:1035E000881F991F1A9469F760957095809590953A
:1035F0009B01AC01BD01CF010895911106C080323D
:1036000019F089508550D0F7089599278827089593
:103610002F923F924F925F926F927F928F929F92E2
:10362000AF92BF92CF92DF92EF92FF920F931F93D0
:10363000CF93DF93CDB7DEB7CA1BDB0B0FB6F89481
:10364000DEBF0FBECDBF09942A88398848885F84C1
:103650006E847D848C849B84AA84B984C884DF8032
:10366000EE80FD800C811B81AA81B981CE0FD11D16
:103670000FB6F894DEBF0FBECDBFED010895F894EC
:02368000FFCF7A
:08368200C058002059000A00A5
:00000001FF
