:100000000C9464000C9481000C9481000C94810089
:100010000C9481000C9481000C9481000C9481005C
:100020000C9481000C9488110C9481000C9499110B
:100030000C9481000C9481000C9481000C9481003C
:100040000C9481000C9481000C948C010C9422017E
:100050000C9481000C9481000C9481000C9481001C
:100060000C9481000C948100D6069704E304970455
:10007000F004F304F604500550058A058D0590053B
:1000800092059405960598059A055906CF064706E8
:10009000CF066F067A0685069006A506BA06CF0635
:1000A000CF066406CF06CF065206CF06CF06CF0690
:1000B000CF06B705E7051706701270124D144F14DE
:1000C0005314551459145B1411241FBECFEFD8E0FC
:1000D000DEBFCDBF11E0A0E0B1E0EEEDFFE202C077
:1000E00005900D92A230B107D9F716E0A2E0B1E079
:1000F00001C01D92A338B107E1F70E9483000C9460
:10010000ED170C94000078940E94AD000E948802C4
:100110000E94520E0E942D110E94820E0E949D0E7E
:100120000E946B0480E090E00895909107019F5F2A
:10013000903809F490E0209106019217E1F3E091E4
:100140000701F0E0ED5FF94F808390930701809104
:10015000C10080628093C1000895CF93DF93109215
:10016000C50080E18093C400E0ECF0E080818D7FE9
:100170008083C1ECD0E08881806188838881886039
:1001800088838881806888838EE70E94950010921A
:10019000030181E080930401888180628883DF917C
:1001A000CF910895CF92DF92EF92FF92CF93C82F15
:1001B000CB01BA0120E030E04AE754E40E94D716B0
:1001C0000E94A7166B017C0188EFF81A8C2D8068BD
:1001D0000E949500D701C60180789F73AA27BB278C
:1001E00027E0B695A795979587952A95D1F78058DA
:1001F0000E949500D701C6018827907CAF71BB276C
:100200003EE0B695A795979587953A95D1F7805892
:100210000E949500D701C60188279927A07EBF704C
:1002200045E1B695A795979587954A95D1F780585A
:100230000E9495008C2FCF91FF90EF90DF90CF9090
:100240000C9495001F920F920FB60F9211248F936A
:100250009F93EF93FF93809106019091050199235D
:1002600041F099E19093C6001092050110920301AC
:100270001EC090910401992369F09091030191119E
:1002800009C097E19093C6001092040191E0909309
:1002900003010DC0E82FF0E0ED5FF94F90819093DE
:1002A000C6008F5F803809F480E08093060190914A
:1002B0000701891305C08091C1008F7D8093C10023
:1002C000FF91EF919F918F910F900FBE0F901F9014
:1002D0001895E0910801F0E0EC5FFA4F8081909171
:1002E00008019F5F909308019F3F11F4109208014D
:1002F000F89490910001983C41F491E090930401AE
:100300009091C10090629093C100909100019F5F15
:1003100090930001789408951F920F920FB60F9258
:1003200011242F933F934F935F936F937F938F93FA
:100330009F93AF93BF93EF93FF938091C60080325A
:10034000A8F4813011F481E229C0823019F40E94AE
:10035000A71032C0833019F40E94ED022DC0843002
:1003600019F40E94F10228C083E218C0E09109014B
:1003700091E09E0F9F3F09F490E020910001243B03
:1003800041F421E0209305012091C10020622093D7
:10039000C10020910801921304C082E20E949710CC
:1003A0000BC0F0E0EC5FFA4F8083909309018091DD
:1003B0000001815080930001FF91EF91BF91AF91B7
:1003C0009F918F917F916F915F914F913F912F916D
:1003D0000F900FBE0F901F901895809102018823F7
:1003E00019F00E94F902F9CF90910801809109015A
:1003F000981305C00E94F5020E94F902F5CF0E94F1
:1004000069018730B9F481E0809302018091020193
:10041000882319F00E94F902F9CF90910801809188
:100420000901981305C00E94F5020E94F902F5CF58
:100430000C946901089580910201882379F09091CC
:10044000080180910901981303C00E94F50206C0BB
:100450000E946901883019F41092020180E0089529
:10046000209108019091090181E0291301C080E0E9
:1004700008950F931F936091100170E080E090E069
:10048000605871098109910927E0660F771F881F5D
:10049000991F2A95D1F700910F0110E020E030E07C
:1004A0000058110921093109600F711F821F931F24
:1004B00037E0660F771F881F991F3A95D1F7009193
:1004C0000E0110E020E030E0005811092109310947
:1004D000600F711F821F931F47E0660F771F881FF1
:1004E000991F4A95D1F720910D01620F711D811D51
:1004F000911D60587109810998400E94A01520E063
:1005000030E04AE754E40E9405151F910F910895C9
:1005100021E02093120180E090E0AAEFB5E48093FF
:10052000130190931401A0931501B093160110923A
:1005300017018CE0E1E2F1E0DF011D928A95E9F715
:10054000109218011092190110921A0110921B01B9
:1005500010921C0110921D0110921E0110921F0199
:100560001092200180E090E0A0EAB0E480932D0199
:1005700090932E01A0932F01B0933001809331010D
:1005800090933201A0933301B0933401109235015E
:100590001092360110923701109238018093390180
:1005A00090933A01A0933B01B0933C0180933D01AD
:1005B00090933E01A0933F01B093400110924101FE
:1005C00010924201109243011092440120930C01B9
:1005D00020930B0110920A01089581E080930C0191
:1005E000089581E080930B01089581E080930A01D2
:1005F0000895CF92DF92EF92FF920F931F93CF93C4
:10060000DF9300D000D0CDB7DEB70E94A4108823BE
:10061000D1F00E94F10D0E94CF106B017C010E946D
:10062000BE109B01AC0169833A834B835C830E94BB
:10063000AD108701760129813A814B815C810E944E
:10064000F60D1092110180910C01811105C080916D
:100650000B01882309F432C110920C010E94C70DCE
:1006600081110EC00E94300281110AC081E40E94F3
:10067000950083B7816083BF889583B78E7F83BFE2
:1006800080910A01882329F084E40E949500109249
:100690000A014A9903C082E40E9495004B9903C065
:1006A00083E40E9495000E94A110182F803211F05F
:1006B0000E949500309905C0143219F084E20E941E
:1006C0009500319905C0153219F085E20E94950018
:1006D000329905C0163219F086E20E9495003399CE
:1006E00005C01A3219F08AE20E949500349905C0BB
:1006F0001B3219F08BE20E949500359905C01D321E
:1007000019F08DE20E9495000E94AD10E091200149
:1007100023E0E29FF0011124EE0FFF1FEE0FFF1FF9
:10072000EE5EFE4F238D348D458D568D0E948914CB
:10073000AB01BC0188E70E94D2000E94BE10E0918C
:10074000200123E0E29FF0011124EE0FFF1FEE0FC6
:10075000FF1FEA5EFE4F238D348D458D568D0E941E
:100760008914AB01BC0189E70E94D2000E94CF101E
:10077000E091200123E0E29FF0011124EE0FFF1F22
:10078000EE0FFF1FE65EFE4F238D348D458D568D97
:100790000E948914AB01BC018AE70E94D2008091BB
:1007A0000B01882309F47BC010920B0140E050E854
:1007B0006BEB74E486E70E94D20020912D0130910A
:1007C0002E0140912F0150913001609139017091BB
:1007D0003A0180913B0190913C010E948914AB0148
:1007E000BC0181E60E94D20020913101309132019A
:1007F000409133015091340160913D0170913E016F
:1008000080913F01909140010E948914AB01BC018D
:1008100082E60E94D200209135013091360140914C
:1008200037015091380160914101709142018091EE
:100830004301909144010E948914AB01BC0183E6FD
:100840000E94D20040911301509114016091150152
:100850007091160187E60E94D2006091170170E046
:1008600080E090E00E949E15AB01BC0188E60E94EA
:10087000D200409118015091190160911A017091B4
:100880001B0189E60E94D20040911C0150911D017C
:1008900060911E0170911F018AE60E94D20089E0DA
:1008A0000F900F900F900F90DF91CF911F910F91AC
:1008B000FF90EF90DF90CF900C9495000F900F90E9
:1008C0000F900F90DF91CF911F910F91FF90EF90BC
:1008D000DF90CF900895CF93DF93CDB7DEB7289701
:1008E0000FB6F894DEBF0FBECDBF99249394BCE041
:1008F0003B2E0E94ED01182F0E94A410882319F0AE
:100900000E94F902F6CF17FD54C28FEB810F8A3196
:1009100008F016C1412F50E0FA01E154F109E1312C
:10092000F10508F00BC1EC5CFF4F0C94C417A090CC
:100930001301B0901401C0901501D0901601809160
:10094000290190912A01A0912B01B0912C0189835A
:100950009A83AB83BC83209125013091260140917D
:100960002701509128014090210150902201609070
:100970002301709024011434D9F460911C0170910A
:100980001D0180911E0190911F012D833E834F8395
:1009900058870E9472157F936F9380901701E980AA
:1009A000FA800B811C812D813E814F81588508C0C2
:1009B0001F921F9280901701E980FA800B811C81A1
:1009C000C301B20168C06091180170911901809152
:1009D0001A0190911B01409117010E94960DE6C1EA
:1009E00010921201E3C190921201E0C10E94941092
:1009F000882319F00E94F902F9CF0E947B14A1E22A
:100A0000B1E0E32D1D92EA95E9F7E12CF12C870185
:100A1000A8019701C801B7010E94F60D10922001AC
:100A200060912D0170912E0180912F0190913001E4
:100A300060932101709322018093230190932401FC
:100A400020913101309132014091330150913401B4
:100A500020932501309326014093270150932801CC
:100A6000E0903501F0903601009137011091380186
:100A7000E0922901F0922A0100932B0110932C019E
:100A8000A0901301B0901401C0901501D0901601F0
:100A90001F921F92812C0E948F080F900F9086C189
:100AA0000E949410882319F00E94F902F9CF81E086
:100AB00090E0193411F080E090E08C01000F111FDC
:100AC000080F191F0E94AD10F801EE0FFF1FEE0F67
:100AD000FF1FEE5EFE4F638F748F858F968F0E948F
:100AE000BE10F801EE0FFF1FEE0FFF1FEA5EFE4F74
:100AF000638F748F858F968F0E94CF10F801EE0F51
:100B0000FF1FEE0FFF1FE65EFE4F638F748F858F12
:100B1000968F4CC11092200149C19092200146C18C
:100B200082E009C083E007C084E005C085E003C01F
:100B300086E001C087E00E94970D38C18CE334C184
:100B40008FE9810F8A3108F02EC180911101843024
:100B500009F027C1812F90E0FC01E456F109E7314B
:100B6000F10508F01CC1EB5BFF4F0C94C41780919A
:100B70001201813099F40E943902E091200123E0B2
:100B8000E29FF0011124EE0FFF1FEE0FFF1FEE5E3C
:100B9000FE4F238D348D458D568D0EC0C0902101A2
:100BA000D0902201E0902301F09024010E943902AC
:100BB0009B01AC01C701B6010E948A146093210118
:100BC000709322018093230190932401EFC08091C0
:100BD0001201813099F40E943902E0912001A3E0D2
:100BE000EA9FF0011124EE0FFF1FEE0FFF1FEA5ED8
:100BF000FE4F238D348D458D568D0EC0C09025013E
:100C0000D0902601E0902701F09028010E9439023F
:100C10009B01AC01C701B6010E948A1460932501B3
:100C2000709326018093270190932801BFC0809183
:100C30001201813099F40E943902E0912001B3E061
:100C4000EB9FF0011124EE0FFF1FEE0FFF1FE65E7A
:100C5000FE4F238D348D458D568D0EC0C0902901D9
:100C6000D0902A01E0902B01F0902C010E943902D3
:100C70009B01AC01C701B6010E948A14609329014F
:100C800070932A0180932B0190932C018FC00E94B6
:100C900039026093130170931401809315019093AE
:100CA000160184C00E9439020E94721560931701D8
:100CB0007DC00E94390260931801709319018093DE
:100CC0001A0190931B0172C00E94390260931C01AB
:100CD00070931D0180931E0190931F0167C00E94B5
:100CE000390260932D0170932E0180932F01909310
:100CF00030015CC00E94390260933101709332016F
:100D0000809333019093340151C00E943902609363
:100D1000350170933601809337019093380146C0B6
:100D20000E94390220912D0130912E0140912F0116
:100D3000509130010E948A146093390170933A01F6
:100D400080933B0190933C0131C00E943902209175
:100D500031013091320140913301509134010E94B0
:100D60008A1460933D0170933E0180933F019093FC
:100D700040011CC00E94390220913501309136019A
:100D800040913701509138010E948A1460934101CB
:100D900070934201809343019093440107C08EE316
:100DA00003C08AE301C083E20E94971010921101F0
:100DB000A7CDE0911101E43048F481E08E0F8093DB
:100DC0001101F0E0E35FFE4F10839ACD8AE30E94A9
:100DD000971096CD2F923F924F925F926F927F9293
:100DE0008F929F92AF92BF92CF92DF92EF92FF923B
:100DF0000F931F93CF93DF93CDB7DEB760970FB6F6
:100E0000F894DEBF0FBECDBF1C012A013B01480193
:100E10005901FC0162897389848995890E949E1514
:100E20006B017C01A30192010E94D7160E94EE146F
:100E30000E9472152B013C01F10161A772A783A7E3
:100E400094A7A5019401C701B6010E94D7160E947C
:100E5000EE140E9472154B015C01F10165A776A7A3
:100E600087A790AB21A932A943A954A9A0EEBEE25D
:100E70000E94831769837A838B839C830E94A015C9
:100E80006D837E838F839887C301B2010E949E1574
:100E90002B013C01A7019601C701B6010E94D7169C
:100EA0006B017C01A3019201C301B2010E94D7161C
:100EB00069877A878B879C872D813E814F815885F2
:100EC000CA01B9010E948A146D877E878F87988B2B
:100ED00029853A854B855C85C701B6010E94891436
:100EE0002D853E854F8558890E9405150E94EE1478
:100EF0000E946D152B013C01C501B4010E949E1595
:100F00009B01AC010E94D7164B015C01A701960121
:100F10000E9489146B017C0169817A818B819C819B
:100F200090958095709561957F4F8F4F9F4F0E9450
:100F3000A0159B01AC010E948A149B01AC01C70162
:100F4000B6010E9405150E94DB15F101C684D78405
:100F5000E088F188A7019601241935094609570947
:100F600029833A834B835C830E946D1529813A81E2
:100F70004B815C81261B370B480B590BDA01C901E9
:100F800057FF3DC0C701B6010E94A0159B01AC01EF
:100F90006D857E858F8598890E94D71629853A852B
:100FA0004B855C850E948914A50194010E948A14D6
:100FB0004B015C0120E030E040E850E46D817E812F
:100FC0008F8198850E94D7169B01AC01C501B401A1
:100FD0000E9405150E94EE140E946D1597FF03C034
:100FE00060E070E0CB012B013C01C616D706E80695
:100FF000F90614F42601370180E090E0DC01F101EC
:1010000045AA56AA67AA70AE840D951DA61DB71DE8
:1010100081AF92AFA3AFB4AF60960FB6F894DEBFC6
:101020000FBECDBFDF91CF911F910F91FF90EF9039
:10103000DF90CF90BF90AF909F908F907F906F90F8
:101040005F904F903F902F9008954F925F926F92D4
:101050007F92AF92BF92CF92DF92EF92FF920F9367
:101060001F93CF93DF938C01EB01FC0180A58111CD
:1010700047C0428C538C648C758CAA8CBB8CCC8CF6
:10108000DD8C9501A601C301B2010E94011587FF05
:1010900037C0A3019201C301B2010E94D7162B01F0
:1010A0003C0120E03AEB4BE55AECF80162A173A158
:1010B00084A195A10E94D7169B01AC01C301B20186
:1010C0000E9489140E943E177B018C019B01AC0198
:1010D000B501C6010E94011587FF02C07501860196
:1010E0009701A801B501C6010E940115882341F0AE
:1010F000A701B8014A8F5B8F6C8F7D8F81E08FA332
:10110000DF91CF911F910F91FF90EF90DF90CF90E3
:10111000BF90AF907F906F905F904F9008952F9207
:101120003F924F925F926F927F928F929F92AF9277
:10113000BF92CF92DF92EF92FF920F931F93CF93C4
:10114000DF93CDB7DEB7AF970FB6F894DEBF0FBE13
:10115000CDBF29013A01E982FA820B831C832696CE
:10116000EEACFFAC26972CE137EC41EB52E40E9449
:10117000D7160E94A7166C8F7D8F8E8F9F8F24E7C6
:1011800031ED45EB52E4C301B2010E94D7160E9433
:10119000A71668A379A38AA39BA325E535E545E0B7
:1011A00052E469817A818B819C810E94D7160E94CA
:1011B000A7166CA37DA38EA39FA320906201022D8E
:1011C0000F5F098B0E3009F4198A2988022D112727
:1011D00007FD10958091610190E08017910719F447
:1011E0000E94F902F7CF809162010FE3809F2001F6
:1011F000112482010D591E4F1A830983E114F10451
:10120000A1F081E0D8018C93B70180E090E00E94CA
:101210009E152CE137EC41EB52E40E94D7160E9458
:10122000A716F80176AF65AF03C0A981BA811C92F9
:10123000E981FA8186A21586809155019091560127
:10124000A0915701B09158012C8C3D8C4E8C5F8C35
:10125000281639064A065B0614F428E02587009113
:10126000590110915A0120915B0130915C0148A015
:1012700059A06AA07BA040165106620673062CF4A2
:10128000E981FA8145854061458720905D01309074
:101290005E0140905F01509060016CA07DA08EA027
:1012A0009FA062147304840495042CF4E981FA81EC
:1012B0004585406245876C8C7D8C8E8C9F8C681A2E
:1012C000790A8A0A9B0AC401B3016D867E868F86DD
:1012D000988A97FE0BC0662477244301661A770A22
:1012E000880A990A6D867E868F86988A6D847E84A8
:1012F0008F849888A981BA8111966D927D928D9282
:101300009C92149768A079A08AA09BA0601A710A89
:10131000820A930A6D827E828F8298866A8A7B8A8D
:101320008C8A9D8A97FE0CC09094809470946094EF
:10133000611C711C811C911C6A8A7B8A8C8A9D8A23
:10134000EA88FB880C891D89A981BA811596ED92DE
:10135000FD920D931C9318976CA07DA08EA09FA06A
:10136000621873088408950869867A868B869C863D
:101370009401830197FE07C0309520951095019543
:101380001F4F2F4F3F4FA981BA8119960D931D937F
:101390002D933C931C972A883B884C885D886D84EC
:1013A0007E848F849888261437044804590420F4D6
:1013B0006A8A7B8A8C8A9D8A4A885B886C887D8849
:1013C000401651066206730610F428013901A981FE
:1013D000BA811E964D925D926D927C925197411406
:1013E00051046104710409F488C30E94A0152CE122
:1013F00037EC41EB52E40E9405156A8B7B8B8C8B9A
:101400009D8B6D817E818F8198850E94A01524E738
:1014100031ED45EB52E40E94051568A779A78AA72C
:101420009BA769857A858B859C850E94A01525E5FB
:1014300035E545E052E40E9405156CA77DA78EA70F
:101440009FA72A893B894C895D89CA01B9010E94FD
:10145000D7166D837E838F83988728A539A54AA5E3
:101460005BA5CA01B9010E94D7169B01AC016D8131
:101470007E818F8198850E948A146D837E838F83FD
:1014800098872CA53DA54EA55FA5CA01B9010E946C
:10149000D7169B01AC016D817E818F8198850E945A
:1014A0008A140E943E17688F798F8A8F9B8FE981FB
:1014B000FA8162A373A384A395A39B01AC0160E0AE
:1014C00070E080E89FE30E9405156D837E838F8323
:1014D00098879B01AC01C601B5010E94D7166B012C
:1014E0007C019B01AC01688D798D8A8D9B8D0E945A
:1014F000D71669877D878E8B9F8BCB01AE89BF897D
:10150000E981FA81868B978BA08FB18FC301B201DD
:101510000E94A0154B015C01A70196010E94D716FD
:101520000E94EE140E947215A981BA8152966D93A1
:101530007D938D939C9355972D813E814F81588546
:10154000C501B4010E94D71620E03AEB4BED59E4F7
:101550000E94D71620E030E84BE356E40E940515C0
:101560000E94EE140E946D15E981FA8161AB72ABA5
:1015700083AB94AB2D813E814F8158856A897B89ED
:101580008C899D890E94D7166A8B7B8B8C8B9D8B57
:101590002D813E814F81588568A579A58AA59BA597
:1015A0000E94D7164B015C012D813E814F815885E9
:1015B0006CA57DA58EA59FA50E94D7162B013C0189
:1015C0009091620180916101981709F4ACC000917B
:1015D000450110914601209047013090480120E0DC
:1015E00030E0A901B801C1010E94A31618160CF041
:1015F0009AC08091490190914A01A0914B01B0910C
:101600004C01BC01CD0190582A893B894C895D89E8
:101610000E94D7166B017C0120914D0130914E0143
:1016200040914F0150915001C501B4010E94D7165D
:101630009B01AC01C701B6010E9489146B017C01BA
:101640002091510130915201409153015091540128
:10165000C301B2010E94D7169B01AC01C701B601BC
:101660000E9489146B017C0123E333E343E75FE3CA
:101670000E94011587FF57C029853D854E895F89E6
:10168000B801C1010E94011587FD04C009851D85AF
:101690002E883F8823E333E343E75FEBC701B601BE
:1016A0000E94A31618160CF042C0A701960160E034
:1016B00070E080E89FE30E94891420E030E040E081
:1016C0005FE30E94D7160E943E176B017C0120E069
:1016D00030EC48E256E40E94D7166D837E838F83F8
:1016E0009887A701960160E070E080E89FE30E9480
:1016F00089149B01AC016D817E818F8198850E9448
:1017000005150E943E176B01F82EE92E9B01482F0C
:10171000592FB801C1010E94011587FD08C086013B
:101720002F2C3E2C04C000E010E0212C312CC801ED
:10173000D101E981FA81868F978FA0A3B1A320E020
:101740003AEB4BE55AEC688D798D8A8D9B8D0E9422
:10175000D7169B01AC0160E070E0CB010E948914B8
:101760000E943E176B01F82EE92E9B01482F592F3E
:10177000B801C1010E94011587FF03C0302F212F3E
:1017800004C03C2D2D2D2F2C3E2C832F922FD101C8
:10179000E981FA81828F938FA48FB58F96014F2DA7
:1017A0005E2D69857D858E899F890E940115181699
:1017B00034F081E0A981BA8198968C9303C0E981C5
:1017C000FA8110A681E0A981BA8197968C93EA8864
:1017D000FB880C891D89E0924901F0924A0100932F
:1017E0004B0110934C0180924D0190924E01A092BA
:1017F0004F01B092500140925101509252016092BB
:1018000053017092540189859D85AE89BF8980936B
:10181000450190934601A0934701B0934801F98890
:10182000F09262012C8C3D8C4E8C5F8C2092550185
:1018300030925601409257015092580148A059A049
:101840006AA07BA04092590150925A0160925B01BC
:1018500070925C016CA07DA08EA09FA060925D0143
:1018600070925E0180925F0190926001D09062015F
:10187000E0E0F0E000E010E04FE3242E3324339466
:101880008091610190E02D2D332727FD3095281799
:10189000390709F46FC0D11002C03EE0D32EDA94AC
:1018A000222D3D2D320370011124A7014D595E4FA9
:1018B0007A010115110509F45AC0309709F457C08F
:1018C000D80198968C9198975E969C905E975F96BB
:1018D000AC905F979096BC9090979196CC90811128
:1018E0003CC0428C538C648C758CA3019201692D91
:1018F0007A2D8B2D9C2D0E94A316181674F5A3012A
:101900009201C301B2010E94D7162B013C0120E0D5
:101910003AEB4BE55AECF80162A173A184A195A1C1
:101920000E94D7169B01AC01C301B2010E94891429
:101930000E943E17562E672E782E892E262F372F7F
:10194000482F592F692D7A2D8B2D9C2D0E94011522
:1019500087FD03C0952C5301C82C892D9A2DAB2DE2
:10196000BC2DF801828F938FA48FB58F37A2F80119
:10197000870186CFD090610100E010E080E090E028
:101980002FE3C22E2D2D332727FD30954091620184
:1019900050E024173507C9F0C29E7001C39EF00CB9
:1019A0001124F701ED59FE4F7F01009731F0011529
:1019B000110519F0B8010E942508D394FEE0DF124A
:1019C00001C0D12CC8018701DDCF009731F001158E
:1019D000110519F0B8010E94250830906101A12C71
:1019E000B12C8FE3282E832D992787FD9095209188
:1019F000620130E08217930709F442C0289E40013B
:101A0000299E900C112484010D591E4F4801A114E8
:101A1000B10479F1D50197968C91811104C0F80138
:101A200087A1882331F1D5015696CD90DD90ED90B8
:101A3000FC905997A7019601F401628D738D848DF6
:101A4000958D0E9405152B013C01A7019601D5013A
:101A50005A966D917D918D919C915D970E9405158F
:101A6000AB01BC0193018201C5010E94EA06F501A8
:101A700017A23394FEE03F1201C0312C5401B3CFC2
:101A8000D5015696CD90DD90ED90FC905997A70129
:101A9000960160E070E0CB010E9405152B013C012E
:101AA000A7019601F501628D738D848D958D0E943D
:101AB0000515AB01BC0193018201C5010E94EA0634
:101AC000D50197961C92AF960FB6F894DEBF0FBE65
:101AD000CDBFDF91CF911F910F91FF90EF90DF90DD
:101AE000CF90BF90AF909F908F907F906F905F90BE
:101AF0004F903F902F900C947610AF960FB6F894BD
:101B0000DEBF0FBECDBFDF91CF911F910F91FF9030
:101B1000EF90DF90CF90BF90AF909F908F907F908D
:101B20006F905F904F903F902F9008950895EF929F
:101B3000FF921F93CF93DF931F92CDB7DEB7109123
:101B400062011F5F1E3009F410E0E12EFF24E7FC64
:101B5000F0942091610130E02E153F0529F489832E
:101B60000E94F9028981F5CFE09162019FE3E99F2C
:101B7000F0011124ED59FE4F8083109362010F9004
:101B8000DF91CF911F91FF90EF900C9476102091F0
:101B900062019091610181E0291301C080E0089504
:101BA0009091620180916101981749F080916101E3
:101BB0002FE3829FC00111248D599E4F089580E02C
:101BC00090E008959091620180916101981741F031
:101BD000809161018F5F8E3009F480E08093610114
:101BE0000895109262011092610108958F929F9260
:101BF000AF92BF92CF92DF92EF92FF920F931F931B
:101C000049015A01670178012CE137EC41EB52E4BC
:101C10000E94D7160E94A716609355017093560133
:101C2000809357019093580124E731ED45EB52E43E
:101C3000C501B4010E94D7160E94A71660935901EE
:101C400070935A0180935B0190935C0125E535E523
:101C500045E052E4C701B6010E94D7160E94A716BC
:101C600060935D0170935E0180935F0190936001CA
:101C700010924501109246011092470110924801BE
:101C80008CE0E9E4F1E0DF011D928A95E9F71F910C
:101C90000F91FF90EF90DF90CF90BF90AF909F900B
:101CA0008F900895EF92FF920F931F93CF9310920E
:101CB000620110926101CCE0E5E5F1E0DF018C2FDB
:101CC0001D928A95E9F7E12CF12C870120E030E0A4
:101CD00040EA50E4CA01B9010E94F60DE9E4F1E0DE
:101CE000DF011D92CA95E9F7E0924501F0924601A5
:101CF0000093470110934801CF911F910F91FF90DE
:101D0000EF9008958AB1837F8AB987B1807C87B9C3
:101D1000089587BD0895882311F05C9A08955C9812
:101D20000895882311F05F9A08955F980895882395
:101D300011F05D9A08955D980895569A17BC81E850
:101D400084BD83E085BD549A579A80E00E948B0E33
:101D500080E00E94910E559A80E00C94970E80913D
:101D6000E0049091E104A091E204B091E304409179
:101D7000DC045091DD046091DE047091DF04840F77
:101D8000951FA61FB71F813828E3920721E0A207FD
:101D9000B10550F48093DC049093DD04A093DE043D
:101DA000B093DF0480E0089580589843A140B109C2
:101DB0008093DC049093DD04A093DE04B093DF04F1
:101DC00081E008952F923F924F925F926F927F929F
:101DD0008F929F92AF92BF92CF92DF92EF92FF923B
:101DE0000F931F93CF93DF93182F6A017B0185E038
:101DF000C81AD108E108F108111102C08BE301C033
:101E000083E0C0E3C82795B18C2F8873977C892B1A
:101E100085B9D6E006E0222423943324339486B196
:101E2000112311F09FE38927332049F080FD07C07B
:101E3000011104C0A1E0CA27312C01C001502220A9
:101E400049F082FD0BC0D11103C0B2E0CB2702C024
:101E5000D15004C0332009F479C0212C85B19C2FC6
:101E60009770892B85B98AE18A95F1F785B1892721
:101E700085B9C701B6010E949E152B013C012BEAD2
:101E80003AEA4AEA50E40E94D7164B015C0120E08E
:101E900030E040E85FE30E94011587FD53C020E079
:101EA00030E04FE753E4C501B4010E94A3161816B1
:101EB0000CF043C020E030E04AE754E4C301B20133
:101EC0000E9405152B013C0120E030E04AE755E473
:101ED0000E94D7164B015C0120E030E040E85FE350
:101EE0000E94011587FD24C020E03FEF4FE757E433
:101EF000C501B4010E94A3161816A4F420E030E036
:101F000040E251E4C301B2010E94D7160E9472154B
:101F1000CB01009709F483CFE0E9F1E03197F1F7C5
:101F20000197F7CFC501B4010E947215CB0102C021
:101F300081E090E00197F1F772CFC501B4010E94F2
:101F4000721501C061E06A95F1F769CF8CE0E8EFA6
:101F5000F4E0DF011D928A95E9F7DF91CF911F919F
:101F60000F91FF90EF90DF90CF90BF90AF909F9038
:101F70008F907F906F905F904F903F902F9008953B
:101F80008F929F92AF92BF92CF92DF92EF92FF9289
:101F90000F931F93CF93DF931F92CDB7DEB76B01E3
:101FA0007C0180E4C81686E0D806E104F10430F430
:101FB000A0E4CA2EA6E0DA2EE12CF12C60E070E756
:101FC00088E399E3A70196010E94A2172115310524
:101FD000E1E04E07510518F4C90160E02FC021155A
:101FE0003105F8E04F075105A8F4BA01A901E3E073
:101FF0007695679557954795EA95D1F7CA019A0165
:10200000AB01F3E0220F331F441F551FFA95D1F7A0
:1020100061E014C0BA01A90186E0769567955795ED
:1020200047958A95D1F7CA019A01AB0166E0220F64
:10203000331F441F551F6A95D1F762E070918100EC
:102040006F5F787F672B6093810090938900809306
:1020500088002093E0043093E1044093E20450931D
:10206000E3040091F6041091F704F80166A170E012
:1020700080E090E00E94A0154B015C01C701B60111
:102080000E949E156B017C01F80162897389848925
:1020900095890E949E159B01AC01C701B6010E9463
:1020A00005159B01AC01C501B4010E94D7160E9421
:1020B0007215862F69830E94890E6981693210F03A
:1020C00082E005C06B3010F083E001C084E085BD84
:1020D0000F90DF91CF911F910F91FF90EF90DF90C4
:1020E000CF90BF90AF909F908F9008958091D7042C
:1020F00081110BC081E08093D70480E38093F504C5
:1021000080916F00826080936F0008951092D704D1
:102110001092F7041092F604EFE6F0E080818D7FD4
:10212000808380E00C94890E8091D704089590916B
:10213000D604911105C08093D50481E08093D60424
:1021400008958091D50408958091D604089580E281
:102150008093D5041092D60408956091F80470918C
:10216000F9048091FA049091FB040E94A0152CE1DF
:1021700037EC41EB52E40E94051508956091FC0490
:102180007091FD048091FE049091FF040E94A015BF
:1021900024E731ED45EB52E40E9405150895609166
:1021A00000057091010580910205909103050E9440
:1021B000A01525E535E545E052E40E940515089592
:1021C0008F929F92AF92BF92CF92DF92EF92FF9247
:1021D0000F931F9349015A01670178012CE137ECF5
:1021E00041EB52E40E94D7160E94A7166093F804B0
:1021F0007093F9048093FA049093FB0424E731ED83
:1022000045EB52E4C501B4010E94D7160E94A716FF
:102210006093FC047093FD048093FE049093FF048C
:1022200025E535E545E052E4C701B6010E94D71621
:102230000E94A71660930005709301058093020524
:10224000909303051F910F91FF90EF90DF90CF9037
:10225000BF90AF909F908F900895EF92FF920F9351
:102260001F9384B18F6384B985B1807C806385B905
:10227000E1E8F0E080818F7E8083808188608083C8
:10228000E0E8F0E080818D7F808380818E7F808395
:1022900080818F73808380818F7C80831092B000D7
:1022A0001092B100E0E7F0E080818160808360E41B
:1022B00076E080E090E00E94C00F8CE0E8EFF4E070
:1022C000DF011D928A95E9F7E12CF12C870120E0CE
:1022D00030E040EA50E4CA01B9010E94E0101092D7
:1022E000DC041092DD041092DE041092DF041092E0
:1022F000F7041092F6041092D60480E28093D5047D
:102300001092E4041F910F91FF90EF900C948610AF
:102310001F920F920FB60F9211248F9385B1887F71
:1023200085B91092B1008F910F900FBE0F901F9042
:1023300018951F920F920FB60F9211240F931F93AF
:102340002F933F934F935F936F937F938F939F93BD
:10235000AF93BF93CF93DF93EF93FF938091E40408
:102360008111B4C281E08093E4048091D604882373
:1023700029F00E9486100E94F10DA6C2309B0AC06F
:10238000319B08C0329B06C0339B04C0349B02C003
:1023900035991FC0309903C084E20E94971031998B
:1023A00003C085E20E949710329903C086E20E9422
:1023B0009710339903C08AE20E949710349903C0A2
:1023C0008BE20E94971035997FC28DE20E94971090
:1023D0007BC295B18091F5048873977C892B85B970
:1023E00085B1887F9091F504892B85B98AEF809318
:1023F000B20082E08093B10078948091F6049091CD
:10240000F704892B09F05DC00E94D00D9093F7046A
:102410008093F604009719F40E94861055C2FC01BF
:102420002081223008F04DC061A572A583A594A536
:102430006093D8047093D9048093DA049093DB04FA
:1024400000E41CE920E030E00093DC041093DD049C
:102450002093DE043093DF040E94C00FE091F60465
:10246000F091F70486859785A089B189B595A795E0
:1024700097958795B095A095909581959F4FAF4F73
:10248000BF4F8093F1049093F204A093F304B093B0
:10249000F4048093ED049093EE04A093EF04B093C2
:1024A000F0048093E9049093EA04A093EB04B093C2
:1024B000EC041092E5041092E6041092E7041092E6
:1024C000E804C091F604D091F704888190E0883048
:1024D000910508F0F9C1FC01E45AFF4F0C94C417B0
:1024E0002D852093F5048091F1049091F204A09140
:1024F000F304B091F40449815A816B817C81840F8B
:10250000951FA61FB71F8093F1049093F204A09328
:10251000F304B093F4044E855F85688979891816B1
:1025200019061A061B0644F521602093F504841B46
:10253000950BA60BB70B8093F1049093F204A09334
:10254000F304B093F4048091F8049091F904A091FD
:10255000FA04B091FB0423FF04C00197A109B1095B
:1025600003C00196A11DB11D8093F8049093F90456
:10257000A093FA04B093FB048091ED049091EE04D3
:10258000A091EF04B091F0040D811E812F81388558
:10259000800F911FA21FB31F8093ED049093EE0450
:1025A000A093EF04B093F004181619061A061B0640
:1025B00054F52091F50422602093F504841B950BBB
:1025C000A60BB70B8093ED049093EE04A093EF0459
:1025D000B093F0048091FC049091FD04A091FE045E
:1025E000B091FF0424FF04C00197A109B10903C001
:1025F0000196A11DB11D8093FC049093FD04A0934E
:10260000FE04B093FF048091E9049091EA04A09144
:10261000EB04B091EC0409851A852B853C85800F6D
:10262000911FA21FB31F8093E9049093EA04A09323
:10263000EB04B093EC04181619061A061B0654F5A1
:102640002091F50424602093F504841B950BA60BC0
:10265000B70B8093E9049093EA04A093EB04B09342
:10266000EC048091000590910105A0910205B091C4
:10267000030525FF04C00197A109B10903C0019614
:10268000A11DB11D8093000590930105A093020543
:10269000B09303058091E5049091E604A091E704CE
:1026A000B091E8040196A11DB11D8093E5049093BB
:1026B000E604A093E704B093E8042091F50430E326
:1026C00023272093F50484179507A607B70708F07A
:1026D000F5C04DA95EA96FA978AD84179507A60727
:1026E000B70740F50E94AF0E882309F4EDC089A911
:1026F0009AA9ABA9BCA94091D8045091D904609182
:10270000DA047091DB04840F951FA61FB71F809316
:10271000D8049093D904A093DA04B093DB044A89D7
:102720005B896C897D89481759076A077B0708F020
:102730004AC041C049AD5AAD6BAD7CAD8417950719
:10274000A607B70769F480E49CE9A0E0B0E08093B5
:10275000DC049093DD04A093DE04B093DF04B4C0E6
:1027600084179507A607B707C8F10E94AF0E882304
:1027700009F4AAC08091D8049091D904A091DA04F8
:10278000B091DB0449A95AA96BA97CA9841B950BBC
:10279000A60BB70B8093D8049093D904A093DA04C6
:1027A000B093DB044DA55EA56FA578A984179507A6
:1027B000A607B70740F44093D8045093D904609318
:1027C000DA047093DB046091D8047091D90480918D
:1027D000DA049091DB040E94C00F76C06A897B897D
:1027E0008C899D890091D8041091D9042091DA0434
:1027F0003091DB04061717072807390751F060935B
:10280000D8047093D9048093DA049093DB040E9477
:10281000C00FE091F604F091F7048081813009F057
:1028200053C025AD36AD40E050E06091E5047091B5
:10283000E6048091E7049091E8040E94A2176130B9
:1028400071058105910509F03FC0F8940E941B02B3
:102850007894482F50E0405851092EEF31E0429FC4
:10286000C001439F900D529F900D1124E091F604FA
:10287000F091F70466A170E00E948E17862FC62F94
:102880000E94890EC93210F082E005C0CB3010F0F2
:1028900083E001C084E085BD17C081E001C080E015
:1028A0000E948B0E0BC081E001C080E00E94910E5F
:1028B00005C081E001C080E00E94970E1092F704ED
:1028C0001092F6040E94E20D1092E404FF91EF9141
:1028D000DF91CF91BF91AF919F918F917F916F9138
:1028E0005F914F913F912F911F910F910F900FBECC
:1028F0000F901F90189548E552E060E070E080E08E
:102900000E94E20E40E157E260E070E081E00C944A
:10291000E20E5058BB27AA270ED0C4C1B5D130F063
:10292000BAD120F031F49F3F11F41EF4AAC10EF485
:10293000E095E7FB77C1E92FC6D180F3BA176207AC
:1029400073078407950718F071F49EF5F5C10EF42E
:10295000E0950B2EBA2FA02D0B01B90190010C01AF
:10296000CA01A0011124FF27591B99F0593F50F4C7
:10297000503E68F11A16F040A22F232F342F44271F
:10298000585FF3CF469537952795A795F040539517
:10299000C9F77EF41F16BA0B620B730B840BBAF0E7
:1029A0009150A1F0FF0FBB1F661F771F881FC2F752
:1029B0000EC0BA0F621F731F841F48F48795779566
:1029C0006795B795F7959E3F08F0B3CF9395880F1D
:1029D00008F09927EE0F97958795089596D180F086
:1029E0009F3740F491110EF4A8C160E070E080E8D8
:1029F0009FE3089526F01B16611D711D811D18C1EE
:102A000032C1ECD008F481E008950CD04BC143D121
:102A100040F03AD130F021F45F3F19F003C1511179
:102A20008CC12FC150D198F39923C9F35523B1F329
:102A3000951B550BBB27AA2762177307840738F02D
:102A40009F5F5F4F220F331F441FAA1FA9F333D08C
:102A50000E2E3AF0E0E830D091505040E695001C40
:102A6000CAF729D0FE2F27D0660F771F881FBB1FFC
:102A7000261737074807AB07B0E809F0BB0B802DD6
:102A8000BF01FF2793585F4F2AF09E3F510568F022
:102A9000C9C053C15F3FECF3983EDCF38695779550
:102AA0006795B795F7959F5FC9F7880F911D969524
:102AB000879597F90895E1E0660F771F881FBB1F80
:102AC000621773078407BA0720F0621B730B840B2D
:102AD000BA0BEE1F88F7E095089504D06894B11101
:102AE0002CC10895F8D088F09F5790F0B92F9927FE
:102AF000B751A0F0D1F0660F771F881F991F1AF009
:102B0000BA95C9F712C0B13081F016D1B1E008957D
:102B100013C1672F782F8827B85F39F0B93FCCF3FE
:102B2000869577956795B395D9F73EF490958095FE
:102B3000709561957F4F8F4F9F4F0895E89409C01E
:102B400097FB3EF490958095709561957F4F8F4FE0
:102B50009F4F9923A9F0F92F96E9BB279395F695F6
:102B6000879577956795B795F111F8CFFAF4BB0F74
:102B700011F460FF1BC06F5F7F4F8F4F9F4F16C0D8
:102B8000882311F096E911C0772321F09EE8872F62
:102B9000762F05C0662371F096E8862F70E060E01E
:102BA0002AF09A95660F771F881FDAF7880F969597
:102BB000879597F90895A9D080F09F3740F4911137
:102BC0000EF0BBC060E070E080E89FEB089526F453
:102BD0001B16611D711D811D2BC045C0990F00087A
:102BE000550FAA0BE0E8FEEF16161706E807F907DF
:102BF000C0F012161306E407F50798F0621B730B7A
:102C0000840B950B39F40A2661F0232B242B252BFA
:102C100021F408950A2609F4A140A6958FEF811D9D
:102C2000811D089597F99F6780E870E060E008953E
:102C3000882371F4772321F09850872B762F07C0D3
:102C4000662311F499270DC09051862B70E060E047
:102C50002AF09A95660F771F881FDAF7880F9695E6
:102C6000879597F908959F3F31F0915020F487950B
:102C700077956795B795880F911D9695879597F9E4
:102C800008959FEF80EC089500240A941616170605
:102C900018060906089500240A941216130614064D
:102CA00005060895092E0394000C11F4882352F0B0
:102CB000BB0F40F4BF2B11F460FF04C06F5F7F4F68
:102CC0008F4F9F4F089557FD9058440F551F59F04F
:102CD0005F3F71F04795880F97FB991F61F09F3F09
:102CE00079F087950895121613061406551FF2CF32
:102CF0004695F1DF08C0161617061806991FF1CF82
:102D000086957105610508940895E5DFA0F0BEE79A
:102D1000B91788F4BB279F3860F41616B11D672FCA
:102D2000782F8827985FF7CF869577956795B11D9F
:102D300093959639C8F30895E894BB2766277727BB
:102D4000CB0197F908954ADF08F48FEF0895C3DFA8
:102D500058F19E5758F19851A0F0E9F0983020F5BD
:102D6000092E9927660F771F881F991F0A94D1F79C
:102D700012C0062E672F782F8827985F11F4000C59
:102D800007C0993FB4F38695779567959395D9F7E2
:102D9000611D711D811D3EF4909580957095619522
:102DA0007F4F8F4F9F4F08956894C7CFC5CF0BD0EB
:102DB00079CF6ADF28F06FDF18F0952309F032CF62
:102DC00060CF1124BACF7FDFA0F3959FD1F3950F89
:102DD00050E0551F629FF001729FBB27F00DB11D9F
:102DE000639FAA27F00DB11DAA1F649F6627B00D2F
:102DF000A11D661F829F2227B00DA11D621F739F18
:102E0000B00DA11D621F839FA00D611D221F749F25
:102E10003327A00D611D231F849F600D211D822F6C
:102E2000762F6A2F11249F5750408AF0E1F08823B3
:102E30004AF0EE0FFF1FBB1F661F771F881F9150C0
:102E40005040A9F79E3F510570F0ECCE76CF5F3F22
:102E5000ECF3983EDCF3869577956795B795F795F3
:102E6000E7959F5FC1F7FE2B880F911D969587957B
:102E700097F9089511F40EF404CFF5CE2CDFD0F3BA
:102E80009923D9F3CEF39F57550B87FF35D00024F4
:102E9000A0E640EA900180585695979528F4805C0A
:102EA000660F771F881F20F026173707480730F472
:102EB000621B730B840B202931294A2BA69517948A
:102EC0000794202531254A2758F7660F771F881F5A
:102ED00020F026173707480730F4620B730B840B7A
:102EE000200D311D411DA09581F7B901842F915806
:102EF000880F96958795089591505040660F771FDB
:102F0000881FD2F708950E94CA17A59F900DB49FFD
:102F1000900DA49F800D911D1124089597FB072EFD
:102F200016F4009407D077FD09D00E94D91707FC4A
:102F300005D03EF4909581959F4F089570956195C9
:102F40007F4F0895A1E21A2EAA1BBB1BFD010DC0E5
:102F5000AA1FBB1FEE1FFF1FA217B307E407F50749
:102F600020F0A21BB30BE40BF50B661F771F881F25
:102F7000991F1A9469F760957095809590959B01BB
:102F8000AC01BD01CF010895EE0FFF1F0590F49134
:102F9000E02D0994A29FB001B39FC001A39F700DC3
:102FA000811D1124911DB29F700D811D1124911D51
:102FB0000895AA1BBB1B51E107C0AA1FBB1FA61780
:102FC000B70710F0A61BB70B881F991F5A95A9F7D2
:0E2FD00080959095BC01CD010895F894FFCF37
:022FDE00FE00F3
:00000001FF
