:100000000C9468000C9485000C9485000C94850079
:100010000C9485000C9485000C9485000C9485004C
:100020000C9485000C948D120C9485000C949E12F7
:100030000C9485000C9485000C9485000C9485002C
:100040000C9485000C9485000C9476010C94190195
:100050000C9485000C9485000C9485000C9485000C
:100060000C9485000C9485005F0638040305380461
:100070005C065C061005130516057F057F055C060A
:100080005C06CC0508064E06500652065406560677
:100090005806DA069A07C8069A07F00601071207FB
:1000A00023074B0773079A079A07E5069A079A07EB
:1000B000D3069A079A079A079A0780069806B00609
:1000C0008B138B1368156A156E15701574157615DC
:1000D00011241FBECFEFD8E0DEBFCDBF11E0A0E0FE
:1000E000B1E0E8E1F2E302C005900D92A230B10761
:1000F000D9F716E0A2E0B1E001C01D92A039B10726
:10010000E1F70E9487000C940A190C94000078947F
:100110000E94B1000E9487020E941C0A0E943212B3
:100120000E94730F0E948E0F0E94E80380E090E00F
:100130000895909106019F5F903809F490E0209116
:1001400005019217E1F3E0910601F0E0E05FF94F5D
:100150008083909306018091C10080628093C100EA
:1001600008951092C50080E18093C400E0ECF0E0B7
:1001700080818D7F8083E1ECF0E0808180618083ED
:100180008081886080838081806880838EE70C9482
:100190009900CF92DF92EF92FF92CF93C82FCB01BD
:1001A000BA0120E030E04AE754E40E94F4170E94CC
:1001B000C4176B017C0188EFF81A8C2D80680E94AF
:1001C0009900D701C60180789F73AA27BB2727E033
:1001D000B695A795979587952A95D1F780580E944F
:1001E0009900D701C6018827907CAF71BB273EE0FC
:1001F000B695A795979587953A95D1F780580E941F
:100200009900D701C60188279927A07EBF7045E1D4
:10021000B695A795979587954A95D1F780580E94EE
:1002200099008C2FCF91FF90EF90DF90CF900C949E
:1002300099001F920F920FB60F9211248F939F93E4
:10024000EF93FF938091050190910401992331F080
:1002500092E19093C600109204010DC0E82FF0E0E7
:10026000E05FF94F90819093C6008F5F803809F46A
:1002700080E08093050190910601891305C080916B
:10028000C1008F7D8093C100FF91EF919F918F916D
:100290000F900FBE0F901F901895E0910701F0E0AE
:1002A000EF5EFA4F8081909107019F5F9093070165
:1002B0009F3F11F410920701F8949091000190343F
:1002C00071F490910301992351F091E0909304010E
:1002D0009091C10090629093C1001092030190919F
:1002E00000019F5F90930001789408951F920F92F0
:1002F0000FB60F9211242F933F934F935F936F93F9
:100300007F938F939F93AF93BF93EF93FF938091CE
:10031000C600813271F18E3719F40E94961137C0F0
:100320008F3319F40E94F50232C0863219F40E940C
:10033000F9022DC0843189F480910001813448F0A4
:1003400081E0809304018091C10080628093C100AC
:100350001EC081E0809303011AC0E091080191E082
:100360009E0F9F3F09F490E020910701921304C073
:1003700082E20E948A110BC0F0E0EF5EFA4F8083A8
:100380009093080180910001815080930001FF91BA
:10039000EF91BF91AF919F918F917F916F915F91FD
:1003A0004F913F912F910F900FBE0F901F90189576
:1003B00080910201882351F083B7816083BF8895C3
:1003C00083B78E7F83BF0E940503F2CF9091070110
:1003D0008091080198130CC083B7816083BF889512
:1003E00083B78E7F83BF0E94FD020E940503EECF7C
:1003F0000E944D01823029F581E0809302018091B5
:100400000201882351F083B7816083BF889583B749
:100410008E7F83BF0E940503F2CF909107018091E8
:10042000080198130CC083B7816083BF889583B798
:100430008E7F83BF0E94FD020E940503EECF0C94C5
:100440004D01089580910201882361F09091070188
:1004500080910801981731F00E944D01833019F402
:100460001092020180E00895809100018095089526
:100470000F931F936091100170E080E090E060584E
:1004800071098109910927E0660F771F881F991F5D
:100490002A95D1F700910F0110E020E030E00058DC
:1004A000110921093109600F711F821F931F37E065
:1004B000660F771F881F991F3A95D1F700910E019B
:1004C00010E020E030E00058110921093109600FE7
:1004D000711F821F931F47E0660F771F881F991FA8
:1004E0004A95D1F720910D01620F711D811D911D5B
:1004F00060587109810998400E94BD1620E030E0E3
:100500004AE754E40E9422161F910F91089521E0BA
:100510002093120180E090E0AAEFB5E480931301EC
:1005200090931401A0931501B09316011092170136
:100530008CE0E8E1F1E0DF01982F1D929A95E9F750
:10054000EDE2F1E0DF011D928A95E9F710922401B6
:100550001092250110922601109227011092280175
:100560001092290110922A0110922B0110922C0155
:1005700080E090E0A0EAB0E48093390190933A01E2
:10058000A0933B01B0933C0180933D0190933E01C9
:10059000A0933F01B093400110924101109242019B
:1005A00010924301109244018093450190934601BB
:1005B000A0934701B09348018093490190934A0169
:1005C000A0934B01B0934C0110924D0110924E013B
:1005D00010924F011092500110920C0120930B01C8
:1005E00020930A0120930901089581E080930B0173
:1005F000089581E080930A0108950E949109811174
:1006000003C081E0809309010895CF930E9491096E
:1006100081111092090180910B01811105C0809117
:100620000A01882309F4D2C010920B0180910901BC
:10063000882311F081E401C082E40E9499000E94A5
:100640009011C82F803211F00E949900309905C096
:10065000C43219F084E20E949900319905C0C53274
:1006600019F085E20E949900329905C0C63219F04E
:1006700086E20E949900339905C0CA3219F08AE2D5
:100680000E949900349905C0CB3219F08BE20E9488
:100690009900359905C0CD3219F08DE20E9499007C
:1006A0000E949C11AB01BC0188E70E94C9000E9416
:1006B000AD11AB01BC0189E70E94C9000E94BE11C7
:1006C000AB01BC018AE70E94C90080910A0188231E
:1006D00009F478C010920A0140E050E86BEB74E432
:1006E00086E70E94C9004091450150914601609102
:1006F00047017091480181E60E94C900409149017B
:1007000050914A0160914B0170914C0182E60E9428
:10071000C90040914D0150914E0160914F0170917F
:10072000500183E60E94C90040912D0150912E0195
:1007300060912F017091300184E60E94C9004091C0
:10074000310150913201609133017091340185E69D
:100750000E94C900409135015091360160913701E6
:100760007091380186E60E94C900409113015091B2
:100770001401609115017091160187E60E94C9006D
:100780006091170170E080E090E00E94BB16AB0121
:10079000BC0188E60E94C9004091240150912501C6
:1007A000609126017091270189E60E94C90040915D
:1007B00028015091290160912A0170912B018AE64C
:1007C0000E94C90087E1CF910C949900CF910895C0
:1007D000CF93DF93CDB7DEB72C970FB6F894DEBF7B
:1007E0000FBECDBF6CE0362E992493940E94D801A1
:1007F000182F80910C01882301F10E949C116093B5
:1008000018017093190180931A0190931B010E94A3
:10081000AD1160931C0170931D0180931E01909394
:100820001F010E94BE1160932001709321018093EB
:1008300022019093230110920C010E9493118823AE
:1008400019F090920B0190C317FD7EC38FEB810FBF
:100850008A3108F03EC2412F50E0FA01E154F1091B
:10086000E531F10508F028C2EC5CFF4F0C94E1186B
:1008700000912C01A0901301B0901401C0901501BB
:10088000D0901601143409F066C083E0089F30014F
:100890001124F301EE0FFF1FEE0FFF1FE65EFE4F68
:1008A00027A130A541A552A560913501709136016F
:1008B00080913701909138010E94A71569837A834E
:1008C0008B839C83F301EE0FFF1FEE0FFF1FEA5E89
:1008D000FE4F27A130A541A552A56091310170912D
:1008E000320180913301909134010E94A7156D83EC
:1008F0007E838F839887F301EE0FFF1FEE0FFF1F9C
:10090000EE5EFE4F27A130A541A552A560912D01B5
:1009100070912E0180912F01909130010E94A715B6
:100920002B013C01609128017091290180912A01DD
:1009300090912B010E948F167F936F9380901701E7
:10094000E980FA800B811C812D813E814F81588581
:10095000C301B20153C0A3E00A9F80011124F80132
:10096000EE0FFF1FEE0FFF1FE65EFE4F27A130A523
:1009700041A552A5609135017091360180913701F2
:10098000909138010E94A71569837A838B839C8399
:10099000F801EE0FFF1FEE0FFF1FEA5EFE4F27A1CB
:1009A00030A541A552A5609131017091320180912D
:1009B0003301909134010E94A7152B013C01F801ED
:1009C000EE0FFF1FEE0FFF1FEE5EFE4F27A130A5BB
:1009D00041A552A560912D0170912E0180912F01AA
:1009E000909130010E94A7151F921F9280901701CD
:1009F000E980FA800B811C81A30192010E944E0ABA
:100A00000F900F905CC1609124017091250180913D
:100A1000260190912701409117010E9460094FC162
:100A2000109212014CC19092120149C10E94961578
:100A3000E8E1F1E0DF01832D1D928A95E9F7EDE20F
:100A4000F1E0DF01832D1D928A95E9F7E12CF12C6D
:100A50008701A8019701C801B7010E94C00910923F
:100A60002C01E0922D01F0922E0100932F011093A2
:100A70003001E0923101F092320100933301109382
:100A80003401E0923501F092360100933701109362
:100A90003801A0901301B0901401C0901501D090BE
:100AA0001601A80197016091410170914201809166
:100AB0004301909144010E94A71569837A838B8337
:100AC0009C83A801970160913D0170913E01809146
:100AD0003F01909140010E94A7152B013C01A80104
:100AE00097016091390170913A0180913B01909199
:100AF0003C010E94A7151F921F92812C79CF0E9462
:100B0000671181E090E01B3411F080E090E08C01EF
:100B1000000F111F080F191F0E949C11F801EE0F02
:100B2000FF1FEE0FFF1FEE5EFE4F67A370A781A7AA
:100B300092A70E94AD11F801EE0FFF1FEE0FFF1FED
:100B4000EA5EFE4F67A370A781A792A70E94BE111D
:100B5000F801EE0FFF1FEE0FFF1FE65EFE4F67A3CB
:100B600070A781A792A710922D0110922E011092CA
:100B70002F01109230011092310110923201109227
:100B80003301109234011092350110923601109207
:100B900037011092380193C00E94671180912C0197
:100BA000882309F48CC010922C010E949C11209182
:100BB000390130913A0140913B0150913C010E9432
:100BC000A61560932D0170932E0180932F019093B1
:100BD00030010E94AD1120913D0130913E014091C4
:100BE0003F01509140010E94A6156093310170931E
:100BF000320180933301909334010E94BE11209101
:100C000041013091420140914301509144013BC068
:100C10000E94671180912C01813009F450C090929C
:100C20002C010E949C112091450130914601409178
:100C30004701509148010E94A61560932D017093C1
:100C40002E0180932F01909330010E94AD112091CD
:100C5000490130914A0140914B0150914C010E9451
:100C6000A615609331017093320180933301909304
:100C700034010E94BE1120914D0130914E014091EE
:100C80004F01509150010E94A61560933501709359
:100C90003601809337019093380111C082E009C07A
:100CA00083E007C084E005C085E003C086E001C0A2
:100CB00087E00E94610903C08CE30E948A11EDE283
:100CC000F1E0A8E1B1E0832D01900D928A95E1F762
:100CD00038C18FE9810F8A3108F030C1809111014C
:100CE000843009F029C1812F90E0FC01E456F1091C
:100CF000E731F10508F01EC1E75BFF4F0C94E118E6
:100D000080911201813019F40E943802BBC04090DA
:100D10002D0150902E0160902F01709030010E94A3
:100D200038029B01AC01C301B2010E94A715AAC001
:100D300080911201813019F40E943802CBC040909A
:100D400031015090320160903301709034010E9463
:100D500038029B01AC01C301B2010E94A715BAC0C1
:100D600080911201813019F40E943802DAC040905B
:100D700035015090360160903701709038010E9423
:100D800038029B01AC01C301B2010E94A715C9C082
:100D90000E9438026093130170931401809315012F
:100DA00090931601CEC00E9438020E948F16609365
:100DB0001701C7C00E943802609324017093250177
:100DC0008093260190932701BCC00E943802609353
:100DD00028017093290180932A0190932B01B1C0BF
:100DE0000E9438029B01AC016093390170933A0173
:100DF00080933B0190933C0180912C018111A1C013
:100E000033C00E9438029B01AC0160933D01709396
:100E10003E0180933F019093400180912C0181110C
:100E200090C04AC00E9438029B01AC01609341010E
:100E300070934201809343019093440180912C016F
:100E400081117FC060C00E9438029B01AC01609399
:100E5000450170934601809347019093480180912A
:100E60002C01813009F06DC029873A874B875C8758
:100E70000E9467110E949C1129853A854B855C85EB
:100E80000E94A61560932D0170932E0180932F016F
:100E90009093300156C00E9438029B01AC016093D0
:100EA000490170934A0180934B0190934C018091CA
:100EB0002C01813009F045C029873A874B875C8730
:100EC0000E9467110E94AD1129853A854B855C858A
:100ED0000E94A61560933101709332018093330113
:100EE000909334012EC00E9438029B01AC016093A4
:100EF0004D0170934E0180934F019093500180916A
:100F00002C018130F1F429873A874B875C870E9456
:100F100067110E94BE1129853A854B855C850E9428
:100F2000A615609335017093360180933701909335
:100F3000380107C08EE303C08AE301C083E20E9448
:100F40008A111092110110C0E0911101E43048F4AF
:100F500081E08E0F80931101F0E0E35FFE4F10837C
:100F600003C08AE30E948A110E9405033FCC81E0FE
:100F700080930C0108952F923F924F925F926F924F
:100F80007F928F929F92AF92BF92CF92DF92EF9219
:100F9000FF920F931F93CF93DF93CDB7DEB7609788
:100FA0000FB6F894DEBF0FBECDBF1C012A013B0176
:100FB00048015901FC0162897389848995890E94DD
:100FC000BB166B017C01A30192010E94F4170E94E1
:100FD0000B160E948F162B013C01F10161A772A72D
:100FE00083A794A7A5019401C701B6010E94F41735
:100FF0000E940B160E948F164B015C01F10165A740
:1010000076A787A790AB21A932A943A954A9A0EE3E
:10101000BEE20E94A01869837A838B839C830E941E
:10102000BD166D837E838F839887C301B2010E94B2
:10103000BB162B013C01A7019601C701B6010E9416
:10104000F4176B017C01A3019201C301B2010E945C
:10105000F41769877A878B879C872D813E814F8122
:101060005885CA01B9010E94A7156D877E878F87B1
:10107000988B29853A854B855C85C701B6010E940E
:10108000A6152D853E854F8558890E9422160E94FF
:101090000B160E948A162B013C01C501B4010E9467
:1010A000BB169B01AC010E94F4174B015C01A70128
:1010B00096010E94A6156B017C0169817A818B8162
:1010C0009C8190958095709561957F4F8F4F9F4F34
:1010D0000E94BD169B01AC010E94A7159B01AC01AB
:1010E000C701B6010E9422160E94F816F101C684BB
:1010F000D784E088F188A7019601241935094609AB
:10110000570929833A834B835C830E948A1629817D
:101110003A814B815C81261B370B480B590BDA0156
:10112000C90157FF3DC0C701B6010E94BD169B0112
:10113000AC016D857E858F8598890E94F41729857D
:101140003A854B855C850E94A615A50194010E94F5
:10115000A7154B015C0120E030E040E850E46D81D0
:101160007E818F8198850E94F4179B01AC01C50197
:10117000B4010E9422160E940B160E948A1697FF45
:1011800003C060E070E0CB012B013C01C616D7061E
:10119000E806F90614F42601370180E090E0DC014E
:1011A000F10145AA56AA67AA70AE840D951DA61D29
:1011B000B71D81AF92AFA3AFB4AF60960FB6F894EE
:1011C000DEBF0FBECDBFDF91CF911F910F91FF907A
:1011D000EF90DF90CF90BF90AF909F908F907F90D7
:1011E0006F905F904F903F902F9008954F925F9235
:1011F0006F927F92AF92BF92CF92DF92EF92FF9267
:101200000F931F93CF93DF938C01EB01FC0180A51B
:10121000811147C0428C538C648C758CAA8CBB8C1A
:10122000CC8CDD8C9501A601C301B2010E941E1673
:1012300087FF37C0A3019201C301B2010E94F417D6
:101240002B013C0120E03AEB4BE55AECF80162A19E
:1012500073A184A195A10E94F4179B01AC01C30165
:10126000B2010E94A6150E945B187B018C019B01B4
:10127000AC01B501C6010E941E1687FF02C07501B0
:1012800086019701A801B501C6010E941E16882398
:1012900041F0A701B8014A8F5B8F6C8F7D8F81E091
:1012A0008FA3DF91CF911F910F91FF90EF90DF906F
:1012B000CF90BF90AF907F906F905F904F900895C8
:1012C0000895EF92FF921F93CF93DF931F92CDB7B4
:1012D000DEB710916F011F5F1E3009F410E0E12EA0
:1012E000FF24E7FCF09420916E0130E02E153F05BD
:1012F00029F489830E9405038981F5CFE0916F016C
:101300009FE3E99FF0011124E059FE4F8083109381
:101310006F010F90DF91CF911F91FF90EF900C9490
:101320006C1120916F0190916E0181E0291301C031
:1013300080E0089590916F0180916E01981749F0B7
:1013400080916E012FE3829FC001112480599E4F2E
:10135000089580E090E0089590916F0180916E0172
:10136000981741F080916E018F5F8E3009F480E014
:1013700080936E01089510926F0110926E0108958E
:101380008F929F92AF92BF92CF92DF92EF92FF9295
:101390000F931F9349015A01670178012CE137EC43
:1013A00041EB52E40E94F4170E94C417609362015B
:1013B00070936301809364019093650124E731ED9C
:1013C00045EB52E4C501B4010E94F4170E94C41712
:1013D000609366017093670180936801909369013F
:1013E00025E535E545E052E4C701B6010E94F41752
:1013F0000E94C41760936A0170936B0180936C0123
:1014000090936D011092510110925201109253016C
:10141000109254018CE0E5E5F1E0DF011D928A9520
:10142000E9F71F910F91FF90EF90DF90CF90BF9061
:10143000AF909F908F900895EF92FF920F931F931C
:10144000CF9310926F0110926E01CCE0E2E6F1E0D2
:10145000DF018C2F1D928A95E9F7E12CF12C870191
:1014600020E030E040EA50E4CA01B9010E94C0091E
:1014700010926101E5E5F1E0DF011D92CA95E9F7FF
:10148000E0925101F09252010093530110935401E4
:10149000CF911F910F91FF90EF9008952F923F925F
:1014A0004F925F926F927F928F929F92AF92BF9274
:1014B000CF92DF92EF92FF920F931F93CF93DF9320
:1014C000CDB7DEB7E3970FB6F894DEBF0FBECDBF42
:1014D00029013A01E982FA820B831C832A962EACF9
:1014E0003FAC2A972CE137EC41EB52E40E94F41711
:1014F0000E94C4176C8F7D8F8E8F9F8F24E731EDF4
:1015000045EB52E4C301B2010E94F4170E94C417D4
:1015100068A379A38AA39BA325E535E545E052E4BA
:10152000C801B7010E94F4170E94C4176CA37DA3E1
:101530008EA39FA340906F01042D0F5F098B0E3087
:1015400009F4198A4988042D112707FD1095809107
:101550006E0190E08017910719F40E940503F7CF00
:10156000809161018823C1F00E94BE112B013C01D2
:101570000E94AD119B01AC0168AB39AB4AAB5BABD0
:101580000E949C118301720128A939A94AA95BA96B
:101590000E94C0091092610180916F010FE3809F4A
:1015A00030011124830100591E4F1A83098321142D
:1015B0003104A1F081E0D8018C93B10180E090E08A
:1015C0000E94BB162CE137EC41EB52E40E94F41769
:1015D0000E94C417F80176AF65AF03C0A981BA8134
:1015E0001C92E981FA8186A2158680916201909110
:1015F0006301A0916401B09165012C8C3D8C4E8CEF
:101600005F8C281639064A065B0614F428E0258705
:101610000091660110916701209168013091690184
:1016200048A059A06AA07BA0401651066206730626
:101630002CF4E981FA8145854061458720906A0153
:1016400030906B0140906C0150906D016CA07DA0BA
:101650008EA09FA062147304840495042CF4E98185
:10166000FA814585406245876C8C7D8C8E8C9F8C81
:10167000681A790A8A0A9B0AC401B3016D867E86BC
:101680008F86988A97FE0BC0662477244301661ADA
:10169000770A880A990A6D867E868F86988A6D8475
:1016A0007E848F849888A981BA8111966D927D92EB
:1016B0008D929C92149768A079A08AA09BA0601A32
:1016C000710A820A930A6D827E828F8298866A8A64
:1016D0007B8A8C8A9D8A97FE0CC09094809470942B
:1016E0006094611C711C811C911C6A8A7B8A8C8AA3
:1016F0009D8AEA88FB880C891D89A981BA81159683
:10170000ED92FD920D931C9318976CA07DA08EA076
:101710009FA0621873088408950869867A868B866C
:101720009C869401830197FE07C030952095109503
:1017300001951F4F2F4F3F4FA981BA8119960D93E5
:101740001D932D933C931C972A883B884C885D8879
:101750006D847E848F849888261437044804590445
:1017600020F46A8A7B8A8C8A9D8A4A885B886C8886
:101770007D88401651066206730610F4280139016F
:10178000A981BA811E964D925D926D927C9251977D
:10179000411451046104710409F488C30E94BD1608
:1017A0002CE137EC41EB52E40E9422166A8B7B8BD2
:1017B0008C8B9D8B6D817E818F8198850E94BD165B
:1017C00024E731ED45EB52E40E94221668A779A781
:1017D0008AA79BA769857A858B859C850E94BD1603
:1017E00025E535E545E052E40E9422166CA77DA769
:1017F0008EA79FA72A893B894C895D89CA01B901B7
:101800000E94F4176D837E838F83988728A539A55E
:101810004AA55BA5CA01B9010E94F4179B01AC015E
:101820006D817E818F8198850E94A7156D837E834F
:101830008F8398872CA53DA54EA55FA5CA01B90148
:101840000E94F4179B01AC016D817E818F81988588
:101850000E94A7150E945B18688F798F8A8F9B8FD3
:10186000E981FA8162A373A384A395A39B01AC01D0
:1018700060E070E080E89FE30E9422166D837E8323
:101880008F8398879B01AC01C601B5010E94F417B4
:101890006B017C019B01AC01688D798D8A8D9B8DDC
:1018A0000E94F41769877D878E8B9F8BCB01AE8951
:1018B000BF89E981FA81868B978BA08FB18FC30195
:1018C000B2010E94BD164B015C01A70196010E9466
:1018D000F4170E940B160E948F16A981BA815296A6
:1018E0006D937D938D939C9355972D813E814F8170
:1018F0005885C501B4010E94F41720E03AEB4BED86
:1019000059E40E94F41720E030E84BE356E40E94CB
:1019100022160E940B160E948A16E981FA8161AB99
:1019200072AB83AB94AB2D813E814F8158856A8920
:101930007B898C899D890E94F4176A8B7B8B8C8BA9
:101940009D8B2D813E814F81588568A579A58AA5FB
:101950009BA50E94F4174B015C012D813E814F81B4
:1019600058856CA57DA58EA59FA50E94F4172B0117
:101970003C0190916F0180916E01981709F4ACC001
:101980000091510110915201209053013090540167
:1019900020E030E0A901B801C1010E94C01718166B
:1019A0000CF09AC08091550190915601A091570179
:1019B000B0915801BC01CD0190582A893B894C89CE
:1019C0005D890E94F4176B017C01209159013091CF
:1019D0005A0140915B0150915C01C501B4010E9424
:1019E000F4179B01AC01C701B6010E94A6156B015B
:1019F0007C0120915D0130915E0140915F01509129
:101A00006001C301B2010E94F4179B01AC01C70140
:101A1000B6010E94A6156B017C0123E333E343E783
:101A20005FE30E941E1687FF57C029853D854E89BA
:101A30005F89B801C1010E941E1687FD04C0098597
:101A40001D852E883F8823E333E343E75FEBC7011F
:101A5000B6010E94C01718160CF042C0A7019601EB
:101A600060E070E080E89FE30E94A61520E030E08F
:101A700040E05FE30E94F4170E945B186B017C0159
:101A800020E030EC48E256E40E94F4176D837E8338
:101A90008F839887A701960160E070E080E89FE35C
:101AA0000E94A6159B01AC016D817E818F81988576
:101AB0000E9422160E945B186B01F82EE92E9B01F2
:101AC000482F592FB801C1010E941E1687FD08C07A
:101AD00086012F2C3E2C04C000E010E0212C312C7C
:101AE000C801D101E981FA81868F978FA0A3B1A3A4
:101AF00020E03AEB4BE55AEC688D798D8A8D9B8D11
:101B00000E94F4179B01AC0160E070E0CB010E94E1
:101B1000A6150E945B186B01F82EE92E9B01482F39
:101B2000592FB801C1010E941E1687FF03C0302F34
:101B3000212F04C03C2D2D2D2F2C3E2C832F922F96
:101B4000D101E981FA81828F938FA48FB58F96019D
:101B50004F2D5E2D69857D858E899F890E941E1679
:101B6000181634F081E0A981BA8198968C9303C04D
:101B7000E981FA8110A681E0A981BA8197968C93B8
:101B8000EA88FB880C891D89E0925501F092560184
:101B900000935701109358018092590190925A0175
:101BA000A0925B01B0925C0140925D0150925E0197
:101BB00060925F017092600189859D85AE89BF89C1
:101BC0008093510190935201A0935301B09354011B
:101BD000298820926F014C8C5D8C6E8C7F8C40929A
:101BE000620150926301609264017092650168A085
:101BF00079A08AA09BA06092660170926701809292
:101C00006801909269012CA03DA04EA05FA0209297
:101C10006A0130926B0140926C0150926D01D0903C
:101C20006F01E0E0F0E000E010E04FE3242E332409
:101C3000339480916E0190E02D2D332727FD309550
:101C40002817390709F46FC0D11002C03EE0D32E27
:101C5000DA94222D3D2D320370011124A701405941
:101C60005E4F7A010115110509F45AC0309709F445
:101C700057C0D80198968C9198975E969C905E97E5
:101C80005F96AC905F979096BC9090979196CC9011
:101C900081113CC0428C538C648C758CA3019201E1
:101CA000692D7A2D8B2D9C2D0E94C017181674F566
:101CB000A3019201C301B2010E94F4172B013C0160
:101CC00020E03AEB4BE55AECF80162A173A184A144
:101CD00095A10E94F4179B01AC01C301B2010E94BF
:101CE000A6150E945B18562E672E782E892E262F59
:101CF000372F482F592F692D7A2D8B2D9C2D0E941F
:101D00001E1687FD03C0952C5301C82C892D9A2DD2
:101D1000AB2DBC2DF801828F938FA48FB58F37A286
:101D2000F801870186CFD0906E0100E010E080E0DE
:101D300090E02FE3C22E2D2D332727FD30954091C3
:101D40006F0150E024173507C9F0C29E7001C39E91
:101D5000F00C1124F701E059FE4F7F01009731F09C
:101D60000115110519F0B8010E94F608D394FEE0A0
:101D7000DF1201C0D12CC8018701DDCF009731F0FF
:101D80000115110519F0B8010E94F60830906E0196
:101D9000A12CB12C8FE3282E832D992787FD9095B8
:101DA00020916F0130E08217930709F442C0289E0A
:101DB0004001299E900C1124840100591E4F4801B6
:101DC000A114B10479F1D50197968C91811104C0C9
:101DD000F80187A1882331F1D5015696CD90DD9089
:101DE000ED90FC905997A7019601F401628D738DD7
:101DF000848D958D0E9422162B013C01A70196012E
:101E0000D5015A966D917D918D919C915D970E941F
:101E10002216AB01BC0193018201C5010E94BB07E0
:101E2000F50117A23394FEE03F1201C0312C54019A
:101E3000B3CFD5015696CD90DD90ED90FC9059979B
:101E4000A701960160E070E0CB010E9422162B01F1
:101E50003C01A7019601F501628D738D848D958DEE
:101E60000E942216AB01BC0193018201C5010E94B0
:101E7000BB07D50197961C92E3960FB6F894DEBF88
:101E80000FBECDBFDF91CF911F910F91FF90EF90CB
:101E9000DF90CF90BF90AF909F908F907F906F908A
:101EA0005F904F903F902F900C946C11E3960FB67B
:101EB000F894DEBF0FBECDBFDF91CF911F910F9180
:101EC000FF90EF90DF90CF90BF90AF909F908F905A
:101ED0007F906F905F904F903F902F90089581E09A
:101EE0008093610108958AB1837F8AB987B1807C2C
:101EF00087B9089587BD0895882311F05C9A0895E5
:101F00005C980895882311F05F9A08955F9808956A
:101F1000882311F05D9A08955D980895569A17BC2C
:101F200081E884BD83E085BD549A579A80E00E9481
:101F30007C0F80E00E94820F559A80E00C94880FFD
:101F40008091ED049091EE04A091EF04B091F00423
:101F50004091E9045091EA046091EB047091EC0423
:101F6000840F951FA61FB71F813828E3920721E031
:101F7000A207B10550F48093E9049093EA04A0937A
:101F8000EB04B093EC0480E0089580589843A1409E
:101F9000B1098093E9049093EA04A093EB04B09311
:101FA000EC0481E008952F923F924F925F926F92DE
:101FB0007F928F929F92AF92BF92CF92DF92EF92D9
:101FC000FF920F931F93CF93DF93182F6A017B012A
:101FD00085E0C81AD108E108F108111102C08BE3AD
:101FE00001C083E0C8E3C82795B18C2F8873977C24
:101FF000892B85B9D6E006E0222423943324339438
:1020000086B1112311F09FE38927332049F080FD29
:1020100007C0011104C0A1E0CA27312C01C0015042
:10202000222049F082FD0BC0D11103C0B2E0CB27C2
:1020300002C0D15004C0332009F479C0212C85B1ED
:102040009C2F9770892B85B98AE18A95F1F785B124
:10205000892785B9C701B6010E94BB162B013C0137
:102060002BEA3AEA4AEA50E40E94F4174B015C0179
:1020700020E030E040E85FE30E941E1687FD53C079
:1020800020E030E04FE753E4C501B4010E94C017DF
:1020900018160CF043C020E030E04AE754E4C301D6
:1020A000B2010E9422162B013C0120E030E04AE7F9
:1020B00055E40E94F4174B015C0120E030E040E859
:1020C0005FE30E941E1687FD24C020E03FEF4FE72C
:1020D00057E4C501B4010E94C0171816A4F420E00B
:1020E00030E040E251E4C301B2010E94F4170E94C3
:1020F0008F16CB01009709F483CFE0E9F1E0319727
:10210000F1F70197F7CFC501B4010E948F16CB01FB
:1021100002C081E090E00197F1F772CFC501B401F0
:102120000E948F1601C061E06A95F1F769CF8CE0DB
:10213000E5E0F5E0DF011D928A95E9F7DF91CF91A7
:102140001F910F91FF90EF90DF90CF90BF90AF90D5
:102150009F908F907F906F905F904F903F902F90C7
:1021600008958F929F92AF92BF92CF92DF92EF929B
:10217000FF920F931F93CF93DF931F92CDB7DEB7DC
:102180006B017C0180E4C81686E0D806E104F10406
:1021900030F4A0E4CA2EA6E0DA2EE12CF12C60E0A7
:1021A00070E788E399E3A70196010E94BF18211503
:1021B0003105E1E04E07510518F4C90160E02FC078
:1021C00021153105F8E04F075105A8F4BA01A9011E
:1021D000E3E07695679557954795EA95D1F7CA015B
:1021E0009A01AB01F3E0220F331F441F551FFA95EC
:1021F000D1F761E014C0BA01A90186E07695679530
:10220000579547958A95D1F7CA019A01AB0166E0C7
:10221000220F331F441F551F6A95D1F762E070915A
:1022200081006F5F787F672B6093810090938900B6
:10223000809388002093ED043093EE044093EF04E4
:102240005093F0040091030510910405F80166A174
:1022500070E080E090E00E94BD164B015C01C70178
:10226000B6010E94BB166B017C01F801628973897B
:10227000848995890E94BB169B01AC01C701B601F8
:102280000E9422169B01AC01C501B4010E94F41703
:102290000E948F16862F69830E947A0F69816932A6
:1022A00010F082E005C06B3010F083E001C084E0E4
:1022B00085BD0F90DF91CF911F910F91FF90EF900F
:1022C000DF90CF90BF90AF909F908F9008958091B6
:1022D000E4048111FFCF08958091E40481110BC0C3
:1022E00081E08093E40488E38093020580916F008D
:1022F000826080936F0008951092E40410920405A8
:1023000010920305EFE6F0E080818D7F808380E00E
:102310000C947A0F8093E20481E08093E3040895A3
:102320008091E20408958091E304089580E280930F
:10233000E2041092E304089560910505709106058A
:1023400080910705909108050E94BD162CE137EC9D
:1023500041EB52E40E9422160895609109057091A4
:102360000A0580910B0590910C050E94BD1624E78B
:1023700031ED45EB52E40E942216089560910D055F
:1023800070910E0580910F05909110050E94BD1669
:1023900025E535E545E052E40E94221608958F9226
:1023A0009F92AF92BF92CF92DF92EF92FF920F93E4
:1023B0001F93CF93DF9300D000D0CDB7DEB7490194
:1023C0005A016701780169837A838B839C830E9419
:1023D00067112CE137EC41EB52E469817A818B8102
:1023E0009C810E94F4170E94C417609305057093A6
:1023F0000605809307059093080524E731ED45EB2A
:1024000052E4C501B4010E94F4170E94C4176093FE
:10241000090570930A0580930B0590930C0525E53B
:1024200035E545E052E4C701B6010E94F4170E9469
:10243000C41760930D0570930E0580930F0590935C
:1024400010050F900F900F900F90DF91CF911F917B
:102450000F91FF90EF90DF90CF90BF90AF909F9043
:102460008F900895EF92FF920F931F9384B18F6323
:1024700084B985B1807C886385B9E1E8F0E080812A
:102480008F7E8083808188608083E0E8F0E08081B7
:102490008D7F808380818E7F808380818F73808316
:1024A00080818F7C80831092B0001092B100E0E7B1
:1024B000F0E080818160808360E476E080E090E0FD
:1024C0000E94B1108CE0E5E0F5E0DF011D928A95F5
:1024D000E9F7E12CF12C870120E030E040EA50E4FC
:1024E000CA01B9010E94CF111092E9041092EA04C6
:1024F0001092EB041092EC04109204051092030564
:102500001092E30480E28093E2041092F1041F91A0
:102510000F91FF90EF900C947C111F920F920FB6C9
:102520000F9211248F9385B1887F85B91092B100E5
:102530008F910F900FBE0F901F9018951F920F92C2
:102540000FB60F9211240F931F932F933F934F9326
:102550005F936F937F938F939F93AF93BF93CF932B
:10256000DF93EF93FF938091F1048111CAC281E060
:102570008093F1048091E304882349F00E947C1148
:102580000E94BB090E946F0F0E94B707B8C2309B20
:102590000AC0319B08C0329B06C0339B04C0349BE9
:1025A00002C0359931C0309906C084E28093E204BC
:1025B00081E08093E304319906C085E28093E204D0
:1025C00081E08093E304329906C086E28093E204BE
:1025D00081E08093E304339906C08AE28093E204A9
:1025E00081E08093E304349906C08BE28093E20497
:1025F00081E08093E304359982C28DE28093E20406
:1026000081E08093E3047BC295B1809102058873D9
:10261000977C892B85B985B1887F90910205892B9C
:1026200085B98AEF8093B20082E08093B1007894FC
:102630008091030590910405892B09F05DC00E94EB
:102640009A099093040580930305009719F40E945A
:102650007C1155C2FC012081223008F04DC061A5DB
:1026600072A583A594A56093E5047093E604809316
:10267000E7049093E80400E41CE920E030E00093D4
:10268000E9041093EA042093EB043093EC040E94D5
:10269000B110E0910305F091040586859785A08926
:1026A000B189B595A79597958795B095A095909583
:1026B00081959F4FAF4FBF4F8093FE049093FF04CF
:1026C000A0930005B09301058093FA049093FB0456
:1026D000A093FC04B093FD048093F6049093F70458
:1026E000A093F804B093F9041092F2041092F3044A
:1026F0001092F4041092F504C0910305D0910405E2
:10270000888190E08830910508F0F9C1FC01E05A19
:10271000FF4F0C94E1182D85209302058091FE0453
:102720009091FF04A0910005B091010549815A8163
:102730006B817C81840F951FA61FB71F8093FE04B9
:102740009093FF04A0930005B09301054E855F852B
:1027500068897989181619061A061B0644F521603E
:1027600020930205841B950BA60BB70B8093FE04E8
:102770009093FF04A0930005B09301058091050597
:1027800090910605A0910705B091080523FF04C0AC
:102790000197A109B10903C00196A11DB11D809344
:1027A000050590930605A0930705B0930805809151
:1027B000FA049091FB04A091FC04B091FD040D81FA
:1027C0001E812F813885800F911FA21FB31F809318
:1027D000FA049093FB04A093FC04B093FD04181634
:1027E00019061A061B0654F5209102052260209353
:1027F0000205841B950BA60BB70B8093FA049093EC
:10280000FB04A093FC04B093FD0480910905909112
:102810000A05A0910B05B0910C0524FF04C0019797
:10282000A109B10903C00196A11DB11D809309053D
:1028300090930A05A0930B05B0930C058091F604C4
:102840009091F704A091F804B091F90409851A85D4
:102850002B853C85800F911FA21FB31F8093F60428
:102860009093F704A093F804B093F904181619068E
:102870001A061B0654F520910205246020930205D8
:10288000841B950BA60BB70B8093F6049093F7046B
:10289000A093F804B093F90480910D0590910E0572
:1028A000A0910F05B091100525FF04C00197A10963
:1028B000B10903C00196A11DB11D80930D05909330
:1028C0000E05A0930F05B09310058091F20490912E
:1028D000F304A091F404B091F5040196A11DB11D7B
:1028E0008093F2049093F304A093F404B093F5045E
:1028F0002091020538E323272093020584179507CA
:10290000A607B70708F0F5C04DA95EA96FA978AD75
:1029100084179507A607B70740F50E94A00F8823E4
:1029200009F4EDC089A99AA9ABA9BCA94091E50415
:102930005091E6046091E7047091E804840F951FBC
:10294000A61FB71F8093E5049093E604A093E704C5
:10295000B093E8044A895B896C897D8948175907D7
:102960006A077B0708F04AC041C049AD5AAD6BAD5C
:102970007CAD84179507A607B70769F480E49CE946
:10298000A0E0B0E08093E9049093EA04A093EB0404
:10299000B093EC04B4C084179507A607B707C8F135
:1029A0000E94A00F882309F4AAC08091E5049091A9
:1029B000E604A091E704B091E80449A95AA96BA9DB
:1029C0007CA9841B950BA60BB70B8093E504909311
:1029D000E604A093E704B093E8044DA55EA56FA5B7
:1029E00078A984179507A607B70740F44093E50434
:1029F0005093E6046093E7047093E8046091E50463
:102A00007091E6048091E7049091E8040E94B1106F
:102A100076C06A897B898C899D890091E504109133
:102A2000E6042091E7043091E80406171707280709
:102A3000390751F06093E5047093E6048093E7044E
:102A40009093E8040E94B110E0910305F091040511
:102A50008081813009F053C025AD36AD40E050E0B3
:102A60006091F2047091F3048091F4049091F50464
:102A70000E94BF18613071058105910509F03FC0C2
:102A8000F8940E9422027894482F50E0405851094F
:102A90002EEF31E0429FC001439F900D529F900D59
:102AA0001124E0910305F091040566A170E00E94F5
:102AB000AB18862FC62F0E947A0FC93210F082E021
:102AC00005C0CB3010F083E001C084E085BD17C0A5
:102AD00081E001C080E00E947C0F0BC081E001C05A
:102AE00080E00E94820F05C081E001C080E00E946A
:102AF000880F10920405109203050E94AC091092F1
:102B0000F104FF91EF91DF91CF91BF91AF919F9130
:102B10008F917F916F915F914F913F912F911F9175
:102B20000F910F900FBE0F901F9018950E94671184
:102B300048E552E060E070E080E00E94D30F40E1A1
:102B400057E260E070E081E00C94D30F5058BB274F
:102B5000AA270ED0C4C1B5D130F0BAD120F031F4DB
:102B60009F3F11F41EF4AAC10EF4E095E7FB77C174
:102B7000E92FC6D180F3BA17620773078407950758
:102B800018F071F49EF5F5C10EF4E0950B2EBA2FF6
:102B9000A02D0B01B90190010C01CA01A001112463
:102BA000FF27591B99F0593F50F4503E68F11A160F
:102BB000F040A22F232F342F4427585FF3CF4695A0
:102BC00037952795A795F0405395C9F77EF41F16C2
:102BD000BA0B620B730B840BBAF09150A1F0FF0F8C
:102BE000BB1F661F771F881FC2F70EC0BA0F621F78
:102BF000731F841F48F4879577956795B795F79568
:102C00009E3F08F0B3CF9395880F08F09927EE0FF9
:102C100097958795089596D180F09F3740F491114C
:102C20000EF4A8C160E070E080E89FE3089526F00C
:102C30001B16611D711D811D18C132C1ECD008F435
:102C400081E008950CD04BC143D140F03AD130F02F
:102C500021F45F3F19F003C151118CC12FC150D134
:102C600098F39923C9F35523B1F3951B550BBB2753
:102C7000AA2762177307840738F09F5F5F4F220F00
:102C8000331F441FAA1FA9F333D00E2E3AF0E0E8F9
:102C900030D091505040E695001CCAF729D0FE2F45
:102CA00027D0660F771F881FBB1F261737074807D7
:102CB000AB07B0E809F0BB0B802DBF01FF2793588D
:102CC0005F4F2AF09E3F510568F0C9C053C15F3F76
:102CD000ECF3983EDCF3869577956795B795F79575
:102CE0009F5FC9F7880F911D9695879597F908956D
:102CF000E1E0660F771F881FBB1F62177307840709
:102D0000BA0720F0621B730B840BBA0BEE1F88F717
:102D1000E095089504D06894B1112CC10895F8D0BD
:102D200088F09F5790F0B92F9927B751A0F0D1F0B4
:102D3000660F771F881F991F1AF0BA95C9F712C03E
:102D4000B13081F016D1B1E0089513C1672F782F0B
:102D50008827B85F39F0B93FCCF3869577956795AA
:102D6000B395D9F73EF490958095709561957F4F16
:102D70008F4F9F4F0895E89409C097FB3EF49095BC
:102D80008095709561957F4F8F4F9F4F9923A9F044
:102D9000F92F96E9BB279395F695879577956795D3
:102DA000B795F111F8CFFAF4BB0F11F460FF1BC017
:102DB0006F5F7F4F8F4F9F4F16C0882311F096E9AA
:102DC00011C0772321F09EE8872F762F05C0662358
:102DD00071F096E8862F70E060E02AF09A95660F11
:102DE000771F881FDAF7880F9695879597F90895CA
:102DF000A9D080F09F3740F491110EF0BBC060E085
:102E000070E080E89FEB089526F41B16611D711D8C
:102E1000811D2BC045C0990F0008550FAA0BE0E893
:102E2000FEEF16161706E807F907C0F0121613068C
:102E3000E407F50798F0621B730B840B950B39F4CC
:102E40000A2661F0232B242B252B21F408950A2632
:102E500009F4A140A6958FEF811D811D089597F972
:102E60009F6780E870E060E00895882371F477231D
:102E700021F09850872B762F07C0662311F49927ED
:102E80000DC09051862B70E060E02AF09A95660F95
:102E9000771F881FDAF7880F9695879597F9089519
:102EA0009F3F31F0915020F4879577956795B795BE
:102EB000880F911D9695879597F908959FEF80EC5F
:102EC000089500240A941616170618060906089590
:102ED00000240A9412161306140605060895092EF6
:102EE0000394000C11F4882352F0BB0F40F4BF2B65
:102EF00011F460FF04C06F5F7F4F8F4F9F4F0895A5
:102F000057FD9058440F551F59F05F3F71F047959A
:102F1000880F97FB991F61F09F3F79F0879508957F
:102F2000121613061406551FF2CF4695F1DF08C09E
:102F3000161617061806991FF1CF869571056105BB
:102F400008940895E5DFA0F0BEE7B91788F4BB2721
:102F50009F3860F41616B11D672F782F8827985F69
:102F6000F7CF869577956795B11D93959639C8F3F8
:102F70000895E894BB2766277727CB0197F9089532
:102F80004ADF08F48FEF0895C3DF58F19E5758F1D8
:102F90009851A0F0E9F0983020F5092E9927660F96
:102FA000771F881F991F0A94D1F712C0062E672F2A
:102FB000782F8827985F11F4000C07C0993FB4F36D
:102FC0008695779567959395D9F7611D711D811D3C
:102FD0003EF490958095709561957F4F8F4F9F4FF0
:102FE00008956894C7CFC5CF0BD079CF6ADF28F09A
:102FF0006FDF18F0952309F032CF60CF1124BACFDC
:103000007FDFA0F3959FD1F3950F50E0551F629F8E
:10301000F001729FBB27F00DB11D639FAA27F00D31
:10302000B11DAA1F649F6627B00DA11D661F829F58
:103030002227B00DA11D621F739FB00DA11D621F3D
:10304000839FA00D611D221F749F3327A00D611D5A
:10305000231F849F600D211D822F762F6A2F11243C
:103060009F5750408AF0E1F088234AF0EE0FFF1F8F
:10307000BB1F661F771F881F91505040A9F79E3FC6
:10308000510570F0ECCE76CF5F3FECF3983EDCF369
:10309000869577956795B795F795E7959F5FC1F703
:1030A000FE2B880F911D9695879597F9089511F439
:1030B0000EF404CFF5CE2CDFD0F39923D9F3CEF361
:1030C0009F57550B87FF35D00024A0E640EA9001BA
:1030D00080585695979528F4805C660F771F881F57
:1030E00020F026173707480730F4621B730B840B58
:1030F000202931294A2BA69517940794202531259C
:103100004A2758F7660F771F881F20F026173707C2
:10311000480730F4620B730B840B200D311D411DE9
:10312000A09581F7B901842F9158880F96958795BE
:10313000089591505040660F771F881FD2F7089569
:103140000E94E718A59F900DB49F900DA49F800D3D
:10315000911D1124089597FB072E16F4009407D0B3
:1031600077FD09D00E94F61807FC05D03EF4909533
:1031700081959F4F0895709561957F4F0895A1E2C5
:103180001A2EAA1BBB1BFD010DC0AA1FBB1FEE1FE1
:10319000FF1FA217B307E407F50720F0A21BB30B2C
:1031A000E40BF50B661F771F881F991F1A9469F7A8
:1031B00060957095809590959B01AC01BD01CF0104
:1031C0000895EE0FFF1F0590F491E02D0994A29F42
:1031D000B001B39FC001A39F700D811D1124911DEB
:1031E000B29F700D811D1124911D0895AA1BBB1B58
:1031F00051E107C0AA1FBB1FA617B70710F0A61BF7
:10320000B70B881F991F5A95A9F780959095BC0117
:08321000CD010895F894FFCFF1
:02321800FE00B6
:00000001FF
