:100000000C945F000C947C000C947C000C947C009D
:100010000C947C000C947C000C947C000C947C0070
:100020000C947C000C94CC110C947C000C948813E0
:100030000C947C000C947C000C947C000C947C0050
:100040000C947C000C947C000C94F3030C9426021A
:100050000C947C000C947C000C947C000C947C0030
:100060000C947C000C947C000A004C6173617572E6
:100070004772626C2031322E3038005631322E30C9
:100080003800494E46494E4954594E414ECDCCCC8C
:100090003D0AD7233C17B7D13877CC2B329595E65C
:1000A000241FB14F0A000020410000C84200401C3C
:1000B0004620BCBE4CCA1B0E5AAEC59D740011240E
:1000C0001FBECFEFD8E0DEBFCDBF11E0A0E0B1E0B2
:1000D000E4EEF5E302C005900D92AA32B107D9F71C
:1000E00017E0AAE2B1E001C01D92AE34B107E1F71A
:1000F0000E94F6010C94F01A0C940000A0E0B0E00D
:10010000E4E8F0E00C94BF1AEC015B0161157105A5
:1001100019F0FB0191838083F9908F2D90E00E946C
:10012000AE1A892BC9F7FDE2FF1621F4F990EE24EF
:10013000E39405C02BE2F21609F4F990EE248E0147
:1001400001501040C80162E870E043E050E00E94B6
:10015000DE01892B01F58E010E5F1F4FC80165E896
:1001600070E045E050E00E94DE01892B19F48E0119
:10017000095F1F4FA114B10419F0F5011183008329
:10018000E0FC04C070E090E080E814C070E090E013
:1001900080E86FEF08C1C8016AE870E043E050E012
:1001A0000E94DE01892B69F4A114B10429F470E0E6
:1001B00090E080EC6FE7F7C02296F501D183C08311
:1001C000F6CF8824992440E050E060E070E0EF2D05
:1001D000E053EA30A0F5F2E0EF2A8E2D90E09C018A
:1001E00028703070E2FE06C0232B79F50894811C3C
:1001F000911C2BC0232B19F0089481089108DB0176
:10020000CA0112E0880F991FAA1FBB1F1A95D1F7C8
:10021000480F591F6A1F7B1F440F551F661F771F0A
:100220004E0F511D611D711D483929E9520729E9F9
:10023000620729E1720748F084E0E82A06C0EE3F31
:1002400031F4E3FC39C098E0E92AF990C0CFE533F6
:1002500011F0E53189F529912D3219F4E0E1EE2A0A
:1002600005C02B3219F081E090E003C0299182E0B3
:1002700090E0E22FE053EA3018F0C81BD90B1CC005
:1002800020E030E0FCE020383F075CF4C901880F33
:10029000991F880F991F280F391F220F331F2E0F08
:1002A000311DE991E053EA3068F3E4FE03C0309574
:1002B00021953F4F820E931ECE2CDD24E1FE07C018
:1002C000A114B10421F02197F501D183C083CB01A2
:1002D000BA010E9473187B018C01F3E0CF22DD2468
:1002E00023E0C216D10421F417FB109517F91095DD
:1002F00057016801C801B70120E030E040E050E05C
:100300000E94D617882309F44AC097FE0DC021EA3F
:10031000E22E20E0F22E9094819491089394C0E212
:10032000D0E000E010E012C099EBE92E90E0F92E49
:10033000F6CFF7012591359145915491C601B5014C
:100340000E94AE195B016C018C1A9D0A8C169D06E9
:1003500084F7D595C7950F5F1F4F0630110529F01B
:100360008CEF9FEFE80EF91EF1CFC501D6017C019D
:100370008D018C2D880F8D2D881F8F3F51F0C60168
:10038000B50120E030E040E050E00E94D61788231D
:1003900031F482E290E090934D0780934C077E2DDC
:1003A0009F2D802F612F272F392F482F562FB901CE
:1003B000CA01CDB7DEB7ECE00C94DB1AFB01DC011F
:1003C0004150504088F08D9181341CF08B350CF4F5
:1003D000805E659161341CF06B350CF4605E861BA9
:1003E000611171F3990B0895881BFCCF78940E94DA
:1003F000B5020E944B040E94770A0E949F160E9439
:1004000040110E9447110E94BB08FDCF282FE091A8
:100410002F019E2F9F5F903449F490E007C083B76F
:10042000816083BF889583B78E7F83BF80913001C1
:100430009817A9F3F0E0E454F94F208390932F012B
:100440008091C10080628093C10008951F920F9235
:100450000FB60F9211248F939F93EF93FF93909178
:10046000300180912C01882341F083E18093C60004
:1004700010922C0110922E011AC080912D01882318
:1004800049F081E18093C60010922D0181E08093B4
:100490002E010DC0E92FF0E0E454F94F80818093E4
:1004A000C6009F5F903409F490E0909330018091F2
:1004B0002F01981729F48091C1008F7D8093C1008E
:1004C000FF91EF919F918F910F900FBE0F901F9012
:1004D000189590912B0180912A01891711F42FEF23
:1004E00022C0E92FF0E0E450FA4F2081E92FEF5FBE
:1004F000E0932B01809100018F5F80930001809138
:100500002E01882361F480910001813240F081E066
:1005100080932D018091C10080628093C100E03CF6
:1005200011F410922B01822F08959091000180EC1C
:10053000891B0895CF93DF93EC0103C021960E949D
:10054000060288818823D1F7DF91CF910895CF9358
:10055000DF93EC0102C00E940602FE012196849105
:100560008823C9F7DF91CF9108951092C50087E6DF
:100570008093C400E0ECF0E080818D7F8083E1EC2B
:10058000F0E08081806180838081886080838081C9
:100590008068808381E080932D01808180628083E8
:1005A0008AE690E00E94A70288E690E00E94A702F7
:1005B00008952F923F924F925F926F927F928F9207
:1005C0009F92AF92BF92CF92DF92EF92FF920F93E2
:1005D0001F93DF93CF93CDB7DEB7A0970FB6F894F4
:1005E000DEBF0FBECDBF6B017C0129013A01611551
:1005F00071058105910521F480E30E94060247C040
:100600008824992454011E010894211C311C810165
:10061000080D191DC701B601A30192010E948C1A91
:10062000F80160830894811C911CA11CB11CC701B6
:10063000B601A30192010E948C1AC901DA016C0172
:100640007D01C114D104E104F10409F77101E80C42
:10065000F91C3E010894611C711CD501C40101976D
:10066000A109B1096C01C818D9080EC0F601EE0D38
:10067000FF1D80818A3010F4805D01C0895C0E947A
:1006800006020894E108F1086E147F0479F7A09639
:100690000FB6F894DEBF0FBECDBFCF91DF911F9193
:1006A0000F91FF90EF90DF90CF90BF90AF909F9011
:1006B0008F907F906F905F904F903F902F90089514
:1006C000EF92FF920F931F937B018C0197FF0BC05A
:1006D0008DE20E94060210950095F094E094E11CD2
:1006E000F11C011D111DC801B7012AE030E040E0F6
:1006F00050E00E94D9021F910F91FF90EF90089552
:10070000AF92BF92CF92DF92EF92FF920F931F931F
:10071000CF93DF937B018C0120E030E040E050E09C
:100720000E94D61788233CF48DE20E94060217FB34
:10073000109517F91095C801B7012FE632E143E093
:100740005AE30E945F177B018C010E9442185B01F3
:100750006C01CC24B7FCC094DC2CC601B5012AE0A6
:1007600030E040E050E00E94D9028EE20E94060292
:10077000C601B5010E9475189B01AC01C801B70103
:100780000E945E17C3E0D0E01EC020E030E040E2EF
:1007900051E40E94AE195B016C010E9442187B017A
:1007A0008C01862F805D0E9406026E2D70E08827E6
:1007B00077FD8095982F0E9475189B01AC01C601AA
:1007C000B5010E945E1721972FEFCF3FD207E9F6C0
:1007D000DF91CF911F910F91FF90EF90DF90CF901D
:1007E000BF90AF9008951F920F920FB60F921124F1
:1007F0002F933F934F935F936F937F938F939F9329
:10080000AF93BF93EF93FF932091C600213221F461
:1008100084E00E948A112AC02E3719F40E94961192
:1008200025C0E0912A019E2F9F5F903C09F490E043
:1008300080912B019817D1F0F0E0E450FA4F20831B
:1008400090932A0180910001815080930001909142
:100850002E01913059F480910001813238F4909347
:100860002C018091C10080628093C100FF91EF91C3
:10087000BF91AF919F918F917F916F915F914F91B8
:100880003F912F910F900FBE0F901F90189581E010
:1008900080936301089582E3E1E3F1E0DF011D92BB
:1008A0008A95E9F780E090E6AAE6B6E48093350100
:1008B00090933601A0933701B093380180E090E423
:1008C000ACE9B5E48093390190933A01A0933B01E0
:1008D000B0933C0181E08093340110926201109248
:1008E000610180E090E0A0EAB0E480934901909338
:1008F0004A01A0934B01B0934C0180934D0190931A
:100900004E01A0934F01B093500120E030E040E051
:1009100050E0209351013093520140935301509382
:1009200054018093550190935601A0935701B093C1
:1009300058018093590190935A01A0935B01B093A1
:100940005C0120935D0130935E0140935F01509301
:1009500060011092630108952F923F924F925F922F
:100960006F927F928F929F92AF92BF92CF92DF92BF
:10097000EF92FF920F931F93DF93CF93CDB7DEB724
:1009800067970FB6F894DEBF0FBECDBF9B8B8A8BE7
:1009900010923101198A90E05E010894A11CB11CEB
:1009A00053E0952EEE24E39442E0842E70C025316E
:1009B0003105F9F126313105ACF42430310549F126
:1009C000253031053CF4672B39F12130310509F030
:1009D00055C027C02A303105D1F02431310509F046
:1009E0004DC024C02733310569F12833310544F463
:1009F0002E31310509F12633310509F03FC01FC002
:100A00002A35310511F12B353105C1F521C045E0FD
:100A100033C083E0898B34C0E092320191E0998B3E
:100A20002FC080923201A2E0A98B2AC0E09233014C
:100A300027C01092330124C0B4E0B98B21C01092BA
:100A400061011EC0E09261011BC0E092340118C038
:100A50001092340115C02830310539F029303105A4
:100A600051F02730310551F403C0E8E0E98B08C0AC
:100A7000F7E0F98B05C046E0498B02C09092310146
:100A800080913101882371F59C2D8A89981BEA8910
:100A9000FB89E90FF11DF080FF2021F18F2D81549A
:100AA0008A3110F082E01CC09F5F0A891B89090F00
:100AB000111DC801B5010E947E00C980DA80C016F0
:100AC000D10669F00E945F1A0E9442189B01A7E4B8
:100AD000FA1609F46CCFBDE4FB1691F6BCCF81E0A9
:100AE0008093310180913101882309F02BC3DE010D
:100AF0001396EDE3F1E08CE001900D928150E1F767
:100B00001C8A1D8A1E8A1F8A4424552422243324C9
:100B1000772490E0A2C0C701B60123E333E34BEC96
:100B200051E40E94AE194B015C01E0E56E1609F438
:100B300073C0E61544F0F6E46F1691F04CE46416C9
:100B400009F088C080C083E5681609F475C068168E
:100B50000CF480C0862D8855833008F07BC023C0FC
:100B6000C501B40120E030E040E050E00E94D6171B
:100B700018161CF091E09093310180913201813080
:100B800049F48092390190923A01A0923B01B092CF
:100B90003C0160C08092350190923601A0923701ED
:100BA000B092380157C080913401E62DFF27E7FD50
:100BB000F095882389F0E855F040EE0FFF1FEE0F07
:100BC000FF1FA1E0B0E0AC0FBD1FEA0FFB1F828248
:100BD0009382A482B5821DC08F0108551040000F7A
:100BE000111F000F111FE1E0F0E0EC0FFD1F0E0FD1
:100BF0001F1FD80112966D917D918D919C91159733
:100C0000A50194010E945F17F801628373838483B6
:100C10009583772473941EC0F989F53029F0CC8A26
:100C2000DD8AEE8AFF8A16C0C701B6010E945F1AEC
:100C30000E9442182B010EC0C701B6010E9447183E
:100C40006093620107C0C701B6010E945F1A0E944B
:100C500042181B019F854A89941BEA89FB89E90F89
:100C6000F11D6080662029F1862D81548A3110F0B3
:100C700082E01DC09F5F0A891B89090F111DC801F1
:100C8000BE016F5F7F4F0E947E006B017C018981F6
:100C90009A81988B8F878017910741F0809133015B
:100CA000882309F038CF460157013FCF81E0809378
:100CB000310180913101882309F044C2998994302F
:100CC00009F4AFC0953050F4923009F450C093301D
:100CD00008F09CC0913009F02AC20EC0A989A63044
:100CE00009F41EC2A63008F4FCC0A73009F41AC2E9
:100CF000A83009F01CC218C2772009F418C220914C
:100D0000610183E0289F80011124F801EE0FFF1F8D
:100D1000EE0FFF1FE75BFE4F6B817C818D819E8113
:100D200020813181428153810E945F171B012C0178
:100D3000000F111F000F111FF801E35BFE4F6F81C1
:100D4000788589859A8520813181428153810E94ED
:100D50005F173B014C010F5A1E4F6B857C858D85BB
:100D60009E85F8012081318142815381A8C077207E
:100D700009F4DDC12091610183E0289F80011124E5
:100D8000F801EE0FFF1FEE0FFF1FE75BFE4F6B81B9
:100D90007C818D819E8120813181428153810E949D
:100DA0005F171B012C01000F111F000F111FF8010D
:100DB000E35BFE4F6F81788589859A85208131813B
:100DC000428153810E945F173B014C010F5A1E4F15
:100DD0006B857C858D859E85D8012D913D914D91AA
:100DE0005C910E945F177B018C01A0903501B0904F
:100DF0003601C0903701D0903801C201B101A40181
:100E00009301809062010E948E0C91C12C893D89D2
:100E10004E895F89B901CA01409162010E94DA09D5
:100E200086C10E94DA128CE0EDE3F1E0DF01482F89
:100E30001D924A95E9F7FE013396DF011D928A95CE
:100E4000E9F760E070E080E090E09B01AC017B019D
:100E50008C010E940F0A10926101EB82FC820D83CB
:100E60001E83EF82F88609871A87EB86FC860D873A
:100E70001E876091490170914A0180914B019091C8
:100E80004C01A80197010E945F171B012C01609182
:100E90004D0170914E0180914F0190915001A80138
:100EA00097010E945F173B014C01609151017091C5
:100EB00052018091530190915401A80197010E9421
:100EC0005F177B018C01A0903901B0903A01C0906E
:100ED0003B01D0903C01C201B101A40193018824DF
:100EE00092CFB2E04B16510408F021C1E2E02E1679
:100EF000310409F095C0F201EE0FFF1FE40DF51D5E
:100F0000EE0FFF1FEE0FFF1F39E4C32E31E0D32E8B
:100F1000CE0EDF1E2B813C814D815E81D6012D934B
:100F20003D934D935C9313979DE4A92E91E0B92EC8
:100F3000AE0EBF1E2F81388549855A85D5012D9368
:100F40003D934D935C931397EB84FC840D851E8534
:100F5000EF5AFE4FE082F1820283138320916101F8
:100F600083E0289F40011124F401EE0FFF1FEE0FD4
:100F7000FF1FE75BFE4F60913D0170913E01809144
:100F80003F019091400120813181428153810E9433
:100F90005F17F60120813181428153810E945E17E3
:100FA0006B837C838D839E83880C991C880C991C91
:100FB000F401E35BFE4F6091410170914201809129
:100FC00043019091440120813181428153810E94EB
:100FD0005F17D5012D913D914D915C910E945E1757
:100FE0006F83788789879A87E1E5F1E08E0E9F1EEF
:100FF00060914501709146018091470190914801AF
:10100000D4012D913D914D915C910E945F17A801F3
:1010100097010E945E176B877C878D879E8787C0AC
:10102000B4E12B16310409F082C08201000F111FB8
:10103000040D151D2091610183E0289F600111249A
:10104000000F111F000F111F69E4E62E61E0F62E5C
:10105000E00EF11EF601EE0FFF1FEE0FFF1FE75B24
:10106000FE4F60913D0170913E0180913F01909152
:10107000400120813181428153810E945F17F70135
:1010800060837183828393833DE4E32E31E0F32E0A
:10109000E00EF11ECC0CDD1CCC0CDD1CF601E35B7C
:1010A000FE4F609141017091420180914301909106
:1010B000440120813181428153810E945F17D70111
:1010C0006D937D938D939C9313970F5A1E4FE1E57B
:1010D000F1E0CE0EDF1E60914501709146018091D6
:1010E000470190914801D6012D913D914D915C9120
:1010F0000E945F17F801608371838283938380E08D
:1011000090E0A0E0B0E08B839C83AD83BE838F83AF
:101110009887A987BA878B879C87AD87BE8707C0CA
:1011200081E003C082E001C083E00E94980AADE341
:10113000B1E0FE0133968CE001900D928150E1F711
:101140008091310167960FB6F894DEBF0FBECDBF18
:10115000CF91DF911F910F91FF90EF90DF90CF9093
:10116000BF90AF909F908F907F906F905F904F90C7
:101170003F902F9008950F931F93CF93DF93C0E07C
:10118000D0E010E001E00E946902982F112331F0B5
:1011900010E0893209F411E0102718C08132B4F050
:1011A000883299F0CF34D1058CF48156FE01E45099
:1011B000F94F9E012F5F3F4F8A3120F49052908368
:1011C000905E01C09083E90103C011E02097D9F23D
:1011D0009A30C9F6C450D94F188280916301882390
:1011E00001F10E94991160933D0170933E0180933B
:1011F0003F01909340010E94AA11609341017093B6
:10120000420180934301909344010E94BB1160937B
:1012100045017093460180934701909348011092D5
:1012200063010E949311882351F181E091E00E94B3
:101230009A020E949011C82FD0E0C630D10519F44F
:1012400083E091E00BC0C530D10519F485E091E051
:1012500005C0C430D10529F487E091E00E949A02CC
:101260000BC089E091E00E949A02BE01882777FDB9
:101270008095982F0E946003C0E0D0E02DC080913F
:10128000FC068F33C9F38CEF96E00E94AC04C82FA4
:10129000D0E02097F9F0C130D10519F48BE091E04E
:1012A0000BC0C230D10519F48DE091E005C0C33008
:1012B000D10529F48FE091E00E949A020BC081E1F0
:1012C00091E00E949A02BE01882777FD8095982FB1
:1012D0000E946003C1E0D0E089B182958695877055
:1012E00080FF04C083E191E00E949A0289B1869553
:1012F0008695869580FD04C085E191E00E949A0262
:1013000089B18695869580FD04C083E091E00E94B6
:101310009A02309B0FC086B1869580FF0BC086B1C4
:101320008695869580FF06C086B1869586958695BA
:1013300080FD21C0309904C087E191E00E949A02AB
:1013400086B1869580FD04C08AE191E00E949A02F0
:1013500086B18695869580FD04C08DE191E00E945E
:101360009A0286B186958695869580FD04C080E2B6
:1013700091E00E949A02CD2BA1F483E291E00E94B9
:101380009A020E9499110E94800385E291E00E94D6
:101390009A020E94AA110E9480038BE790E00E94AB
:1013A000A70287E291E00E949A02DF91CF911F91FC
:1013B0000F91089508959091AE058091AF0520E0BA
:1013C000981321E0822F08959091AE058091AF058A
:1013D000981719F420E030E008C09091AF058DE334
:1013E000989F900111242C593E4FC9010895909166
:1013F000AE058091AF05981741F08091AF058F5FE2
:10140000823109F480E08093AF0508951092AE0513
:101410001092AF05089581E08093BC0508958F92E6
:101420009F92AF92BF92CF92DF92EF92FF920F9373
:101430001F9349015A012DEC3BE343E052E40E9423
:10144000AE190E947E1920EBC22E25E0D22E6093A9
:10145000B0057093B1058093B2059093B305C501B3
:10146000B4012DEC3BE343E052E40E94AE190E942C
:101470007E19F60134966093B40571838283938359
:10148000C801B7012DEC3BE343E052E40E94AE19E2
:101490000E947E1928E030E0C20ED31E6093B8058A
:1014A000D60111967C93119712968C9312971396EE
:1014B0009C9380E090E0A0E0B0E08093C905909319
:1014C000CA05A093CB05B093CC058CE0EDEBF5E01D
:1014D000DF011D928A95E9F71F910F91FF90EF9020
:1014E000DF90CF90BF90AF909F908F900895109213
:1014F000AE051092AF058CE0E0EBF5E0DF01982F30
:101500001D929A95E9F71092BC05EDEBF5E0DF012D
:101510001D928A95E9F780E090E0A0E0B0E080932A
:10152000C9059093CA05A093CB05B093CC05089547
:10153000682F8091AE058F5F823109F480E0482FDB
:10154000552747FD509507C083B7816083BF8895B5
:1015500083B78E7F83BF8091AF0590E08417950796
:1015600099F38091AE0590E02DE330E0829FF00189
:10157000839FF00D929FF00D1124EC59FE4F608374
:101580004093AE050E947A1108958F929F92AF9278
:10159000BF92CF92DF92EF92FF920F931F93CF9360
:1015A000DF93EC016B0188A5882309F051C0EA8C18
:1015B000FB8C0C8D1D8DFB01B28CA38C948C858CC7
:1015C000C801B7012B2D3A2D492D582D0E94D61751
:1015D00088230CF03DC0C801B701A80197010E9403
:1015E000AE197B018C016AA17BA18CA19DA120E099
:1015F0003CE742E95AE40E94AE199B01AC01C801E4
:10160000B7010E945F170E94151A7B018C016B2D98
:101610007A2D892D982D9701A8010E94D61788232D
:1016200024F4EB2CFA2C092D182D6B2D7A2D892DF5
:10163000982D9701A8010E94D617882349F0C70169
:10164000D801F601828F938FA48FB58F81E087A395
:10165000DF91CF911F910F91FF90EF90DF90CF908E
:10166000BF90AF909F908F9008952F923F924F928E
:101670005F926F927F928F929F92AF92BF92CF9222
:10168000DF92EF92FF920F931F93DF93CF93CDB72B
:10169000DEB768970FB6F894DEBF0FBECDBF1C0152
:1016A0006A017B0128013901DC0152966D917D911F
:1016B0008D919C9155970E9473184B015C01A70175
:1016C00096010E94AE190E94C3170E9447187B0121
:1016D0008C01F10161A772A783A794A7C501B4018A
:1016E000A30192010E94AE190E94C3170E944718DD
:1016F00069877A878B879C87D1019D966D937D93AF
:101700008D939C93D097D1966D917D918D919C9165
:10171000D49720E737E140E050E00E946D1A2B019A
:101720003C01C801B7010E9473187B018C01C30101
:10173000B2010E9475186D837E838F839887C501DF
:10174000B401A50194010E94AE195B016C01C801AE
:10175000B701A80197010E94AE196D877E878F8718
:10176000988B6D817E818F8198859B01AC010E9451
:101770005F17698B7A8B8B8B9C8BC601B5012D858E
:101780003E854F8558890E945E1729893A894B8981
:101790005C890E94DA170E94C3170E94421869836D
:1017A0007A838B839C8369857A858B859C850E944F
:1017B00073189B01AC010E94AE196D8B7E8B8F8BD1
:1017C000988FA60195010E945E177B018C01709491
:1017D000609450944094411C511C611C711CC301C5
:1017E000B2010E9475189B01AC010E945F179B011A
:1017F000AC01C801B7010E94DA170E94B018F101CC
:10180000A684B784C088D1888601750129813A8170
:101810004B815C81E21AF30A040B150B0E944218FB
:10182000A8019701261B370B480B590BDA01C90198
:1018300057FF4AC0C601B5010E9475189B01AC0153
:1018400069897A898B899C890E94AE192D853E858C
:101850004F8558890E945E172D893E894F89588D82
:101860000E945F177B018C016D817E818F8198853D
:1018700020E030E040E850E40E94AE199B01AC014A
:10188000C801B7010E94DA170E94C3170E944218CC
:10189000AC01CB01DA01BC01CD0197FF04C060E0CF
:1018A00070E080E090E069837A838B839C83A61646
:1018B000B706C806D90624F4A982BA82CB82DC8294
:1018C00080E090E0A0E0B0E029813A814B815C812A
:1018D000F10125AB36AB47AB50AF820F931FA41F6E
:1018E000B51F81AF92AFA3AFB4AF68960FB6F894AF
:1018F000DEBF0FBECDBFCF91DF911F910F91FF9043
:10190000EF90DF90CF90BF90AF909F908F907F909F
:101910006F905F904F903F902F9008952F923F923D
:101920004F925F926F927F928F929F92AF92BF92EF
:10193000CF92DF92EF92FF920F931F93DF93CF939B
:10194000CDB7DEB7EC970FB6F894DEBF0FBECDBFB4
:1019500029013A01ADA6BEA6CFA6D8AA382C2DECF7
:101960003BE343E052E40E94AE190E947E19698372
:101970007A838B839C83C301B2012DEC3BE343E06C
:1019800052E40E94AE190E947E196D837E838F837C
:101990009887C801B7012DEC3BE343E052E40E9475
:1019A000AE190E947E1969877A878B879C87809100
:1019B000AE058F5F823109F480E0482E552447FC44
:1019C00050945C8E4B8E07C083B7816083BF88952F
:1019D00083B78E7F83BF8091AF0590E02B8D3C8DC8
:1019E0008217930789F38091BC058823A1F00E9498
:1019F00099113B014C010E94AA115B016C010E94EC
:101A0000BB117B018C01C401B301A60195010E94A9
:101A10000F0A1092BC059091AE058DE3989FA0012E
:101A200011244C595E4F5A8F498FDA011C929696B9
:101A30003C9296971D961C921D9729803A804B8068
:101A40005C8029A63AA64BA65CA6E090B005F09073
:101A5000B1050091B2051091B3052E143F04400664
:101A600051061CF488E01D968C932D803E804F809B
:101A70005884A090B405B090B505C090B605D0903C
:101A8000B7052A143B044C045D0444F4A98DBA8DB7
:101A90001D968C911D9780611D968C9369847A8424
:101AA0008B849C842091B8053091B9054091BA058A
:101AB0005091BB0562167306840695062CF4E98DD9
:101AC000FA8D85858062858789A59AA5ABA5BCA579
:101AD0008E199F09A00BB10B7C018D01A98DBA8DC8
:101AE0001196ED92FD920D931C93149717FF0DC064
:101AF00088279927DC018E199F09A00BB10BE98D6E
:101B0000FA8D81839283A383B483D201C1018A19A0
:101B10009B09AC09BD095C016D01A98DBA8D1596B3
:101B2000AD92BD92CD92DC921897D7FE0DC088275A
:101B30009927DC018A199B09AC09BD09E98DFA8D49
:101B400085839683A783B087621A730A840A950AED
:101B5000D401C30197FE07C088279927DC018619A5
:101B60009709A809B909E98DFA8D81879287A3871A
:101B7000B48725813681478150852180328043801A
:101B800054802DA23EA24FA258A622163306440628
:101B9000550620F42DA33EA34FA358A72DA03EA089
:101BA0004FA058A4281639064A065B0620F48DA3D8
:101BB0009EA3AFA3B8A72DA13EA14FA158A5A98D63
:101BC000BA8D1E962D933D934D935C93519721159D
:101BD00031054105510509F43AC3C801B7010E9416
:101BE00075182DEC3BE343E052E40E94DA1769AB31
:101BF0007AAB8BAB9CABC601B5010E9475182DEC7E
:101C00003BE343E052E40E94DA176DAB7EAB8FAB4F
:101C100098AFC401B3010E9475182DEC3BE343E07B
:101C200052E40E94DA171B012C0169A97AA98BA939
:101C30009CA99B01AC010E94AE197B018C016DA98E
:101C40007EA98FA998AD9B01AC010E94AE199B01A2
:101C5000AC01C801B7010E945F177B018C01C20172
:101C6000B101A20191010E94AE199B01AC01C80112
:101C7000B7010E945F170E94151A7B018C01E98D44
:101C8000FA8D62A373A384A395A360E070E080E85B
:101C90009FE3A80197010E94DA173B014C016DA553
:101CA0007EA58FA598A9A40193010E94AE195B019E
:101CB0006C01C801B701A60195010E94AE1969AF78
:101CC0007AAF8BAF9CAFA98DBA8D56966D937D93ED
:101CD0008D939C9359976DA17EA18FA198A50E9489
:101CE00075187B018C01A60195010E94AE190E9416
:101CF000C3170E944718E98DFA8D628B738B848B12
:101D0000958BC801B701A40193010E94AE1920E090
:101D10003CE742E15AE40E94AE1920E030E84BEB88
:101D200055E40E94DA170E94C3170E944218A98D39
:101D3000BA8DD1966D937D938D939C93D49769A919
:101D40007AA98BA99CA9A40193010E94AE1969A349
:101D50007AA38BA39CA36DA97EA98FA998ADA4019A
:101D600093010E94AE196D8F7E8F8F8F98A3C20151
:101D7000B101A40193010E94AE191B012C019091A5
:101D8000AE058091AF05981709F4A6C06090C9050B
:101D90007090CA058090CB059090CC05B301C4012A
:101DA00020E030E040E050E00E947A1918160CF074
:101DB00093C06091BD057091BE058091BF05909163
:101DC000C005905829A13AA14BA15CA10E94AE196F
:101DD0007B018C016D8D7E8D8F8D98A12091C10529
:101DE0003091C2054091C3055091C4050E94AE19BF
:101DF0009B01AC01C801B7010E945E177B018C01F9
:101E0000C201B1012091C5053091C6054091C705B9
:101E10005091C8050E94AE199B01AC01C801B701E1
:101E20000E945E177B018C0123E333E343E75FE30A
:101E30000E94D61788230CF04FC0B301C40129AD0E
:101E40003AAD4BAD5CAD0E94D61787FD06C089AD9B
:101E50009AADABADBCAD3C014D01C801B70123E368
:101E600033E343E75FEB0E947A191816D4F560E07C
:101E700070E080E89FE3A80197010E945E1720E0D0
:101E800030E040E05FE30E94AE190E94151A7B012A
:101E90008C0120E030E84BEB56E40E94AE195B0168
:101EA0006C0160E070E080E89FE3A80197010E9468
:101EB0005E179B01AC01C601B5010E94DA170E94B2
:101EC000151A7B018C01B301C4019701A8010E947E
:101ED000D61787FD06C007C0EE24FF2400E010E0FF
:101EE00002C073018401C701D801E98DFA8D868F84
:101EF000978FA0A3B1A362A173A184A195A120E0B3
:101F00003CE742E95AE40E94AE1920E030E040E0AC
:101F100050E00E945F170E94151AD62EC72EB82EC9
:101F2000A92EB701C8012D2D3C2D4B2D5A2D0E94F5
:101F3000D61787FD04C0ED2CFC2C0B2D1A2DC701E4
:101F4000D801E98DFA8D828F938FA48FB58F668922
:101F50007789808D918D2D2D3C2D4B2D5A2D0E94F2
:101F6000D617181634F081E0A98DBA8D98968C9307
:101F700003C0E98DFA8D10A681E0A98DBA8D9796E0
:101F80008C932D8A3E8A4F8A588E2D8C3E8C4F8C96
:101F900058A0298A3A8A4B8A5C8A29A13AA14BA186
:101FA0005CA12D873E874F87588BADEBB5E0FE01D6
:101FB0003D968CE001900D928150E1F7E98DFA8D0C
:101FC00086899789A08DB18D8093C9059093CA05A4
:101FD000A093CB05B093CC05FB8DF093AE05A0EBA1
:101FE000B5E0FE0131968CE001900D928150E1F751
:101FF0007090AE05CC24DD24E0E0F0E0662463942C
:1020000073C0772011F442E1742E7A94C114D10484
:1020100009F45EC0309709F45BC0D60198968C91A4
:102020009897882309F048C05E968C905E975F96DB
:102030009C905F979096AC9090979196BC90E28C14
:10204000F38C048D158DB401C501A80197010E9480
:102050007A1918168CF5C801B701A80197010E94DA
:10206000AE197B018C01F60162A173A184A195A137
:1020700020E03CE742E95AE40E94AE199B01AC0122
:10208000C801B7010E945F170E94151A162F072F6B
:10209000F82EE92EB401C501212F302F4F2D5E2DD2
:1020A0000E94D61787FD04C0812E902EAF2CBE2C27
:1020B000C401D501F60105C0F601868D978DA0A15A
:1020C000B1A1828F938FA48FB58FD60197966C9212
:1020D000B72DEDE3BE02C0011124F60134E6C32E94
:1020E00031E0D32EC80ED91E8091AF05272D33279E
:1020F00027FD309590E02817390709F082CFF0903E
:10210000AF0500E010E040E050E019C04115510576
:1021100039F00115110521F0CA01B8010E94C50A64
:102120002F2D2F5F223109F420E0FF2D3DE3F30234
:10213000C0011124F22EA8018C010C591E4F809170
:10214000AE052F2D332727FD309590E0281739074E
:10215000E9F64115510539F00115110521F0CA01C3
:10216000B8010E94C50A5090AF058824992441C047
:10217000452D5DE345023001112484E691E0680EAF
:10218000791E8114910479F1D40197968C9188235A
:1021900021F4F30187A1882331F1D4015696ED9003
:1021A000FD900D911C9159975A966D917D918D914D
:1021B0009C915D97A80197010E94DA175B016C0161
:1021C000F301628D738D848D958DA80197010E9416
:1021D000DA178B019C01C401B601A5010E94350BE1
:1021E000D40197961C925394B2E15B1609F45524DE
:1021F00043018091AE05252D332727FD309590E0D2
:102200002817390709F0B4CFF401E688F788008D64
:10221000118D628D738D848D958DA80197010E941B
:10222000DA175B016C0160E070E080E090E0A801EB
:1022300097010E94DA178B019C01C401B601A50128
:102240000E94350BD40197961C920E947A11EC964D
:102250000FB6F894DEBF0FBECDBFCF91DF911F91B7
:102260000F91FF90EF90DF90CF90BF90AF909F9035
:102270008F907F906F905F904F903F902F90089538
:102280008AB1837D8AB987B1807F87B90895569ACC
:1022900017BC84B5806884BD84B5816084BD85B574
:1022A000816085BD3C9A3D9A44984598579A5F98BD
:1022B000089587BD0895882311F0449A089544989D
:1022C0000895882311F0459A089545980895882324
:1022D00011F05F9808955F9A08958091F905882319
:1022E00041F083B7816083BF889583B78E7F83BFBA
:1022F000F8CF08958091F905882359F481E08093FF
:10230000F90588E18093DB0580916F0082608093FE
:102310006F0008958093FB0581E08093FA0508958E
:102320008091FB0508958091FA0508951092FA05B1
:1023300008956091CD057091CE058091CF05909163
:10234000D0050E9475182DEC3BE343E052E40E9457
:10235000DA1708956091D1057091D2058091D30567
:102360009091D4050E9475182DEC3BE343E052E4B4
:102370000E94DA1708956091D5057091D605809175
:10238000D7059091D8050E9475182DEC3BE343E0EA
:1023900052E40E94DA1708951F920F920FB60F921F
:1023A00011248F9385B1887F85B91092B1008F91E8
:1023B0000F900FBE0F901F9018952F923F924F9243
:1023C0005F926F927F928F929F92AF92BF92CF92C5
:1023D000DF92EF92FF920F931F93DF93CF9300D082
:1023E0000F92CDB7DEB7382E462E4A832B833701A6
:1023F00048018BEF9FEFAFEFBFEF680E791E8A1E8B
:102400009B1E332011F099E301C098E341109260C4
:10241000AA81A1119460BB81BB2311F088E39827A6
:1024200028E1522E592685B1952D9873877C982BDB
:1024300095B9E6E0E98386E0282E86B1FB81FF238B
:1024400011F09FE08927332061F080FD0AC0A98147
:10245000AA2321F4B1E05B26332403C0E981E150D3
:10246000E983442049F082FD07C0222021F4F2E0F4
:102470005F26442401C02A94332031F4442021F4FF
:102480008A81882309F479C085B1952D9770892BAD
:1024900085B98AE18A95F1F785B1982795B9C40184
:1024A000B3010E9473185B016C012BEA3AEA4AEA15
:1024B00050E40E94AE197B018C0120E030E040E83E
:1024C0005FE30E94D617882314F461E053C0C8016B
:1024D000B70120E030E04FE753E40E947A19181664
:1024E0000CF044C0C601B50120E030E04AE754E4F6
:1024F0000E94DA175B016C0120E030E04AE755E406
:102500000E94AE197B018C0120E030E040E85FE3DF
:102510000E94D61788231CF461E070E023C0C80134
:10252000B70120E03FEF4FE757E40E947A191816F1
:10253000ACF4C601B50120E030E040E251E40E9475
:10254000AE190E94471806C080E991E00197F1F7A3
:102550006150704061157105B9F76FCFC801B701BF
:102560000E944718CB010197F1F767CFC801B70167
:102570000E9447186A95F1F760CF8CE0EDECF5E02A
:10258000DF011D928A95E9F70F900F900F90CF9180
:10259000DF911F910F91FF90EF90DF90CF90BF9050
:1025A000AF909F908F907F906F905F904F903F90F3
:1025B0002F900895EF92FF920F931F938091F9054A
:1025C000882341F083B7816083BF889583B78E7F6E
:1025D00083BFF8CF81E061E040E020E058EEE52ED7
:1025E00053E0F52E012D112D0E94DD1181E061E0F7
:1025F00040E021E030E1E32E37E2F32E012D112DF2
:102600000E94DD111F910F91FF90EF9008959B01A3
:10261000AC01203486E0380780E0480780E05807A6
:1026200020F420E436E040E050E060E070E788E32A
:1026300099E30E948C1AC901DA01803020E09207E8
:1026400021E0A20720E0B20738F4FC019C0140E041
:1026500050E060E070E031C0803020E0920728E078
:10266000A20720E0B207A8F423E0B695A7959795B6
:1026700087952A95D1F7FC019C0140E050E0A3E04A
:10268000220F331F441F551FAA95D1F761E070E058
:1026900014C076E0B695A795979587957A95D1F76A
:1026A000FC019C0140E050E066E0220F331F441F14
:1026B000551F6A95D1F762E070E080918100962FF6
:1026C0009F5F887F982B90938100F0938900E0931F
:1026D00088002093ED053093EE054093EF0550936D
:1026E000F005E091D905F091DA0586A10E94591113
:1026F00008951092F9051092DA051092D905EFE6C7
:10270000F0E080818D7F808380E00E9459110895E0
:102710001F920F920FB60F9211242F933F934F9356
:102720005F936F937F938F939F93AF93BF93EF9339
:10273000FF938091EC05882309F0F0C291E090931B
:10274000EC058091FA05882349F00E9479130E94D4
:10275000060A0E940B0A0E944704DEC2309B0FC08B
:1027600086B1869580FF0BC086B18695869580FFE1
:1027700006C086B186958695869580FD07C085E062
:102780008093FB0581E08093FA05C6C289B18695E6
:10279000869580FD06C086E08093FB059093FA0540
:1027A000BBC295B12091DB05822F8873977C892B62
:1027B00085B985B1887F822B85B98AEF8093B20075
:1027C00082E08093B10078948091D9059091DA05E8
:1027D000892B09F05DC00E94E409FC019093DA05A1
:1027E0008093D905009719F40E94791395C28081CE
:1027F000882309F04DC061A572A583A594A56093B7
:10280000F5057093F6058093F7059093F80520E899
:1028100038E341E050E02093F1053093F205409316
:10282000F3055093F4050E940713E091D905F09148
:10283000DA0586859785A089B189B595A79597957D
:102840008795B095A095909581959F4FAF4FBF4FBD
:102850008093DC059093DD05A093DE05B093DF0542
:102860008093E0059093E105A093E205B093E30522
:102870008093E4059093E505A093E605B093E70502
:102880001092E8051092E9051092EA051092EB0506
:10289000E091D905F091DA058081813009F42AC2EE
:1028A000813038F0823009F42AC2833009F034C212
:1028B0002AC225852093DB054091DC055091DD057A
:1028C0006091DE057091DF0581819281A381B481E1
:1028D000480F591F6A1F7B1F4093DC055093DD058D
:1028E0006093DE057093DF051416150616061706AD
:1028F000BCF521602093DB0586859785A089B18989
:10290000481B590B6A0B7B0B4093DC055093DD058C
:102910006093DE057093DF0526952695269520FFAA
:102920000CC08091CD059091CE05A091CF05B091BE
:10293000D0050197A109B1090BC08091CD059091F7
:10294000CE05A091CF05B091D0050196A11DB11D76
:102950008093CD059093CE05A093CF05B093D0057D
:102960004091E0055091E1056091E2057091E30529
:1029700085819681A781B085480F591F6A1F7B1FEB
:102980004093E0055093E1056093E2057093E30501
:102990001416150616061706C4F52091DB052260ED
:1029A0002093DB0586859785A089B189481B590B43
:1029B0006A0B7B0B4093E0055093E1056093E205C1
:1029C0007093E30522952F7020FF0CC08091D105F4
:1029D0009091D205A091D305B091D4050197A1099A
:1029E000B1090BC08091D1059091D205A091D3057A
:1029F000B091D4050196A11DB11D8093D10590938E
:102A0000D205A093D305B093D4054091E40550912D
:102A1000E5056091E6057091E70581859285A385BE
:102A2000B485480F591F6A1F7B1F4093E4055093DC
:102A3000E5056093E6057093E7051416150616067E
:102A40001706CCF52091DB0524602093DB058685F5
:102A50009785A089B189481B590B6A0B7B0B409362
:102A6000E4055093E5056093E6057093E70522952C
:102A70002695277020FF0CC08091D5059091D60532
:102A8000A091D705B091D8050197A109B1090BC054
:102A90008091D5059091D605A091D705B091D80524
:102AA0000196A11DB11D8093D5059093D605A093E5
:102AB000D705B093D8052091E8053091E9054091FC
:102AC000EA055091EB052F5F3F4F4F4F5F4F20932B
:102AD000E8053093E9054093EA055093EB058091B2
:102AE000DB0598E189278093DB0586859785A0899A
:102AF000B189281739074A075B0708F007C185A97C
:102B000096A9A7A9B0AD281739074A075B0708F0AF
:102B100054C02091ED053091EE054091EF055091A4
:102B2000F0058091F1059091F205A091F305B09127
:102B3000F405280F391F4A1F5B1F2093F1053093BE
:102B4000F2054093F3055093F405213081E73807EF
:102B500082E0480780E0580708F4DEC02050314783
:102B6000424050402093F1053093F2054093F30525
:102B70005093F40581A992A9A3A9B4A92091F505C0
:102B80003091F6054091F7055091F805820F931F9B
:102B9000A41FB51F8093F5059093F605A093F70544
:102BA000B093F80522893389448955892817390754
:102BB0004A075B0708F077C06EC081AD92ADA3AD48
:102BC000B4AD281739074A075B0769F480E898E332
:102BD000A1E0B0E08093F1059093F205A093F30596
:102BE000B093F40599C0281739074A075B0708F422
:102BF00063C02091ED053091EE054091EF055091B5
:102C0000F0058091F1059091F205A091F305B09146
:102C1000F405280F391F4A1F5B1F2093F1053093DD
:102C2000F2054093F3055093F405213081E738070E
:102C300082E0480780E0580708F46EC02050314712
:102C4000424050402093F1053093F2054093F30544
:102C50005093F4058091F5059091F605A091F70544
:102C6000B091F80521A932A943A954A9821B930B5D
:102C7000A40BB50B8093F5059093F605A093F7058B
:102C8000B093F80525A536A547A550A98217930747
:102C9000A407B50740F42093F5053093F60540935B
:102CA000F7055093F8056091F5057091F605809150
:102CB000F7059091F8051BC022893389448955890D
:102CC0008091F5059091F605A091F705B091F80572
:102CD00082179307A407B507F9F02093F505309301
:102CE000F6054093F7055093F805CA01B9010E9413
:102CF000071312C080E00E945B1180E005C081E0F4
:102D00000E945B1103C081E00E9461111092DA05FC
:102D10001092D9050E94F7091092EC05FF91EF91EE
:102D2000BF91AF919F918F917F916F915F914F91E3
:102D30003F912F910F900FBE0F901F90189584B167
:102D40008F6384B985B1807C886185B9E1E8F0E062
:102D500080818F7E8083808188608083E0E8F0E0DE
:102D600080818D7F808380818E7F808380818F733F
:102D7000808380818F7C80831092B0001092B1009C
:102D8000E0E7F0E080818160808360E476E080E0CD
:102D900090E00E9407138CE0EDECF5E0DF011D925E
:102DA0008A95E9F71092F1051092F2051092F30559
:102DB0001092F4051092DA051092D9051092FA05D6
:102DC0001092FB051092EC050E94791308956F9202
:102DD0007F928F929F92AF92BF92CF92DF92EF92AB
:102DE000FF920F931F935B016C0139014A0180919F
:102DF000F905882341F083B7816083BF889583B745
:102E00008E7F83BFF8CFC601B5012DEC3BE343E0D5
:102E100052E40E94AE1920E030E040E05FE30E94FF
:102E20005F170E94B0180E9442186093CD057093FE
:102E3000CE058093CF059093D005C401B3012DEC4E
:102E40003BE343E052E40E94AE1920E030E040E072
:102E50005FE30E945F170E94B0180E9442186093BF
:102E6000D1057093D2058093D3059093D405C80102
:102E7000B7012DEC3BE343E052E40E94AE1920E0A1
:102E800030E040E05FE30E945F170E94B0180E94AC
:102E900042186093D5057093D6058093D70590931B
:102EA000D8051F910F91FF90EF90DF90CF90BF90CA
:102EB000AF909F908F907F906F9008955058BB2750
:102EC000AA270ED0C6C1B7D130F0BCD120F031F462
:102ED0009F3F11F41EF4ACC10EF4E095E7FB77C1FF
:102EE000E92FC8D180F3BA176207730784079507E3
:102EF00018F071F49EF5F7C10EF4E0950B2EBA2F81
:102F0000A02D0B01B90190010C01CA01A0011124EF
:102F1000FF27591B99F0593F50F4503E68F11A169B
:102F2000F040A22F232F342F4427585FF3CF46952C
:102F300037952795A795F0405395C9F77EF41F164E
:102F4000BA0B620B730B840BBAF09150A1F0FF0F18
:102F5000BB1F661F771F881FC2F70EC0BA0F621F04
:102F6000731F841F48F4879577956795B795F795F4
:102F70009E3F08F0B3CF9395880F08F09927EE0F86
:102F800097958795089598D180F09F3740F49111D7
:102F90000EF4AAC160E070E080E89FE3089526F097
:102FA0001B16611D711D811D18C132C1ECD008F4C2
:102FB00081E008950CD04DC145D140F03CD130F0B6
:102FC00021F45F3F19F003C151118EC131C152D1BB
:102FD00098F39923C9F35523B1F3951B550BBB27E0
:102FE000AA2762177307840738F09F5F5F4F220F8D
:102FF000331F441FAA1FA9F333D00E2E3AF0E0E886
:1030000030D091505040E695001CCAF729D0FE2FD1
:1030100027D0660F771F881FBB1F26173707480763
:10302000AB07B0E809F0BB0B802DBF01FF27935819
:103030005F4F2AF09E3F510568F0C9C055C15F3F00
:10304000ECF3983EDCF3869577956795B795F79501
:103050009F5FC9F7880F911D9695879597F90895F9
:10306000E1E0660F771F881FBB1F62177307840795
:10307000BA0720F0621B730B840BBA0BEE1F88F7A4
:10308000E095089504D06894B1112EC10895FAD046
:1030900088F09F5790F0B92F9927B751A0F0D1F041
:1030A000660F771F881F991F1AF0BA95C9F712C0CB
:1030B000B13081F018D1B1E0089515C1672F782F94
:1030C0008827B85F39F0B93FCCF386957795679537
:1030D000B395D9F73EF490958095709561957F4FA3
:1030E0008F4F9F4F0895E89409C097FB3EF4909549
:1030F0008095709561957F4F8F4F9F4F9923A9F0D1
:10310000F92F96E9BB279395F6958795779567955F
:10311000B795F111F8CFFAF4BB0F11F460FF1BC0A3
:103120006F5F7F4F8F4F9F4F16C0882311F096E936
:1031300011C0772321F09EE8872F762F05C06623E4
:1031400071F096E8862F70E060E02AF09A95660F9D
:10315000771F881FDAF7880F9695879597F9089556
:10316000ABD080F09F3740F491110EF0BDC060E00D
:1031700070E080E89FEB089526F41B16611D711D19
:10318000811D2BC045C0990F0008550FAA0BE0E820
:10319000FEEF16161706E807F907C0F01216130619
:1031A000E407F50798F0621B730B840B950B39F459
:1031B0000A2661F0232B242B252B21F408950A26BF
:1031C00009F4A140A6958FEF811D811D089597F9FF
:1031D0009F6780E870E060E00895882371F47723AA
:1031E00021F09850872B762F07C0662311F499277A
:1031F0000DC09051862B70E060E02AF09A95660F22
:10320000771F881FDAF7880F9695879597F90895A5
:103210009F3F49F0915028F4869577956795B7952B
:103220009F5F80389F4F880F9695879597F90895EF
:103230009FEF80EC089500240A94161617061806CE
:103240000906089500240A941216130614060506AA
:103250000895092E0394000C11F4882352F0BB0F3B
:1032600040F4BF2B11F460FF04C06F5F7F4F8F4F9E
:103270009F4F089557FD9058440F551F59F05F3FD9
:1032800071F04795880F97FB991F61F09F3F79F088
:1032900087950895121613061406551FF2CF46950A
:1032A000F1DF08C0161617061806991FF1CF86958C
:1032B0007105610508940895E5DFA0F0BEE7B91730
:1032C00088F4BB279F3860F41616B11D672F782F3E
:1032D0008827985FF7CF869577956795B11D939569
:1032E0009639C8F30895E894BB2766277727CB0162
:1032F00097F9089548DF08F48FEF0895C3DF58F178
:103300009E5758F19851A0F0E9F0983020F5092E19
:103310009927660F771F881F991F0A94D1F712C04B
:10332000062E672F782F8827985F11F4000C07C0AE
:10333000993FB4F38695779567959395D9F7611D75
:10334000711D811D3EF490958095709561957F4F1C
:103350008F4F9F4F08956894C7CFC5CF0BD079CFBB
:103360006ADF28F06FDF18F0952309F030CF60CFC7
:103370001124BACF7FDFA0F3959FD1F3950F50E0D2
:10338000551F629FF001729FBB27F00DB11D639F17
:10339000AA27F00DB11DAA1F649F6627B00DA11DBD
:1033A000661F829F2227B00DA11D621F739FB00D63
:1033B000A11D621F839FA00D611D221F749F3327D3
:1033C000A00D611D231F849F600D211D822F762F6C
:1033D0006A2F11249F5750408AF0E1F088234AF069
:1033E000EE0FFF1FBB1F661F771F881F91505040B5
:1033F000A9F79E3F510570F0EACE76CF5F3FECF320
:10340000983EDCF3869577956795B795F795E795A0
:103410009F5FC1F7FE2B880F911D9695879597F9B1
:10342000089511F40EF404CFF3CE2CDFD0F39923DA
:10343000D9F3CEF39F57550B87FF48D056959795F4
:10344000B0E020F4660F771F881FBB1F1F930F93F8
:1034500000249001A0018001F001A0E80E0F1F1FC1
:103460000A1E511D601B710B8009B50B48F4600FDB
:10347000711F801DB51F0E1B1F0B0A0A510907C0C3
:103480002E0F3F1F4A1F0E0F1F1F0A1E511D660FD2
:10349000771F881FBB1FA695F795E795F8F60617C7
:1034A000170708065B07211D311D411D0F911F9154
:1034B000B901842F9158880F969587950895FCDE61
:1034C00020F09F3708F410CF88CEA2CE9150504004
:1034D000660F771F881FD2F70895629FD001739FF0
:1034E000F001829FE00DF11D649FE00DF11D929FA0
:1034F000F00D839FF00D749FF00D659FF00D9927DF
:10350000729FB00DE11DF91F639FB00DE11DF91F02
:10351000BD01CF0111240895A1E21A2EAA1BBB1BE5
:10352000FD010DC0AA1FBB1FEE1FFF1FA217B3078F
:10353000E407F50720F0A21BB30BE40BF50B661FA5
:10354000771F881F991F1A9469F760957095809569
:1035500090959B01AC01BD01CF010895911106C06A
:10356000803219F089508550D0F70895992788271F
:1035700008952F923F924F925F926F927F928F9217
:103580009F92AF92BF92CF92DF92EF92FF920F93F2
:103590001F93CF93DF93CDB7DEB7CA1BDB0B0FB6FC
:1035A000F894DEBF0FBECDBF09942A8839884888B9
:1035B0005F846E847D848C849B84AA84B984C8844F
:1035C000DF80EE80FD800C811B81AA81B981CE0F46
:1035D000D11D0FB6F894DEBF0FBECDBFED0108952B
:0435E000F894FFCF8D
:1035E400C0210050004C0052004F004E00450055D1
:1035F400005700440043004C31004C32004C33006F
:0A3604004C3400580059000A000081
:00000001FF
