:100000000C9450000C946D000C946D000C946D00D9
:100010000C946D000C946D000C946D000C946D00AC
:100020000C946D000C94B6110C946D000C94C711D7
:100030000C946D000C946D000C946D000C946D008C
:100040000C946D000C946D000C9466010C940901E5
:100050000C946D000C946D000C946D000C946D006C
:100060000C946D000C946D0038069F036A049F0386
:100070007704820489048C048F04F804F80487054B
:10008000870521062406270629062B062D062F069E
:100090003106B5129214941498149A149E14A01454
:1000A00011241FBECFEFD8E0DEBFCDBF11E0A0E02E
:1000B000B1E0ECE6F0E302C005900D92A230B1078A
:1000C000D9F716E0A2E0B1E001C01D92AF38B10748
:1000D000E1F70E946F000C9434180C9400000E9409
:1000E00098000E9470020E942C090E945A110E94DE
:1000F000830E0E949E0E0E944F0380E090E00895C0
:10010000909106019F5F903809F490E020910501DD
:100110009217E1F3E0910601F0E0E15FF94F80838F
:10012000909306018091C10080628093C100089580
:1001300078941092C50080E18093C400E0ECF0E078
:1001400080818D7F8083E1ECF0E08081806180831D
:1001500080818860808380818068808381E40E94C0
:10016000800082E40E94800081E40E94800082E49A
:100170000E94800081E40C948000CF92DF92EF9285
:10018000FF9220E030E04AE754E40E941E1720E08E
:1001900030E040E05DE40E94D1140E94EE166B0155
:1001A0007C01862F80680E948000D701C60180787C
:1001B0009F73AA27BB2727E0B695A79597958795A4
:1001C0002A95D1F780580E948000D701C601882760
:1001D000907CAF71BB273EE0B695A7959795879524
:1001E0003A95D1F780580E948000D701C601882730
:1001F0009927A07EBF7045E1B695A79597958795FD
:100200004A95D1F78058FF90EF90DF90CF900C94F3
:1002100080001F920F920FB60F9211248F939F931D
:10022000EF93FF938091050190910401992331F0A0
:1002300092E19093C600109204010DC0E82FF0E007
:10024000E15FF94F90819093C6008F5F803809F489
:1002500080E08093050190910601891305C080918B
:10026000C1008F7D8093C100FF91EF919F918F918D
:100270000F900FBE0F901F901895E0910701F0E0CE
:10028000E05FFA4F8081909107019F5F9093070193
:100290009F3F11F410920701F8949091000190345F
:1002A00071F490910301992351F091E0909304012E
:1002B0009091C10090629093C100109203019091BF
:1002C00000019F5F90930001789408951F920F9210
:1002D0000FB60F9211242F933F934F935F936F9319
:1002E0007F938F939F93AF93BF93EF93FF938091EF
:1002F000C600813249F18E3719F40E94A61032C02F
:100300008F3319F40E94DC022DC0843189F480916E
:100310000001813448F081E0809304018091C100A4
:1003200080628093C1001EC081E0809303011AC0E7
:10033000E091080191E09E0F9F3F09F490E0209129
:100340000701921304C082E20E949A100BC0F0E0F1
:10035000E05FFA4F80839093080180910001815003
:1003600080930001FF91EF91BF91AF919F918F9189
:100370007F916F915F914F913F912F910F900FBEA1
:100380000F901F90189580910201882351F083B738
:10039000816083BF889583B78E7F83BF0E94E80208
:1003A000F2CF909107018091080198130CC083B798
:1003B000816083BF889583B78E7F83BF0E94E002F0
:1003C0000E94E802EECF0E943D01823029F581E0D3
:1003D0008093020180910201882351F083B78160EC
:1003E00083BF889583B78E7F83BF0E94E802F2CFD8
:1003F000909107018091080198130CC083B7816028
:1004000083BF889583B78E7F83BF0E94E0020E94DE
:10041000E802EECF0C943D010895809102018823FB
:1004200061F09091070180910801981731F00E94C6
:100430003D01833019F41092020180E0089580910B
:100440000001809508950F931F9360910F0170E054
:1004500060587109882777FD8095982F25E1660FF0
:10046000771F881F991F2A95D1F700910E0110E080
:1004700010E4019F102D00271124222717FD20953D
:10048000322F600F711F821F931F00910D0110E02A
:10049000005811091695102F002717950795222748
:1004A00017FD2095322F600F711F821F931F00913F
:1004B0000C0110E000581109222717FD2095322F5A
:1004C000600F711F821F931F98500E94E71520E054
:1004D00030E04AE754E40E944C151F910F910895B3
:1004E00021E02093110180E090E0AAEFB5E4809331
:1004F000120190931301A0931401B093150110926F
:1005000016018CE0E7E1F1E0DF01982F1D929A954A
:10051000E9F7ECE2F1E0DF011D928A95E9F710922C
:1005200023011092240110922501109226011092AD
:100530002701109228011092290110922A0110928D
:100540002B0180E090E0A0EAB0E480933801909322
:100550003901A0933A01B0933B0180933C01909301
:100560003D01A0933E01B0933F01109240011092D3
:1005700041011092420110924301809344019093F3
:100580004501A0934601B0934701809348019093A1
:100590004901A0934A01B0934B0110924C01109273
:1005A0004D0110924E0110924F0110920B012093B9
:1005B0000A0120930901089581E080930A010895BA
:1005C0000E94A108811103C081E080930901089570
:1005D000CF930E94A10881111092090180910A0114
:1005E000882309F45AC080910901882311F081E41D
:1005F00001C082E40E9480000E94A010C82F8032B7
:1006000061F10E948000309905C0C43219F084E283
:100610000E948000319905C0C53219F085E20E9420
:100620008000329905C0C63219F086E20E9480002F
:10063000339905C0CA3219F08AE20E9480003499C9
:1006400005C0CB3219F08BE20E948000359905C0BD
:10065000CD3219F08DE20E9480000E94AC100E9401
:10066000BD0088E70E9480000E94BD100E94BD006E
:1006700089E70E9480000E94CE100E94BD008AE798
:100680000E94800060E070E080EB94E40E94BD0076
:1006900086E70E94800010920A01CF910895CF93BF
:1006A000DF93CDB7DEB728970FB6F894DEBF0FBE45
:1006B000CDBFBCE03B2E222423940E94C301182FFF
:1006C00080910B01882301F10E94AC106093170107
:1006D000709318018093190190931A010E94BD1024
:1006E00060931B0170931C0180931D0190931E0168
:1006F0000E94CE1060931F0170932001809321010E
:100700009093220110920B010E94A310882319F0EC
:1007100020920A0136C317FD24C38FEB810F8A3163
:1007200008F0B0C2412F50E0FA01E154F109E5317F
:10073000F10508F09AC2EC5CFF4F0C940B18609026
:100740002B01A0901201B0901301C0901401D09021
:100750001501143409F066C083E0689E300111244D
:10076000F301EE0FFF1FEE0FFF1FE75EFE4F27A105
:1007700030A541A552A56091340170913501809159
:100780003601909137010E94D11469837A838B835B
:100790009C83F301EE0FFF1FEE0FFF1FEB5EFE4F7A
:1007A00027A130A541A552A560913001709131017A
:1007B00080913201909133010E94D1146D837E8328
:1007C0008F839887F301EE0FFF1FEE0FFF1FEF5E81
:1007D000FE4F27A130A541A552A560912C01709133
:1007E0002D0180912E0190912F010E94D1142B0197
:1007F0003C0160912701709128018091290190911D
:100800002A010E94B9157F936F9380901601E980A9
:10081000FA800B811C812D813E814F815885C30157
:10082000B20153C0A3E06A9E80011124F801EE0FCB
:10083000FF1FEE0FFF1FE75EFE4F27A130A541A56A
:1008400052A56091340170913501809136019091EB
:1008500037010E94D1142B013C01F801EE0FFF1F5C
:10086000EE0FFF1FEB5EFE4F27A130A541A552A55D
:10087000609130017091310180913201909133018A
:100880000E94D11469837A838B839C83F801EE0FD5
:10089000FF1FEE0FFF1FEF5EFE4F27A130A541A502
:1008A00052A560912C0170912D0180912E019091A3
:1008B0002F010E94D1141F921F9280901601830174
:1008C000720129813A814B815C810E945E090F90FF
:1008D0000F90CEC160912301709124018091250178
:1008E00090912601409116010E947008C1C10E949A
:1008F000230260931201709313018093140190936B
:100900001501B6C10E9423020E94B9156093160119
:10091000AFC110921101ACC120921101A9C10E9476
:10092000C014E7E1F1E0DF01832D1D928A95E9F71C
:10093000ECE2F1E0DF01832D1D928A95E9F7E12CCD
:10094000F12C8701A8019701C801B7010E94D008C6
:1009500010922B01E0922C01F0922D0100932E01B8
:1009600010932F01E0923001F09231010093320197
:1009700010933301E0923401F09235010093360177
:1009800010933701A0901201B0901301C090140190
:10099000D0901501A801970160914001709141012B
:1009A00080914201909143010E94D1142B013C019E
:1009B000A801970160913C0170913D0180913E0139
:1009C00090913F010E94D11469837A838B839C8329
:1009D000A8019701609138017091390180913A0125
:1009E00090913B010E94D1141F921F92812C67CFDE
:1009F00081E090E01B3411F080E090E06C01CC0CC1
:100A0000DD1CC80ED91EE0902B01A3E0EA9E700108
:100A100011248601000F111F000F111F0F5E1E4FC2
:100A2000F701EE0FFF1FEE0FFF1FEF5EFE4F27A136
:100A300030A541A552A560911701709118018091D0
:100A4000190190911A010E94D114F80167A370A7AF
:100A500081A792A78601000F111F000F111F0B5EC7
:100A60001E4FF701EE0FFF1FEE0FFF1FEB5EFE4F55
:100A700027A130A541A552A560911B0170911C01D1
:100A800080911D0190911E010E94D114D80197966A
:100A90006D937D938D939C939A978601000F111F00
:100AA000000F111F075E1E4FF701EE0FFF1FEE0F25
:100AB000FF1FE75EFE4F27A130A541A552A560911B
:100AC0001F017091200180912101909122010E94CB
:100AD000D114F80167A370A781A792A710922C01E7
:100AE00010922D0110922E0110922F0110923001C0
:100AF00010923101109232011092330110923401A0
:100B0000109235011092360110923701B1C08090D9
:100B10002C0190902D01A0902E01B0902F01809279
:100B2000440190924501A0924601B0924701C090C5
:100B30003001D0903101E0903201F0903301C09249
:100B40004801D0924901E0924A01F0924B01409055
:100B50003401509035016090360170903701409219
:100B60004C0150924D0160924E0170924F01909154
:100B70002B01F3E09F9F80011124F801EE0FFF1F6E
:100B8000EE0FFF1FEF5EFE4F27A130A541A552A536
:100B900060911701709118018091190190911A01CB
:100BA0000E94D114A50194010E94D01460932C01DD
:100BB00070932D0180932E0190932F01F801EE0F79
:100BC000FF1FEE0FFF1FEB5EFE4F27A130A541A5D3
:100BD00052A560911B0170911C0180911D019091A3
:100BE0001E010E94D114A70196010E94D0146093A7
:100BF0003001709331018093320190933301F801F9
:100C0000EE0FFF1FEE0FFF1FE75EFE4F27A130A57F
:100C100041A552A560911F01709120018091210191
:100C2000909122010E94D114A30192010E94D0143C
:100C300060933401709335018093360190933701AE
:100C400017C010922B0114C020922B0111C082E01A
:100C500009C083E007C084E005C085E003C086E0EA
:100C600001C087E00E94710803C08CE30E949A10C3
:100C7000ECE2F1E0A7E1B1E0832D01900D928A95BD
:100C8000E1F76CC08FE9810F8A3108F064C0809170
:100C90001001843009F05DC0133709F446C098F4A0
:100CA0001636C1F1103709F447C0143609F04FC0A9
:100CB0000E942302609323017093240180932501F5
:100CC000909326014BC0193779F01A37C1F01837C5
:100CD000F1F50E94230260932C0170932D01809303
:100CE0002E0190932F013AC00E942302609330019D
:100CF0007093310180933201909333012FC00E9491
:100D000023026093340170933501809336019093F0
:100D1000370124C00E9423026093120170931301D3
:100D2000809314019093150119C00E9423020E9420
:100D3000B9156093160112C00E9423026093270127
:100D4000709328018093290190932A0107C08EE3B4
:100D500003C08AE301C083E20E949A10109210013E
:100D600010C0E0911001E43048F481E08E0F8093D0
:100D70001001F0E0E45FFE4F108303C08AE30E949D
:100D80009A100E94E8028AE00E94800096CC81E0DE
:100D900080930B0108952F923F924F925F926F9232
:100DA0007F928F929F92AF92BF92CF92DF92EF92FB
:100DB000FF920F931F93CF93DF93CDB7DEB760976A
:100DC0000FB6F894DEBF0FBECDBF1C012A013B0158
:100DD00048015901FC0162897389848995890E94BF
:100DE000E5156B017C01A30192010E941E170E9470
:100DF00035150E94B9152B013C01F10161A772A7BD
:100E000083A794A7A5019401C701B6010E941E17EC
:100E10000E9435150E94B9154B015C01F10165A7CF
:100E200076A787A790AB21A932A943A954A9A0EE20
:100E3000BEE20E94CA1769837A838B839C830E94D7
:100E4000E7156D837E838F839887C301B2010E946B
:100E5000E5152B013C01A7019601C701B6010E94CF
:100E60001E176B017C01A3019201C301B2010E9414
:100E70001E1769877A878B879C872D813E814F81DA
:100E80005885CA01B9010E94D1146D877E878F876A
:100E9000988B29853A854B855C85C701B6010E94F0
:100EA000D0142D853E854F8558890E944C150E948F
:100EB00035150E94B4152B013C01C501B4010E94F7
:100EC000E5159B01AC010E941E174B015C01A701B7
:100ED00096010E94D0146B017C0169817A818B811B
:100EE0009C8190958095709561957F4F8F4F9F4F16
:100EF0000E94E7159B01AC010E94D1149B01AC013B
:100F0000C701B6010E944C150E942216F101C68449
:100F1000D784E088F188A70196012419350946098C
:100F2000570929833A834B835C830E94B415298136
:100F30003A814B815C81261B370B480B590BDA0138
:100F4000C90157FF3DC0C701B6010E94E7159B01CB
:100F5000AC016D857E858F8598890E941E17298535
:100F60003A854B855C850E94D014A50194010E94AE
:100F7000D1144B015C0120E030E040E850E46D8189
:100F80007E818F8198850E941E179B01AC01C5014F
:100F9000B4010E944C150E9435150E94B41597FFAC
:100FA00003C060E070E0CB012B013C01C616D70600
:100FB000E806F90614F42601370180E090E0DC0130
:100FC000F10145AA56AA67AA70AE840D951DA61D0B
:100FD000B71D81AF92AFA3AFB4AF60960FB6F894D0
:100FE000DEBF0FBECDBFDF91CF911F910F91FF905C
:100FF000EF90DF90CF90BF90AF909F908F907F90B9
:101000006F905F904F903F902F9008954F925F9216
:101010006F927F92AF92BF92CF92DF92EF92FF9248
:101020000F931F93CF93DF938C01EB01FC0180A5FD
:10103000811147C0428C538C648C758CAA8CBB8CFC
:10104000CC8CDD8C9501A601C301B2010E9448152C
:1010500087FF37C0A3019201C301B2010E941E178E
:101060002B013C0120E03AEB4BE55AECF80162A180
:1010700073A184A195A10E941E179B01AC01C3011D
:10108000B2010E94D0140E9485177B018C019B0144
:10109000AC01B501C6010E94481587FF02C0750169
:1010A00086019701A801B501C6010E944815882351
:1010B00041F0A701B8014A8F5B8F6C8F7D8F81E073
:1010C0008FA3DF91CF911F910F91FF90EF90DF9051
:1010D000CF90BF90AF907F906F905F904F900895AA
:1010E0000895EF92FF921F93CF93DF931F92CDB796
:1010F000DEB710916E011F5F1E3009F410E0E12E83
:10110000FF24E7FCF09420916D0130E02E153F059F
:1011100029F489830E94E8028981F5CFE0916E016C
:101120009FE3E99FF0011124E159FE4F8083109362
:101130006E010F90DF91CF911F91FF90EF900C9473
:101140007C1020916E0190916D0181E0291301C006
:1011500080E0089590916E0180916D01981749F09B
:1011600080916D012FE3829FC001112481599E4F10
:10117000089580E090E0089590916E0180916D0156
:10118000981741F080916D018F5F8E3009F480E0F7
:1011900080936D01089510926E0110926D01089573
:1011A0008F929F92AF92BF92CF92DF92EF92FF9277
:1011B0000F931F9349015A01670178012CE137EC25
:1011C00041EB52E40E941E170E94EE1660936101EB
:1011D00070936201809363019093640124E731ED81
:1011E00045EB52E4C501B4010E941E170E94EE16A1
:1011F0006093650170936601809367019093680125
:1012000025E535E545E052E4C701B6010E941E1709
:101210000E94EE166093690170936A0180936B01DE
:1012200090936C0110925001109251011092520152
:10123000109253018CE0E4E5F1E0DF011D928A9504
:10124000E9F71F910F91FF90EF90DF90CF90BF9043
:10125000AF909F908F900895EF92FF920F931F93FE
:10126000CF9310926E0110926D01CCE0E1E6F1E0B7
:10127000DF018C2F1D928A95E9F7E12CF12C870173
:1012800020E030E040EA50E4CA01B9010E94D008F1
:1012900010926001E4E5F1E0DF011D92CA95E9F7E3
:1012A000E0925001F09251010093520110935301CA
:1012B000CF911F910F91FF90EF9008952F923F9241
:1012C0004F925F926F927F928F929F92AF92BF9256
:1012D000CF92DF92EF92FF920F931F93CF93DF9302
:1012E000CDB7DEB7E3970FB6F894DEBF0FBECDBF24
:1012F00029013A01E982FA820B831C832A962EACDB
:101300003FAC2A972CE137EC41EB52E40E941E17C8
:101310000E94EE166C8F7D8F8E8F9F8F24E731EDAC
:1013200045EB52E4C301B2010E941E170E94EE1663
:1013300068A379A38AA39BA325E535E545E052E49C
:10134000C801B7010E941E170E94EE166CA37DA370
:101350008EA39FA340906E01042D0F5F098B0E306A
:1013600009F4198A4988042D112707FD10958091E9
:101370006D0190E08017910719F40E94E802F7CF01
:10138000809160018823C1F00E94CE102B013C01A6
:101390000E94BD109B01AC0168AB39AB4AAB5BABA3
:1013A0000E94AC108301720128A939A94AA95BA93E
:1013B0000E94D0081092600180916E010FE3809F1F
:1013C00030011124830101591E4F1A83098321140E
:1013D0003104A1F081E0D8018C93B10180E090E06C
:1013E0000E94E5152CE137EC41EB52E40E941E17F8
:1013F0000E94EE16F80176AF65AF03C0A981BA81ED
:101400001C92E981FA8186A21586809161019091F2
:101410006201A0916301B09164012C8C3D8C4E8CD3
:101420005F8C281639064A065B0614F428E02587E7
:10143000009165011091660120916701309168016A
:1014400048A059A06AA07BA0401651066206730608
:101450002CF4E981FA814585406145872090690136
:1014600030906A0140906B0150906C016CA07DA09F
:101470008EA09FA062147304840495042CF4E98167
:10148000FA814585406245876C8C7D8C8E8C9F8C63
:10149000681A790A8A0A9B0AC401B3016D867E869E
:1014A0008F86988A97FE0BC0662477244301661ABC
:1014B000770A880A990A6D867E868F86988A6D8457
:1014C0007E848F849888A981BA8111966D927D92CD
:1014D0008D929C92149768A079A08AA09BA0601A14
:1014E000710A820A930A6D827E828F8298866A8A46
:1014F0007B8A8C8A9D8A97FE0CC09094809470940D
:101500006094611C711C811C911C6A8A7B8A8C8A84
:101510009D8AEA88FB880C891D89A981BA81159664
:10152000ED92FD920D931C9318976CA07DA08EA058
:101530009FA0621873088408950869867A868B864E
:101540009C869401830197FE07C0309520951095E5
:1015500001951F4F2F4F3F4FA981BA8119960D93C7
:101560001D932D933C931C972A883B884C885D885B
:101570006D847E848F849888261437044804590427
:1015800020F46A8A7B8A8C8A9D8A4A885B886C8868
:101590007D88401651066206730610F42801390151
:1015A000A981BA811E964D925D926D927C9251975F
:1015B000411451046104710409F488C30E94E715C1
:1015C0002CE137EC41EB52E40E944C156A8B7B8B8B
:1015D0008C8B9D8B6D817E818F8198850E94E71514
:1015E00024E731ED45EB52E40E944C1568A779A73A
:1015F0008AA79BA769857A858B859C850E94E715BC
:1016000025E535E545E052E40E944C156CA77DA721
:101610008EA79FA72A893B894C895D89CA01B90198
:101620000E941E176D837E838F83988728A539A516
:101630004AA55BA5CA01B9010E941E179B01AC0116
:101640006D817E818F8198850E94D1146D837E8308
:101650008F8398872CA53DA54EA55FA5CA01B9012A
:101660000E941E179B01AC016D817E818F81988540
:101670000E94D1140E948517688F798F8A8F9B8F63
:10168000E981FA8162A373A384A395A39B01AC01B2
:1016900060E070E080E89FE30E944C156D837E83DC
:1016A0008F8398879B01AC01C601B5010E941E176C
:1016B0006B017C019B01AC01688D798D8A8D9B8DBE
:1016C0000E941E1769877D878E8B9F8BCB01AE8909
:1016D000BF89E981FA81868B978BA08FB18FC30177
:1016E000B2010E94E7154B015C01A70196010E941F
:1016F0001E170E9435150E94B915A981BA8152960C
:101700006D937D938D939C9355972D813E814F8151
:101710005885C501B4010E941E1720E03AEB4BED3D
:1017200059E40E941E1720E030E84BE356E40E9483
:101730004C150E9435150E94B415E981FA8161AB00
:1017400072AB83AB94AB2D813E814F8158856A8902
:101750007B898C899D890E941E176A8B7B8B8C8B61
:101760009D8B2D813E814F81588568A579A58AA5DD
:101770009BA50E941E174B015C012D813E814F816C
:1017800058856CA57DA58EA59FA50E941E172B01CF
:101790003C0190916E0180916D01981709F4ACC0E5
:1017A000009150011091510120905201309053014D
:1017B00020E030E0A901B801C1010E94EA16181624
:1017C0000CF09AC08091540190915501A09156015E
:1017D000B0915701BC01CD0190582A893B894C89B1
:1017E0005D890E941E176B017C0120915801309188
:1017F000590140915A0150915B01C501B4010E9409
:101800001E179B01AC01C701B6010E94D0146B01E9
:101810007C0120915C0130915D0140915E0150910D
:101820005F01C301B2010E941E179B01AC01C701F9
:10183000B6010E94D0146B017C0123E333E343E73C
:101840005FE30E94481587FF57C029853D854E8973
:101850005F89B801C1010E94481587FD04C0098550
:101860001D852E883F8823E333E343E75FEBC70101
:10187000B6010E94EA1618160CF042C0A7019601A4
:1018800060E070E080E89FE30E94D01420E030E048
:1018900040E05FE30E941E170E9485176B017C01E8
:1018A00020E030EC48E256E40E941E176D837E83F0
:1018B0008F839887A701960160E070E080E89FE33E
:1018C0000E94D0149B01AC016D817E818F8198852F
:1018D0000E944C150E9485176B01F82EE92E9B0182
:1018E000482F592FB801C1010E94481587FD08C033
:1018F00086012F2C3E2C04C000E010E0212C312C5E
:10190000C801D101E981FA81868F978FA0A3B1A385
:1019100020E03AEB4BE55AEC688D798D8A8D9B8DF2
:101920000E941E179B01AC0160E070E0CB010E9499
:10193000D0140E9485176B01F82EE92E9B01482FC9
:10194000592FB801C1010E94481587FF03C0302FED
:10195000212F04C03C2D2D2D2F2C3E2C832F922F78
:10196000D101E981FA81828F938FA48FB58F96017F
:101970004F2D5E2D69857D858E899F890E94481532
:10198000181634F081E0A981BA8198968C9303C02F
:10199000E981FA8110A681E0A981BA8197968C939A
:1019A000EA88FB880C891D89E0925401F092550168
:1019B000009356011093570180925801909259015B
:1019C000A0925A01B0925B0140925C0150925D017D
:1019D00060925E0170925F0189859D85AE89BF89A5
:1019E0008093500190935101A0935201B093530101
:1019F000298820926E014C8C5D8C6E8C7F8C40927D
:101A0000610150926201609263017092640168A06A
:101A100079A08AA09BA06092650170926601809275
:101A20006701909268012CA03DA04EA05FA020927B
:101A3000690130926A0140926B0150926C01D09022
:101A40006E01E0E0F0E000E010E04FE3242E3324EC
:101A5000339480916D0190E02D2D332727FD309533
:101A60002817390709F46FC0D11002C03EE0D32E09
:101A7000DA94222D3D2D320370011124A701415922
:101A80005E4F7A010115110509F45AC0309709F427
:101A900057C0D80198968C9198975E969C905E97C7
:101AA0005F96AC905F979096BC9090979196CC90F3
:101AB00081113CC0428C538C648C758CA3019201C3
:101AC000692D7A2D8B2D9C2D0E94EA16181674F51F
:101AD000A3019201C301B2010E941E172B013C0118
:101AE00020E03AEB4BE55AECF80162A173A184A126
:101AF00095A10E941E179B01AC01C301B2010E9477
:101B0000D0140E948517562E672E782E892E262FE8
:101B1000372F482F592F692D7A2D8B2D9C2D0E9400
:101B2000481587FD03C0952C5301C82C892D9A2D8B
:101B3000AB2DBC2DF801828F938FA48FB58F37A268
:101B4000F801870186CFD0906D0100E010E080E0C1
:101B500090E02FE3C22E2D2D332727FD30954091A5
:101B60006E0150E024173507C9F0C29E7001C39E74
:101B7000F00C1124F701E159FE4F7F01009731F07D
:101B80000115110519F0B8010E940608D394FEE072
:101B9000DF1201C0D12CC8018701DDCF009731F0E1
:101BA0000115110519F0B8010E94060830906D0169
:101BB000A12CB12C8FE3282E832D992787FD90959A
:101BC00020916E0130E08217930709F442C0289EED
:101BD0004001299E900C1124840101591E4F480197
:101BE000A114B10479F1D50197968C91811104C0AB
:101BF000F80187A1882331F1D5015696CD90DD906B
:101C0000ED90FC905997A7019601F401628D738DB8
:101C1000848D958D0E944C152B013C01A7019601E6
:101C2000D5015A966D917D918D919C915D970E9401
:101C30004C15AB01BC0193018201C5010E94CB068A
:101C4000F50117A23394FEE03F1201C0312C54017C
:101C5000B3CFD5015696CD90DD90ED90FC9059977D
:101C6000A701960160E070E0CB010E944C152B01AA
:101C70003C01A7019601F501628D738D848D958DD0
:101C80000E944C15AB01BC0193018201C5010E9469
:101C9000CB06D50197961C92E3960FB6F894DEBF5B
:101CA0000FBECDBFDF91CF911F910F91FF90EF90AD
:101CB000DF90CF90BF90AF909F908F907F906F906C
:101CC0005F904F903F902F900C947C10E3960FB64E
:101CD000F894DEBF0FBECDBFDF91CF911F910F9162
:101CE000FF90EF90DF90CF90BF90AF909F908F903C
:101CF0007F906F905F904F903F902F90089581E07C
:101D00008093600108958AB1837F8AB987B1807C0E
:101D100087B9089587BD0895882311F05C9A0895C6
:101D20005C980895882311F05F9A08955F9808954C
:101D3000882311F05D9A08955D980895569A17BC0E
:101D400081E884BD83E085BD549A579A80E00E9463
:101D50008C0E80E00E94920E559A80E00C94980EB2
:101D60008091EC049091ED04A091EE04B091EF0409
:101D70004091E8045091E9046091EA047091EB0409
:101D8000840F951FA61FB71F813828E3920721E013
:101D9000A207B10550F48093E8049093E904A0935E
:101DA000EA04B093EB0480E0089580589843A14082
:101DB000B1098093E8049093E904A093EA04B093F6
:101DC000EB0481E008952F923F924F925F926F92C1
:101DD0007F928F929F92AF92BF92CF92DF92EF92BB
:101DE000FF920F931F93CF93DF93182F6A017B010C
:101DF00085E0C81AD108E108F108111102C08BE38F
:101E000001C083E0C0E3C82795B18C2F8873977C0D
:101E1000892B85B9D6E006E0222423943324339419
:101E200086B1112311F09FE38927332049F080FD0B
:101E300007C0011104C0A1E0CA27312C01C0015024
:101E4000222049F082FD0BC0D11103C0B2E0CB27A4
:101E500002C0D15004C0332009F479C0212C85B1CF
:101E60009C2F9770892B85B98AE18A95F1F785B106
:101E7000892785B9C701B6010E94E5152B013C01F0
:101E80002BEA3AEA4AEA50E40E941E174B015C0131
:101E900020E030E040E85FE30E94481587FD53C032
:101EA00020E030E04FE753E4C501B4010E94EA1698
:101EB00018160CF043C020E030E04AE754E4C301B8
:101EC000B2010E944C152B013C0120E030E04AE7B2
:101ED00055E40E941E174B015C0120E030E040E811
:101EE0005FE30E94481587FD24C020E03FEF4FE7E5
:101EF00057E4C501B4010E94EA161816A4F420E0C4
:101F000030E040E251E4C301B2010E941E170E947A
:101F1000B915CB01009709F483CFE0E9F1E03197DF
:101F2000F1F70197F7CFC501B4010E94B915CB01B4
:101F300002C081E090E00197F1F772CFC501B401D2
:101F40000E94B91501C061E06A95F1F769CF8CE094
:101F5000E4E0F5E0DF011D928A95E9F7DF91CF918A
:101F60001F910F91FF90EF90DF90CF90BF90AF90B7
:101F70009F908F907F906F905F904F903F902F90A9
:101F800008958F929F92AF92BF92CF92DF92EF927D
:101F9000FF920F931F93CF93DF931F92CDB7DEB7BE
:101FA0006B017C0180E4C81686E0D806E104F104E8
:101FB00030F4A0E4CA2EA6E0DA2EE12CF12C60E089
:101FC00070E788E399E3A70196010E94E9172115BC
:101FD0003105E1E04E07510518F4C90160E02FC05A
:101FE00021153105F8E04F075105A8F4BA01A90100
:101FF000E3E07695679557954795EA95D1F7CA013D
:102000009A01AB01F3E0220F331F441F551FFA95CD
:10201000D1F761E014C0BA01A90186E07695679511
:10202000579547958A95D1F7CA019A01AB0166E0A9
:10203000220F331F441F551F6A95D1F762E070913C
:1020400081006F5F787F672B609381009093890098
:10205000809388002093EC043093ED044093EE04C9
:102060005093EF040091020510910305F80166A159
:1020700070E080E090E00E94E7154B015C01C70131
:10208000B6010E94E5156B017C01F8016289738934
:10209000848995890E94E5159B01AC01C701B601B1
:1020A0000E944C159B01AC01C501B4010E941E1792
:1020B0000E94B915862F69830E948A0E6981693250
:1020C00010F082E005C06B3010F083E001C084E0C6
:1020D00085BD0F90DF91CF911F910F91FF90EF90F1
:1020E000DF90CF90BF90AF909F908F900895809198
:1020F000E3048111FFCF08958091E30481110BC0A7
:1021000081E08093E30480E38093010580916F0078
:10211000826080936F0008951092E304109203058B
:1021200010920205EFE6F0E080818D7F808380E0F1
:102130000C948A0E8093E10481E08093E204089578
:102140008091E10408958091E204089580E28093F3
:10215000E1041092E2040895609104057091050570
:1021600080910605909107050E94E7152CE137EC58
:1021700041EB52E40E944C1508956091080570915E
:10218000090580910A0590910B050E94E71524E747
:1021900031ED45EB52E40E944C15089560910C0519
:1021A00070910D0580910E0590910F050E94E71525
:1021B00025E535E545E052E40E944C1508958F92DF
:1021C0009F92AF92BF92CF92DF92EF92FF920F93C6
:1021D0001F93CF93DF9300D000D0CDB7DEB7490176
:1021E0005A016701780169837A838B839C830E94FB
:1021F00077102CE137EC41EB52E469817A818B81D5
:102200009C810E941E1720E030E040E05FE30E94C6
:10221000D1140E9422160E94B41560930405709395
:102220000505809306059093070524E731ED45EBFE
:1022300052E4C501B4010E941E1720E030E040E0E6
:102240005FE30E94D1140E9422160E94B41560938D
:1022500008057093090580930A0590930B0525E501
:1022600035E545E052E4C701B6010E941E1720E0A3
:1022700030E040E05FE30E94D1140E9422160E94E9
:10228000B41560930C0570930D0580930E05909323
:102290000F050F900F900F900F90DF91CF911F912E
:1022A0000F91FF90EF90DF90CF90BF90AF909F90F5
:1022B0008F900895EF92FF920F931F93789484B1BB
:1022C0008F6384B985B1807C806385B9E1E8F0E0F3
:1022D00080818F7E8083808188608083E0E8F0E069
:1022E00080818D7F808380818E7F808380818F73CA
:1022F000808380818F7C80831092B0001092B10027
:10230000E0E7F0E080818160808360E476E080E057
:1023100090E00E94C10F8CE0E4E0F5E0DF011D9247
:102320008A95E9F7E12CF12C870120E030E040EAC2
:1023300050E4CA01B9010E94DF101092E804109223
:10234000E9041092EA041092EB0410920305109233
:1023500002051092E20480E28093E1041092F004FE
:102360001F910F91FF90EF900C948C101F920F9281
:102370000FB60F9211248F9385B1887F85B9109283
:10238000B1008F910F900FBE0F901F9018951F9264
:102390000F920FB60F9211240F931F932F933F9319
:1023A0004F935F936F937F938F939F93AF93BF935D
:1023B000CF93DF93EF93FF938091F0048111CBC211
:1023C00081E08093F0048091E204882349F00E9428
:1023D0008C100E94CB080E947F0E0E94C706B9C2D3
:1023E000309B0AC0319B08C0329B06C0339B04C09F
:1023F000349B02C0359931C0309906C084E2809385
:10240000E10481E08093E204319906C085E2809383
:10241000E10481E08093E204329906C086E2809371
:10242000E10481E08093E204339906C08AE280935C
:10243000E10481E08093E204349906C08BE280934A
:10244000E10481E08093E204359983C28DE28093B8
:10245000E10481E08093E2047CC295B180910105A2
:102460008873977C892B85B985B1887F9091010508
:10247000892B85B98AEF8093B20082E08093B10006
:1024800078948091020590910305892B09F05DC035
:102490000E94AA089093030580930205009719F4FF
:1024A0000E948C1056C2FC012081223008F04DC0E1
:1024B00061A572A583A594A56093E4047093E504D7
:1024C0008093E6049093E70400E41CE920E030E008
:1024D0000093E8041093E9042093EA043093EB049A
:1024E0000E94C10FE0910205F09103058685978552
:1024F000A089B189B595A79597958795B095A09531
:10250000909581959F4FAF4FBF4F8093FD0490935F
:10251000FE04A093FF04B09300058093F904909308
:10252000FA04A093FB04B093FC048093F504909309
:10253000F604A093F704B093F8041092F1041092FB
:10254000F2041092F3041092F404C0910205D091A9
:102550000305888190E0FC013197E730F10508F030
:10256000F8C1E75BFF4F0C940B182D8520930105F4
:102570008091FD049091FE04A091FF04B0910005AC
:1025800049815A816B817C81840F951FA61FB71FDB
:102590008093FD049093FE04A093FF04B093000584
:1025A0004E855F8568897989181619061A061B06F3
:1025B00044F5216020930105841B950BA60BB70BF6
:1025C0008093FD049093FE04A093FF04B093000554
:1025D0008091040590910505A0910605B09107052D
:1025E00023FF04C00197A109B10903C00196A11DF1
:1025F000B11D8093040590930505A0930605B09343
:1026000007058091F9049091FA04A091FB04B09120
:10261000FC040D811E812F813885800F911FA21F20
:10262000B31F8093F9049093FA04A093FB04B09332
:10263000FC04181619061A061B0654F5209101050C
:10264000226020930105841B950BA60BB70B80938A
:10265000F9049093FA04A093FB04B093FC048091D6
:10266000080590910905A0910A05B0910B0524FF7A
:1026700004C00197A109B10903C00196A11DB11DB4
:102680008093080590930905A0930A05B0930B0564
:102690008091F5049091F604A091F704B091F804AC
:1026A00009851A852B853C85800F911FA21FB31FBA
:1026B0008093F5049093F604A093F704B093F80484
:1026C000181619061A061B0654F5209101052460F8
:1026D00020930105841B950BA60BB70B8093F50483
:1026E0009093F604A093F704B093F80480910C053E
:1026F00090910D05A0910E05B0910F0525FF04C026
:102700000197A109B10903C00196A11DB11D8093D4
:102710000C0590930D05A0930E05B0930F058091C5
:10272000F1049091F204A091F304B091F4040196A5
:10273000A11DB11D8093F1049093F204A093F304C2
:10274000B093F4042091010530E323272093010581
:1027500084179507A607B70708F0F5C04DA95EA92D
:102760006FA978AD84179507A607B70740F50E94B3
:10277000B00E882309F4EDC089A99AA9ABA9BCA918
:102780004091E4045091E5046091E6047091E704FF
:10279000840F951FA61FB71F8093E4049093E50450
:1027A000A093E604B093E7044A895B896C897D892C
:1027B000481759076A077B0708F04AC041C049AD6E
:1027C0005AAD6BAD7CAD84179507A607B70769F4C2
:1027D00080E49CE9A0E0B0E08093E8049093E904F1
:1027E000A093EA04B093EB04B4C084179507A6073E
:1027F000B707C8F10E94B00E882309F4AAC08091DF
:10280000E4049091E504A091E604B091E70449A99D
:102810005AA96BA97CA9841B950BA60BB70B8093B7
:10282000E4049093E504A093E604B093E7044DA577
:102830005EA56FA578A984179507A607B70740F48A
:102840004093E4045093E5046093E6047093E70436
:102850006091E4047091E5048091E6049091E704AE
:102860000E94C10F76C06A897B898C899D890091FD
:10287000E4041091E5042091E6043091E704061782
:1028800017072807390751F06093E4047093E504B3
:102890008093E6049093E7040E94C10FE091020543
:1028A000F09103058081813009F053C025AD36AD2C
:1028B00040E050E06091F1047091F2048091F304E3
:1028C0009091F4040E94E91761307105810591052A
:1028D00009F03FC0F8940E940D027894482F50E010
:1028E000405851092EEF31E0429FC001439F900DA7
:1028F000529F900D1124E0910205F091030566A10D
:1029000070E00E94D517862FC62F0E948A0EC9320A
:1029100010F082E005C0CB3010F083E001C084E00D
:1029200085BD17C081E001C080E00E948C0E0BC005
:1029300081E001C080E00E94920E05C081E001C0EC
:1029400080E00E94980E10920305109202050E94EA
:10295000BC081092F004FF91EF91DF91CF91BF91ED
:10296000AF919F918F917F916F915F914F913F9127
:102970002F911F910F910F900FBE0F901F901895E0
:102980000E94771048E552E060E070E080E00E942D
:10299000E30E40E157E260E070E081E00C94E30E6A
:1029A0005058BB27AA270ED0C4C1B5D130F0BAD138
:1029B00020F031F49F3F11F41EF4AAC10EF4E0950B
:1029C000E7FB77C1E92FC6D180F3BA176207730717
:1029D0008407950718F071F49EF5F5C10EF4E095A3
:1029E0000B2EBA2FA02D0B01B90190010C01CA01C9
:1029F000A0011124FF27591B99F0593F50F4503E74
:102A000068F11A16F040A22F232F342F4427585F65
:102A1000F3CF469537952795A795F0405395C9F77D
:102A20007EF41F16BA0B620B730B840BBAF0915035
:102A3000A1F0FF0FBB1F661F771F881FC2F70EC0D4
:102A4000BA0F621F731F841F48F4879577956795A7
:102A5000B795F7959E3F08F0B3CF9395880F08F090
:102A60009927EE0F97958795089596D180F09F3717
:102A700040F491110EF4A8C160E070E080E89FE39B
:102A8000089526F01B16611D711D811D18C132C1EC
:102A9000ECD008F481E008950CD04BC143D140F054
:102AA0003AD130F021F45F3F19F003C151118CC1CC
:102AB0002FC150D198F39923C9F35523B1F3951B36
:102AC000550BBB27AA2762177307840738F09F5F4F
:102AD0005F4F220F331F441FAA1FA9F333D00E2EBE
:102AE0003AF0E0E830D091505040E695001CCAF72B
:102AF00029D0FE2F27D0660F771F881FBB1F2617F0
:102B000037074807AB07B0E809F0BB0B802DBF01C2
:102B1000FF2793585F4F2AF09E3F510568F0C9C0C8
:102B200053C15F3FECF3983EDCF38695779567954C
:102B3000B795F7959F5FC9F7880F911D9695879573
:102B400097F90895E1E0660F771F881FBB1F621792
:102B500073078407BA0720F0621B730B840BBA0B50
:102B6000EE1F88F7E095089504D06894B1112CC148
:102B70000895F8D088F09F5790F0B92F9927B75152
:102B8000A0F0D1F0660F771F881F991F1AF0BA9531
:102B9000C9F712C0B13081F016D1B1E0089513C168
:102BA000672F782F8827B85F39F0B93FCCF3869527
:102BB00077956795B395D9F73EF490958095709584
:102BC00061957F4F8F4F9F4F0895E89409C097FB01
:102BD0003EF490958095709561957F4F8F4F9F4FF4
:102BE0009923A9F0F92F96E9BB279395F695879538
:102BF00077956795B795F111F8CFFAF4BB0F11F4FB
:102C000060FF1BC06F5F7F4F8F4F9F4F16C08823A1
:102C100011F096E911C0772321F09EE8872F762FD7
:102C200005C0662371F096E8862F70E060E02AF018
:102C30009A95660F771F881FDAF7880F9695879504
:102C400097F90895A9D080F09F3740F491110EF0C4
:102C5000BBC060E070E080E89FEB089526F41B168F
:102C6000611D711D811D2BC045C0990F0008550FB6
:102C7000AA0BE0E8FEEF16161706E807F907C0F002
:102C800012161306E407F50798F0621B730B840B0A
:102C9000950B39F40A2661F0232B242B252B21F4E4
:102CA00008950A2609F4A140A6958FEF811D811D84
:102CB000089597F99F6780E870E060E008958823A1
:102CC00071F4772321F09850872B762F07C0662365
:102CD00011F499270DC09051862B70E060E02AF026
:102CE0009A95660F771F881FDAF7880F9695879554
:102CF00097F908959F3F31F0915020F4879577958B
:102D00006795B795880F911D9695879597F90895C2
:102D10009FEF80EC089500240A94161617061806F3
:102D20000906089500240A941216130614060506CF
:102D30000895092E0394000C11F4882352F0BB0F60
:102D400040F4BF2B11F460FF04C06F5F7F4F8F4FC3
:102D50009F4F089557FD9058440F551F59F05F3FFE
:102D600071F04795880F97FB991F61F09F3F79F0AD
:102D700087950895121613061406551FF2CF46952F
:102D8000F1DF08C0161617061806991FF1CF8695B1
:102D90007105610508940895E5DFA0F0BEE7B91755
:102DA00088F4BB279F3860F41616B11D672F782F63
:102DB0008827985FF7CF869577956795B11D93958E
:102DC0009639C8F30895E894BB2766277727CB0187
:102DD00097F908954ADF08F48FEF0895C3DF58F19B
:102DE0009E5758F19851A0F0E9F0983020F5092E3F
:102DF0009927660F771F881F991F0A94D1F712C071
:102E0000062E672F782F8827985F11F4000C07C0D3
:102E1000993FB4F38695779567959395D9F7611D9A
:102E2000711D811D3EF490958095709561957F4F41
:102E30008F4F9F4F08956894C7CFC5CF0BD079CFE0
:102E40006ADF28F06FDF18F0952309F032CF60CFEA
:102E50001124BACF7FDFA0F3959FD1F3950F50E0F7
:102E6000551F629FF001729FBB27F00DB11D639F3C
:102E7000AA27F00DB11DAA1F649F6627B00DA11DE2
:102E8000661F829F2227B00DA11D621F739FB00D88
:102E9000A11D621F839FA00D611D221F749F3327F8
:102EA000A00D611D231F849F600D211D822F762F91
:102EB0006A2F11249F5750408AF0E1F088234AF08E
:102EC000EE0FFF1FBB1F661F771F881F91505040DA
:102ED000A9F79E3F510570F0ECCE76CF5F3FECF343
:102EE000983EDCF3869577956795B795F795E795C6
:102EF0009F5FC1F7FE2B880F911D9695879597F9D7
:102F0000089511F40EF404CFF5CE2CDFD0F39923FD
:102F1000D9F3CEF39F57550B87FF35D00024A0E699
:102F200040EA900180585695979528F4805C660F8A
:102F3000771F881F20F026173707480730F4621BD9
:102F4000730B840B202931294A2BA69517940794DB
:102F5000202531254A2758F7660F771F881F20F054
:102F600026173707480730F4620B730B840B200DCC
:102F7000311D411DA09581F7B901842F9158880F0B
:102F800096958795089591505040660F771F881F3A
:102F9000D2F708950E941118A59F900DB49F900D2F
:102FA000A49F800D911D1124089597FB072E16F400
:102FB000009407D077FD09D00E94201807FC05D0A7
:102FC0003EF4909581959F4F0895709561957F4F40
:102FD0000895A1E21A2EAA1BBB1BFD010DC0AA1F5A
:102FE000BB1FEE1FFF1FA217B307E407F50720F072
:102FF000A21BB30BE40BF50B661F771F881F991FED
:103000001A9469F760957095809590959B01AC0135
:10301000BD01CF010895EE0FFF1F0590F491E02D43
:103020000994A29FB001B39FC001A39F700D811DA1
:103030001124911DB29F700D811D1124911D0895C1
:10304000AA1BBB1B51E107C0AA1FBB1FA617B707CE
:1030500010F0A61BB70B881F991F5A95A9F78095EA
:0C3060009095BC01CD010895F894FFCFBD
:02306C00FE0064
:00000001FF
