:100000000C9461000C947E000C947E000C947E0095
:100010000C947E000C947E000C947E000C947E0068
:100020000C947E000C94E3120C947E000C949814B3
:100030000C947E000C947E000C947E000C947E0048
:100040000C947E000C947E000C94AF040C947B0204
:100050000C947E000C947E000C947E000C947E0028
:100060000C947E000C947E000A0023204C61736186
:1000700075724772626C2031322E3038660056310C
:10008000322E30386600494E46494E4954594E4149
:100090004ECDCCCC3D0AD7233C17B7D13877CC2BEB
:1000A000329595E6241FB14F0A000020410000C898
:1000B0004200401C4620BCBE4CCA1B0E5AAEC59D19
:1000C000740011241FBECFEFD8E0DEBFCDBF11E01A
:1000D000A0E0B1E0ECE2F8E302C005900D92A0359B
:1000E000B107D9F717E0A0E5B1E001C01D92AB3729
:1000F000B107E1F70E94F8010C94141C0C94000065
:10010000A0E0B0E0E6E8F0E00C94E31BEC015B015A
:100110006115710519F0FB0191838083F9908F2D92
:1001200090E00E94D21B892BC9F7FDE2FF1621F453
:10013000F990EE24E39405C02BE2F21609F4F9904D
:10014000EE248E0101501040C80166E870E043E0E3
:1001500050E00E94E001892B01F58E010E5F1F4FD8
:10016000C80169E870E045E050E00E94E001892B99
:1001700019F48E01095F1F4FA114B10419F0F501A4
:1001800011830083E0FC04C070E090E080E814C0BC
:1001900070E090E080E86FEF08C1C8016EE870E0A1
:1001A00043E050E00E94E001892B69F4A114B104FE
:1001B00029F470E090E080EC6FE7F7C02296F5013B
:1001C000D183C083F6CF8824992440E050E060E0DA
:1001D00070E0EF2DE053EA30A0F5F2E0EF2A8E2D2B
:1001E00090E09C0128703070E2FE06C0232B79F568
:1001F0000894811C911C2BC0232B19F008948108B2
:100200009108DB01CA0112E0880F991FAA1FBB1FCA
:100210001A95D1F7480F591F6A1F7B1F440F551FAE
:10022000661F771F4E0F511D611D711D483929E949
:10023000520729E9620729E1720748F084E0E82AB9
:1002400006C0EE3F31F4E3FC39C098E0E92AF990AA
:10025000C0CFE53311F0E53189F529912D3219F43C
:10026000E0E1EE2A05C02B3219F081E090E003C0F6
:10027000299182E090E0E22FE053EA3018F0C81BA9
:10028000D90B1CC020E030E0FCE020383F075CF4D4
:10029000C901880F991F880F991F280F391F220F36
:1002A000331F2E0F311DE991E053EA3068F3E4FE6D
:1002B00003C0309521953F4F820E931ECE2CDD2436
:1002C000E1FE07C0A114B10421F02197F501D1830B
:1002D000C083CB01BA010E9497197B018C01F3E026
:1002E000CF22DD2423E0C216D10421F417FB1095A0
:1002F00017F9109557016801C801B70120E030E0F7
:1003000040E050E00E94FA18882309F44AC097FEA2
:100310000DC025EAE22E20E0F22E909481949108FF
:100320009394C0E2D0E000E010E012C09DEBE92E13
:1003300090E0F92EF6CFF701259135914591549132
:10034000C601B5010E94D21A5B016C018C1A9D0A8C
:100350008C169D0684F7D595C7950F5F1F4F063005
:10036000110529F08CEF9FEFE80EF91EF1CFC501C2
:10037000D6017C018D018C2D880F8D2D881F8F3F1C
:1003800051F0C601B50120E030E040E050E00E94AD
:10039000FA18882331F482E290E090937A078093F0
:1003A00079077E2D9F2D802F612F272F392F482FE2
:1003B000562FB901CA01CDB7DEB7ECE00C94FF1B94
:1003C000FB01DC014150504088F08D9181341CF0DC
:1003D0008B350CF4805E659161341CF06B350CF448
:1003E000605E861B611171F3990B0895881BFCCF29
:1003F00078940E9408020E940D050E948D0B0E94B5
:1004000020180E945F120E9466120E947F09FDCF91
:100410001092C50080E18093C4008091C0008D7F60
:100420008093C0008091C10080618093C100809161
:10043000C10088608093C1008091C1008068809372
:10044000C1002AE630E017C0909152019F5F9038BA
:1004500009F490E0809153019817E1F3E091520183
:10046000F0E0EA55F94F4083909352018091C1002A
:1004700080628093C100F9012F5F3F4F4491442374
:1004800019F728E630E017C0909152019F5F90382D
:1004900009F490E0809153019817E1F3E091520143
:1004A000F0E0EA55F94F4083909352018091C100EA
:1004B00080628093C100F9012F5F3F4F4491442334
:1004C00019F70895282F909152019F5F903809F4F1
:1004D00090E0809153019817E1F3E0915201F0E030
:1004E000EA55F94F2083909352018091C1008062B8
:1004F0008093C10008951F920F920FB60F9211249E
:100500008F939F93EF93FF939091530180915401A8
:10051000882331F082E18093C600109254010DC00F
:10052000E92FF0E0EA55F94F80818093C6009F5F84
:10053000903809F490E090935301809152019817FC
:1005400029F48091C1008F7D8093C100FF91EF91CC
:100550009F918F910F900FBE0F901F9018959091C3
:100560005101809150019817D1F3E0915101F0E0D1
:10057000E955FA4FE081809151018F5F80935101DD
:10058000809151018F3F11F410925101F8948091A4
:100590000001803471F480915501882351F081E08D
:1005A000809354018091C10080628093C1001092B9
:1005B0005501809100018F5F8093000178948E2F08
:1005C00008958091000180950895DC0118C09091F4
:1005D00052019F5F903809F490E080915301981781
:1005E000E1F31196E0915201F0E0EA55F94F2083D2
:1005F000909352018091C10080628093C1002C9140
:10060000222329F70895AC0117C0209152012F5FD2
:10061000203809F420E0809153012817E1F3E0919C
:100620005201F0E0EA55F94F9083209352018091F6
:10063000C10080628093C100FA014F5F5F4F9491C7
:10064000992319F708952F923F924F925F926F92DC
:100650007F928F929F92AF92BF92CF92DF92EF9252
:10066000FF920F931F93DF93CF93CDB7DEB7A09781
:100670000FB6F894DEBF0FBECDBF6B017C01290120
:100680003A016115710581059105C9F490915201F6
:100690009F5F903809F490E0809153019817E1F33F
:1006A000E0915201F0E0EA55F94F80E380839093A6
:1006B00052018091C10080628093C1005DC0882496
:1006C000992454011E010894211C311C8101080D3C
:1006D000191DC701B601A30192010E94B01BF801C8
:1006E00060830894811C911CA11CB11CC701B60138
:1006F000A30192010E94B01BC901DA016C017D01C6
:10070000C114D104E104F10409F7A101480D591DF8
:100710007E010894E11CF11CD501C4010197A109D7
:10072000B109BC016819790924C0FB01E40FF51F68
:10073000E081EA3018F43E2F305D02C03E2F395C74
:10074000209152012F5F203809F420E0809153015D
:100750002817E1F3E0915201F0E0EA55F94F3083B8
:10076000209352018091C10080628093C10041506A
:100770005040E416F506C9F6A0960FB6F894DEBF11
:100780000FBECDBFCF91DF911F910F91FF90EF90E2
:10079000DF90CF90BF90AF909F908F907F906F90A1
:1007A0005F904F903F902F9008959B01AC0197FF71
:1007B0001FC0909152019F5F903809F490E08091A2
:1007C00053019817E1F3E0915201F0E0EA55F94F37
:1007D0008DE28083909352018091C100806280936A
:1007E000C10050954095309521953F4F4F4F5F4F39
:1007F000CA01B9012AE030E040E050E00E94230342
:100800000895AF92BF92CF92DF92EF92FF920F9333
:100810001F93CF93DF937B018C0120E030E040E019
:1008200050E00E94FA188823E4F4909152019F5FEF
:10083000903809F490E0809153019817E1F3E0912A
:100840005201F0E0EA55F94F8DE280839093520116
:100850008091C10080628093C10017FB109517F949
:100860001095C801B7012FE632E143E05AE30E9438
:1008700083185B016C010E9466197B010027F7FC5D
:100880000095102FC801B7012AE030E040E050E0A9
:100890000E942303909152019F5F903809F490E0E9
:1008A000809153019817E1F3E0915201F0E0EA558D
:1008B000F94F8EE28083909352018091C100806253
:1008C0008093C100C801B7010E9499199B01AC0136
:1008D000C601B5010E948218C3E0D0E030C020E01C
:1008E00030E040E251E40E94D21A7B018C010E9468
:1008F0006619209152012F5F203809F420E0809181
:1009000053012817E1F3E0915201F0E0EA55F94F65
:10091000605D60836053209352018091C1008062CA
:100920008093C10070E0882777FD8095982F0E9402
:1009300099199B01AC01C801B7010E948218219747
:100940002FEFCF3FD20759F6DF91CF911F910F9133
:10095000FF90EF90DF90CF90BF90AF9008951F92DF
:100960000F920FB60F9211242F933F934F935F93E3
:100970006F937F938F939F93AF93BF93EF93FF9367
:100980002091C600213211F487E024C02E3719F4DB
:100990000E94AD122DC0243189F480910001813470
:1009A00048F081E0809354018091C100806280937F
:1009B000C1001EC081E0809355011AC0E091500132
:1009C0009E2F9F5F9F3F09F490E0809151019817FF
:1009D00021F481E00E94A1120BC0F0E0E955FA4F2A
:1009E00020839093500180910001815080930001F9
:1009F000FF91EF91BF91AF919F918F917F916F91F7
:100A00005F914F913F912F910F900FBE0F901F90CC
:100A1000189581E080938801089582E3E6E5F1E08E
:100A2000DF011D928A95E9F780E090E6AAE6B6E438
:100A300080935A0190935B01A0935C01B0935D0198
:100A400080E090E4ACE9B5E480935E0190935F01AF
:100A5000A0936001B093610181E0809359011092ED
:100A600087011092860180E090E0A0EAB0E48093D4
:100A70006E0190936F01A0937001B0937101809308
:100A8000720190937301A0937401B093750120E0FB
:100A900030E040E050E020937601309377014093BE
:100AA00078015093790180937A0190937B01A09310
:100AB0007C01B0937D0180937E0190937F01A09390
:100AC0008001B09381012093820130938301409390
:100AD0008401509385011092880110922607089591
:100AE0002F923F924F925F926F927F928F929F923E
:100AF000AF92BF92CF92DF92EF92FF920F931F932C
:100B0000DF93CF93CDB7DEB767970FB6F894DEBF0C
:100B10000FBECDBF9B8B8A8B10925601198A90E035
:100B20005E010894A11CB11C56E0952EEE24E394BE
:100B300042E0842E70C025313105F9F126313105AE
:100B4000ACF42430310549F1253031053CF4672BF4
:100B500039F12130310509F055C027C02A3031055F
:100B6000D1F02431310509F04DC024C027333105BF
:100B700069F12833310544F42E31310509F126336A
:100B8000310509F03FC01FC02A35310511F12B3561
:100B90003105C1F521C045E033C083E0898B34C005
:100BA000E092570191E0998B2FC080925701A2E00B
:100BB000A98B2AC0E092580127C01092580124C086
:100BC000B4E0B98B21C0109286011EC0E09286016C
:100BD0001BC0E092590118C01092590115C028306D
:100BE000310539F02930310551F02730310551F404
:100BF00003C0E8E0E98B08C0F7E0F98B05C046E0E8
:100C0000498B02C09092560180915601882371F55C
:100C10009C2D8A89981BEA89FB89E90FF11DF080D8
:100C2000FF2021F18F2D81548A3110F085E01CC006
:100C30009F5F0A891B89090F111DC801B5010E9418
:100C40008000C980DA80C016D10669F00E94831B3B
:100C50000E9466199B01A7E4FA1609F46CCFBDE463
:100C6000FB1691F6BCCF84E080935601809156012B
:100C7000882309F02BC3DE011396E2E6F1E08CE055
:100C800001900D928150E1F71C8A1D8A1E8A1F8AED
:100C90004424552422243324772490E0A2C0C701A1
:100CA000B60123E333E34BEC51E40E94D21A4B012B
:100CB0005C01E0E56E1609F473C0E61544F0F6E455
:100CC0006F1691F04CE4641609F088C080C083E58B
:100CD000681609F475C068160CF480C0862D885516
:100CE000833008F07BC023C0C501B40120E030E0B0
:100CF00040E050E00E94FA1818161CF094E090931F
:100D0000560180915701813049F480925E019092A2
:100D10005F01A0926001B092610160C080925A01AF
:100D200090925B01A0925C01B0925D0157C08091EE
:100D30005901E62DFF27E7FDF095882389F0E85556
:100D4000F040EE0FFF1FEE0FFF1FA1E0B0E0AC0F71
:100D5000BD1FEA0FFB1F82829382A482B5821DC051
:100D60008F0108551040000F111F000F111FE1E007
:100D7000F0E0EC0FFD1F0E0F1F1FD80112966D91B2
:100D80007D918D919C911597A50194010E948318E6
:100D9000F8016283738384839583772473941EC0E0
:100DA000F989F53029F0CC8ADD8AEE8AFF8A16C0EF
:100DB000C701B6010E94831B0E9466192B010EC059
:100DC000C701B6010E946B196093870107C0C70174
:100DD000B6010E94831B0E9466191B019F854A89E8
:100DE000941BEA89FB89E90FF11D6080662029F1D7
:100DF000862D81548A3110F085E01DC09F5F0A89DD
:100E00001B89090F111DC801BE016F5F7F4F0E9432
:100E100080006B017C0189819A81988B8F87801774
:100E2000910741F080915801882309F038CF46019D
:100E300057013FCF84E0809356018091560188236B
:100E400009F044C29989943009F4AFC0953050F448
:100E5000923009F450C0933008F09CC0913009F0F2
:100E60002AC20EC0A989A63009F41EC2A63008F411
:100E7000FCC0A73009F41AC2A83009F01CC218C27D
:100E8000772009F418C22091860183E0289F800111
:100E90001124F801EE0FFF1FEE0FFF1FE259FE4F66
:100EA0006B817C818D819E81208131814281538142
:100EB0000E9483181B012C01000F111F000F111F2E
:100EC000F801EE58FE4F6F81788589859A852081DB
:100ED0003181428153810E9483183B014C010A58A1
:100EE0001E4F6B857C858D859E85F8012081318123
:100EF00042815381A8C0772009F4DDC12091860189
:100F000083E0289F80011124F801EE0FFF1FEE0FF0
:100F1000FF1FE259FE4F6B817C818D819E81208174
:100F20003181428153810E9483181B012C01000FE3
:100F3000111F000F111FF801EE58FE4F6F817885C9
:100F400089859A8520813181428153810E9483184D
:100F50003B014C010A581E4F6B857C858D859E8513
:100F6000D8012D913D914D915C910E9483187B0198
:100F70008C01A0905A01B0905B01C0905C01D090B0
:100F80005D01C201B101A4019301809087010E941B
:100F9000B50D91C12C893D894E895F89B901CA017E
:100FA000409187010E94F00A86C10E94F1138CE0F3
:100FB000E2E6F1E0DF01482F1D924A95E9F7FE01D4
:100FC0003396DF011D928A95E9F760E070E080E0DA
:100FD00090E09B01AC017B018C010E94250B1092DB
:100FE0008601EB82FC820D831E83EF82F8860987DF
:100FF0001A87EB86FC860D871E8760916E017091C3
:101000006F018091700190917101A80197010E9478
:1010100083181B012C016091720170917301809102
:10102000740190917501A80197010E9483183B01FA
:101030004C016091760170917701809178019091D7
:101040007901A80197010E9483187B018C01A0906F
:101050005E01B0905F01C0906001D0906101C2015B
:10106000B101A4019301882492CFB2E04B16510440
:1010700008F021C1E2E02E16310409F095C0F2011A
:10108000EE0FFF1FE40DF51DEE0FFF1FEE0FFF1F0C
:101090003EE6C32E31E0D32ECE0EDF1E2B813C81E7
:1010A0004D815E81D6012D933D934D935C931397B3
:1010B00092E7A92E91E0B92EAE0EBF1E2F81388582
:1010C00049855A85D5012D933D934D935C93139794
:1010D000EB84FC840D851E85EA58FE4FE082F18288
:1010E000028313832091860183E0289F400111240D
:1010F000F401EE0FFF1FEE0FFF1FE259FE4F60914C
:101100006201709163018091640190916501208179
:101110003181428153810E948318F60120813181FF
:10112000428153810E9482186B837C838D839E83CE
:10113000880C991C880C991CF401EE58FE4F6091A4
:101140006601709167018091680190916901208129
:101150003181428153810E948318D5012D913D91A7
:101160004D915C910E9482186F83788789879A8756
:10117000E6E7F1E08E0E9F1E60916A0170916B01AF
:1011800080916C0190916D01D4012D913D914D9113
:101190005C910E948318A80197010E9482186B87B6
:1011A0007C878D879E8787C0B4E12B16310409F0B8
:1011B00082C08201000F111F040D151D20918601B0
:1011C00083E0289F60011124000F111F000F111FE1
:1011D0006EE6E62E61E0F62EE00EF11EF601EE0F51
:1011E000FF1FEE0FFF1FE259FE4F609162017091E9
:1011F0006301809164019091650120813181428178
:1012000053810E948318F7016083718382839383E3
:1012100032E7E32E31E0F32EE00EF11ECC0CDD1CA4
:10122000CC0CDD1CF601EE58FE4F6091660170910A
:10123000670180916801909169012081318142812B
:1012400053810E948318D7016D937D938D939C9356
:1012500013970A581E4FE6E7F1E0CE0EDF1E6091AD
:101260006A0170916B0180916C0190916D01D601C2
:101270002D913D914D915C910E948318F8016083FE
:1012800071838283938380E090E0A0E0B0E08B8361
:101290009C83AD83BE838F839887A987BA878B870A
:1012A0009C87AD87BE8707C081E003C082E001C094
:1012B00083E00E94C70BA2E6B1E0FE0133968CE00A
:1012C00001900D928150E1F78091560167960FB61B
:1012D000F894DEBF0FBECDBFCF91DF911F910F916C
:1012E000FF90EF90DF90CF90BF90AF909F908F9046
:1012F0007F906F905F904F903F902F9008951F9335
:10130000CF93DF93C0E0D0E00E94AF02CF34D1058D
:1013100024F082E00E94A1120CC0813230F0FE0164
:10132000E95DF84F8083219602C0209769F38A30E7
:1013300059F7C95DD84F188280918801882301F13F
:101340000E94B01260936201709363018093640104
:10135000909365010E94C1126093660170936701CA
:1013600080936801909369010E94D21260936A0190
:1013700070936B0180936C0190936D0110928801C2
:101380000E94AA12882379F181E091E00E94E5028F
:101390000E94A712C82FD0E0C930D10519F483E00C
:1013A00091E08CC0C830D10519F485E091E086C089
:1013B000C730D10519F487E091E080C0C130D10574
:1013C00019F489E091E07AC0C230D10519F48BE0BC
:1013D00091E074C0C330D10519F48DE091E06EC086
:1013E0008FE091E07CC0909127079A3219F09E35EA
:1013F00009F051C080912607882309F047C089E28F
:1014000097E090937807809377071091280717FD4E
:101410000AC002970E94E50281E191E00E94E50284
:1014200083E00E94A112E0917707F091780720E015
:1014300030E008C0280F311D2038310510F0205849
:101440003040319680818823A9F73695279520581A
:101450003F4F812F90E02817390779F080912707B7
:101460008E3519F480E391E029C087E297E00E946D
:10147000E50283E00E94A112A9C0809127078E3562
:1014800009F0A4C081E080932607A0C09A3281F5BC
:10149000109226072DC087E297E0909378078093FB
:1014A000770794C0CF010E947005C82FD0E0209725
:1014B000F9F0C430D10529F482E391E00E94E502FD
:1014C00017C0C530D10519F484E391E0F7CFC630D9
:1014D000D10519F486E391E0F1CF88E391E00E9411
:1014E000E502BE01882777FD8095982F0E94D503DD
:1014F00010E089B182958695877080FD04C08AE3EB
:1015000091E00E94E50289B186958695869580FDD9
:1015100004C08CE391E00E94E50289B1869586952E
:1015200080FD04C083E091E00E94E502309B0FC083
:1015300086B1869580FF0BC086B18695869580FF23
:1015400006C086B186958695869580FD21C0309926
:1015500004C08EE391E00E94E50286B1869580FD8D
:1015600004C081E491E00E94E50286B186958695EB
:1015700080FD04C084E491E00E94E50286B1869576
:101580008695869580FD04C087E491E00E94E5027F
:101590001123A1F08AE491E00E94E5020E94B012BA
:1015A0000E9401048CE491E00E94E5020E94C112B5
:1015B0000E9401048EE790E00E9403038EE491E014
:1015C0000E94E502DF91CF911F910895E091770786
:1015D000F091780780818F3309F064CF11E089CFD3
:1015E00008959091590580915A0520E0981321E0C3
:1015F000822F08959091590580915A05981719F4F2
:1016000020E030E008C090915A058DE3989F90014A
:10161000112427573E4FC901089590915905809193
:101620005A05981741F080915A058F5F803109F46F
:1016300080E080935A0508951092590510925A053A
:10164000089581E08093670508958F929F92AF92ED
:10165000BF92CF92DF92EF92FF920F931F934901B7
:101660005A012DEC3BE343E052E40E94D21A0E945F
:10167000A21A2BE5C22E25E0D22E60935B05709353
:101680005C0580935D0590935E05C501B4012DEC6A
:101690003BE343E052E40E94D21A0E94A21AF601F0
:1016A000349660935F05718382839383C801B70189
:1016B0002DEC3BE343E052E40E94D21A0E94A21AAE
:1016C00028E030E0C20ED31E60936305D601119668
:1016D0007C93119712968C93129713969C9380E0AB
:1016E00090E0A0E0B0E08093740590937505A0931E
:1016F0007605B09377058CE0E8E6F5E0DF011D9212
:101700008A95E9F71F910F91FF90EF90DF90CF90AE
:10171000BF90AF909F908F900895DF92EF92FF92CD
:101720000F931F931092590510925A053CE0D32E47
:10173000EBE5F5E0DF018D2D1D928A95E9F760E07C
:1017400070E080EA90E49B01AC010F2EF0E0EF2EF8
:10175000F0E0FF2EF0E00F2FF0E01F2FF02D0E94A1
:10176000250B10926705E8E6F5E0DF011D92DA949B
:10177000E9F7E0927405F0927505009376051093F1
:1017800077051F910F91FF90EF90DF900895682FDC
:10179000809159058F5F803109F480E0482F5527EB
:1017A00047FD509580915A0590E084179507D1F335
:1017B0008091590590E02DE330E0829FF001839FF6
:1017C000F00D929FF00D1124E757FE4F6083409378
:1017D00059050E94911208958F929F92AF92BF92E5
:1017E000CF92DF92EF92FF920F931F93CF93DF93ED
:1017F000EC016B0188A5882309F051C0EA8CFB8CB1
:101800000C8D1D8DFB01B28CA38C948C858CC80132
:10181000B7012B2D3A2D492D582D0E94FA188823F7
:101820000CF03DC0C801B701A80197010E94D21A6F
:101830007B018C016AA17BA18CA19DA120E03CE7EA
:1018400042E95AE40E94D21A9B01AC01C801B701D7
:101850000E9483180E94391B7B018C016B2D7A2D0D
:10186000892D982D9701A8010E94FA18882324F445
:10187000EB2CFA2C092D182D6B2D7A2D892D982DF6
:101880009701A8010E94FA18882349F0C701D801DE
:10189000F601828F938FA48FB58F81E087A3DF91AC
:1018A000CF911F910F91FF90EF90DF90CF90BF905D
:1018B000AF909F908F9008952F923F924F925F929A
:1018C0006F927F928F929F92AF92BF92CF92DF9250
:1018D000EF92FF920F931F93DF93CF93CDB7DEB7B5
:1018E00068970FB6F894DEBF0FBECDBF1C016A012A
:1018F0007B0128013901DC0152966D917D918D911A
:101900009C9155970E9497194B015C01A701960184
:101910000E94D21A0E94E7180E946B197B018C0169
:10192000F10161A772A783A794A7C501B401A30120
:1019300092010E94D21A0E94E7180E946B196987CF
:101940007A878B879C87D1019D966D937D938D932C
:101950009C93D097D1966D917D918D919C91D497C8
:1019600020E737E140E050E00E94911B2B013C0151
:10197000C801B7010E9497197B018C01C301B20114
:101980000E9499196D837E838F839887C501B40166
:10199000A50194010E94D21A5B016C01C801B70134
:1019A000A80197010E94D21A6D877E878F87988B36
:1019B0006D817E818F8198859B01AC010E94831887
:1019C000698B7A8B8B8B9C8BC601B5012D853E85EF
:1019D0004F8558890E94821829893A894B895C89E8
:1019E0000E94FE180E94E7180E94661969837A8394
:1019F0008B839C8369857A858B859C850E9497194A
:101A00009B01AC010E94D21A6D8B7E8B8F8B988FBD
:101A1000A60195010E9482187B018C01709460944C
:101A200050944094411C511C611C711CC301B201B3
:101A30000E9499199B01AC010E9483189B01AC0183
:101A4000C801B7010E94FE180E94D419F101A684B2
:101A5000B784C088D1888601750129813A814B817C
:101A60005C81E21AF30A040B150B0E946619A801A7
:101A70009701261B370B480B590BDA01C90157FF99
:101A80004AC0C601B5010E9499199B01AC01698940
:101A90007A898B899C890E94D21A2D853E854F8533
:101AA00058890E9482182D893E894F89588D0E943D
:101AB00083187B018C016D817E818F81988520E068
:101AC00030E040E850E40E94D21A9B01AC01C8010A
:101AD000B7010E94FE180E94E7180E946619AC0127
:101AE000CB01DA01BC01CD0197FF04C060E070E0DA
:101AF00080E090E069837A838B839C83A616B70687
:101B0000C806D90624F4A982BA82CB82DC8280E09E
:101B100090E0A0E0B0E029813A814B815C81F10145
:101B200025AB36AB47AB50AF820F931FA41FB51F39
:101B300081AF92AFA3AFB4AF68960FB6F894DEBF93
:101B40000FBECDBFCF91DF911F910F91FF90EF900E
:101B5000DF90CF90BF90AF909F908F907F906F90CD
:101B60005F904F903F902F9008952F923F924F9209
:101B70005F926F927F928F929F92AF92BF92CF921D
:101B8000DF92EF92FF920F931F93DF93CF93CDB726
:101B9000DEB7EC970FB6F894DEBF0FBECDBF2901BC
:101BA0003A01ADA6BEA6CFA6D8AA382C2DEC3BE3B1
:101BB00043E052E40E94D21A0E94A21A69837A83F7
:101BC0008B839C83C301B2012DEC3BE343E052E4E1
:101BD0000E94D21A0E94A21A6D837E838F839887F7
:101BE000C801B7012DEC3BE343E052E40E94D21A56
:101BF0000E94A21A69877A878B879C8780915905F2
:101C00008F5F803109F480E0482E552447FC5094C2
:101C10005C8E4B8E80915A0590E02B8D3C8D821707
:101C20009307C1F3809167058823A1F00E94B01249
:101C30003B014C010E94C1125B016C010E94D21257
:101C40007B018C01C401B301A60195010E94250B03
:101C500010926705909159058DE3989FA00111247A
:101C600047575E4F5A8F498FDA011C9296963C92E5
:101C700096971D961C921D9729803A804B805C8018
:101C800029A63AA64BA65CA6E0905B05F0905C0501
:101C900000915D0510915E052E143F04400651062B
:101CA0001CF488E01D968C932D803E804F805884D4
:101CB000A0905F05B0906005C0906105D09062056E
:101CC0002A143B044C045D0444F4A98DBA8D1D967E
:101CD0008C911D9780611D968C9369847A848B8486
:101CE0009C84209163053091640540916505509175
:101CF000660562167306840695062CF4E98DFA8D46
:101D000085858062858789A59AA5ABA5BCA58E1916
:101D10009F09A00BB10B7C018D01A98DBA8D119685
:101D2000ED92FD920D931C93149717FF0DC0882719
:101D30009927DC018E199F09A00BB10BE98DFA8D53
:101D400081839283A383B483D201C1018A199B0941
:101D5000AC09BD095C016D01A98DBA8D1596AD92D6
:101D6000BD92CD92DC921897D7FE0DC08827992797
:101D7000DC018A199B09AC09BD09E98DFA8D8583BF
:101D80009683A783B087621A730A840A950AD401DE
:101D9000C30197FE07C088279927DC018619970998
:101DA000A809B909E98DFA8D81879287A387B4873D
:101DB000258136814781508521803280438054803F
:101DC0002DA23EA24FA258A622163306440655065F
:101DD00020F42DA33EA34FA358A72DA03EA04FA0B3
:101DE00058A4281639064A065B0620F48DA39EA344
:101DF000AFA3B8A72DA13EA14FA158A5A98DBA8D1B
:101E00001E962D933D934D935C935197211531056B
:101E10004105510509F43AC3C801B7010E94991957
:101E20002DEC3BE343E052E40E94FE1869AB7AAB31
:101E30008BAB9CABC601B5010E9499192DEC3BE31D
:101E400043E052E40E94FE186DAB7EAB8FAB98AFBF
:101E5000C401B3010E9499192DEC3BE343E052E425
:101E60000E94FE181B012C0169A97AA98BA99CA9C3
:101E70009B01AC010E94D21A7B018C016DA97EA945
:101E80008FA998AD9B01AC010E94D21A9B01AC01B5
:101E9000C801B7010E9483187B018C01C201B10106
:101EA000A20191010E94D21A9B01AC01C801B701A5
:101EB0000E9483180E94391B7B018C01E98DFA8DE9
:101EC00062A373A384A395A360E070E080E89FE31E
:101ED000A80197010E94FE183B014C016DA57EA54B
:101EE0008FA598A9A40193010E94D21A5B016C01ED
:101EF000C801B701A60195010E94D21A69AF7AAF55
:101F00008BAF9CAFA98DBA8D56966D937D938D93B3
:101F10009C9359976DA17EA18FA198A50E949919B4
:101F20007B018C01A60195010E94D21A0E94E7183C
:101F30000E946B19E98DFA8D628B738B848B958B64
:101F4000C801B701A40193010E94D21A20E03CE726
:101F500042E15AE40E94D21A20E030E84BEB55E40B
:101F60000E94FE180E94E7180E946619A98DBA8D7A
:101F7000D1966D937D938D939C93D49769A97AA9FB
:101F80008BA99CA9A40193010E94D21A69A37AA3E8
:101F90008BA39CA36DA97EA98FA998ADA4019301E1
:101FA0000E94D21A6D8F7E8F8F8F98A3C201B101CC
:101FB000A40193010E94D21A1B012C019091590592
:101FC00080915A05981709F4A6C060907405709026
:101FD00075058090760590907705B301C40120E0E7
:101FE00030E040E050E00E949E1A18160CF093C0BA
:101FF000609168057091690580916A0590916B0503
:10200000905829A13AA14BA15CA10E94D21A7B0150
:102010008C016D8D7E8D8F8D98A120916C053091F6
:102020006D0540916E0550916F050E94D21A9B017B
:10203000AC01C801B7010E9482187B018C01C2016A
:10204000B101209170053091710540917205509158
:1020500073050E94D21A9B01AC01C801B7010E940E
:1020600082187B018C0123E333E343E75FE30E94A3
:10207000FA1888230CF04FC0B301C40129AD3AAD62
:102080004BAD5CAD0E94FA1887FD06C089AD9AADD4
:10209000ABADBCAD3C014D01C801B70123E333E357
:1020A00043E75FEB0E949E1A1816D4F560E070E0DB
:1020B00080E89FE3A80197010E94821820E030E0A9
:1020C00040E05FE30E94D21A0E94391B7B018C0121
:1020D00020E030E84BEB56E40E94D21A5B016C0121
:1020E00060E070E080E89FE3A80197010E948218F9
:1020F0009B01AC01C601B5010E94FE180E94391B6C
:102100007B018C01B301C4019701A8010E94FA1858
:1021100087FD06C007C0EE24FF2400E010E002C0E7
:1021200073018401C701D801E98DFA8D868F978FDD
:10213000A0A3B1A362A173A184A195A120E03CE773
:1021400042E95AE40E94D21A20E030E040E050E038
:102150000E9483180E94391BD62EC72EB82EA92E96
:10216000B701C8012D2D3C2D4B2D5A2D0E94FA1878
:1021700087FD04C0ED2CFC2C0B2D1A2DC701D801B6
:10218000E98DFA8D828F938FA48FB58F66897789B9
:10219000808D918D2D2D3C2D4B2D5A2D0E94FA189E
:1021A000181634F081E0A98DBA8D98968C9303C0EF
:1021B000E98DFA8D10A681E0A98DBA8D97968C9342
:1021C0002D8A3E8A4F8A588E2D8C3E8C4F8C58A07B
:1021D000298A3A8A4B8A5C8A29A13AA14BA15CA13F
:1021E0002D873E874F87588BA8E6B5E0FE013D96C8
:1021F0008CE001900D928150E1F7E98DFA8D86898E
:102200009789A08DB18D8093740590937505A093E7
:102210007605B0937705FB8DF0935905ABE5B5E0F6
:10222000FE0131968CE001900D928150E1F77090A3
:102230005905E0E0F0E0CC24DD246624639473C00B
:10224000772011F450E1752E7A94C114D10409F469
:102250005EC0309709F45BC0D60198968C91989730
:10226000882309F048C05E968C905E975F969C909C
:102270005F979096AC9090979196BC90E28CF38C7F
:10228000048D158DB401C501A80197010E949E1A05
:1022900018168CF5C801B701A80197010E94D21A3F
:1022A0007B018C01F60162A173A184A195A120E0BC
:1022B0003CE742E95AE40E94D21A9B01AC01C801F2
:1022C000B7010E9483180E94391B162F072FF82E82
:1022D000E92EB401C501212F302F4F2D5E2D0E9414
:1022E000FA1887FD04C0812E902EAF2CBE2CC4019D
:1022F000D501F60105C0F601868D978DA0A1B1A18B
:10230000828F938FA48FB58FD60197966C92B72D3D
:10231000EDE3BE02C0011124F60149E8C42E41E0FC
:10232000D42EC80ED91E80915A05272D332727FD9C
:10233000309590E02817390709F082CFF0905A05C0
:1023400000E010E040E050E019C04115510539F0BF
:102350000115110521F0CA01B8010E94EC0B2F2DC7
:102360002F5F203109F420E0FF2D3DE3F302C0018F
:102370001124A8018C0107571E4FF22E8091590598
:102380002F2D332727FD309590E028173907E9F6E0
:102390004115510539F00115110521F0CA01B801A7
:1023A0000E94EC0B50905A058824992441C0452D79
:1023B0005DE345023001112489E891E0680E791E41
:1023C0008114910479F1D40197968C91882321F49A
:1023D000F30187A1882331F1D4015696ED90FD9049
:1023E0000D911C9159975A966D917D918D919C916B
:1023F0005D97A80197010E94FE185B016C01F30133
:10240000628D738D848D958DA80197010E94FE18B1
:102410008B019C01C401B601A5010E945C0CD40192
:1024200097961C925394B0E15B1609F4552443012E
:1024300080915905252D332727FD309590E02817E9
:10244000390709F0B4CFF401E688F788008D118DC3
:10245000628D738D848D958DA80197010E94FE1861
:102460005B016C0160E070E080E090E0A801970102
:102470000E94FE188B019C01C401B601A5010E94B7
:102480005C0CD40197961C920E949112EC960FB6A8
:10249000F894DEBF0FBECDBFCF91DF911F910F919A
:1024A000FF90EF90DF90CF90BF90AF909F908F9074
:1024B0007F906F905F904F903F902F9008958AB1DA
:1024C000837D8AB987B1807F87B90895569A17BCF2
:1024D00084B5806884BD84B5816084BD85B5816024
:1024E00085BD3C9A3D9A44984598579A5F980895BF
:1024F00087BD0895882311F0449A0895449808955B
:10250000882311F0459A089545980895882311F07D
:102510005F9808955F9A08958091A4058111FFCF77
:1025200008958091A405882359F481E08093A4053F
:1025300088E18093860580916F00826080936F00B0
:1025400008958093A60581E08093A5050895809164
:10255000A60508958091A50508951092A5050895F2
:10256000609178057091790580917A0590917B054D
:102570000E9499192DEC3BE343E052E40E94FE18BF
:10258000089560917C0570917D0580917E05909104
:102590007F050E9499192DEC3BE343E052E40E9431
:1025A000FE180895609180057091810580918205E3
:1025B000909183050E9499192DEC3BE343E052E48E
:1025C0000E94FE1808951F920F920FB60F921124C9
:1025D0008F9385B1887F85B91092B1008F910F904C
:1025E0000FBE0F901F9018952F923F924F925F92BF
:1025F0006F927F928F929F92AF92BF92CF92DF9213
:10260000EF92FF920F931F93DF93CF9300D00F921F
:10261000CDB7DEB7382E462E4A832B8337014801CB
:102620008BEF9FEFAFEFBFEF680E791E8A1E9B1EE8
:10263000332011F099E301C098E341109260AA8120
:10264000A1119460BB81BB2311F088E3982728E196
:10265000522E592685B1952D9873877C982B95B964
:10266000E6E0E98386E0282E86B1FB81FF2311F0A6
:102670009FE08927332061F080FD0AC0A981AA2349
:1026800021F4B1E05B26332403C0E981E150E98302
:10269000442049F082FD07C0222021F4F2E05F26A9
:1026A000442401C02A94332031F4442021F48A8147
:1026B000882309F479C085B1952D9770892B85B948
:1026C0008AE18A95F1F785B1982795B9C401B301DC
:1026D0000E9497195B016C012BEA3AEA4AEA50E43E
:1026E0000E94D21A7B018C0120E030E040E85FE3D9
:1026F0000E94FA18882314F461E053C0C801B7019E
:1027000020E030E04FE753E40E949E1A18160CF0C8
:1027100044C0C601B50120E030E04AE754E40E941D
:10272000FE185B016C0120E030E04AE755E40E94AE
:10273000D21A7B018C0120E030E040E85FE30E9488
:10274000FA1888231CF461E070E023C0C801B701C7
:1027500020E03FEF4FE757E40E949E1A1816ACF4B2
:10276000C601B50120E030E040E251E40E94D21AF7
:102770000E946B1906C080E991E00197F1F7615062
:10278000704061157105B9F76FCFC801B7010E949C
:102790006B19CB010197F1F767CFC801B7010E9410
:1027A0006B196A95F1F760CF8CE0E8E7F5E0DF019F
:1027B0001D928A95E9F70F900F900F90CF91DF91BE
:1027C0001F910F91FF90EF90DF90CF90BF90AF904F
:1027D0009F908F907F906F905F904F903F902F9041
:1027E0000895EF92FF920F931F938091A405882381
:1027F000E9F481E061E040E020E058EEE52E53E0AE
:10280000F52E012D112D0E94F41281E061E040E0CF
:1028100021E030E1E32E37E2F32E012D112D0E944D
:10282000F4121F910F91FF90EF900895FFCF9B013D
:10283000AC01203486E0380780E0480780E0580784
:1028400020F420E436E040E050E060E070E788E308
:1028500099E30E94B01BC901DA01803020E09207A1
:1028600021E0A20720E0B20738F4FC019C0140E01F
:1028700050E060E070E031C0803020E0920728E056
:10288000A20720E0B207A8F423E0B695A795979594
:1028900087952A95D1F7FC019C0140E050E0A3E028
:1028A000220F331F441F551FAA95D1F761E070E036
:1028B00014C076E0B695A795979587957A95D1F748
:1028C000FC019C0140E050E066E0220F331F441FF2
:1028D000551F6A95D1F762E070E080918100962FD4
:1028E0009F5F887F982B90938100F0938900E093FD
:1028F0008800209398053093990540939A0550934A
:102900009B05E0918405F091850586A10E947812CF
:1029100008951092A4051092850510928405EFE6A3
:10292000F0E080818D7F808380E00E94781208959E
:102930001F920F920FB60F9211242F933F934F9334
:102940005F936F937F938F939F93AF93BF93EF9317
:10295000FF9380919705882309F0F0C291E090934E
:1029600097058091A505882349F00E9489140E944B
:102970001C0B0E94210B0E940905DEC2309B0FC078
:1029800086B1869580FF0BC086B18695869580FFBF
:1029900006C086B186958695869580FD07C088E03D
:1029A0008093A60581E08093A505C6C289B186956E
:1029B000869580FD06C089E08093A6059093A505C5
:1029C000BBC295B120918605822F8873977C892B95
:1029D00085B985B1887F822B85B98AEF8093B20053
:1029E00082E08093B1007894809184059091850570
:1029F000892B09F05DC00E94FA0AFC0190938505BD
:102A000080938405009719F40E94891495C28081EF
:102A1000882309F04DC061A572A583A594A5609394
:102A2000A0057093A1058093A2059093A30520E8CB
:102A300038E341E050E020939C0530939D0540939E
:102A40009E0550939F050E941714E0918405F09114
:102A5000850586859785A089B189B595A7959795B0
:102A60008795B095A095909581959F4FAF4FBF4F9B
:102A70008093870590938805A0938905B0938A0574
:102A800080938B0590938C05A0938D05B0938E0554
:102A900080938F0590939005A0939105B093920534
:102AA0001092930510929405109295051092960538
:102AB000E0918405F09185058081813009F42AC276
:102AC000813038F0823009F42AC2833009F034C2F0
:102AD0002AC2258520938605409187055091880557
:102AE0006091890570918A0581819281A381B48169
:102AF000480F591F6A1F7B1F409387055093880515
:102B00006093890570938A05141615061606170634
:102B1000BCF521602093860586859785A089B189BB
:102B2000481B590B6A0B7B0B409387055093880514
:102B30006093890570938A0526952695269520FF32
:102B40000CC08091780590917905A0917A05B0919B
:102B50007B050197A109B1090BC08091780590917F
:102B60007905A0917A05B0917B050196A11DB11D53
:102B70008093780590937905A0937A05B0937B05AF
:102B800040918B0550918C0560918D0570918E055B
:102B900085819681A781B085480F591F6A1F7B1FC9
:102BA00040938B0550938C0560938D0570938E0533
:102BB0001416150616061706C4F520918605226020
:102BC0002093860586859785A089B189481B590B76
:102BD0006A0B7B0B40938B0550938C0560938D059E
:102BE00070938E0522952F7020FF0CC080917C057C
:102BF00090917D05A0917E05B0917F050197A10977
:102C0000B1090BC080917C0590917D05A0917E0556
:102C1000B0917F050196A11DB11D80937C05909315
:102C20007D05A0937E05B0937F0540918F0550915F
:102C30009005609191057091920581859285A3859B
:102C4000B485480F591F6A1F7B1F40938F0550930F
:102C5000900560939105709392051416150616065B
:102C60001706CCF52091860524602093860586857D
:102C70009785A089B189481B590B6A0B7B0B409340
:102C80008F0550939005609391057093920522955E
:102C90002695277020FF0CC08091800590918105BA
:102CA000A0918205B09183050197A109B1090BC0DC
:102CB0008091800590918105A0918205B091830556
:102CC0000196A11DB11D8093800590938105A0936D
:102CD0008205B0938305209193053091940540912E
:102CE0009505509196052F5F3F4F4F4F5F4F2093B3
:102CF00093053093940540939505509396058091E4
:102D0000860598E189278093860586859785A08921
:102D1000B189281739074A075B0708F007C185A959
:102D200096A9A7A9B0AD281739074A075B0708F08D
:102D300054C0209198053091990540919A05509181
:102D40009B0580919C0590919D05A0919E05B09159
:102D50009F05280F391F4A1F5B1F20939C05309346
:102D60009D0540939E0550939F05213081E73807CC
:102D700082E0480780E0580708F4DEC02050314761
:102D80004240504020939C0530939D0540939E0502
:102D900050939F0581A992A9A3A9B4A92091A00548
:102DA0003091A1054091A2055091A305820F931F78
:102DB000A41FB51F8093A0059093A105A093A20521
:102DC000B093A30522893389448955892817390787
:102DD0004A075B0708F077C06EC081AD92ADA3AD26
:102DE000B4AD281739074A075B0769F480E898E310
:102DF000A1E0B0E080939C0590939D05A0939E0573
:102E0000B0939F0599C0281739074A075B0708F454
:102E100063C0209198053091990540919A05509191
:102E20009B0580919C0590919D05A0919E05B09178
:102E30009F05280F391F4A1F5B1F20939C05309365
:102E40009D0540939E0550939F05213081E73807EB
:102E500082E0480780E0580708F46EC020503147F0
:102E60004240504020939C0530939D0540939E0521
:102E700050939F058091A0059091A105A091A20576
:102E8000B091A30521A932A943A954A9821B930B90
:102E9000A40BB50B8093A0059093A105A093A20568
:102EA000B093A30525A536A547A550A9821793077A
:102EB000A407B50740F42093A0053093A1054093E3
:102EC000A2055093A3056091A0057091A105809182
:102ED000A2059091A3051BC0228933894489558995
:102EE0008091A0059091A105A091A205B091A305A4
:102EF00082179307A407B507F9F02093A005309334
:102F0000A1054093A2055093A305CA01B9010E94EF
:102F1000171412C080E00E947A1280E005C081E0A0
:102F20000E947A1203C081E00E94801210928505EF
:102F3000109284050E940D0B10929705FF91EF915E
:102F4000BF91AF919F918F917F916F915F914F91C1
:102F50003F912F910F900FBE0F901F9018956F9279
:102F60007F928F929F92AF92BF92CF92DF92EF9219
:102F7000FF920F931F935B016C0139014A0180910D
:102F8000A405882309F05BC0C601B5012DEC3BE325
:102F900043E052E40E94D21A20E030E040E05FE3D8
:102FA0000E9483180E94D4190E94661960937805C4
:102FB0007093790580937A0590937B05C401B301E2
:102FC0002DEC3BE343E052E40E94D21A20E030E0D3
:102FD00040E05FE30E9483180E94D4190E946619A2
:102FE00060937C0570937D0580937E0590937F05AB
:102FF000C801B7012DEC3BE343E052E40E94D21A32
:1030000020E030E040E05FE30E9483180E94D41982
:103010000E946619609380057093810580938205F4
:10302000909383051F910F91FF90EF90DF90CF90C9
:10303000BF90AF909F908F907F906F900895FFCF3B
:10304000EF92FF920F931F9384B18F6384B985B180
:10305000807C886185B9E1E8F0E080818F7E8083A3
:10306000808188608083E0E8F0E080818D7F8083CC
:1030700080818E7F808380818F73808380818F7C2D
:1030800080831092B0001092B100E0E7F0E0808100
:103090008160808360E476E080E090E00E94171415
:1030A0008CE0E8E7F5E0DF011D928A95E9F760E042
:1030B00070E080EA90E49B01AC010F2EF0E0EF2E6F
:1030C000F0E0FF2EF0E00F2FF0E01F2FF02D0E9418
:1030D000AF1710929C0510929D0510929E051092BC
:1030E0009F0510928505109284051092A5051092F7
:1030F000A605109297050E9489141F910F91FF90C9
:10310000EF9008955058BB27AA270ED0C6C1B7D15B
:1031100030F0BCD120F031F49F3F11F41EF4ACC16B
:103120000EF4E095E7FB77C1E92FC8D180F3BA1719
:10313000620773078407950718F071F49EF5F7C1CD
:103140000EF4E0950B2EBA2FA02D0B01B9019001C2
:103150000C01CA01A0011124FF27591B99F0593F06
:1031600050F4503E68F11A16F040A22F232F342F4E
:103170004427585FF3CF469537952795A795F0409C
:103180005395C9F77EF41F16BA0B620B730B840BB1
:10319000BAF09150A1F0FF0FBB1F661F771F881F69
:1031A000C2F70EC0BA0F621F731F841F48F48795C1
:1031B00077956795B795F7959E3F08F0B3CF9395B0
:1031C000880F08F09927EE0F97958795089598D165
:1031D00080F09F3740F491110EF4AAC160E070E0D6
:1031E00080E89FE3089526F01B16611D711D811D67
:1031F00018C132C1ECD008F481E008950CD04DC163
:1032000045D140F03CD130F021F45F3F19F003C1CB
:1032100051118EC131C152D198F39923C9F355236D
:10322000B1F3951B550BBB27AA27621773078407B9
:1032300038F09F5F5F4F220F331F441FAA1FA9F36F
:1032400033D00E2E3AF0E0E830D091505040E69561
:10325000001CCAF729D0FE2F27D0660F771F881FC2
:10326000BB1F261737074807AB07B0E809F0BB0BB1
:10327000802DBF01FF2793585F4F2AF09E3F5105D5
:1032800068F0C9C055C15F3FECF3983EDCF386950A
:1032900077956795B795F7959F5FC9F7880F911D4B
:1032A0009695879597F90895E1E0660F771F881F37
:1032B000BB1F621773078407BA0720F0621B730BEA
:1032C000840BBA0BEE1F88F7E095089504D068943C
:1032D000B1112EC10895FAD088F09F5790F0B92F00
:1032E0009927B751A0F0D1F0660F771F881F991F5B
:1032F0001AF0BA95C9F712C0B13081F018D1B1E017
:10330000089515C1672F782F8827B85F39F0B93F26
:10331000CCF3869577956795B395D9F73EF490955C
:103320008095709561957F4F8F4F9F4F0895E894DA
:1033300009C097FB3EF490958095709561957F4FFD
:103340008F4F9F4F9923A9F0F92F96E9BB279395AB
:10335000F695879577956795B795F111F8CFFAF4BB
:10336000BB0F11F460FF1BC06F5F7F4F8F4F9F4FEC
:1033700016C0882311F096E911C0772321F09EE84A
:10338000872F762F05C0662371F096E8862F70E0B0
:1033900060E02AF09A95660F771F881FDAF7880F8A
:1033A0009695879597F90895ABD080F09F3740F4B4
:1033B00091110EF0BDC060E070E080E89FEB0895D1
:1033C00026F41B16611D711D811D2BC045C0990F70
:1033D0000008550FAA0BE0E8FEEF16161706E807DF
:1033E000F907C0F012161306E407F50798F0621B00
:1033F000730B840B950B39F40A2661F0232B242BD5
:10340000252B21F408950A2609F4A140A6958FEFF3
:10341000811D811D089597F99F6780E870E060E045
:103420000895882371F4772321F09850872B762F05
:1034300007C0662311F499270DC09051862B70E0C8
:1034400060E02AF09A95660F771F881FDAF7880FD9
:103450009695879597F908959F3F49F0915028F4E4
:10346000869577956795B7959F5F80389F4F880FB2
:103470009695879597F908959FEF80EC089500241D
:103480000A941616170618060906089500240A94C9
:1034900012161306140605060895092E0394000C4F
:1034A00011F4882352F0BB0F40F4BF2B11F460FFDE
:1034B00004C06F5F7F4F8F4F9F4F089557FD905807
:1034C000440F551F59F05F3F71F04795880F97FBE8
:1034D000991F61F09F3F79F08795089512161306A2
:1034E0001406551FF2CF4695F1DF08C016161706D1
:1034F0001806991FF1CF8695710561050894089506
:10350000E5DFA0F0BEE7B91788F4BB279F3860F469
:103510001616B11D672F782F8827985FF7CF8695ED
:1035200077956795B11D93959639C8F30895E894FA
:10353000BB2766277727CB0197F9089548DF08F462
:103540008FEF0895C3DF58F19E5758F19851A0F0BE
:10355000E9F0983020F5092E9927660F771F881F0C
:10356000991F0A94D1F712C0062E672F782F88274B
:10357000985F11F4000C07C0993FB4F386957795D6
:1035800067959395D9F7611D711D811D3EF4909546
:103590008095709561957F4F8F4F9F4F08956894E8
:1035A000C7CFC5CF0BD079CF6ADF28F06FDF18F017
:1035B000952309F030CF60CF1124BACF7FDFA0F37D
:1035C000959FD1F3950F50E0551F629FF001729FB8
:1035D000BB27F00DB11D639FAA27F00DB11DAA1FD7
:1035E000649F6627B00DA11D661F829F2227B00D24
:1035F000A11D621F739FB00DA11D621F839FA00DAF
:10360000611D221F749F3327A00D611D231F849FFE
:10361000600D211D822F762F6A2F11249F57504055
:103620008AF0E1F088234AF0EE0FFF1FBB1F661FF0
:10363000771F881F91505040A9F79E3F510570F0A9
:10364000EACE76CF5F3FECF3983EDCF38695779534
:103650006795B795F795E7959F5FC1F7FE2B880FA4
:10366000911D9695879597F9089511F40EF404CF5E
:10367000F3CE2CDFD0F39923D9F3CEF39F57550B1C
:1036800087FF48D056959795B0E020F4660F771FD6
:10369000881FBB1F1F930F9300249001A00180017E
:1036A000F001A0E80E0F1F1F0A1E511D601B710BB9
:1036B0008009B50B48F4600F711F801DB51F0E1BEC
:1036C0001F0B0A0A510907C02E0F3F1F4A1F0E0F7A
:1036D0001F1F0A1E511D660F771F881FBB1FA6954F
:1036E000F795E795F8F60617170708065B07211DFB
:1036F000311D411D0F911F91B901842F9158880FE1
:10370000969587950895FCDE20F09F3708F410CF3A
:1037100088CEA2CE91505040660F771F881FD2F7F7
:103720000895629FD001739FF001829FE00DF11D0B
:10373000649FE00DF11D929FF00D839FF00D749F2B
:10374000F00D659FF00D9927729FB00DE11DF91FD7
:10375000639FB00DE11DF91FBD01CF011124089534
:10376000A1E21A2EAA1BBB1BFD010DC0AA1FBB1F85
:10377000EE1FFF1FA217B307E407F50720F0A21BF7
:10378000B30BE40BF50B661F771F881F991F1A9464
:1037900069F760957095809590959B01AC01BD018E
:1037A000CF010895911106C0803219F089508550DB
:1037B000D0F708959927882708952F923F924F9226
:1037C0005F926F927F928F929F92AF92BF92CF92B1
:1037D000DF92EF92FF920F931F93CF93DF93CDB7BA
:1037E000DEB7CA1BDB0B0FB6F894DEBF0FBECDBF32
:1037F00009942A88398848885F846E847D848C8403
:103800009B84AA84B984C884DF80EE80FD800C810B
:103810001B81AA81B981CE0FD11D0FB6F894DEBFEE
:0C3820000FBECDBFED010895F894FFCF5E
:10382C00FE210050004C0052004200490054004F51
:10383C0000202D3E20636865636B73756D206F757A
:10384C007473696465205B3132382C3235355D0018
:10385C005E004E00450055005700440043004C31BB
:10386C00004C32004C33004C3400580059000A0014
:00000001FF
