:100000000C9468000C9485000C9485000C94850079
:100010000C9485000C9485000C9485000C9485004C
:100020000C9485000C946E110C9485000C947F1137
:100030000C9485000C9485000C9485000C9485002C
:100040000C9485000C9485000C9476010C94190195
:100050000C9485000C9485000C9485000C9485000C
:100060000C9485000C948500860653049F04530469
:100070004E054E05AC04AF04B204050505054E055A
:100080004E053A053D05400542054405460548052F
:100090004A0509067F06F7057F061F062A0635066C
:1000A000400655066A067F067F0614067F067F0611
:1000B00002067F067F067F067F0667059705C70550
:1000C0006A126A12471449144D144F1453145514EC
:1000D00011241FBECFEFD8E0DEBFCDBF11E0A0E0FE
:1000E000B1E0E6EDFFE202C005900D92A230B1074B
:1000F000D9F716E0A2E0B1E001C01D92A438B10723
:10010000E1F70E9487000C94E9170C9400007894A2
:100110000E94B1000E9487020E94FD080E941311F4
:100120000E94540E0E946F0E0E94270480E090E00F
:100130000895909106019F5F903809F490E0209116
:1001400005019217E1F3E0910601F0E0EC5FF94F51
:100150008083909306018091C10080628093C100EA
:1001600008951092C50083E38093C400E0ECF0E0B2
:1001700080818D7F8083E1ECF0E0808180618083ED
:100180008081886080838081806880838EE70C9482
:100190009900CF92DF92EF92FF92CF93C82FCB01BD
:1001A000BA0120E030E04AE754E40E94D3160E94EE
:1001B000A3166B017C0188EFF81A8C2D80680E94D1
:1001C0009900D701C60180789F73AA27BB2727E033
:1001D000B695A795979587952A95D1F780580E944F
:1001E0009900D701C6018827907CAF71BB273EE0FC
:1001F000B695A795979587953A95D1F780580E941F
:100200009900D701C60188279927A07EBF7045E1D4
:10021000B695A795979587954A95D1F780580E94EE
:1002200099008C2FCF91FF90EF90DF90CF900C949E
:1002300099001F920F920FB60F9211248F939F93E4
:10024000EF93FF938091050190910401992331F080
:1002500092E19093C600109204010DC0E82FF0E0E7
:10026000EC5FF94F90819093C6008F5F803809F45E
:1002700080E08093050190910601891305C080916B
:10028000C1008F7D8093C100FF91EF919F918F916D
:100290000F900FBE0F901F901895E0910701F0E0AE
:1002A000EB5FFA4F8081909107019F5F9093070168
:1002B0009F3F11F410920701F8949091000190343F
:1002C00071F490910301992351F091E0909304010E
:1002D0009091C10090629093C1001092030190919F
:1002E00000019F5F90930001789408951F920F92F0
:1002F0000FB60F9211242F933F934F935F936F93F9
:100300007F938F939F93AF93BF93EF93FF938091CE
:10031000C600813271F18E3719F40E94771037C010
:100320008F3319F40E94EE0232C0863219F40E9413
:10033000F2022DC0843189F480910001813448F0AB
:1003400081E0809304018091C10080628093C100AC
:100350001EC081E0809303011AC0E091080191E082
:100360009E0F9F3F09F490E020910701921304C073
:1003700082E20E946B100BC0F0E0EB5FFA4F8083CB
:100380009093080180910001815080930001FF91BA
:10039000EF91BF91AF919F918F917F916F915F91FD
:1003A0004F913F912F910F900FBE0F901F90189576
:1003B00080910201882351F083B7816083BF8895C3
:1003C00083B78E7F83BF0E940203F2CF9091070113
:1003D0008091080198130CC083B7816083BF889512
:1003E00083B78E7F83BF0E94F6020E940203EECF86
:1003F0000E944D01823029F581E0809302018091B5
:100400000201882351F083B7816083BF889583B749
:100410008E7F83BF0E940203F2CF909107018091EB
:10042000080198130CC083B7816083BF889583B798
:100430008E7F83BF0E94F6020E940203EECF0C94CF
:100440004D01089580910201882361F09091070188
:1004500080910801981731F00E944D01833019F402
:100460001092020180E00895809100018095089526
:100470000F931F936091100170E080E090E060584E
:1004800071098109910927E0660F771F881F991F5D
:100490002A95D1F700910F0110E020E030E00058DC
:1004A000110921093109600F711F821F931F37E065
:1004B000660F771F881F991F3A95D1F700910E019B
:1004C00010E020E030E00058110921093109600FE7
:1004D000711F821F931F47E0660F771F881F991FA8
:1004E0004A95D1F720910D01620F711D811D911D5B
:1004F00060587109810998400E949C1520E030E005
:100500004AE754E40E9401151F910F91089521E0DC
:100510002093120180E090E0AAEFB5E480931301EC
:1005200090931401A0931501B09316011092170136
:100530008CE0E1E2F1E0DF011D928A95E9F710928B
:1005400018011092190110921A0110921B011092B9
:100550001C0110921D0110921E0110921F01109299
:10056000200180E090E0A0EAB0E480932D01909318
:100570002E01A0932F01B09330018093310190930D
:100580003201A0933301B0933401109235011092DF
:1005900036011092370110923801809339019093FF
:1005A0003A01A0933B01B0933C0180933D019093AD
:1005B0003E01A0933F01B09340011092410110927F
:1005C0004201109243011092440120930C012093A8
:1005D0000B0120930A0110920901089581E0809394
:1005E0000C01089581E080930B0108950E94720828
:1005F000811103C081E080930A01089581E0809316
:1006000009010895CF930E947208811110920A0186
:1006100080910C01811105C080910B01882309F4A0
:1006200014C110920C0180910A01882311F081E419
:1006300001C082E40E94990080910901882329F079
:1006400088E40E949900109209010E947110C82F3D
:10065000803211F00E949900309905C0C43219F01F
:1006600084E20E949900319905C0C53219F085E2F3
:100670000E949900329905C0C63219F086E20E94A4
:100680009900339905C0CA3219F08AE20E94990094
:10069000349905C0CB3219F08BE20E94990035994C
:1006A00005C0CD3219F08DE20E9499000E947D10A4
:1006B000E091200123E0E29FF0011124EE0FFF1FE3
:1006C000EE0FFF1FEE5EFE4F238D348D458D568D50
:1006D0000E948514AB01BC0188E70E94C9000E94FA
:1006E0008E10E091200123E0E29FF0011124EE0F33
:1006F000FF1FEE0FFF1FEA5EFE4F238D348D458DE9
:10070000568D0E948514AB01BC0189E70E94C90087
:100710000E949F10E091200123E0E29FF00111244C
:10072000EE0FFF1FEE0FFF1FE65EFE4F238D348D91
:10073000458D568D0E948514AB01BC018AE70E944D
:10074000C90080910B01882309F47BC010920B0132
:1007500040E050E86BEB74E486E70E94C90020910A
:100760002D0130912E0140912F0150913001609167
:10077000390170913A0180913B0190913C010E94B6
:100780008514AB01BC0181E60E94C90020913101B2
:1007900030913201409133015091340160913D011B
:1007A00070913E0180913F01909140010E9485141B
:1007B000AB01BC0182E60E94C90020913501309155
:1007C000360140913701509138016091410170919B
:1007D000420180914301909144010E948514AB0134
:1007E000BC0183E60E94C90040911301509114019D
:1007F000609115017091160187E60E94C900609111
:10080000170170E080E090E00E949A15AB01BC01F6
:1008100088E60E94C9004091180150911901609129
:100820001A0170911B0189E60E94C90040911C01C8
:1008300050911D0160911E0170911F018AE60E9476
:10084000C90087E1CF910C949900CF910895CF937F
:10085000DF93CDB7DEB728970FB6F894DEBF0FBE93
:10086000CDBF99249394BCE03B2E0E94D801182F51
:100870000E947410882319F090920C015AC217FD3F
:1008800048C28FEB810F8A3108F00AC1412F50E036
:10089000FA01E154F109E531F10508F0FFC0EC5C23
:1008A000FF4F0C94C017A0901301B0901401C0909A
:1008B0001501D09016018091290190912A01A091F3
:1008C0002B01B0912C0189839A83AB83BC83209147
:1008D0002501309126014091270150912801409037
:1008E0002101509022016090230170902401143462
:1008F000D9F460911C0170911D0180911E019091AD
:100900001F012D833E834F8358870E946E157F936E
:100910006F9380901701E980FA800B811C812D81F3
:100920003E814F81588508C01F921F928090170109
:10093000E980FA800B811C81C301B20161C0609122
:1009400018017091190180911A0190911B01409139
:1009500017010E944108DAC110921201D7C190928A
:100960001201D4C10E947514A1E2B1E0E32D1D92E1
:10097000EA95E9F7E12CF12C8701A8019701C8015C
:10098000B7010E94A1081092200160912D01709181
:100990002E0180912F01909130016093210170937D
:1009A0002201809323019093240120913101309101
:1009B000320140913301509134012093250130934D
:1009C00026014093270150932801E0903501F090D3
:1009D00036010091370110913801E0922901F0921F
:1009E0002A0100932B0110932C01A0901301B090C9
:1009F0001401C0901501D09016011F921F92812CF6
:100A00000E942F090F900F9081C10E94481081E031
:100A100090E01B3411F080E090E08C01000F111F7A
:100A2000080F191F0E947D10F801EE0FFF1FEE0F37
:100A3000FF1FEE5EFE4F638F748F858F968F0E942F
:100A40008E10F801EE0FFF1FEE0FFF1FEA5EFE4F44
:100A5000638F748F858F968F0E949F10F801EE0F21
:100A6000FF1FEE0FFF1FE65EFE4F638F748F858FB3
:100A7000968F4CC11092200149C19092200146C12D
:100A800082E009C083E007C084E005C085E003C0C0
:100A900086E001C087E00E94420838C18CE334C17F
:100AA0008FE9810F8A3108F02EC1809111018430C5
:100AB00009F027C1812F90E0FC01E456F109E731EC
:100AC000F10508F01CC1E75BFF4F0C94C017809143
:100AD0001201813099F40E943802E091200123E054
:100AE000E29FF0011124EE0FFF1FEE0FFF1FEE5EDD
:100AF000FE4F238D348D458D568D0EC0C090210143
:100B0000D0902201E0902301F09024010E9438024D
:100B10009B01AC01C701B6010E94861460932101BC
:100B2000709322018093230190932401EFC0809160
:100B30001201813099F40E943802E0912001A3E073
:100B4000EA9FF0011124EE0FFF1FEE0FFF1FEA5E78
:100B5000FE4F238D348D458D568D0EC0C0902501DE
:100B6000D0902601E0902701F09028010E943802E1
:100B70009B01AC01C701B6010E9486146093250158
:100B8000709326018093270190932801BFC0809124
:100B90001201813099F40E943802E0912001B3E003
:100BA000EB9FF0011124EE0FFF1FEE0FFF1FE65E1B
:100BB000FE4F238D348D458D568D0EC0C09029017A
:100BC000D0902A01E0902B01F0902C010E94380275
:100BD0009B01AC01C701B6010E94861460932901F4
:100BE00070932A0180932B0190932C018FC00E9457
:100BF0003802609313017093140180931501909350
:100C0000160184C00E9438020E946E15609317017D
:100C10007DC00E943802609318017093190180937F
:100C20001A0190931B0172C00E94380260931C014C
:100C300070931D0180931E0190931F0167C00E9455
:100C4000380260932D0170932E0180932F019093B1
:100C500030015CC00E943802609331017093320110
:100C6000809333019093340151C00E943802609305
:100C7000350170933601809337019093380146C057
:100C80000E94380220912D0130912E0140912F01B8
:100C9000509130010E9486146093390170933A019B
:100CA00080933B0190933C0131C00E943802209117
:100CB00031013091320140913301509134010E9451
:100CC000861460933D0170933E0180933F019093A1
:100CD00040011CC00E94380220913501309136013C
:100CE00040913701509138010E9486146093410170
:100CF00070934201809343019093440107C08EE3B7
:100D000003C08AE301C083E20E946B1010921101BC
:100D100010C0E0911101E43048F481E08E0F80931F
:100D20001101F0E0E35FFE4F108303C08AE30E94ED
:100D30006B100E94020399CD2F923F924F925F92C7
:100D40006F927F928F929F92AF92BF92CF92DF92DB
:100D5000EF92FF920F931F93CF93DF93CDB7DEB740
:100D600060970FB6F894DEBF0FBECDBF1C012A01FD
:100D70003B0148015901FC01628973898489958985
:100D80000E949A156B017C01A30192010E94D31667
:100D90000E94EA140E946E152B013C01F10161A72B
:100DA00072A783A794A7A5019401C701B6010E9469
:100DB000D3160E94EA140E946E154B015C01F101EA
:100DC00065A776A787A790AB21A932A943A954A903
:100DD000A0EEBEE20E947F1769837A838B839C8397
:100DE0000E949C156D837E838F839887C301B20117
:100DF0000E949A152B013C01A7019601C701B6017B
:100E00000E94D3166B017C01A3019201C301B201C0
:100E10000E94D31669877A878B879C872D813E81B4
:100E20004F815885CA01B9010E9486146D877E875B
:100E30008F87988B29853A854B855C85C701B601DC
:100E40000E9485142D853E854F8558890E94011585
:100E50000E94EA140E9469152B013C01C501B401EE
:100E60000E949A159B01AC010E94D3164B015C01B4
:100E7000A70196010E9485146B017C0169817A812A
:100E80008B819C8190958095709561957F4F8F4F58
:100E90009F4F0E949C159B01AC010E9486149B01F0
:100EA000AC01C701B6010E9401150E94D715F101DE
:100EB000C684D784E088F188A701960124193509F2
:100EC0004609570929833A834B835C830E9469153D
:100ED00029813A814B815C81261B370B480B590BCA
:100EE000DA01C90157FF3DC0C701B6010E949C1538
:100EF0009B01AC016D857E858F8598890E94D316F4
:100F000029853A854B855C850E948514A50194014D
:100F10000E9486144B015C0120E030E040E850E480
:100F20006D817E818F8198850E94D3169B01AC01D3
:100F3000C501B4010E9401150E94EA140E946915BE
:100F400097FF03C060E070E0CB012B013C01C616A7
:100F5000D706E806F90614F42601370180E090E090
:100F6000DC01F10145AA56AA67AA70AE840D951D51
:100F7000A61DB71D81AF92AFA3AFB4AF60960FB6F9
:100F8000F894DEBF0FBECDBFDF91CF911F910F91BF
:100F9000FF90EF90DF90CF90BF90AF909F908F9099
:100FA0007F906F905F904F903F902F9008954F9259
:100FB0005F926F927F92AF92BF92CF92DF92EF9249
:100FC000FF920F931F93CF93DF938C01EB01FC01F2
:100FD00080A5811147C0428C538C648C758CAA8C7F
:100FE000BB8CCC8CDD8C9501A601C301B2010E94A3
:100FF000FD1487FF37C0A3019201C301B2010E9413
:10100000D3162B013C0120E03AEB4BE55AECF801FA
:1010100062A173A184A195A10E94D3169B01AC018A
:10102000C301B2010E9485140E943A177B018C0112
:101030009B01AC01B501C6010E94FD1487FF02C0EF
:10104000750186019701A801B501C6010E94FD1432
:10105000882341F0A701B8014A8F5B8F6C8F7D8F89
:1010600081E08FA3DF91CF911F910F91FF90EF90BF
:10107000DF90CF90BF90AF907F906F905F904F9038
:1010800008950895EF92FF921F93CF93DF931F92DD
:10109000CDB7DEB7109163011F5F1E3009F410E079
:1010A000E12EFF24E7FCF0942091620130E02E1540
:1010B0003F0529F489830E9402038981F5CFE091DD
:1010C00063019FE3E99FF0011124EC59FE4F8083F7
:1010D000109363010F90DF91CF911F91FF90EF90DC
:1010E0000C944D10209163019091620181E02913CD
:1010F00001C080E00895909163018091620198178A
:1011000049F0809162012FE3829FC00111248C5924
:101110009E4F089580E090E0089590916301809142
:101120006201981741F0809162018F5F8E3009F45F
:1011300080E0809362010895109263011092620131
:1011400008958F929F92AF92BF92CF92DF92EF92CB
:10115000FF920F931F9349015A01670178012CE117
:1011600037EC41EB52E40E94D3160E94A316609321
:10117000560170935701809358019093590124E7C9
:1011800031ED45EB52E4C501B4010E94D3160E9433
:10119000A31660935A0170935B0180935C01909356
:1011A0005D0125E535E545E052E4C701B6010E9441
:1011B000D3160E94A31660935E0170935F01809323
:1011C00060019093610110924501109246011092C6
:1011D0004701109248018CE0E9E4F1E0DF011D9243
:1011E0008A95E9F71F910F91FF90EF90DF90CF90D4
:1011F000BF90AF909F908F900895EF92FF920F93C2
:101200001F93CF931092630110926201CCE0E6E548
:10121000F1E0DF018C2F1D928A95E9F7E12CF12C8A
:10122000870120E030E040EA50E4CA01B9010E94A1
:10123000A10810925501E9E4F1E0DF011D92CA9581
:10124000E9F7E0924501F0924601009347011093BF
:101250004801CF911F910F91FF90EF9008952F9229
:101260003F924F925F926F927F928F929F92AF9236
:10127000BF92CF92DF92EF92FF920F931F93CF9383
:10128000DF93CDB7DEB7E3970FB6F894DEBF0FBE9E
:10129000CDBF29013A01E982FA820B831C832A9689
:1012A0002EAC3FAC2A972CE137EC41EB52E40E9484
:1012B000D3160E94A3166C8F7D8F8E8F9F8F24E78D
:1012C00031ED45EB52E4C301B2010E94D3160E94F6
:1012D000A31668A379A38AA39BA325E535E545E07A
:1012E00052E4C801B7010E94D3160E94A3166CA352
:1012F0007DA38EA39FA340906301042D0F5F098BF4
:101300000E3009F4198A4988042D112707FD10951C
:101310008091620190E08017910719F40E94020306
:10132000F7CF809155018823C1F00E949F102B01B7
:101330003C010E948E109B01AC0168AB39AB4AABFB
:101340005BAB0E947D108301720128A939A94AA9CB
:101350005BA90E94A10810925501809163010FE3DF
:10136000809F3001112483010C591E4F1A83098379
:1013700021143104A1F081E0D8018C93B10180E007
:1013800090E00E949A152CE137EC41EB52E40E9468
:10139000D3160E94A316F80176AF65AF03C0A981EA
:1013A000BA811C92E981FA8186A215868091560144
:1013B00090915701A0915801B09159012C8C3D8C0E
:1013C0004E8C5F8C281639064A065B0614F428E01A
:1013D000258700915A0110915B0120915C013091A9
:1013E0005D0148A059A06AA07BA040165106620684
:1013F00073062CF4E981FA81458540614587209088
:101400005E0130905F0140906001509061016CA0DE
:101410007DA08EA09FA062147304840495042CF414
:10142000E981FA814585406245876C8C7D8C8E8C84
:101430009F8C681A790A8A0A9B0AC401B3016D86D7
:101440007E868F86988A97FE0BC066247724430198
:10145000661A770A880A990A6D867E868F86988A28
:101460006D847E848F849888A981BA8111966D924B
:101470007D928D929C92149768A079A08AA09BA0DF
:10148000601A710A820A930A6D827E828F82988620
:101490006A8A7B8A8C8A9D8A97FE0CC0909480947D
:1014A00070946094611C711C811C911C6A8A7B8AF7
:1014B0008C8A9D8AEA88FB880C891D89A981BA815A
:1014C0001596ED92FD920D931C9318976CA07DA03C
:1014D0008EA09FA0621873088408950869867A8692
:1014E0008B869C869401830197FE07C030952095DA
:1014F000109501951F4F2F4F3F4FA981BA81199623
:101500000D931D932D933C931C972A883B884C8800
:101510005D886D847E848F849888261437044804FF
:10152000590420F46A8A7B8A8C8A9D8A4A885B885F
:101530006C887D88401651066206730610F42801F7
:101540003901A981BA811E964D925D926D927C926D
:101550005197411451046104710409F488C30E9435
:101560009C152CE137EC41EB52E40E9401156A8B8B
:101570007B8B8C8B9D8B6D817E818F8198850E946A
:101580009C1524E731ED45EB52E40E94011568A754
:1015900079A78AA79BA769857A858B859C850E94F8
:1015A0009C1525E535E545E052E40E9401156CA740
:1015B0007DA78EA79FA72A893B894C895D89CA018F
:1015C000B9010E94D3166D837E838F83988728A5E7
:1015D00039A54AA55BA5CA01B9010E94D3169B0192
:1015E000AC016D817E818F8198850E9486146D8308
:1015F0007E838F8398872CA53DA54EA55FA5CA0144
:10160000B9010E94D3169B01AC016D817E818F814F
:1016100098850E9486140E943A17688F798F8A8F66
:101620009B8FE981FA8162A373A384A395A39B0195
:10163000AC0160E070E080E89FE30E9401156D83DB
:101640007E838F8398879B01AC01C601B5010E9400
:10165000D3166B017C019B01AC01688D798D8A8D5D
:101660009B8D0E94D31669877D878E8B9F8BCB01C4
:10167000AE89BF89E981FA81868B978BA08FB18F64
:10168000C301B2010E949C154B015C01A7019601A8
:101690000E94D3160E94EA140E946E15A981BA8195
:1016A00052966D937D938D939C9355972D813E819A
:1016B0004F815885C501B4010E94D31620E03AEB52
:1016C0004BED59E40E94D31620E030E84BE356E49A
:1016D0000E9401150E94EA140E946915E981FA81AD
:1016E00061AB72AB83AB94AB2D813E814F8158854A
:1016F0006A897B898C899D890E94D3166A8B7B8B32
:101700008C8B9D8B2D813E814F81588568A579A555
:101710008AA59BA50E94D3164B015C012D813E81B9
:101720004F8158856CA57DA58EA59FA50E94D316D7
:101730002B013C019091630180916201981709F49B
:10174000ACC00091450110914601209047013090B6
:10175000480120E030E0A901B801C1010E949F16B4
:1017600018160CF09AC08091490190914A01A091FD
:101770004B01B0914C01BC01CD0190582A893B89A5
:101780004C895D890E94D3166B017C0120914D012B
:1017900030914E0140914F0150915001C501B4016B
:1017A0000E94D3169B01AC01C701B6010E948514AB
:1017B0006B017C0120915101309152014091530104
:1017C00050915401C301B2010E94D3169B01AC0198
:1017D000C701B6010E9485146B017C0123E333E34A
:1017E00043E75FE30E94FD1487FF57C029853D85CD
:1017F0004E895F89B801C1010E94FD1487FD04C0B4
:1018000009851D852E883F8823E333E343E75FEB9B
:10181000C701B6010E949F1618160CF042C0A7011E
:10182000960160E070E080E89FE30E94851420E06C
:1018300030E040E05FE30E94D3160E943A176B014C
:101840007C0120E030EC48E256E40E94D3166D8320
:101850007E838F839887A701960160E070E080E81F
:101860009FE30E9485149B01AC016D817E818F8175
:1018700098850E9401150E943A176B01F82EE92EF7
:101880009B01482F592FB801C1010E94FD1487FD0B
:1018900008C086012F2C3E2C04C000E010E0212C53
:1018A000312CC801D101E981FA81868F978FA0A3DD
:1018B000B1A320E03AEB4BE55AEC688D798D8A8D27
:1018C0009B8D0E94D3169B01AC0160E070E0CB01C0
:1018D0000E9485140E943A176B01F82EE92E9B0195
:1018E000482F592FB801C1010E94FD1487FF03C082
:1018F000302F212F04C03C2D2D2D2F2C3E2C832F3B
:10190000922FD101E981FA81828F938FA48FB58FB5
:1019100096014F2D5E2D69857D858E899F890E9458
:10192000FD14181634F081E0A981BA8198968C9341
:1019300003C0E981FA8110A681E0A981BA81979656
:101940008C93EA88FB880C891D89E0924901F0920A
:101950004A0100934B0110934C0180924D019092EB
:101960004E01A0924F01B09250014092510150920D
:101970005201609253017092540189859D85AE8910
:10198000BF898093450190934601A0934701B0938E
:1019900048012988209263014C8C5D8C6E8C7F8C71
:1019A000409256015092570160925801709259012D
:1019B00068A079A08AA09BA060925A0170925B01F6
:1019C00080925C0190925D012CA03DA04EA05FA092
:1019D00020925E0130925F0140926001509261015D
:1019E000D0906301E0E0F0E000E010E04FE3242E4F
:1019F000332433948091620190E02D2D332727FD0D
:101A000030952817390709F46FC0D11002C03EE0A5
:101A1000D32EDA94222D3D2D320370011124A7011B
:101A20004C595E4F7A010115110509F45AC03097DF
:101A300009F457C0D80198968C9198975E969C901F
:101A40005E975F96AC905F979096BC9090979196BA
:101A5000CC9081113CC0428C538C648C758CA3015A
:101A60009201692D7A2D8B2D9C2D0E949F161816A0
:101A700074F5A3019201C301B2010E94D3162B0198
:101A80003C0120E03AEB4BE55AECF80162A173A16E
:101A900084A195A10E94D3169B01AC01C301B201A0
:101AA0000E9485140E943A17562E672E782E892E92
:101AB000262F372F482F592F692D7A2D8B2D9C2DAE
:101AC0000E94FD1487FD03C0952C5301C82C892D5D
:101AD0009A2DAB2DBC2DF801828F938FA48FB58FDB
:101AE00037A2F801870186CFD090620100E010E0B4
:101AF00080E090E02FE3C22E2D2D332727FD309577
:101B00004091630150E024173507C9F0C29E70016F
:101B1000C39EF00C1124F701EC59FE4F7F01009792
:101B200031F00115110519F0B8010E94D707D394BF
:101B3000FEE0DF1201C0D12CC8018701DDCF009784
:101B400031F00115110519F0B8010E94D707309046
:101B50006201A12CB12C8FE3282E832D992787FDBC
:101B600090952091630130E08217930709F442C0F9
:101B7000289E4001299E900C112484010C591E4F6F
:101B80004801A114B10479F1D50197968C91811186
:101B900004C0F80187A1882331F1D5015696CD9074
:101BA000DD90ED90FC905997A7019601F401628DAC
:101BB000738D848D958D0E9401152B013C01A70129
:101BC0009601D5015A966D917D918D919C915D976D
:101BD0000E940115AB01BC0193018201C5010E9465
:101BE0009C06F50117A23394FEE03F1201C0312C90
:101BF0005401B3CFD5015696CD90DD90ED90FC9079
:101C00005997A701960160E070E0CB010E94011591
:101C10002B013C01A7019601F501628D738D848D26
:101C2000958D0E940115AB01BC0193018201C50194
:101C30000E949C06D50197961C92E3960FB6F894E5
:101C4000DEBF0FBECDBFDF91CF911F910F91FF90EF
:101C5000EF90DF90CF90BF90AF909F908F907F904C
:101C60006F905F904F903F902F900C944D10E396A3
:101C70000FB6F894DEBF0FBECDBFDF91CF911F919D
:101C80000F91FF90EF90DF90CF90BF90AF909F901B
:101C90008F907F906F905F904F903F902F9008951E
:101CA00081E08093550108958AB1837F8AB987B115
:101CB000807C87B9089587BD0895882311F05C9AC8
:101CC00008955C980895882311F05F9A08955F98AD
:101CD0000895882311F05D9A08955D980895569AA5
:101CE00017BC81E884BD83E085BD549A579A80E093
:101CF0000E945D0E80E00E94630E559A80E00C9475
:101D0000690E8091E1049091E204A091E304B09106
:101D1000E4044091DD045091DE046091DF04709191
:101D2000E004840F951FA61FB71F813828E3920790
:101D300021E0A207B10550F48093DD049093DE0406
:101D4000A093DF04B093E00480E0089580589843A6
:101D5000A140B1098093DD049093DE04A093DF04D9
:101D6000B093E00481E008952F923F924F925F92EA
:101D70006F927F928F929F92AF92BF92CF92DF929B
:101D8000EF92FF920F931F93CF93DF93182F6A0167
:101D90007B0185E0C81AD108E108F108111102C0E1
:101DA0008BE301C083E0C0E3C82795B18C2F887313
:101DB000977C892B85B9D6E006E02224239433242E
:101DC000339486B1112311F09FE38927332049F022
:101DD00080FD07C0011104C0A1E0CA27312C01C059
:101DE0000150222049F082FD0BC0D11103C0B2E0A6
:101DF000CB2702C0D15004C0332009F479C0212C74
:101E000085B19C2F9770892B85B98AE18A95F1F766
:101E100085B1892785B9C701B6010E949A152B01A2
:101E20003C012BEA3AEA4AEA50E40E94D3164B01FD
:101E30005C0120E030E040E85FE30E94FD1487FD94
:101E400053C020E030E04FE753E4C501B4010E94E5
:101E50009F1618160CF043C020E030E04AE754E427
:101E6000C301B2010E9401152B013C0120E030E0CA
:101E70004AE755E40E94D3164B015C0120E030E0B4
:101E800040E85FE30E94FD1487FD24C020E03FEF9F
:101E90004FE757E4C501B4010E949F161816A4F439
:101EA00020E030E040E251E4C301B2010E94D316C9
:101EB0000E946E15CB01009709F483CFE0E9F1E0B1
:101EC0003197F1F70197F7CFC501B4010E946E1564
:101ED000CB0102C081E090E00197F1F772CFC5011C
:101EE000B4010E946E1501C061E06A95F1F769CFF7
:101EF0008CE0E9EFF4E0DF011D928A95E9F7DF91CC
:101F0000CF911F910F91FF90EF90DF90CF90BF90F6
:101F1000AF909F908F907F906F905F904F903F9089
:101F20002F9008958F929F92AF92BF92CF92DF929F
:101F3000EF92FF920F931F93CF93DF931F92CDB732
:101F4000DEB76B017C0180E4C81686E0D806E104A8
:101F5000F10430F4A0E4CA2EA6E0DA2EE12CF12C34
:101F600060E070E788E399E3A70196010E949E175D
:101F700021153105E1E04E07510518F4C90160E073
:101F80002FC021153105F8E04F075105A8F4BA011B
:101F9000A901E3E07695679557954795EA95D1F7BE
:101FA000CA019A01AB01F3E0220F331F441F551FF2
:101FB000FA95D1F761E014C0BA01A90186E07695DF
:101FC0006795579547958A95D1F7CA019A01AB0154
:101FD00066E0220F331F441F551F6A95D1F762E058
:101FE000709181006F5F787F672B60938100909381
:101FF0008900809388002093E1043093E2044093A9
:10200000E3045093E4040091F7041091F804F801FC
:1020100066A170E080E090E00E949C154B015C019D
:10202000C701B6010E949A156B017C01F801628913
:102030007389848995890E949A159B01AC01C70117
:10204000B6010E9401159B01AC01C501B4010E94BB
:10205000D3160E946E15862F69830E945B0E6981DC
:10206000693210F082E005C06B3010F083E001C0EF
:1020700084E085BD0F90DF91CF911F910F91FF906C
:10208000EF90DF90CF90BF90AF909F908F9008958A
:102090008091D8048111FFCF08958091D8048111D7
:1020A0000BC081E08093D80480E38093F604809194
:1020B0006F00826080936F0008951092D804109290
:1020C000F8041092F704EFE6F0E080818D7F8083C2
:1020D00080E00C945B0E8093D60481E08093D7045B
:1020E00008958091D60408958091D704089580E2E0
:1020F0008093D6041092D70408956091F9047091EA
:10210000FA048091FB049091FC040E949C152CE140
:1021100037EC41EB52E40E94011508956091FD04F3
:102120007091FE048091FF04909100050E949C151F
:1021300024E731ED45EB52E40E94011508956091CA
:1021400001057091020580910305909104050E949C
:102150009C1525E535E545E052E40E9401150895FA
:102160008F929F92AF92BF92CF92DF92EF92FF92A7
:102170000F931F93CF93DF9300D000D0CDB7DEB77E
:1021800049015A016701780169837A838B839C83B3
:102190000E9448102CE137EC41EB52E469817A81CE
:1021A0008B819C810E94D3160E94A3166093F90430
:1021B0007093FA048093FB049093FC0424E731EDC0
:1021C00045EB52E4C501B4010E94D3160E94A31648
:1021D0006093FD047093FE048093FF0490930005C8
:1021E00025E535E545E052E4C701B6010E94D31666
:1021F0000E94A31660930105709302058093030566
:10220000909304050F900F900F900F90DF91CF9156
:102210001F910F91FF90EF90DF90CF90BF90AF9004
:102220009F908F900895EF92FF920F931F9384B128
:102230008F6384B985B1807C806385B9E1E8F0E083
:1022400080818F7E8083808188608083E0E8F0E0F9
:1022500080818D7F808380818E7F808380818F735A
:10226000808380818F7C80831092B0001092B100B7
:10227000E0E7F0E080818160808360E476E080E0E8
:1022800090E00E94920F8CE0E9EFF4E0DF011D92F4
:102290008A95E9F7E12CF12C870120E030E040EA53
:1022A00050E4CA01B9010E94B0101092DD041092EE
:1022B000DE041092DF041092E0041092F8041092F1
:1022C000F7041092D70480E28093D6041092E504BC
:1022D0001F910F91FF90EF900C945D101F920F9241
:1022E0000FB60F9211248F9385B1887F85B9109214
:1022F000B1008F910F900FBE0F901F9018951F92F5
:102300000F920FB60F9211240F931F932F933F93A9
:102310004F935F936F937F938F939F93AF93BF93ED
:10232000CF93DF93EF93FF938091E5048111C8C2AF
:1023300081E08093E5048091D704882339F00E94DE
:102340005D100E949C080E94500EB8C2309B0AC0CB
:10235000319B08C0329B06C0339B04C0349B02C033
:10236000359931C0309906C084E28093D60481E06B
:102370008093D704319906C085E28093D60481E02A
:102380008093D704329906C086E28093D60481E018
:102390008093D704339906C08AE28093D60481E003
:1023A0008093D704349906C08BE28093D60481E0F1
:1023B0008093D704359982C28DE28093D60481E060
:1023C0008093D7047BC295B18091F6048873977C83
:1023D000892B85B985B1887F9091F604892B85B9C1
:1023E0008AEF8093B20082E08093B100789480916C
:1023F000F7049091F804892B09F05DC00E947B08D6
:102400009093F8048093F704009719F40E945D10EC
:1024100055C2FC012081223008F04DC061A572A593
:1024200083A594A56093D9047093DA048093DB04A8
:102430009093DC0400E41CE920E030E00093DD042C
:102440001093DE042093DF043093E0040E94920F87
:10245000E091F704F091F80486859785A089B18909
:10246000B595A79597958795B095A09590958195E9
:102470009F4FAF4FBF4F8093F2049093F304A0930C
:10248000F404B093F5048093EE049093EF04A093CA
:10249000F004B093F1048093EA049093EB04A093CA
:1024A000EC04B093ED041092E6041092E70410924D
:1024B000E8041092E904C091F704D091F8048881EF
:1024C00090E08830910508F0F9C1FC01E05AFF4F17
:1024D0000C94C0172D852093F6048091F2049091FE
:1024E000F304A091F404B091F50449815A816B8101
:1024F0007C81840F951FA61FB71F8093F2049093D1
:10250000F304A093F404B093F5044E855F856889C5
:102510007989181619061A061B0644F521602093BE
:10252000F604841B950BA60BB70B8093F2049093D3
:10253000F304A093F404B093F5048091F90490910E
:10254000FA04A091FB04B091FC0423FF04C001979E
:10255000A109B10903C00196A11DB11D8093F90421
:102560009093FA04A093FB04B093FC048091EE04D2
:102570009091EF04A091F004B091F1040D811E81BF
:102580002F813885800F911FA21FB31F8093EE0407
:102590009093EF04A093F004B093F1041816190679
:1025A0001A061B0654F52091F60422602093F604C7
:1025B000841B950BA60BB70B8093EE049093EF044E
:1025C000A093F004B093F1048091FD049091FE0477
:1025D000A091FF04B091000524FF04C00197A10958
:1025E000B10903C00196A11DB11D8093FD04909314
:1025F000FE04A093FF04B09300058091EA0490913B
:10260000EB04A091EC04B091ED0409851A852B85AB
:102610003C85800F911FA21FB31F8093EA04909303
:10262000EB04A093EC04B093ED04181619061A06F7
:102630001B0654F52091F60424602093F604841BB5
:10264000950BA60BB70B8093EA049093EB04A09331
:10265000EC04B093ED048091010590910205A091E6
:102660000305B091040525FF04C00197A109B10934
:1026700003C00196A11DB11D809301059093020531
:10268000A0930305B09304058091E6049091E704BC
:10269000A091E804B091E9040196A11DB11D8093B9
:1026A000E6049093E704A093E804B093E904209132
:1026B000F60430E323272093F60484179507A60732
:1026C000B70708F0F5C04DA95EA96FA978AD8417CA
:1026D0009507A607B70740F50E94810E882309F4E5
:1026E000EDC089A99AA9ABA9BCA94091D904509180
:1026F000DA046091DB047091DC04840F951FA61F3F
:10270000B71F8093D9049093DA04A093DB04B093AD
:10271000DC044A895B896C897D89481759076A07F7
:102720007B0708F04AC041C049AD5AAD6BAD7CADE6
:1027300084179507A607B70769F480E49CE9A0E031
:10274000B0E08093DD049093DE04A093DF04B093A7
:10275000E004B4C084179507A607B707C8F10E9424
:10276000810E882309F4AAC08091D9049091DA04DB
:10277000A091DB04B091DC0449A95AA96BA97CA9FA
:10278000841B950BA60BB70B8093D9049093DA04A6
:10279000A093DB04B093DC044DA55EA56FA578A9DA
:1027A00084179507A607B70740F44093D9045093C0
:1027B000DA046093DB047093DC046091D9047091B7
:1027C000DA048091DB049091DC040E94920F76C0C1
:1027D0006A897B898C899D890091D9041091DA04DA
:1027E0002091DB043091DC0406171707280739070E
:1027F00051F06093D9047093DA048093DB049093D2
:10280000DC040E94920FE091F704F091F8048081BB
:10281000813009F053C025AD36AD40E050E0609105
:10282000E6047091E7048091E8049091E9040E9425
:102830009E17613071058105910509F03FC0F8943C
:102840000E9422027894482F50E0405851092EEF00
:1028500031E0429FC001439F900D529F900D112483
:10286000E091F704F091F80466A170E00E948A17E5
:10287000862FC62F0E945B0EC93210F082E005C081
:10288000CB3010F083E001C084E085BD17C081E04B
:1028900001C080E00E945D0E0BC081E001C080E0BD
:1028A0000E94630E05C081E001C080E00E94690EB5
:1028B0001092F8041092F7040E948D081092E5041B
:1028C000FF91EF91DF91CF91BF91AF919F918F9148
:1028D0007F916F915F914F913F912F911F910F9138
:1028E0000F900FBE0F901F9018950E94481048E55A
:1028F00052E060E070E080E00E94B40E40E157E2F8
:1029000060E070E081E00C94B40E5058BB27AA2719
:102910000ED0C4C1B5D130F0BAD120F031F49F3F10
:1029200011F41EF4AAC10EF4E095E7FB77C1E92F7C
:10293000C6D180F3BA17620773078407950718F0AA
:1029400071F49EF5F5C10EF4E0950B2EBA2FA02D73
:102950000B01B90190010C01CA01A0011124FF274C
:10296000591B99F0593F50F4503E68F11A16F04047
:10297000A22F232F342F4427585FF3CF4695379546
:102980002795A795F0405395C9F77EF41F16BA0B0B
:10299000620B730B840BBAF09150A1F0FF0FBB1FB9
:1029A000661F771F881FC2F70EC0BA0F621F731F02
:1029B000841F48F4879577956795B795F7959E3F5F
:1029C00008F0B3CF9395880F08F09927EE0F9795ED
:1029D0008795089596D180F09F3740F491110EF4B9
:1029E000A8C160E070E080E89FE3089526F01B1620
:1029F000611D711D811D18C132C1ECD008F481E048
:102A000008950CD04BC143D140F03AD130F021F4BD
:102A10005F3F19F003C151118CC12FC150D198F300
:102A20009923C9F35523B1F3951B550BBB27AA274F
:102A300062177307840738F09F5F5F4F220F331FC1
:102A4000441FAA1FA9F333D00E2E3AF0E0E830D08D
:102A500091505040E695001CCAF729D0FE2F27D090
:102A6000660F771F881FBB1F261737074807AB075E
:102A7000B0E809F0BB0B802DBF01FF2793585F4FD3
:102A80002AF09E3F510568F0C9C053C15F3FECF387
:102A9000983EDCF3869577956795B795F7959F5F98
:102AA000C9F7880F911D9695879597F90895E1E0EC
:102AB000660F771F881FBB1F621773078407BA074B
:102AC00020F0621B730B840BBA0BEE1F88F7E095A6
:102AD000089504D06894B1112CC10895F8D088F0FD
:102AE0009F5790F0B92F9927B751A0F0D1F0660FFA
:102AF000771F881F991F1AF0BA95C9F712C0B13015
:102B000081F016D1B1E0089513C1672F782F88277F
:102B1000B85F39F0B93FCCF3869577956795B39553
:102B2000D9F73EF490958095709561957F4F8F4FC2
:102B30009F4F0895E89409C097FB3EF490958095C7
:102B4000709561957F4F8F4F9F4F9923A9F0F92F73
:102B500096E9BB279395F695879577956795B795F1
:102B6000F111F8CFFAF4BB0F11F460FF1BC06F5FD7
:102B70007F4F8F4F9F4F16C0882311F096E911C0E9
:102B8000772321F09EE8872F762F05C0662371F00A
:102B900096E8862F70E060E02AF09A95660F771F1E
:102BA000881FDAF7880F9695879597F90895A9D029
:102BB00080F09F3740F491110EF0BBC060E070E0F0
:102BC00080E89FEB089526F41B16611D711D811D81
:102BD0002BC045C0990F0008550FAA0BE0E8FEEF87
:102BE00016161706E807F907C0F012161306E407D1
:102BF000F50798F0621B730B840B950B39F40A26CA
:102C000061F0232B242B252B21F408950A2609F4A7
:102C1000A140A6958FEF811D811D089597F99F67AB
:102C200080E870E060E00895882371F4772321F054
:102C30009850872B762F07C0662311F499270DC073
:102C40009051862B70E060E02AF09A95660F771F0E
:102C5000881FDAF7880F9695879597F908959F3F13
:102C600031F0915020F4879577956795B795880F47
:102C7000911D9695879597F908959FEF80EC08959B
:102C800000240A941616170618060906089500244B
:102C90000A9412161306140605060895092E0394C5
:102CA000000C11F4882352F0BB0F40F4BF2B11F439
:102CB00060FF04C06F5F7F4F8F4F9F4F089557FD98
:102CC0009058440F551F59F05F3F71F04795880F9A
:102CD00097FB991F61F09F3F79F087950895121631
:102CE00013061406551FF2CF4695F1DF08C01616DD
:102CF00017061806991FF1CF86957105610508948E
:102D00000895E5DFA0F0BEE7B91788F4BB279F3828
:102D100060F41616B11D672F782F8827985FF7CFBC
:102D2000869577956795B11D93959639C8F3089563
:102D3000E894BB2766277727CB0197F908954ADFE8
:102D400008F48FEF0895C3DF58F19E5758F198515A
:102D5000A0F0E9F0983020F5092E9927660F771F2B
:102D6000881F991F0A94D1F712C0062E672F782F5B
:102D70008827985F11F4000C07C0993FB4F386953B
:102D8000779567959395D9F7611D711D811D3EF467
:102D900090958095709561957F4F8F4F9F4F0895C7
:102DA0006894C7CFC5CF0BD079CF6ADF28F06FDF2B
:102DB00018F0952309F032CF60CF1124BACF7FDF0E
:102DC000A0F3959FD1F3950F50E0551F629FF0013E
:102DD000729FBB27F00DB11D639FAA27F00DB11D97
:102DE000AA1F649F6627B00DA11D661F829F222720
:102DF000B00DA11D621F739FB00DA11D621F839FA7
:102E0000A00D611D221F749F3327A00D611D231F7C
:102E1000849F600D211D822F762F6A2F11249F57CA
:102E200050408AF0E1F088234AF0EE0FFF1FBB1FED
:102E3000661F771F881F91505040A9F79E3F51058C
:102E400070F0ECCE76CF5F3FECF3983EDCF38695E6
:102E500077956795B795F795E7959F5FC1F7FE2B37
:102E6000880F911D9695879597F9089511F40EF4A2
:102E700004CFF5CE2CDFD0F39923D9F3CEF39F57AF
:102E8000550B87FF35D00024A0E640EA900180581A
:102E90005695979528F4805C660F771F881F20F061
:102EA00026173707480730F4621B730B840B202961
:102EB00031294A2BA69517940794202531254A27B6
:102EC00058F7660F771F881F20F026173707480727
:102ED00030F4620B730B840B200D311D411DA09546
:102EE00081F7B901842F9158880F96958795089599
:102EF00091505040660F771F881FD2F708950E94A7
:102F0000C617A59F900DB49F900DA49F800D911D95
:102F10001124089597FB072E16F4009407D077FD2F
:102F200009D00E94D51707FC05D03EF490958195F5
:102F30009F4F0895709561957F4F0895A1E21A2ED5
:102F4000AA1BBB1BFD010DC0AA1FBB1FEE1FFF1F4D
:102F5000A217B307E407F50720F0A21BB30BE40B9D
:102F6000F50B661F771F881F991F1A9469F76095E4
:102F70007095809590959B01AC01BD01CF0108959E
:102F8000EE0FFF1F0590F491E02D0994A29FB00170
:102F9000B39FC001A39F700D811D1124911DB29F8D
:102FA000700D811D1124911D0895AA1BBB1B51E1B9
:102FB00007C0AA1FBB1FA617B70710F0A61BB70BA9
:102FC000881F991F5A95A9F780959095BC01CD014E
:062FD0000895F894FFCF04
:022FD600FE00FB
:00000001FF
