:100000000C9464000C948B000C948B000C948B006B
:100010000C948B000C948B000C948B000C948B0034
:100020000C948B000C9435110C948B000C9446119D
:100030000C948B000C948B000C948B000C948B0014
:100040000C948B000C948B000C9479010C941F0180
:100050000C948B000C948B000C948B000C948B00F4
:100060000C948B000C948B001307D4042005D4044B
:100070002D05300533058D058D05C705CA05CD0550
:10008000CF05D105D305D505D70596060C078406FF
:100090000C07AC06B706C206CD06E206F7060C074B
:1000A0000C07A1060C070C078F060C070C070C07A2
:1000B0000C07F405240654060C120C12E913EB137A
:1000C000EF13F113F513F713E6E8F6E085EC98E08B
:1000D00001C08193EF3FF907E0F3D9F311241FBE6C
:1000E000CFEFD8E0DEBFCDBF11E0A0E0B1E0E6E0A9
:1000F000FFE202C005900D92A230B107D9F716E0D9
:10010000A2E0B1E001C01D92A638B107E1F70E945C
:100110008D000C9481170C94000078940E94B70015
:100120000E9493020E948F0E0E94DA100E94BF0E5E
:100130000E94DA0E0E94A80480E090E00895909159
:1001400008019F5F903809F490E020910701921711
:10015000E1F3E0910801F0E0EA5FF94F80839093CA
:1001600008018091C10080628093C10008951092BF
:10017000C50080E18093C400E0ECF0E080818D7FD9
:100180008083E1ECF0E08081806180838081886001
:1001900080838081806880838EE70C949F00CF925B
:1001A000DF92EF92FF92CF93C82FCB01BA0120E0EC
:1001B00030E04AE754E40E946B160E943B166B0144
:1001C0007C0188EFF81A8C2D80680E949F00D7016F
:1001D000C60180789F73AA27BB2727E0B695A7950D
:1001E000979587952A95D1F780580E949F00D7014F
:1001F000C6018827907CAF71BB273EE0B695A795D6
:10020000979587953A95D1F780580E949F00D7011E
:10021000C60188279927A07EBF7045E1B695A795AE
:10022000979587954A95D1F780580E949F008C2F0B
:10023000CF91FF90EF90DF90CF900C949F001F9292
:100240000F920FB60F9211248F939F93EF93FF930A
:100250008091070190910401992331F095E09093EA
:10026000C600109204010DC0E82FF0E0EA5FF94FDC
:1002700090819093C6008F5F803809F480E080936E
:10028000070190910801891305C08091C1008F7DFD
:100290008093C100FF91EF919F918F910F900FBEBE
:1002A0000F901F901895E0910901F0E0E95FFA4F77
:1002B0008081909109019F5F909309019F3F11F404
:1002C00010920901909101019F5F9093010190911B
:1002D00003019F5F90930301903151F491E090935B
:1002E00004019091C10090629093C10010920301AB
:1002F00008951F920F920FB60F9211242F933F93E0
:100300004F935F936F937F938F939F93AF93BF931D
:10031000CF93EF93FF93C091C60080910001882393
:1003200029F010920001C09306013BC081E0809348
:10033000000180910601C81719F08DE30E94441056
:10034000C032A8F4C13011F481E21DC0C23019F4EA
:100350000E94541026C0C33019F40E94FC0221C030
:10036000C43019F40E9400031CC083E20CC0E09169
:100370000A0181E08E0F8F3F09F480E0909109011E
:10038000891304C082E20E9444100BC0F0E0E95FD0
:10039000FA4FC08380930A018091010181508093BC
:1003A0000101FF91EF91CF91BF91AF919F918F91FB
:1003B0007F916F915F914F913F912F910F900FBE61
:1003C0000F901F901895CF9380910201882319F008
:1003D0000E941003F9CF10920501C1E0909109012C
:1003E00080910A0198130BC080910501811104C00E
:1003F0000E940403C09305010E941003EFCF0E94E6
:100400005301873009F581E0809302018091020158
:10041000882319F00E941003F9CF10920501C1E062
:100420009091090180910A0198130BC080910501F8
:10043000811104C00E940403C09305010E941003AF
:10044000EFCFCF910C945301CF9108958091020189
:10045000882379F09091090180910A01981303C0D3
:100460000E94040306C00E945301883019F41092C0
:10047000020180E008952091090190910A0181E034
:10048000291301C080E008950F931F936091130119
:1004900070E080E090E0605871098109910927E0DF
:1004A000660F771F881F991F2A95D1F700911201B7
:1004B00010E020E030E00058110921093109600FF7
:1004C000711F821F931F37E0660F771F881F991FC8
:1004D0003A95D1F70091110110E020E030E000588A
:1004E000110921093109600F711F821F931F47E015
:1004F000660F771F881F991F4A95D1F72091100129
:10050000620F711D811D911D60587109810998400C
:100510000E94341520E030E04AE754E40E94991428
:100520001F910F91089521E02093150180E090E044
:10053000AAEFB5E48093160190931701A0931801D8
:10054000B093190110921A018CE0E4E2F1E0DF01AE
:100550001D928A95E9F710921B0110921C011092CE
:100560001D0110921E0110921F0110922001109285
:100570002101109222011092230180E090E0A0EA74
:10058000B0E48093300190933101A0933201B09395
:1005900033018093340190933501A0933601B093D9
:1005A0003701109238011092390110923A011092DD
:1005B0003B0180933C0190933D01A0933E01B09399
:1005C0003F018093400190934101A0934201B09379
:1005D000430110924401109245011092460110927D
:1005E000470120930F0120930E0110920D011092EC
:1005F0000C0120930B01089581E080930F01089571
:1006000081E080930E01089580910C0190910D017D
:10061000019690930D0180930C0110920B010895A7
:10062000CF92DF92EF92FF920F931F93CF93DF93BE
:1006300000D000D0CDB7DEB70E9451108823D1F092
:100640000E942E0E0E947C106B017C010E946B1098
:100650009B01AC0169833A834B835C830E945A10EF
:100660008701760129813A814B815C810E94330E9A
:100670001092140180910F01811105C080910E012B
:10068000882309F458C110920F010E94040E8111B1
:100690000EC00E943B0281110AC081E40E949F00AB
:1006A00083B7816083BF889583B78E7F83BF4A9964
:1006B00003C082E40E949F004B9903C083E40E9420
:1006C0009F000E944E10182F803211F00E949F0050
:1006D000309905C0143219F084E20E949F003199CC
:1006E00005C0153219F085E20E949F00329905C0BD
:1006F000163219F086E20E949F00339905C01A3223
:1007000019F08AE20E949F00349905C01B3219F04B
:100710008BE20E949F00359905C01D3219F08DE2D1
:100720000E949F000E945A10E091230123E0E29F63
:10073000F0011124EE0FFF1FEE0FFF1FEB5EFE4FC7
:10074000238D348D458D568D0E941D14AB01BC0147
:1007500088E70E94CF000E946B10E091230123E004
:10076000E29FF0011124EE0FFF1FEE0FFF1FE75E67
:10077000FE4F238D348D458D568D0E941D14AB0187
:10078000BC0189E70E94CF000E947C10E091230108
:1007900023E0E29FF0011124EE0FFF1FEE0FFF1F79
:1007A000E35EFE4F238D348D458D568D0E941D14C2
:1007B000AB01BC018AE70E94CF0080910B0181113F
:1007C00010C060910C0170910D0180E090E00E94DA
:1007D0003215AB01BC0187E70E94CF0081E0809316
:1007E0000B01E6E8F6E0BF01665876408081853C63
:1007F00009F48AC080E090E00E943215AB01BC0190
:1008000085E70E94CF0080910E01882309F484C0FF
:1008100010920E0140E050E86BEB74E486E70E9412
:10082000CF0020913001309131014091320150913F
:10083000330160913C0170913D0180913E019091A6
:100840003F010E941D14AB01BC0181E60E94CF0054
:10085000209134013091350140913601509137019A
:10086000609140017091410180914201909143015A
:100870000E941D14AB01BC0182E60E94CF002091B2
:1008800038013091390140913A0150913B0160911A
:1008900044017091450180914601909147010E9469
:1008A0001D14AB01BC0183E60E94CF0040911601EC
:1008B00050911701609118017091190187E60E940B
:1008C000CF0060911A0170E080E090E00E94321544
:1008D000AB01BC0188E60E94CF0040911B01509102
:1008E0001C0160911D0170911E0189E60E94CF00DC
:1008F00040911F01509120016091210170912201CE
:100900008AE60E94CF0008C088E0EF3FF80711F0A8
:1009100008F070CF319667CF89E00F900F900F905D
:100920000F90DF91CF911F910F91FF90EF90DF908B
:10093000CF900C949F000F900F900F900F90DF912D
:10094000CF911F910F91FF90EF90DF90CF9008957E
:10095000CF93DF93CDB7DEB728970FB6F894DEBFFD
:100960000FBECDBF99249394BCE03B2E0E94E301BF
:10097000182F0E945110882319F00E941003F6CFFF
:1009800017FD54C28FEB810F8A3108F016C1412F39
:1009900050E0FA01E154F109E131F10508F00BC131
:1009A000EC5CFF4F0C945817A0901601B090170103
:1009B000C0901801D090190180912C0190912D01C7
:1009C000A0912E01B0912F0189839A83AB83BC83C0
:1009D000209128013091290140912A0150912B0149
:1009E00040902401509025016090260170902701CD
:1009F0001434D9F460911F0170912001809121017C
:100A0000909122012D833E834F8358870E940615C3
:100A10007F936F9380901A01E980FA800B811C818B
:100A20002D813E814F81588508C01F921F92809072
:100A30001A01E980FA800B811C81C301B20168C0F0
:100A400060911B0170911C0180911D0190911E010C
:100A500040911A010E94D30DE6C110921501E3C125
:100A600090921501E0C10E944110882319F00E9464
:100A70001003F9CF0E941714A4E2B1E0E32D1D92F8
:100A8000EA95E9F7E12CF12C8701A8019701C8014B
:100A9000B7010E94330E10922301609130017091D2
:100AA0003101809132019091330160932401709360
:100AB00025018093260190932701209134013091E4
:100AC0003501409136015091370120932801309330
:100AD000290140932A0150932B01E0903801F090B6
:100AE000390100913A0110913B01E0922C01F09202
:100AF0002D0100932E0110932F01A0901601B090AC
:100B00001701C0901801D09019011F921F92812CDB
:100B10000E94CC080F900F9086C10E94411088233C
:100B200019F00E941003F9CF81E090E0193411F020
:100B300080E090E08C01000F111F080F191F0E9428
:100B40005A10F801EE0FFF1FEE0FFF1FEB5EFE4F76
:100B5000638F748F858F968F0E946B10F801EE0F54
:100B6000FF1FEE0FFF1FE75EFE4F638F748F858FB1
:100B7000968F0E947C10F801EE0FFF1FEE0FFF1FF3
:100B8000E35EFE4F638F748F858F968F4CC11092FA
:100B9000230149C19092230146C182E009C083E04C
:100BA00007C084E005C085E003C086E001C087E09F
:100BB0000E94D40D38C18CE334C18FE9810F8A3192
:100BC00008F02EC180911401843009F027C1812FD3
:100BD00090E0FC01E456F109E731F10508F01CC191
:100BE000EB5BFF4F0C94581780911501813099F4FD
:100BF0000E944402E091230123E0E29FF0011124CE
:100C0000EE0FFF1FEE0FFF1FEB5EFE4F238D348DA7
:100C1000458D568D0EC0C0902401D0902501E090E6
:100C20002601F09027010E9444029B01AC01C701FC
:100C3000B6010E941E1460932401709325018093D5
:100C4000260190932701EFC080911501813099F41E
:100C50000E944402E0912301A3E0EA9FF0011124E5
:100C6000EE0FFF1FEE0FFF1FE75EFE4F238D348D4B
:100C7000458D568D0EC0C0902801D0902901E0907E
:100C80002A01F0902B010E9444029B01AC01C70194
:100C9000B6010E941E14609328017093290180936D
:100CA0002A0190932B01BFC080911501813099F4E6
:100CB0000E944402E0912301B3E0EB9FF001112474
:100CC000EE0FFF1FEE0FFF1FE35EFE4F238D348DEF
:100CD000458D568D0EC0C0902C01D0902D01E09016
:100CE0002E01F0902F010E9444029B01AC01C7012C
:100CF000B6010E941E1460932C0170932D01809305
:100D00002E0190932F018FC00E9444026093160120
:100D100070931701809318019093190184C00E9469
:100D200044020E94061560931A017DC00E9444028D
:100D300060931B0170931C0180931D0190931E0111
:100D400072C00E94440260931F017093200180933F
:100D500021019093220167C00E94440260933001F8
:100D60007093310180933201909333015CC00E94F3
:100D7000440260933401709335018093360190935F
:100D8000370151C00E9444026093380170933901C9
:100D900080933A0190933B0146C00E944402209107
:100DA00030013091310140913201509133010E9464
:100DB0001E1460933C0170933D0180933E0190931B
:100DC0003F0131C00E94440220913401309135012D
:100DD00040913601509137010E941E1460934001EA
:100DE0007093410180934201909343011CC00E9483
:100DF0004402209138013091390140913A015091DB
:100E00003B010E941E14609344017093450180933E
:100E100046019093470107C08EE303C08AE301C0F7
:100E200083E20E94441010921401A7CDE0911401B6
:100E3000E43048F481E08E0F80931401F0E0E05F2D
:100E4000FE4F10839ACD8AE30E94441096CD2F92D4
:100E50003F924F925F926F927F928F929F92AF924A
:100E6000BF92CF92DF92EF92FF920F931F93CF9397
:100E7000DF93CDB7DEB760970FB6F894DEBF0FBE35
:100E8000CDBF1C012A013B0148015901FC016289C7
:100E90007389848995890E9432156B017C01A301B5
:100EA00092010E946B160E9482140E9406152B016B
:100EB0003C01F10161A772A783A794A7A501940142
:100EC000C701B6010E946B160E9482140E9406158B
:100ED0004B015C01F10165A776A787A790AB21A91B
:100EE00032A943A954A9A0EEBEE20E941717698354
:100EF0007A838B839C830E9434156D837E838F83DA
:100F00009887C301B2010E9432152B013C01A70151
:100F10009601C701B6010E946B166B017C01A3010B
:100F20009201C301B2010E946B1669877A878B8791
:100F30009C872D813E814F815885CA01B9010E944D
:100F40001E146D877E878F87988B29853A854B8500
:100F50005C85C701B6010E941D142D853E854F8515
:100F600058890E9499140E9482140E9401152B0135
:100F70003C01C501B4010E9432159B01AC010E94E5
:100F80006B164B015C01A70196010E941D146B01B9
:100F90007C0169817A818B819C8190958095709587
:100FA00061957F4F8F4F9F4F0E9434159B01AC017D
:100FB0000E941E149B01AC01C701B6010E94991446
:100FC0000E946F15F101C684D784E088F188A701DB
:100FD0009601241935094609570929833A834B8319
:100FE0005C830E94011529813A814B815C81261B1B
:100FF000370B480B590BDA01C90157FF3DC0C70138
:10100000B6010E9434159B01AC016D857E858F85EC
:1010100098890E946B1629853A854B855C850E94CC
:101020001D14A50194010E941E144B015C0120E0D7
:1010300030E040E850E46D817E818F8198850E9488
:101040006B169B01AC01C501B4010E9499140E946A
:1010500082140E94011597FF03C060E070E0CB018D
:101060002B013C01C616D706E806F90614F4260142
:10107000370180E090E0DC01F10145AA56AA67AA99
:1010800070AE840D951DA61DB71D81AF92AFA3AFA5
:10109000B4AF60960FB6F894DEBF0FBECDBFDF9140
:1010A000CF911F910F91FF90EF90DF90CF90BF9065
:1010B000AF909F908F907F906F905F904F903F90F8
:1010C0002F9008954F925F926F927F92AF92BF924E
:1010D000CF92DF92EF92FF920F931F93CF93DF9304
:1010E0008C01EB01FC0180A5811147C0428C538C1F
:1010F000648C758CAA8CBB8CCC8CDD8C9501A60184
:10110000C301B2010E94951487FF37C0A301920169
:10111000C301B2010E946B162B013C0120E03AEBA7
:101120004BE55AECF80162A173A184A195A10E943C
:101130006B169B01AC01C301B2010E941D140E94F9
:10114000D2167B018C019B01AC01B501C6010E9446
:10115000951487FF02C0750186019701A801B501AA
:10116000C6010E949514882341F0A701B8014A8F57
:101170005B8F6C8F7D8F81E08FA3DF91CF911F916B
:101180000F91FF90EF90DF90CF90BF90AF907F9046
:101190006F905F904F9008952F923F924F925F9281
:1011A0006F927F928F929F92AF92BF92CF92DF9277
:1011B000EF92FF920F931F93CF93DF93CDB7DEB7DC
:1011C000AF970FB6F894DEBF0FBECDBF29013A012D
:1011D000E982FA820B831C832696EEACFFAC26973D
:1011E0002CE137EC41EB52E40E946B160E943B1657
:1011F0006C8F7D8F8E8F9F8F24E731ED45EB52E40E
:10120000C301B2010E946B160E943B1668A379A32A
:101210008AA39BA325E535E545E052E469817A81FF
:101220008B819C810E946B160E943B166CA37DA350
:101230008EA39FA320906501022D0F5F098B0E30B6
:1012400009F4198A2988022D112707FD109580912C
:10125000640190E08017910719F40E941003F7CF02
:10126000809165010FE3809F2001112482010A59BA
:101270001E4F1A830983E114F104A1F081E0D80123
:101280008C93B70180E090E00E9432152CE137EC9E
:1012900041EB52E40E946B160E943B16F80176AFB8
:1012A00065AF03C0A981BA811C92E981FA8186A247
:1012B00015868091580190915901A0915A01B091E1
:1012C0005B012C8C3D8C4E8C5F8C281639064A06AF
:1012D0005B0614F428E0258700915C0110915D0104
:1012E00020915E0130915F0148A059A06AA07BA0C7
:1012F00040165106620673062CF4E981FA81458591
:10130000406145872090600130906101409062010A
:10131000509063016CA07DA08EA09FA06214730406
:10132000840495042CF4E981FA814585406245875F
:101330006C8C7D8C8E8C9F8C681A790A8A0A9B0A29
:10134000C401B3016D867E868F86988A97FE0BC096
:10135000662477244301661A770A880A990A6D86FB
:101360007E868F86988A6D847E848F849888A981F2
:10137000BA8111966D927D928D929C92149768A07D
:1013800079A08AA09BA0601A710A820A930A6D82D2
:101390007E828F8298866A8A7B8A8C8A9D8A97FE53
:1013A0000CC09094809470946094611C711C811C9A
:1013B000911C6A8A7B8A8C8A9D8AEA88FB880C89C0
:1013C0001D89A981BA811596ED92FD920D931C930A
:1013D00018976CA07DA08EA09FA062187308840847
:1013E000950869867A868B869C869401830197FE90
:1013F00007C030952095109501951F4F2F4F3F4FF7
:10140000A981BA8119960D931D932D933C931C9736
:101410002A883B884C885D886D847E848F84988878
:10142000261437044804590420F46A8A7B8A8C8A7B
:101430009D8A4A885B886C887D88401651066206C2
:10144000730610F428013901A981BA811E964D92C4
:101450005D926D927C925197411451046104710424
:1014600009F488C30E9434152CE137EC41EB52E4B7
:101470000E9499146A8B7B8B8C8B9D8B6D817E81F6
:101480008F8198850E94341524E731ED45EB52E4B5
:101490000E94991468A779A78AA79BA769857A856E
:1014A0008B859C850E94341525E535E545E052E4A1
:1014B0000E9499146CA77DA78EA79FA72A893B89B4
:1014C0004C895D89CA01B9010E946B166D837E83C8
:1014D0008F83988728A539A54AA55BA5CA01B901BC
:1014E0000E946B169B01AC016D817E818F81988576
:1014F0000E941E146D837E838F8398872CA53DA543
:101500004EA55FA5CA01B9010E946B169B01AC01F3
:101510006D817E818F8198850E941E140E94D21653
:10152000688F798F8A8F9B8FE981FA8162A373A379
:1015300084A395A39B01AC0160E070E080E89FE389
:101540000E9499146D837E838F8398879B01AC01E1
:10155000C601B5010E946B166B017C019B01AC01B9
:10156000688D798D8A8D9B8D0E946B1669877D872A
:101570008E8B9F8BCB01AE89BF89E981FA81868BE7
:10158000978BA08FB18FC301B2010E9434154B011C
:101590005C01A70196010E946B160E9482140E94B2
:1015A0000615A981BA8152966D937D938D939C9374
:1015B00055972D813E814F815885C501B4010E9408
:1015C0006B1620E03AEB4BED59E40E946B1620E0DD
:1015D00030E84BE356E40E9499140E9482140E9462
:1015E0000115E981FA8161AB72AB83AB94AB2D81BC
:1015F0003E814F8158856A897B898C899D890E94AB
:101600006B166A8B7B8B8C8B9D8B2D813E814F81E2
:10161000588568A579A58AA59BA50E946B164B01E4
:101620005C012D813E814F8158856CA57DA58EA5DD
:101630009FA50E946B162B013C0190916501809142
:101640006401981709F4ACC0009148011091490158
:1016500020904A0130904B0120E030E0A901B80110
:10166000C1010E94371618160CF09AC080914C01E7
:1016700090914D01A0914E01B0914F01BC01CD015F
:1016800090582A893B894C895D890E946B166B01B1
:101690007C012091500130915101409152015091B3
:1016A0005301C501B4010E946B169B01AC01C70137
:1016B000B6010E941D146B017C01209154013091F0
:1016C00055014091560150915701C301B2010E944A
:1016D0006B169B01AC01C701B6010E941D146B0182
:1016E0007C0123E333E343E75FE30E94951487FF24
:1016F00057C029853D854E895F89B801C1010E9487
:10170000951487FD04C009851D852E883F8823E335
:1017100033E343E75FEBC701B6010E9437161816A3
:101720000CF042C0A701960160E070E080E89FE302
:101730000E941D1420E030E040E05FE30E946B1641
:101740000E94D2166B017C0120E030EC48E256E4A6
:101750000E946B166D837E838F839887A701960105
:1017600060E070E080E89FE30E941D149B01AC01E3
:101770006D817E818F8198850E9499140E94D21676
:101780006B01F82EE92E9B01482F592FB801C1019A
:101790000E94951487FD08C086012F2C3E2C04C0A2
:1017A00000E010E0212C312CC801D101E981FA813F
:1017B000868F978FA0A3B1A320E03AEB4BE55AECBC
:1017C000688D798D8A8D9B8D0E946B169B01AC0173
:1017D00060E070E0CB010E941D140E94D2166B01E4
:1017E000F82EE92E9B01482F592FB801C1010E9404
:1017F000951487FF03C0302F212F04C03C2D2D2DC1
:101800002F2C3E2C832F922FD101E981FA81828FD8
:10181000938FA48FB58F96014F2D5E2D69857D85A1
:101820008E899F890E949514181634F081E0A98151
:10183000BA8198968C9303C0E981FA8110A681E061
:10184000A981BA8197968C93EA88FB880C891D89B7
:10185000E0924C01F0924D0100934E0110934F0124
:101860008092500190925101A0925201B092530186
:101870004092540150925501609256017092570166
:1018800089859D85AE89BF898093480190934901E0
:10189000A0934A01B0934B01F988F09265012C8C1A
:1018A0003D8C4E8C5F8C20925801309259014092B1
:1018B0005A0150925B0148A059A06AA07BA04092B7
:1018C0005C0150925D0160925E0170925F016CA0BC
:1018D0007DA08EA09FA060926001709261018092B5
:1018E000620190926301D0906501E0E0F0E000E0D9
:1018F00010E04FE3242E332433948091640190E070
:101900002D2D332727FD30952817390709F46FC08F
:10191000D11002C03EE0D32EDA94222D3D2D3203A9
:1019200070011124A7014A595E4F7A010115110572
:1019300009F45AC0309709F457C0D80198968C9191
:1019400098975E969C905E975F96AC905F97909606
:10195000BC9090979196CC9081113CC0428C538C56
:10196000648C758CA3019201692D7A2D8B2D9C2D91
:101970000E943716181674F5A3019201C301B20133
:101980000E946B162B013C0120E03AEB4BE55AEC30
:10199000F80162A173A184A195A10E946B169B011D
:1019A000AC01C301B2010E941D140E94D216562E32
:1019B000672E782E892E262F372F482F592F692DE5
:1019C0007A2D8B2D9C2D0E94951487FD03C0952C9C
:1019D0005301C82C892D9A2DAB2DBC2DF801828F77
:1019E000938FA48FB58F37A2F801870186CFD0904F
:1019F000640100E010E080E090E02FE3C22E2D2D86
:101A0000332727FD30954091650150E024173507B5
:101A1000C9F0C29E7001C39EF00C1124F701EA596F
:101A2000FE4F7F01009731F00115110519F0B80143
:101A30000E946208D394FEE0DF1201C0D12CC801DD
:101A40008701DDCF009731F00115110519F0B801BC
:101A50000E94620830906401A12CB12C8FE3282EE3
:101A6000832D992787FD90952091650130E082179D
:101A7000930709F442C0289E4001299E900C11242E
:101A800084010A591E4F4801A114B10479F1D5010E
:101A900097968C91811104C0F80187A1882331F1B8
:101AA000D5015696CD90DD90ED90FC905997A70109
:101AB0009601F401628D738D848D958D0E94991429
:101AC0002B013C01A7019601D5015A966D917D919C
:101AD0008D919C915D970E949914AB01BC0193017B
:101AE0008201C5010E942707F50117A23394FEE089
:101AF0003F1201C0312C5401B3CFD5015696CD9081
:101B0000DD90ED90FC905997A701960160E070E0A0
:101B1000CB010E9499142B013C01A7019601F5010C
:101B2000628D738D848D958D0E949914AB01BC01DB
:101B300093018201C5010E942707D50197961C9247
:101B4000AF960FB6F894DEBF0FBECDBFDF91CF9139
:101B50001F910F91FF90EF90DF90CF90BF90AF90CB
:101B60009F908F907F906F905F904F903F902F90BD
:101B70000C942310AF960FB6F894DEBF0FBECDBF06
:101B8000DF91CF911F910F91FF90EF90DF90CF9059
:101B9000BF90AF909F908F907F906F905F904F908D
:101BA0003F902F9008950895EF92FF921F93CF9347
:101BB000DF931F92CDB7DEB7109165011F5F1E3016
:101BC00009F410E0E12EFF24E7FCF0942091640179
:101BD00030E02E153F0529F489830E941003898186
:101BE000F5CFE09165019FE3E99FF0011124EA59E7
:101BF000FE4F8083109365010F90DF91CF911F916D
:101C0000FF90EF900C942310209165019091640156
:101C100081E0291301C080E00895909165018091D1
:101C20006401981749F0809164012FE3829FC001FD
:101C300011248A599E4F089580E090E00895909174
:101C4000650180916401981741F0809164018F5F74
:101C50008E3009F480E0809364010895109265014C
:101C60001092640108958F929F92AF92BF92CF928B
:101C7000DF92EF92FF920F931F9349015A01670180
:101C800078012CE137EC41EB52E40E946B160E9484
:101C90003B16609358017093590180935A019093B9
:101CA0005B0124E731ED45EB52E4C501B4010E942C
:101CB0006B160E943B1660935C0170935D018093EC
:101CC0005E0190935F0125E535E545E052E4C701EB
:101CD000B6010E946B160E943B16609360017093E0
:101CE0006101809362019093630110924801109208
:101CF000490110924A0110924B018CE0ECE4F1E0B2
:101D0000DF011D928A95E9F71F910F91FF90EF90E7
:101D1000DF90CF90BF90AF909F908F900895EF92FB
:101D2000FF920F931F93CF9310926501109264015D
:101D3000CCE0E8E5F1E0DF018C2F1D928A95E9F710
:101D4000E12CF12C870120E030E040EA50E4CA01A8
:101D5000B9010E94330EECE4F1E0DF011D92CA9557
:101D6000E9F7E0924801F092490100934A0110938B
:101D70004B01CF911F910F91FF90EF9008958AB181
:101D8000837F8AB987B1807C87B9089587BD08951C
:101D9000882311F05C9A08955C980895882311F0C7
:101DA0005F9A08955F980895882311F05D9A0895C9
:101DB0005D980895569A17BC81E884BD83E085BD7F
:101DC000549A579A80E00E94C80E80E00E94CE0E7E
:101DD000559A80E00C94D40E8091E3049091E40431
:101DE000A091E504B091E6044091DF045091E00435
:101DF0006091E1047091E204840F951FA61FB71F44
:101E0000813828E3920721E0A207B10550F48093BE
:101E1000DF049093E004A093E104B093E20480E037
:101E2000089580589843A140B1098093DF049093AE
:101E3000E004A093E104B093E20481E008951F93CD
:101E4000CF93DF93811102C02BE301C023E090E325
:101E5000922735B1292F2873377C232B25B976E0BB
:101E600066E0A1E051E0BFE3C1E0D2E01AE12CEA74
:101E70003DE546B181114B27552341F040FD06C099
:101E8000611103C09C2750E001C06150AA2341F0BA
:101E900042FD09C0711102C09D2702C0715003C0EC
:101EA000552381F0A0E045B1E92FE7704E2B45B9ED
:101EB000412F4A95F1F745B14E2745B9F9013197C0
:101EC000F1F7D7CF8CE0EBEFF4E0DF011D928A95BC
:101ED000E9F7DF91CF911F9108958F929F92AF9272
:101EE000BF92CF92DF92EF92FF920F931F93CF9307
:101EF000DF931F92CDB7DEB76B017C0180E4C8167B
:101F000086E0D806E104F10430F4A0E4CA2EA6E08D
:101F1000DA2EE12CF12C60E070E788E399E3A70169
:101F200096010E94361721153105E1E04E07510553
:101F300018F4C90160E02FC021153105F8E04F0702
:101F40005105A8F4BA01A901E3E076956795579584
:101F50004795EA95D1F7CA019A01AB01F3E0220F48
:101F6000331F441F551FFA95D1F761E014C0BA0121
:101F7000A90186E076956795579547958A95D1F79B
:101F8000CA019A01AB0166E0220F331F441F551F9F
:101F90006A95D1F762E0709181006F5F787F672B5F
:101FA0006093810090938900809388002093E304DC
:101FB0003093E4044093E5045093E6040091F9045F
:101FC0001091FA04F80166A170E080E090E00E94B0
:101FD00034154B015C01C701B6010E9432156B013B
:101FE0007C01F80162897389848995890E94321580
:101FF0009B01AC01C701B6010E9499149B01AC0181
:10200000C501B4010E946B160E940615862F6983D4
:102010000E94C60E6981693210F082E005C06B3003
:1020200010F083E001C084E085BD0F90DF91CF9177
:102030001F910F91FF90EF90DF90CF90BF90AF90E6
:102040009F908F9008958091DA0481110BC081E0F8
:102050008093DA0480E38093F80480916F008260BB
:1020600080936F0008951092DA041092FA0410928F
:10207000F904EFE6F0E080818D7F808380E00C94AE
:10208000C60E8091DA0408959091D904911105C08B
:102090008093D80481E08093D90408958091D80476
:1020A00008958091D904089580E28093D804109215
:1020B000D90408956091FB047091FC048091FD04A3
:1020C0009091FE040E9434152CE137EC41EB52E470
:1020D0000E94991408956091FF0470910005809109
:1020E0000105909102050E94341524E731ED45EB7E
:1020F00052E40E94991408956091030570910405BB
:1021000080910505909106050E94341525E535E579
:1021100045E052E40E94991408958F929F92AF92E5
:10212000BF92CF92DF92EF92FF920F931F934901DC
:102130005A01670178012CE137EC41EB52E40E942F
:102140006B160E943B166093FB047093FC04809313
:10215000FD049093FE0424E731ED45EB52E4C50104
:10216000B4010E946B160E943B166093FF047093AB
:102170000005809301059093020525E535E545E0CE
:1021800052E4C701B6010E946B160E943B16609391
:1021900003057093040580930505909306051F9130
:1021A0000F91FF90EF90DF90CF90BF90AF909F90F6
:1021B0008F900895EF92FF920F931F9384B18F63D6
:1021C00084B985B1807C806385B9E1E8F0E08081E5
:1021D0008F7E8083808188608083E0E8F0E080816A
:1021E0008D7F808380818E7F808380818F738083C9
:1021F00080818F7C80831092B0001092B100E0E764
:10220000F0E080818160808360E476E080E090E0AF
:102210000E946D0F8CE0EBEFF4E0DF011D928A95D8
:10222000E9F7E12CF12C870120E030E040EA50E4AE
:10223000CA01B9010E948D101092DF041092E004CF
:102240001092E1041092E2041092FA041092F90440
:102250001092D90480E28093D8041092E7041F9171
:102260000F91FF90EF900C9433101F920F920FB6C6
:102270000F9211248F9385B1887F85B91092B10098
:102280008F910F900FBE0F901F9018951F920F9275
:102290000FB60F9211240F931F932F933F934F93D9
:1022A0005F936F937F938F939F93AF93BF93CF93DE
:1022B000DF93EF93FF938091E7048111A3C281E044
:1022C0008093E7048091D904882329F00E94331079
:1022D0000E942E0E95C2309902C084E213C031993B
:1022E00002C085E20FC0329902C086E20BC033996A
:1022F00002C08AE207C0349902C08BE203C035995C
:1023000004C08DE20E9444107BC295B18091F80414
:102310008873977C892B85B985B1887F9091F80463
:10232000892B85B98AEF8093B20082E08093B10057
:1023300078948091F9049091FA04892B09F05DC09A
:102340000E940D0E9093FA048093F904009719F4FB
:102350000E94331055C2FC012081223008F04DC08C
:1023600061A572A583A594A56093DB047093DC043A
:102370008093DD049093DE0400E41CE920E030E06B
:102380000093DF041093E0042093E1043093E2040F
:102390000E946D0FE091F904F091FA04868597850B
:1023A000A089B189B595A79597958795B095A09582
:1023B000909581959F4FAF4FBF4F8093F4049093BA
:1023C000F504A093F604B093F7048093F00490937F
:1023D000F104A093F204B093F3048093EC0490937F
:1023E000ED04A093EE04B093EF041092E804109271
:1023F000E9041092EA041092EB04C091F904D09120
:10240000FA04888190E08830910508F0F9C1FC0158
:10241000E45AFF4F0C9458172D852093F8048091AF
:10242000F4049091F504A091F604B091F704498169
:102430005A816B817C81840F951FA61FB71F8093E3
:10244000F4049093F504A093F604B093F7044E853A
:102450005F8568897989181619061A061B0644F5DE
:1024600021602093F804841B950BA60BB70B809377
:10247000F4049093F504A093F604B093F7048091CC
:10248000FB049091FC04A091FD04B091FE0423FF95
:1024900004C00197A109B10903C00196A11DB11D96
:1024A0008093FB049093FC04A093FD04B093FE047E
:1024B0008091F0049091F104A091F204B091F304A2
:1024C0000D811E812F813885800F911FA21FB31FA0
:1024D0008093F0049093F104A093F204B093F3047A
:1024E000181619061A061B0654F52091F8042260E6
:1024F0002093F804841B950BA60BB70B8093F00474
:102500009093F104A093F204B093F3048091FF043C
:1025100090910005A0910105B091020524FF04C02F
:102520000197A109B10903C00196A11DB11D8093B6
:10253000FF0490930005A0930105B09302058091DC
:10254000EC049091ED04A091EE04B091EF040985A4
:102550001A852B853C85800F911FA21FB31F809386
:10256000EC049093ED04A093EE04B093EF041816DE
:1025700019061A061B0654F52091F80424602093CE
:10258000F804841B950BA60BB70B8093EC04909377
:10259000ED04A093EE04B093EF04809103059091B5
:1025A0000405A0910505B091060525FF04C001971B
:1025B000A109B10903C00196A11DB11D80930305B6
:1025C00090930405A0930505B09306058091E80457
:1025D0009091E904A091EA04B091EB040196A11D49
:1025E000B11D8093E8049093E904A093EA04B093AA
:1025F000EB042091F80430E323272093F804841798
:102600009507A607B70708F0F5C04DA95EA96FA901
:1026100078AD84179507A607B70740F50E94EC0E22
:10262000882309F4EDC089A99AA9ABA9BCA9409156
:10263000DB045091DC046091DD047091DE04840FB2
:10264000951FA61FB71F8093DB049093DC04A09313
:10265000DD04B093DE044A895B896C897D89481763
:1026600059076A077B0708F04AC041C049AD5AAD17
:102670006BAD7CAD84179507A607B70769F480E4B6
:102680009CE9A0E0B0E08093DF049093E004A09385
:10269000E104B093E204B4C084179507A607B70716
:1026A000C8F10E94EC0E882309F4AAC08091DB04D3
:1026B0009091DC04A091DD04B091DE0449A95AA9EF
:1026C0006BA97CA9841B950BA60BB70B8093DB042D
:1026D0009093DC04A093DD04B093DE044DA55EA5C9
:1026E0006FA578A984179507A607B70740F440930C
:1026F000DB045093DC046093DD047093DE0460918E
:10270000DB047091DC048091DD049091DE040E9472
:102710006D0F76C06A897B898C899D890091DB0465
:102720001091DC042091DD043091DE0406171707B8
:102730002807390751F06093DB047093DC04809321
:10274000DD049093DE040E946D0FE091F904F09196
:10275000FA048081813009F053C025AD36AD40E0E8
:1027600050E06091E8047091E9048091EA0490914E
:10277000EB040E943617613071058105910509F05F
:102780003FC0F8940E9426027894482F50E04058A9
:1027900051092EEF31E0429FC001439F900D529F9F
:1027A000900D1124E091F904F091FA0466A170E013
:1027B0000E942217862FC62F0E94C60EC93210F023
:1027C00082E005C0CB3010F083E001C084E085BD1D
:1027D00017C081E001C080E00E94C80E0BC081E0FC
:1027E00001C080E00E94CE0E05C081E001C080E003
:1027F0000E94D40E1092FA041092F9040E941F0E47
:102800001092E704FF91EF91DF91CF91BF91AF91CB
:102810009F918F917F916F915F914F913F912F91F8
:102820001F910F910F900FBE0F901F90189580E091
:102830000E941F0F81E00C941F0F5058BB27AA273E
:102840000ED0C4C1B5D130F0BAD120F031F49F3FE1
:1028500011F41EF4AAC10EF4E095E7FB77C1E92F4D
:10286000C6D180F3BA17620773078407950718F07B
:1028700071F49EF5F5C10EF4E0950B2EBA2FA02D44
:102880000B01B90190010C01CA01A0011124FF271D
:10289000591B99F0593F50F4503E68F11A16F04018
:1028A000A22F232F342F4427585FF3CF4695379517
:1028B0002795A795F0405395C9F77EF41F16BA0BDC
:1028C000620B730B840BBAF09150A1F0FF0FBB1F8A
:1028D000661F771F881FC2F70EC0BA0F621F731FD3
:1028E000841F48F4879577956795B795F7959E3F30
:1028F00008F0B3CF9395880F08F09927EE0F9795BE
:102900008795089596D180F09F3740F491110EF489
:10291000A8C160E070E080E89FE3089526F01B16F0
:10292000611D711D811D18C132C1ECD008F481E018
:1029300008950CD04BC143D140F03AD130F021F48E
:102940005F3F19F003C151118CC12FC150D198F3D1
:102950009923C9F35523B1F3951B550BBB27AA2720
:1029600062177307840738F09F5F5F4F220F331F92
:10297000441FAA1FA9F333D00E2E3AF0E0E830D05E
:1029800091505040E695001CCAF729D0FE2F27D061
:10299000660F771F881FBB1F261737074807AB072F
:1029A000B0E809F0BB0B802DBF01FF2793585F4FA4
:1029B0002AF09E3F510568F0C9C053C15F3FECF358
:1029C000983EDCF3869577956795B795F7959F5F69
:1029D000C9F7880F911D9695879597F90895E1E0BD
:1029E000660F771F881FBB1F621773078407BA071C
:1029F00020F0621B730B840BBA0BEE1F88F7E09577
:102A0000089504D06894B1112CC10895F8D088F0CD
:102A10009F5790F0B92F9927B751A0F0D1F0660FCA
:102A2000771F881F991F1AF0BA95C9F712C0B130E5
:102A300081F016D1B1E0089513C1672F782F882750
:102A4000B85F39F0B93FCCF3869577956795B39524
:102A5000D9F73EF490958095709561957F4F8F4F93
:102A60009F4F0895E89409C097FB3EF49095809598
:102A7000709561957F4F8F4F9F4F9923A9F0F92F44
:102A800096E9BB279395F695879577956795B795C2
:102A9000F111F8CFFAF4BB0F11F460FF1BC06F5FA8
:102AA0007F4F8F4F9F4F16C0882311F096E911C0BA
:102AB000772321F09EE8872F762F05C0662371F0DB
:102AC00096E8862F70E060E02AF09A95660F771FEF
:102AD000881FDAF7880F9695879597F90895A9D0FA
:102AE00080F09F3740F491110EF0BBC060E070E0C1
:102AF00080E89FEB089526F41B16611D711D811D52
:102B00002BC045C0990F0008550FAA0BE0E8FEEF57
:102B100016161706E807F907C0F012161306E407A1
:102B2000F50798F0621B730B840B950B39F40A269A
:102B300061F0232B242B252B21F408950A2609F478
:102B4000A140A6958FEF811D811D089597F99F677C
:102B500080E870E060E00895882371F4772321F025
:102B60009850872B762F07C0662311F499270DC044
:102B70009051862B70E060E02AF09A95660F771FDF
:102B8000881FDAF7880F9695879597F908959F3FE4
:102B900031F0915020F4879577956795B795880F18
:102BA000911D9695879597F908959FEF80EC08956C
:102BB00000240A941616170618060906089500241C
:102BC0000A9412161306140605060895092E039496
:102BD000000C11F4882352F0BB0F40F4BF2B11F40A
:102BE00060FF04C06F5F7F4F8F4F9F4F089557FD69
:102BF0009058440F551F59F05F3F71F04795880F6B
:102C000097FB991F61F09F3F79F087950895121601
:102C100013061406551FF2CF4695F1DF08C01616AD
:102C200017061806991FF1CF86957105610508945E
:102C30000895E5DFA0F0BEE7B91788F4BB279F38F9
:102C400060F41616B11D672F782F8827985FF7CF8D
:102C5000869577956795B11D93959639C8F3089534
:102C6000E894BB2766277727CB0197F908954ADFB9
:102C700008F48FEF0895C3DF58F19E5758F198512B
:102C8000A0F0E9F0983020F5092E9927660F771FFC
:102C9000881F991F0A94D1F712C0062E672F782F2C
:102CA0008827985F11F4000C07C0993FB4F386950C
:102CB000779567959395D9F7611D711D811D3EF438
:102CC00090958095709561957F4F8F4F9F4F089598
:102CD0006894C7CFC5CF0BD079CF6ADF28F06FDFFC
:102CE00018F0952309F032CF60CF1124BACF7FDFDF
:102CF000A0F3959FD1F3950F50E0551F629FF0010F
:102D0000729FBB27F00DB11D639FAA27F00DB11D67
:102D1000AA1F649F6627B00DA11D661F829F2227F0
:102D2000B00DA11D621F739FB00DA11D621F839F77
:102D3000A00D611D221F749F3327A00D611D231F4D
:102D4000849F600D211D822F762F6A2F11249F579B
:102D500050408AF0E1F088234AF0EE0FFF1FBB1FBE
:102D6000661F771F881F91505040A9F79E3F51055D
:102D700070F0ECCE76CF5F3FECF3983EDCF38695B7
:102D800077956795B795F795E7959F5FC1F7FE2B08
:102D9000880F911D9695879597F9089511F40EF473
:102DA00004CFF5CE2CDFD0F39923D9F3CEF39F5780
:102DB000550B87FF35D00024A0E640EA90018058EB
:102DC0005695979528F4805C660F771F881F20F032
:102DD00026173707480730F4621B730B840B202932
:102DE00031294A2BA69517940794202531254A2787
:102DF00058F7660F771F881F20F0261737074807F8
:102E000030F4620B730B840B200D311D411DA09516
:102E100081F7B901842F9158880F96958795089569
:102E200091505040660F771F881FD2F708950E9477
:102E30005E17A59F900DB49F900DA49F800D911DCE
:102E40001124089597FB072E16F4009407D077FD00
:102E500009D00E946D1707FC05D03EF4909581952E
:102E60009F4F0895709561957F4F0895A1E21A2EA6
:102E7000AA1BBB1BFD010DC0AA1FBB1FEE1FFF1F1E
:102E8000A217B307E407F50720F0A21BB30BE40B6E
:102E9000F50B661F771F881F991F1A9469F76095B5
:102EA0007095809590959B01AC01BD01CF0108956F
:102EB000EE0FFF1F0590F491E02D0994A29FB00141
:102EC000B39FC001A39F700D811D1124911DB29F5E
:102ED000700D811D1124911D0895AA1BBB1B51E18A
:102EE00007C0AA1FBB1FA617B70710F0A61BB70B7A
:102EF000881F991F5A95A9F780959095BC01CD011F
:062F00000895F894FFCFD4
:022F060001FECA
:00000001FF
