:100000000C9450000C946D000C946D000C946D00D9
:100010000C946D000C946D000C946D000C946D00AC
:100020000C946D000C9459120C946D000C946B128E
:100030000C946D000C946D000C946D000C946D008C
:100040000C946D000C946D000C9482010C942501AD
:100050000C946D000C946D000C946D000C946D006C
:100060000C946D000C946D00D4063B0406053B0413
:1000700013051E05250528052B0594059405230663
:100080002306BD06C006C306C506C706C906CB06BD
:10009000CD061D13B514B714BB14BD14C114C3147D
:1000A00011241FBECFEFD8E0DEBFCDBF11E0A0E02E
:1000B000B1E0E2E6F0E302C005900D92A230B10794
:1000C000D9F716E0A2E0B1E001C01D92AB39B1074B
:1000D000E1F70E946F000C942F180C9400008F928F
:1000E000AF92BF92CF92DF92EF92FF920F931F9346
:1000F0000E94C0000E94B2020E94CF090E94FD111E
:100100000E94260F0E94410F1F921F92812CA12C4A
:1001100080E4B82E8CE1C82E86E4D82EE12CF12C98
:100120000AEF13E4A8019701C801B7010E94010A70
:100130000E94EB030F900F9080E090E01F910F91D1
:10014000FF90EF90DF90CF90BF90AF908F90089589
:10015000909106019F5F903809F490E0209105018D
:100160009217E1F3E0910601F0E0E55EF94F80833C
:10017000909306018091C10080628093C100089530
:1001800078941092C50080E18093C400E0ECF0E028
:1001900080818D7F8083E1ECF0E0808180618083CD
:1001A0008081886080838081806880838EE70C9462
:1001B000A800CF92DF92EF92FF9220E030E04AE772
:1001C00054E40E94411720E030E040E05DE40E94EA
:1001D000F4140E9411176B017C01862F80680E9425
:1001E000A800D701C60180789F73AA27BB2727E004
:1001F000B695A795979587952A95D1F780580E942F
:10020000A800D701C6018827907CAF71BB273EE0CC
:10021000B695A795979587953A95D1F780580E94FE
:10022000A800D701C60188279927A07EBF7045E1A5
:10023000B695A795979587954A95D1F78058FF90E1
:10024000EF90DF90CF900C94A8001F920F920FB602
:100250000F9211248F939F93EF93FF938091050149
:1002600090910401992331F092E19093C60010928D
:1002700004010DC0E82FF0E0E55EF94F9081909306
:10028000C6008F5F803809F480E08093050190916B
:100290000601891305C08091C1008F7D8093C10044
:1002A000FF91EF919F918F910F900FBE0F901F9034
:1002B0001895E0910701F0E0E45EFA4F808190919B
:1002C00007019F5F909307019F3F11F41092070170
:1002D000F89490910001903471F490910301992366
:1002E00051F091E0909304019091C100906290933D
:1002F000C10010920301909100019F5F9093000153
:10030000789408951F920F920FB60F9211242F9395
:100310003F934F935F936F937F938F939F93AF938D
:10032000BF93EF93FF938091C600813249F18E37DE
:1003300019F40E94491132C08F3319F40E941E0330
:100340002DC0843189F480910001813448F081E02E
:10035000809304018091C10080628093C1001EC01F
:1003600081E0809303011AC0E091080191E09E0FA3
:100370009F3F09F490E020910701921304C082E2AC
:100380000E943D110BC0F0E0E45EFA4F8083909331
:10039000080180910001815080930001FF91EF914D
:1003A000BF91AF919F918F917F916F915F914F918D
:1003B0003F912F910F900FBE0F901F901895809135
:1003C0000201882351F083B7816083BF889583B78A
:1003D0008E7F83BF0E942A03F2CF90910701809104
:1003E000080198130CC083B7816083BF889583B7D9
:1003F0008E7F83BF0E9422030E942A03EECF0E94B9
:100400005901823029F581E0809302018091020137
:10041000882351F083B7816083BF889583B78E7F2F
:1004200083BF0E942A03F2CF9091070180910801B7
:1004300098130CC083B7816083BF889583B78E7F84
:1004400083BF0E9422030E942A03EECF0C9459011D
:10045000089580910201882361F0909107018091B5
:100460000801981731F00E945901833019F4109255
:10047000020180E0089580910001809508958F9297
:100480009F92AF92BF92CF92DF92EF92FF920F9323
:100490001F9360910C0170910D0180910E0190915C
:1004A0000F01605871098109984000911001109165
:1004B00011012091120130911301005811092109F5
:1004C0003E4F8090140190901501A0901601B090BD
:1004D000170140E8841A91084CEFA40A4FEFB40AC0
:1004E000C0901801D0901901E0901A01F0901B0102
:1004F00040E8C40E47E0D41EE11CF11C47E0CC0CE0
:10050000DD1CEE1CFF1C4A95D1F78C0C9D1CAE1C0B
:10051000BF1C57E0880C991CAA1CBB1C5A95D1F72C
:10052000080D191D2A1D3B1DE7E0000F111F221F9A
:10053000331FEA95D1F7600F711F821F931F0E942E
:10054000081620E030E04AE754E40E946F151F913E
:100550000F91FF90EF90DF90CF90BF90AF909F9062
:100560008F90089521E020931D0180E090E0AAEF94
:10057000B5E480931E0190931F01A0932001B093D6
:100580002101109222018CE0E3E2F1E0DF01982FDB
:100590001D929A95E9F7E8E3F1E0DF011D928A9553
:1005A000E9F710922F011092300110923101109250
:1005B00032011092330110923401109235011092E1
:1005C00036011092370180E090E0A0EAB0E4809319
:1005D000440190934501A0934601B0934701809355
:1005E000480190934901A0934A01B0934B011092A6
:1005F0004C0110924D0110924E0110924F018093C8
:10060000500190935101A0935201B09353018093F4
:10061000540190935501A0935601B0935701109245
:1006200058011092590110925A0110925B011092D8
:100630000B0120930A0120930901089581E0809322
:100640000A0108950E944409811103C081E080934A
:1006500009010895CF930E94440981111092090164
:1006600080910A01882309F4B4C08091090188238C
:1006700011F081E401C082E40E94A8000E944311AD
:10068000C82F803211F00E94A800309905C0C432F2
:1006900019F084E20E94A800319905C0C53219F012
:1006A00085E20E94A800329905C0C63219F086E2A0
:1006B0000E94A800339905C0CA3219F08AE20E944C
:1006C000A800349905C0CB3219F08BE20E94A80033
:1006D000359905C0CD3219F08DE20E94A8000E9424
:1006E0004F110E94D90088E70E94A8000E94601163
:1006F0000E94D90089E70E94A8000E9471110E94FF
:10070000D9008AE70E94A80060E070E080EB94E4E2
:100710000E94D90086E70E94A8006091380170917C
:10072000390180913A0190913B010E94D90081E604
:100730000E94A80060913C0170913D0180913E01B2
:1007400090913F010E94D90082E60E94A80060912A
:1007500040017091410180914201909143010E94BA
:10076000D90083E60E94A80060911E0170911F01CC
:1007700080912001909121010E94D90086E60E947B
:10078000A8006091220170E080E090E00E940816CD
:100790000E94D90083E70E94A80060912F01709108
:1007A000300180913101909132010E94D90084E69C
:1007B0000E94A8006091330170913401809135014D
:1007C000909136010E94D90080E70E94A800109203
:1007D0000A01CF910895CF93DF93CDB7DEB7289765
:1007E0000FB6F894DEBF0FBECDBF8CE0382E2224AA
:1007F00023940E94DF01182F80910B01882301F1BF
:100800000E944F116093230170932401809325016E
:10081000909326010E946011609327017093280134
:100820008093290190932A010E94711160932B01FA
:1008300070932C0180932D0190932E0110920B0147
:100840000E944611882319F020920A0140C317FD27
:1008500024C38FEB810F8A3108F0B0C2412F50E0E2
:10086000FA01E154F109E531F10508F09AC2EC5CB6
:10087000FF4F0C941A1860903701A0901E01B090A1
:100880001F01C0902001D0902101143409F066C0EE
:1008900083E0689E30011124F301EE0FFF1FEE0F7D
:1008A000FF1FEB5DFE4F27A130A541A552A560912A
:1008B00040017091410180914201909143010E9459
:1008C000F41469837A838B839C83F301EE0FFF1FFB
:1008D000EE0FFF1FEF5DFE4F27A130A541A552A5EA
:1008E00060913C0170913D0180913E0190913F01EA
:1008F0000E94F4146D837E838F839887F301EE0F3B
:10090000FF1FEE0FFF1FE35EFE4F27A130A541A59D
:1009100052A5609138017091390180913A0190910E
:100920003B010E94F4142B013C0160913301709152
:10093000340180913501909136010E94DC157F933E
:100940006F9380902201E980FA800B811C812D81B8
:100950003E814F815885C301B20153C0A3E06A9E16
:1009600080011124F801EE0FFF1FEE0FFF1FEB5D5A
:10097000FE4F27A130A541A552A56091400170917D
:10098000410180914201909143010E94F4142B0196
:100990003C01F801EE0FFF1FEE0FFF1FEF5DFE4F52
:1009A00027A130A541A552A560913C0170913D0160
:1009B00080913E0190913F010E94F41469837A83F3
:1009C0008B839C83F801EE0FFF1FEE0FFF1FE35E8A
:1009D000FE4F27A130A541A552A560913801709125
:1009E000390180913A0190913B010E94F4141F92C9
:1009F0001F92809022018301720129813A814B81EB
:100A00005C810E94010A0F900F90CEC160912F016E
:100A10007091300180913101909132014091220119
:100A20000E941309C1C10E943F0260931E0170938E
:100A30001F018093200190932101B6C10E943F02C3
:100A40000E94DC1560932201AFC110921D01ACC160
:100A500020921D01A9C10E94E314E3E2F1E0DF014D
:100A6000832D1D928A95E9F7E8E3F1E0DF01832DFC
:100A70001D928A95E9F7E12CF12C8701A8019701D5
:100A8000C801B7010E94730910923701E092380142
:100A9000F092390100933A0110933B01E0923C013E
:100AA000F0923D0100933E0110933F01E09240011E
:100AB000F09241010093420110934301A0901E0166
:100AC000B0901F01C0902001D0902101A801970192
:100AD00060914C0170914D0180914E0190914F01B8
:100AE0000E94F4142B013C01A80197016091480178
:100AF0007091490180914A0190914B010E94F41438
:100B000069837A838B839C83A80197016091440158
:100B10007091450180914601909147010E94F41423
:100B20001F921F92812C67CF81E090E01B3411F05F
:100B300080E090E06C01CC0CDD1CC80ED91EE0906A
:100B40003701A3E0EA9E700111248601000F111FF6
:100B5000000F111F035E1E4FF701EE0FFF1FEE0F78
:100B6000FF1FE35EFE4F27A130A541A552A560916E
:100B700023017091240180912501909126010E940A
:100B8000F414F80167A370A781A792A78601000F4C
:100B9000111F000F111F0F5D1E4FF701EE0FFF1FFA
:100BA000EE0FFF1FEF5DFE4F27A130A541A552A517
:100BB00060912701709128018091290190912A016B
:100BC0000E94F414D80197966D937D938D939C9316
:100BD0009A978601000F111F000F111F0B5D1E4F0A
:100BE000F701EE0FFF1FEE0FFF1FEB5DFE4F27A17A
:100BF00030A541A552A560912B0170912C018091E7
:100C00002D0190912E010E94F414F80167A370A7A2
:100C100081A792A7109238011092390110923A01DF
:100C200010923B0110923C0110923D0110923E0146
:100C300010923F0110924001109241011092420126
:100C400010924301B1C08090380190903901A0907A
:100C50003A01B0903B018092500190925101A092D4
:100C60005201B0925301C0903C01D0903D01E09000
:100C70003E01F0903F01C0925401D0925501E092A4
:100C80005601F09257014090400150904101609010
:100C90004201709043014092580150925901609274
:100CA0005A0170925B0190913701F3E09F9F8001A0
:100CB0001124F801EE0FFF1FEE0FFF1FE35EFE4F42
:100CC00027A130A541A552A560912301709124016F
:100CD00080912501909126010E94F414A5019401B0
:100CE0000E94F314609338017093390180933A01A4
:100CF00090933B01F801EE0FFF1FEE0FFF1FEF5D1A
:100D0000FE4F27A130A541A552A560912701709102
:100D100028018091290190912A010E94F414A701D1
:100D200096010E94F31460933C0170933D018093FF
:100D30003E0190933F01F801EE0FFF1FEE0FFF1FE2
:100D4000EB5DFE4F27A130A541A552A560912B0177
:100D500070912C0180912D0190912E010E94F4142C
:100D6000A30192010E94F31460934001709341012A
:100D7000809342019093430117C01092370114C031
:100D80002092370111C082E009C083E007C084E0EF
:100D900005C085E003C086E001C087E00E94140919
:100DA00003C08CE30E943D11E8E3F1E0A3E2B1E06F
:100DB000832D01900D928A95E1F76CC08FE9810F28
:100DC0008A3108F064C080911C01843009F05DC054
:100DD000133709F446C098F41636C1F1103709F4F8
:100DE00047C0143609F04FC00E943F0260932F01A4
:100DF0007093300180933101909332014BC01937C9
:100E000079F01A37C1F01837F1F50E943F0260936C
:100E100038017093390180933A0190933B013AC0B5
:100E20000E943F0260933C0170933D0180933E011C
:100E300090933F012FC00E943F0260934001709346
:100E40004101809342019093430124C00E943F02DC
:100E500060931E0170931F018093200190932101E4
:100E600019C00E943F020E94DC156093220112C04B
:100E70000E943F02609333017093340180933501E7
:100E80009093360107C08EE303C08AE301C083E27A
:100E90000E943D1110921C011AC0E0911C01E43027
:100EA00098F481E08E0F80931C0184E0E89FF001AC
:100EB0001124E45FFE4F812F90E0A0E0B0E080833A
:100EC0009183A283B38303C08AE30E943D110E94F1
:100ED0002A038FCC81E080930B0108952F923F92DB
:100EE0004F925F926F927F928F929F92AF92BF923A
:100EF000CF92DF92EF92FF920F931F93CF93DF93E6
:100F0000CDB7DEB760970FB6F894DEBF0FBECDBF8A
:100F10001C012A013B0148015901FC0162897389C6
:100F2000848995890E9408166B017C01A3019201B6
:100F30000E9441170E9458150E94DC152B013C01AC
:100F4000F10161A772A783A794A7A5019401C70126
:100F5000B6010E9441170E9458150E94DC154B01F2
:100F60005C01F10165A776A787A790AB21A932A9FB
:100F700043A954A9A0EEBEE20E94ED1769837A83CB
:100F80008B839C830E940A166D837E838F83988750
:100F9000C301B2010E9408162B013C01A701960172
:100FA000C701B6010E9441176B017C01A3019201A8
:100FB000C301B2010E94411769877A878B879C879A
:100FC0002D813E814F815885CA01B9010E94F414D8
:100FD0006D877E878F87988B29853A854B855C85C1
:100FE000C701B6010E94F3142D853E854F855889AF
:100FF0000E946F150E9458150E94D7152B013C01C5
:10100000C501B4010E9408169B01AC010E94411762
:101010004B015C01A70196010E94F3146B017C0156
:1010200069817A818B819C8190958095709561957D
:101030007F4F8F4F9F4F0E940A169B01AC010E9469
:10104000F4149B01AC01C701B6010E946F150E9408
:101050004516F101C684D784E088F188A70196017E
:10106000241935094609570929833A834B835C8340
:101070000E94D71529813A814B815C81261B370B51
:10108000480B590BDA01C90157FF3DC0C701B60132
:101090000E940A169B01AC016D857E858F8598891B
:1010A0000E94411729853A854B855C850E94F3147F
:1010B000A50194010E94F4144B015C0120E030E092
:1010C00040E850E46D817E818F8198850E944117B0
:1010D0009B01AC01C501B4010E946F150E94581517
:1010E0000E94D71597FF03C060E070E0CB012B0191
:1010F0003C01C616D706E806F90614F426013701A6
:1011000080E090E0DC01F10145AA56AA67AA70AE22
:10111000840D951DA61DB71D81AF92AFA3AFB4AFCF
:1011200060960FB6F894DEBF0FBECDBFDF91CF91B2
:101130001F910F91FF90EF90DF90CF90BF90AF90F5
:101140009F908F907F906F905F904F903F902F90E7
:1011500008954F925F926F927F92AF92BF92CF921B
:10116000DF92EF92FF920F931F93CF93DF938C0147
:10117000EB01FC0180A5811147C0428C538C648C2B
:10118000758CAA8CBB8CCC8CDD8C9501A601C3011F
:10119000B2010E946B1587FF37C0A3019201C30102
:1011A000B2010E9441172B013C0120E03AEB4BE5D4
:1011B0005AECF80162A173A184A195A10E94411784
:1011C0009B01AC01C301B2010E94F3140E94A81755
:1011D0007B018C019B01AC01B501C6010E946B151E
:1011E00087FF02C0750186019701A801B501C601FC
:1011F0000E946B15882341F0A701B8014A8F5B8FCD
:101200006C8F7D8F81E08FA3DF91CF911F910F9124
:10121000FF90EF90DF90CF90BF90AF907F906F9056
:101220005F904F9008950895EF92FF921F93CF9390
:10123000DF931F92CDB7DEB710917A011F5F1E308A
:1012400009F410E0E12EFF24E7FCF09420917901ED
:1012500030E02E153F0529F489830E942A038981F5
:10126000F5CFE0917A019FE3E99FF0011124E55861
:10127000FE4F808310937A010F90DF91CF911F91E1
:10128000FF90EF900C941F1120917A0190917901B9
:1012900081E0291301C080E0089590917A01809146
:1012A0007901981749F0809179012FE3829FC0015D
:1012B000112485589E4F089580E090E00895909104
:1012C0007A0180917901981741F0809179018F5FBF
:1012D0008E3009F480E080937901089510927A01AC
:1012E0001092790108958F929F92AF92BF92CF9200
:1012F000DF92EF92FF920F931F9349015A0167010A
:1013000078012CE137EC41EB52E40E9441170E9436
:10131000111760936D0170936E0180936F0190932C
:10132000700124E731ED45EB52E4C501B4010E94A0
:1013300041170E941117609371017093720180939D
:1013400073019093740125E535E545E052E4C7014A
:10135000B6010E9441170E941117609375017093A6
:101360007601809377019093780110925C0110923E
:101370005D0110925E0110925F018CE0E0E6F1E009
:10138000DF011D928A95E9F71F910F91FF90EF9071
:10139000DF90CF90BF90AF909F908F900895EF9285
:1013A000FF920F931F93CF9310927A0110927901BD
:1013B000CCE0EDE6F1E0DF018C2F1D928A95E9F794
:1013C000E12CF12C870120E030E040EA50E4CA0132
:1013D000B9010E94730910926C01E0E6F1E0DF01AF
:1013E0001D92CA95E9F7E0925C01F0925D010093CD
:1013F0005E0110935F01CF911F910F91FF90EF90CD
:1014000008952F923F924F925F926F927F928F92A8
:101410009F92AF92BF92CF92DF92EF92FF920F9383
:101420001F93CF93DF93CDB7DEB7E3970FB6F89452
:10143000DEBF0FBECDBF29013A01E982FA820B83DC
:101440001C832A962EAC3FAC2A972CE137EC41EB5B
:1014500052E40E9441170E9411176C8F7D8F8E8F6E
:101460009F8F24E731ED45EB52E4C301B2010E94A6
:1014700041170E94111768A379A38AA39BA325E5AE
:1014800035E545E052E4C801B7010E9441170E94CA
:1014900011176CA37DA38EA39FA340907A01042D06
:1014A0000F5F098B0E3009F4198A4988042D112722
:1014B00007FD10958091790190E08017910719F44C
:1014C0000E942A03F7CF80916C018823C1F00E940B
:1014D00071112B013C010E9460119B01AC0168ABB2
:1014E00039AB4AAB5BAB0E944F118301720128A953
:1014F00039A94AA95BA90E94730910926C018091D5
:101500007A010FE3809F30011124830105581E4F9B
:101510001A83098321143104A1F081E0D8018C934E
:10152000B10180E090E00E9408162CE137EC41EB1D
:1015300052E40E9441170E941117F80176AF65AF7F
:1015400003C0A981BA811C92E981FA8186A215861D
:1015500080916D0190916E01A0916F01B091700129
:101560002C8C3D8C4E8C5F8C281639064A065B0607
:1015700014F428E0258700917101109172012091E7
:1015800073013091740148A059A06AA07BA0401655
:101590005106620673062CF4E981FA8145854061A3
:1015A00045872090750130907601409077015090EA
:1015B00078016CA07DA08EA09FA0621473048404A7
:1015C00095042CF4E981FA814585406245876C8C4D
:1015D0007D8C8E8C9F8C681A790A8A0A9B0AC401BA
:1015E000B3016D867E868F86988A97FE0BC066242F
:1015F00077244301661A770A880A990A6D867E86DF
:101600008F86988A6D847E848F849888A981BA8118
:1016100011966D927D928D929C92149768A079A0FC
:101620008AA09BA0601A710A820A930A6D827E8248
:101630008F8298866A8A7B8A8C8A9D8A97FE0CC0E4
:101640009094809470946094611C711C811C911C16
:101650006A8A7B8A8C8A9D8AEA88FB880C891D8924
:10166000A981BA811596ED92FD920D931C9318975E
:101670006CA07DA08EA09FA06218730884089508B6
:1016800069867A868B869C869401830197FE07C0C3
:1016900030952095109501951F4F2F4F3F4FA981F1
:1016A000BA8119960D931D932D933C931C972A880C
:1016B0003B884C885D886D847E848F84988826144E
:1016C00037044804590420F46A8A7B8A8C8A9D8AEC
:1016D0004A885B886C887D884016510662067306CE
:1016E00010F428013901A981BA811E964D925D92AC
:1016F0006D927C925197411451046104710409F474
:1017000088C30E940A162CE137EC41EB52E40E9498
:101710006F156A8B7B8B8C8B9D8B6D817E818F810E
:1017200098850E940A1624E731ED45EB52E40E94A9
:101730006F1568A779A78AA79BA769857A858B8586
:101740009C850E940A1625E535E545E052E40E9495
:101750006F156CA77DA78EA79FA72A893B894C8907
:101760005D89CA01B9010E9441176D837E838F8311
:10177000988728A539A54AA55BA5CA01B9010E9489
:1017800041179B01AC016D817E818F8198850E94FC
:10179000F4146D837E838F8398872CA53DA54EA579
:1017A0005FA5CA01B9010E9441179B01AC016D817F
:1017B0007E818F8198850E94F4140E94A817688FFB
:1017C000798F8A8F9B8FE981FA8162A373A384A3A7
:1017D00095A39B01AC0160E070E080E89FE30E946C
:1017E0006F156D837E838F8398879B01AC01C60143
:1017F000B5010E9441176B017C019B01AC01688D12
:10180000798D8A8D9B8D0E94411769877D878E8B8C
:101810009F8BCB01AE89BF89E981FA81868B978B3B
:10182000A08FB18FC301B2010E940A164B015C0167
:10183000A70196010E9441170E9458150E94DC15CD
:10184000A981BA8152966D937D938D939C93559700
:101850002D813E814F815885C501B4010E944117F9
:1018600020E03AEB4BED59E40E94411720E030E8CC
:101870004BE356E40E946F150E9458150E94D7153D
:10188000E981FA8161AB72AB83AB94AB2D813E8170
:101890004F8158856A897B898C899D890E9441176F
:1018A0006A8B7B8B8C8B9D8B2D813E814F815885E4
:1018B00068A579A58AA59BA50E9441174B015C01EB
:1018C0002D813E814F8158856CA57DA58EA59FA554
:1018D0000E9441172B013C0190917A01809179017E
:1018E000981709F4ACC000915C0110915D01209043
:1018F0005E0130905F0120E030E0A901B801C10134
:101900000E940D1718160CF09AC0809160019091FA
:101910006101A0916201B0916301BC01CD019058B9
:101920002A893B894C895D890E9441176B017C01A2
:1019300020916401309165014091660150916701E9
:10194000C501B4010E9441179B01AC01C701B6015A
:101950000E94F3146B017C012091680130916901B0
:1019600040916A0150916B01C301B2010E9441177D
:101970009B01AC01C701B6010E94F3146B017C010D
:1019800023E333E343E75FE30E946B1587FF57C010
:1019900029853D854E895F89B801C1010E946B157B
:1019A00087FD04C009851D852E883F8823E333E326
:1019B00043E75FEBC701B6010E940D1718160CF044
:1019C00042C0A701960160E070E080E89FE30E94BA
:1019D000F31420E030E040E05FE30E9441170E94F2
:1019E000A8176B017C0120E030EC48E256E40E942D
:1019F00041176D837E838F839887A701960160E0EE
:101A000070E080E89FE30E94F3149B01AC016D81BC
:101A10007E818F8198850E946F150E94A8176B01A7
:101A2000F82EE92E9B01482F592FB801C1010E94C1
:101A30006B1587FD08C086012F2C3E2C04C000E0EA
:101A400010E0212C312CC801D101E981FA81868F67
:101A5000978FA0A3B1A320E03AEB4BE55AEC688D39
:101A6000798D8A8D9B8D0E9441179B01AC0160E0AE
:101A700070E0CB010E94F3140E94A8176B01F82EAE
:101A8000E92E9B01482F592FB801C1010E946B1507
:101A900087FF03C0302F212F04C03C2D2D2D2F2C6C
:101AA0003E2C832F922FD101E981FA81828F938F6F
:101AB000A48FB58F96014F2D5E2D69857D858E890A
:101AC0009F890E946B15181634F081E0A981BA81B4
:101AD00098968C9303C0E981FA8110A681E0A981D0
:101AE000BA8197968C93EA88FB880C891D89E092CD
:101AF0006001F09261010093620110936301809292
:101B0000640190926501A0926601B09267014092D3
:101B100068015092690160926A0170926B01898537
:101B20009D85AE89BF8980935C0190935D01A093F0
:101B30005E01B0935F01298820927A014C8C5D8C04
:101B40006E8C7F8C40926D0150926E0160926F019D
:101B50007092700168A079A08AA09BA06092710128
:101B60007092720180927301909274012CA03DA03A
:101B70004EA05FA0209275013092760140927701CD
:101B800050927801D0907A01E0E0F0E000E010E0BF
:101B90004FE3242E332433948091790190E02D2D4E
:101BA000332727FD30952817390709F46FC0D11066
:101BB00002C03EE0D32EDA94222D3D2D3203700177
:101BC0001124A70145585E4F7A010115110509F44A
:101BD0005AC0309709F457C0D80198968C919897BD
:101BE0005E969C905E975F96AC905F979096BC9047
:101BF00090979196CC9081113CC0428C538C648C10
:101C0000758CA3019201692D7A2D8B2D9C2D0E943C
:101C10000D17181674F5A3019201C301B2010E94B9
:101C200041172B013C0120E03AEB4BE55AECF8015F
:101C300062A173A184A195A10E9441179B01AC01EF
:101C4000C301B2010E94F3140E94A817562E672EFA
:101C5000782E892E262F372F482F592F692D7A2D30
:101C60008B2D9C2D0E946B1587FD03C0952C530175
:101C7000C82C892D9A2DAB2DBC2DF801828F938F06
:101C8000A48FB58F37A2F801870186CFD090790154
:101C900000E010E080E090E02FE3C22E2D2D3327EE
:101CA00027FD309540917A0150E024173507C9F09F
:101CB000C29E7001C39EF00C1124F701E558FE4F3F
:101CC0007F01009731F00115110519F0B8010E944C
:101CD000A908D394FEE0DF1201C0D12CC80187010E
:101CE000DDCF009731F00115110519F0B8010E9400
:101CF000A90830907901A12CB12C8FE3282E832DD7
:101D0000992787FD909520917A0130E082179307FB
:101D100009F442C0289E4001299E900C11248401A0
:101D200005581E4F4801A114B10479F1D5019796C9
:101D30008C91811104C0F80187A1882331F1D5016C
:101D40005696CD90DD90ED90FC905997A7019601A5
:101D5000F401628D738D848D958D0E946F152B011A
:101D60003C01A7019601D5015A966D917D918D9107
:101D70009C915D970E946F15AB01BC01930182019C
:101D8000C5010E946E07F50117A23394FEE03F12D1
:101D900001C0312C5401B3CFD5015696CD90DD90C2
:101DA000ED90FC905997A701960160E070E0CB019F
:101DB0000E946F152B013C01A7019601F501628D70
:101DC000738D848D958D0E946F15AB01BC019301BD
:101DD0008201C5010E946E07D50197961C92E39679
:101DE0000FB6F894DEBF0FBECDBFDF91CF911F912C
:101DF0000F91FF90EF90DF90CF90BF90AF909F90AA
:101E00008F907F906F905F904F903F902F900C94A9
:101E10001F11E3960FB6F894DEBF0FBECDBFDF9162
:101E2000CF911F910F91FF90EF90DF90CF90BF90D7
:101E3000AF909F908F907F906F905F904F903F906A
:101E40002F90089581E080936C0108958AB1837F7B
:101E50008AB987B1807C87B9089587BD08958823A2
:101E600011F05C9A08955C980895882311F05F9AA8
:101E700008955F980895882311F05D9A08955D98FC
:101E80000895569A17BC81E884BD83E085BD549AB5
:101E9000579A80E00E942F0F80E00E94350F559ADC
:101EA00080E00C943B0F8091F8049091F904A0918C
:101EB000FA04B091FB044091F4045091F504609150
:101EC000F6047091F704840F951FA61FB71F813881
:101ED00028E3920721E0A207B10550F48093F404AF
:101EE0009093F504A093F604B093F70480E008956E
:101EF00080589843A140B1098093F4049093F5046D
:101F0000A093F604B093F70481E008958F929F9216
:101F1000AF92BF92CF92DF92EF92FF920F931F93F7
:101F2000CF93DF931F92CDB7DEB76B017C0180E4C6
:101F3000C81686E0D806E104F10430F4A0E4CA2E05
:101F4000A6E0DA2EE12CF12C60E070E788E399E35B
:101F5000A70196010E94F81721153105E1E04E070F
:101F6000510518F4C90160E02FC021153105F8E0D2
:101F70004F075105A8F4BA01A901E3E076956795EA
:101F800057954795EA95D1F7CA019A01AB01F3E05D
:101F9000220F331F441F551FFA95D1F761E014C07B
:101FA000BA01A90186E076956795579547958A9578
:101FB000D1F7CA019A01AB0166E0220F331F441F1B
:101FC000551F6A95D1F762E0709181006F5F787F4D
:101FD000672B609381009093890080938800209301
:101FE000F8043093F9044093FA045093FB040091F1
:101FF0000E0510910F05F80166A170E080E090E0F9
:102000000E940A164B015C01C701B6010E94081626
:102010006B017C01F80162897389848995890E942A
:1020200008169B01AC01C701B6010E946F159B0108
:10203000AC01C501B4010E9441170E94DC15862F36
:1020400069830E942D0F6981693210F082E005C01A
:102050006B3010F083E001C084E085BD0F90DF910C
:10206000CF911F910F91FF90EF90DF90CF90BF9095
:10207000AF909F908F9008952F923F924F925F92D2
:102080006F927F928F929F92AF92BF92CF92DF9288
:10209000EF92FF920F931F93CF93DF93182F6A0154
:1020A0007B0185E0C81AD108E108F108111102C0CE
:1020B0008BE301C083E0C0E3C82795B18C2F887300
:1020C000977C892B85B9D6E006E02224239433241B
:1020D000339486B1112311F09FE38927332049F00F
:1020E00080FD07C0011104C0A1E0CA27312C01C046
:1020F0000150222049F082FD0BC0D11103C0B2E093
:10210000CB2702C0D15004C0332009F479C0212C60
:1021100085B19C2F9770892B85B98AE18A95F1F753
:1021200085B1892785B9C701B6010E9408162B0120
:102130003C012BEA3AEA4AEA50E40E9441174B017B
:102140005C0120E030E040E85FE30E946B1587FD12
:1021500053C020E030E04FE753E4C501B4010E94D2
:102160000D1718160CF043C020E030E04AE754E4A5
:10217000C301B2010E946F152B013C0120E030E049
:102180004AE755E40E9441174B015C0120E030E032
:1021900040E85FE30E946B1587FD24C020E03FEF1D
:1021A0004FE757E4C501B4010E940D171816A4F4B7
:1021B00020E030E040E251E4C301B2010E94411747
:1021C0000E94DC15CB01009709F483CFE0E9F1E030
:1021D0003197F1F70197F7CFC501B4010E94DC15E3
:1021E000CB0102C081E090E00197F1F772CFC50109
:1021F000B4010E94DC1501C061E06A95F1F769CF76
:102200008CE0E0E1F5E0DF011D928A95E9F7DF91CE
:10221000CF911F910F91FF90EF90DF90CF90BF90E3
:10222000AF909F908F907F906F905F904F903F9076
:102230002F9008958091EF048111FFCF0895809130
:10224000EF0481110BC081E08093EF0480E3809361
:102250000D0580916F00826080936F000895109249
:10226000EF0410920F0510920E05EFE6F0E080816A
:102270008D7F808380E00C942D0F8093ED0481E0AE
:102280008093EE0408958091ED0408958091EE040A
:10229000089580E28093ED041092EE040895609119
:1022A00010057091110580911205909113050E94FF
:1022B0000A162CE137EC41EB52E40E946F150895A9
:1022C0006091140570911505809116059091170580
:1022D0000E940A1624E731ED45EB52E40E946F1587
:1022E0000895609118057091190580911A059091D3
:1022F0001B050E940A1625E535E545E052E40E94DB
:102300006F1508958F929F92AF92BF92CF92DF92F6
:10231000EF92FF920F931F93CF93DF9300D000D0E3
:10232000CDB7DEB749015A016701780169837A8325
:102330008B839C830E941A112CE137EC41EB52E411
:1023400069817A818B819C810E94411720E030E075
:1023500040E05FE30E94F4140E9445160E94D715E6
:1023600060931005709311058093120590931305E7
:1023700024E731ED45EB52E4C501B4010E94411759
:1023800020E030E040E05FE30E94F4140E94451634
:102390000E94D71560931405709315058093160558
:1023A0009093170525E535E545E052E4C701B601F0
:1023B0000E94411720E030E040E05FE30E94F41407
:1023C0000E9445160E94D715609318057093190551
:1023D00080931A0590931B050F900F900F900F900C
:1023E000DF91CF911F910F91FF90EF90DF90CF90F1
:1023F000BF90AF909F908F900895EF92FF920F93B0
:102400001F93789484B18F6384B985B1807C806395
:1024100085B9E1E8F0E080818F7E808380818860EB
:102420008083E0E8F0E080818D7F808380818E7FF3
:10243000808380818F73808380818F7C80831092E2
:10244000B0001092B100E0E7F0E08081816080830D
:1024500060E476E080E090E00E94860F8CE0E0E1AE
:10246000F5E0DF011D928A95E9F7E12CF12C870157
:1024700020E030E040EA50E4CA01B9010E94821134
:102480001092F4041092F5041092F6041092F704DE
:1024900010920F0510920E051092EE0480E28093C8
:1024A000ED041092FC041F910F91FF90EF900C949B
:1024B0002F111F920F920FB60F9211248F9385B197
:1024C000887F85B91092B1005C988F910F900FBEF4
:1024D0000F901F9018951F920F920FB60F92112414
:1024E0000F931F932F933F934F935F936F937F931C
:1024F0008F939F93AF93BF93CF93DF93EF93FF930C
:102500008091FC0481114AC281E08093FC04809197
:10251000EE04882349F00E942F110E946E090E9448
:10252000220F0E946A0738C25C9A95B180910D050E
:102530008873977C892B85B985B1887F90910D052B
:10254000892B85B98AEF8093B20082E08093B10035
:10255000789480910E0590910F05892B09F05DC04C
:102560000E944D0990930F0580930E05009719F472
:102570000E942F1111C2FC012081223008F04DC0B1
:1025800061A572A583A594A56093F0047093F104EE
:102590008093F2049093F30400E41CE920E030E01F
:1025A0000093F4041093F5042093F6043093F70499
:1025B0000E94860FE0910E05F0910F0586859785A4
:1025C000A089B189B595A79597958795B095A09560
:1025D000909581959F4FAF4FBF4F80930905909382
:1025E0000A05A0930B05B0930C0580930505909305
:1025F0000605A0930705B093080580930105909305
:102600000205A0930305B09304051092FD041092F7
:10261000FE041092FF0410920005C0910E05D091A7
:102620000F05888190E0FC013197E730F10508F053
:10263000B3C1E75BFF4F0C941A182D8520930D054D
:102640008091090590910A05A0910B05B0910C05A8
:1026500049815A816B817C81840F951FA61FB71F0A
:102660008093090590930A05A0930B05B0930C0580
:102670004E855F8568897989181619061A061B0622
:1026800044F5216020930D05841B950BA60BB70B19
:102690008093090590930A05A0930B05B0930C0550
:1026A0008091100590911105A0911205B09113052C
:1026B00023FF04C00197A109B10903C00196A11D20
:1026C000B11D8093100590931105A0931205B0934E
:1026D00013058091050590910605A0910705B0911D
:1026E00008050D811E812F813885800F911FA21F43
:1026F000B31F8093050590930605A0930705B0933B
:102700000805181619061A061B0654F520910D0522
:10271000226020930D05841B950BA60BB70B8093AD
:10272000050590930605A0930705B09308058091D1
:10273000140590911505A0911605B091170524FF79
:1027400004C00197A109B10903C00196A11DB11DE3
:102750008093140590931505A0931605B093170563
:102760008091010590910205A0910305B0910405A7
:1027700009851A852B853C85800F911FA21FB31FE9
:102780008093010590930205A0930305B09304057F
:10279000181619061A061B0654F520910D0524601B
:1027A00020930D05841B950BA60BB70B8093010599
:1027B00090930205A0930305B0930405809118053A
:1027C00090911905A0911A05B0911B0525FF04C031
:1027D0000197A109B10903C00196A11DB11D809304
:1027E000180590931905A0931A05B0931B058091C5
:1027F000FD049091FE04A091FF04B09100050196A4
:10280000A11DB11D8093FD049093FE04A093FF04CD
:10281000B093000520910D0530E3232720930D058B
:1028200084179507A607B70708F0B0C04DA95EA9A1
:102830006FA978AD84179507A607B70740F50E94E2
:10284000530F882309F4A8C089A99AA9ABA9BCA9E8
:102850004091F0045091F1046091F2047091F304FE
:10286000840F951FA61FB71F8093F0049093F10467
:10287000A093F204B093F3044A895B896C897D8943
:10288000481759076A077B0708F04AC041C049AD9D
:102890005AAD6BAD7CAD84179507A607B70769F4F1
:1028A00080E49CE9A0E0B0E08093F4049093F50408
:1028B000A093F604B093F7046FC084179507A6079A
:1028C000B707B8F10E94530F882309F465C08091BF
:1028D000F0049091F104A091F204B091F30449A99D
:1028E0005AA96BA97CA9841B950BA60BB70B8093E7
:1028F000F0049093F104A093F204B093F3044DA577
:102900005EA56FA578A984179507A607B70740F4B9
:102910004093F0045093F1046093F2047093F30435
:102920006091F0047091F1048091F2049091F304AD
:1029300019C06A897B898C899D890091F004109166
:10294000F1042091F2043091F304061717072807C9
:10295000390711F16093F0047093F1048093F2044D
:102960009093F3040E94860F17C081E001C080E0BD
:102970000E942F0F0BC081E001C080E00E94350F44
:1029800005C081E001C080E00E943B0F10920F055E
:1029900010920E050E945F091092FC04FF91EF91C6
:1029A000DF91CF91BF91AF919F918F917F916F9167
:1029B0005F914F913F912F911F910F910F900FBEFB
:1029C0000F901F9018950E941A1148E552E060E0A0
:1029D00070E080E00E943C1040E157E260E070E06F
:1029E00081E00C943C105058BB27AA270ED0C4C1DC
:1029F000B5D130F0BAD120F031F49F3F11F41EF47C
:102A0000AAC10EF4E095E7FB77C1E92FC6D180F3A8
:102A1000BA17620773078407950718F071F49EF5DB
:102A2000F5C10EF4E0950B2EBA2FA02D0B01B901C4
:102A300090010C01CA01A0011124FF27591B99F034
:102A4000593F50F4503E68F11A16F040A22F232F40
:102A5000342F4427585FF3CF469537952795A79590
:102A6000F0405395C9F77EF41F16BA0B620B730B37
:102A7000840BBAF09150A1F0FF0FBB1F661F771FA8
:102A8000881FC2F70EC0BA0F621F731F841F48F45D
:102A9000879577956795B795F7959E3F08F0B3CFE3
:102AA0009395880F08F09927EE0F979587950895CD
:102AB00096D180F09F3740F491110EF4A8C160E0E8
:102AC00070E080E89FE3089526F01B16611D711DDC
:102AD000811D18C132C1ECD008F481E008950CD0FA
:102AE0004BC143D140F03AD130F021F45F3F19F0AF
:102AF00003C151118CC12FC150D198F39923C9F34F
:102B00005523B1F3951B550BBB27AA2762177307F3
:102B1000840738F09F5F5F4F220F331F441FAA1FA7
:102B2000A9F333D00E2E3AF0E0E830D09150504067
:102B3000E695001CCAF729D0FE2F27D0660F771F15
:102B4000881FBB1F261737074807AB07B0E809F0F7
:102B5000BB0B802DBF01FF2793585F4F2AF09E3F8C
:102B6000510568F0C9C053C15F3FECF3983EDCF3F8
:102B7000869577956795B795F7959F5FC9F7880F05
:102B8000911D9695879597F90895E1E0660F771F57
:102B9000881FBB1F621773078407BA0720F0621BE8
:102BA000730B840BBA0BEE1F88F7E095089504D0E1
:102BB0006894B1112CC10895F8D088F09F5790F017
:102BC000B92F9927B751A0F0D1F0660F771F881F52
:102BD000991F1AF0BA95C9F712C0B13081F016D119
:102BE000B1E0089513C1672F782F8827B85F39F0B7
:102BF000B93FCCF3869577956795B395D9F73EF4B1
:102C000090958095709561957F4F8F4F9F4F089558
:102C1000E89409C097FB3EF4909580957095619576
:102C20007F4F8F4F9F4F9923A9F0F92F96E9BB272C
:102C30009395F695879577956795B795F111F8CFA8
:102C4000FAF4BB0F11F460FF1BC06F5F7F4F8F4F13
:102C50009F4F16C0882311F096E911C0772321F009
:102C60009EE8872F762F05C0662371F096E8862FA1
:102C700070E060E02AF09A95660F771F881FDAF7F8
:102C8000880F9695879597F90895A9D080F09F377A
:102C900040F491110EF0BBC060E070E080E89FEB63
:102CA000089526F41B16611D711D811D2BC045C0A2
:102CB000990F0008550FAA0BE0E8FEEF161617064D
:102CC000E807F907C0F012161306E407F50798F0B5
:102CD000621B730B840B950B39F40A2661F0232BCE
:102CE000242B252B21F408950A2609F4A140A6954A
:102CF0008FEF811D811D089597F99F6780E870E02F
:102D000060E00895882371F4772321F09850872B91
:102D1000762F07C0662311F499270DC09051862B9A
:102D200070E060E02AF09A95660F771F881FDAF747
:102D3000880F9695879597F908959F3F31F09150A8
:102D400020F4879577956795B795880F911D96958F
:102D5000879597F908959FEF80EC089500240A94D1
:102D60001616170618060906089500240A94121666
:102D70001306140605060895092E0394000C11F499
:102D8000882352F0BB0F40F4BF2B11F460FF04C046
:102D90006F5F7F4F8F4F9F4F089557FD9058440F9F
:102DA000551F59F05F3F71F04795880F97FB991FAA
:102DB00061F09F3F79F08795089512161306140667
:102DC000551FF2CF4695F1DF08C0161617061806F4
:102DD000991FF1CF86957105610508940895E5DF87
:102DE000A0F0BEE7B91788F4BB279F3860F4161629
:102DF000B11D672F782F8827985FF7CF8695779535
:102E00006795B11D93959639C8F30895E894BB274B
:102E100066277727CB0197F908954ADF08F48FEFEB
:102E20000895C3DF58F19E5758F19851A0F0E9F08A
:102E3000983020F5092E9927660F771F881F991F54
:102E40000A94D1F712C0062E672F782F8827985F33
:102E500011F4000C07C0993FB4F3869577956795F8
:102E60009395D9F7611D711D811D3EF49095809554
:102E7000709561957F4F8F4F9F4F08956894C7CF8E
:102E8000C5CF0BD079CF6ADF28F06FDF18F095231C
:102E900009F032CF60CF1124BACF7FDFA0F3959F26
:102EA000D1F3950F50E0551F629FF001729FBB2731
:102EB000F00DB11D639FAA27F00DB11DAA1F649FDD
:102EC0006627B00DA11D661F829F2227B00DA11D90
:102ED000621F739FB00DA11D621F839FA00D611D16
:102EE000221F749F3327A00D611D231F849F600D37
:102EF000211D822F762F6A2F11249F5750408AF070
:102F0000E1F088234AF0EE0FFF1FBB1F661F771FFB
:102F1000881F91505040A9F79E3F510570F0ECCEAC
:102F200076CF5F3FECF3983EDCF386957795679517
:102F3000B795F795E7959F5FC1F7FE2B880F911D19
:102F40009695879597F9089511F40EF404CFF5CE70
:102F50002CDFD0F39923D9F3CEF39F57550B87FF7E
:102F600035D00024A0E640EA900180585695979508
:102F700028F4805C660F771F881F20F0261737071C
:102F8000480730F4621B730B840B202931294A2B2C
:102F9000A69517940794202531254A2758F7660FE0
:102FA000771F881F20F026173707480730F4620B79
:102FB000730B840B200D311D411DA09581F7B901C4
:102FC000842F9158880F9695879508959150504079
:102FD000660F771F881FD2F708950E942018A59FBB
:102FE000900DB49F900DA49F800D911D1124089504
:102FF000A1E21A2EAA1BBB1BFD010DC0AA1FBB1FFD
:10300000EE1FFF1FA217B307E407F50720F0A21B6E
:10301000B30BE40BF50B661F771F881F991F1A94DB
:1030200069F760957095809590959B01AC01BD0105
:10303000CF010895EE0FFF1F0590F491E02D099444
:10304000A29FB001B39FC001A39F700D811D1124E9
:10305000911DB29F700D811D1124911D0895F8944A
:02306000FFCFA0
:02306200FE006E
:00000001FF
