:100000000C9451000C946E000C946E000C946E00D5
:100010000C946E000C946E000C946E000C946E00A8
:100020000C946E000C9461120C946E000C9472127D
:100030000C946E000C946E000C946E000C946E0088
:100040000C946E000C946E000C945B010C94FE00FA
:100050000C946E000C946E000C946E000C946E0068
:100060000C946E000C946E009B061404DF041404C0
:1000700098069806EC04EF04F2045B055B05EA05BC
:10008000EA05840687068A068C068E069006920686
:1000900094065F135F133C153E1542154415481531
:1000A0004A1511241FBECFEFD8E0DEBFCDBF11E04F
:1000B000A0E0B1E0E0ECF1E302C005900D92A230C7
:1000C000B107D9F716E0A2E0B1E001C01D92AB394B
:1000D000B107E1F70E9470000C94DE180C94000048
:1000E00078940E949A000E948B020E94D8090E9474
:1000F00006120E942F0F0E944A0F0E94C40380E044
:1001000090E00895909106019F5F903809F490E087
:10011000209105019217E1F3E0910601F0E0E55E20
:10012000F94F8083909306018091C1008062809393
:10013000C10008951092C50080E18093C400E0ECF6
:10014000F0E080818D7F8083E1ECF0E08081806150
:1001500080838081886080838081806880838EE74F
:100160000C948200CF92DF92EF92FF9220E030E079
:100170004AE754E40E94C81720E030E040E05DE424
:100180000E947B150E9498176B017C01862F806866
:100190000E948200D701C60180789F73AA27BB27DF
:1001A00027E0B695A795979587952A95D1F780581A
:1001B0000E948200D701C6018827907CAF71BB27BF
:1001C0003EE0B695A795979587953A95D1F78058D3
:1001D0000E948200D701C60188279927A07EBF70A0
:1001E00045E1B695A795979587954A95D1F780589B
:1001F000FF90EF90DF90CF900C9482001F920F92AF
:100200000FB60F9211248F939F93EF93FF938091DA
:10021000050190910401992331F092E19093C60079
:10022000109204010DC0E82FF0E0E55EF94F9081D7
:100230009093C6008F5F803809F480E080930501B9
:1002400090910601891305C08091C1008F7D809334
:10025000C100FF91EF919F918F910F900FBE0F9072
:100260001F901895E0910701F0E0E45EFA4F80815D
:10027000909107019F5F909307019F3F11F41092A7
:100280000701F89490910001903471F4909103016A
:10029000992351F091E0909304019091C1009062F4
:1002A0009093C10010920301909100019F5F909381
:1002B0000001789408951F920F920FB60F921124A7
:1002C0002F933F934F935F936F937F938F939F935E
:1002D000AF93BF93EF93FF938091C600813249F1B2
:1002E0008E3719F40E94521132C08F3319F40E94D4
:1002F000F7022DC0843189F480910001813448F0E7
:1003000081E0809304018091C10080628093C100EC
:100310001EC081E0809303011AC0E091080191E0C2
:100320009E0F9F3F09F490E020910701921304C0B3
:1003300082E20E9446110BC0F0E0E45EFA4F808337
:100340009093080180910001815080930001FF91FA
:10035000EF91BF91AF919F918F917F916F915F913D
:100360004F913F912F910F900FBE0F901F901895B6
:1003700080910201882351F083B7816083BF889503
:1003800083B78E7F83BF0E940303F2CF9091070152
:100390008091080198130CC083B7816083BF889552
:1003A00083B78E7F83BF0E94FB020E940303EECFC0
:1003B0000E943201823029F581E080930201809110
:1003C0000201882351F083B7816083BF889583B78A
:1003D0008E7F83BF0E940303F2CF9091070180912B
:1003E000080198130CC083B7816083BF889583B7D9
:1003F0008E7F83BF0E94FB020E940303EECF0C940A
:100400003201089580910201882361F090910701E3
:1004100080910801981731F00E943201833019F45D
:100420001092020180E00895809100018095089566
:100430008F929F92AF92BF92CF92DF92EF92FF92F4
:100440000F931F9360910C0170910D0180910E012B
:1004500090910F0160587109810998400091100135
:1004600010911101209112013091130100581109CE
:1004700021093E4F8090140190901501A090160123
:10048000B090170140E8841A91084CEFA40A4FEF8E
:10049000B40AC0901801D0901901E0901A01F090B0
:1004A0001B0140E8C40E47E0D41EE11CF11C47E0EC
:1004B000CC0CDD1CEE1CFF1C4A95D1F78C0C9D1C4E
:1004C000AE1CBF1C57E0880C991CAA1CBB1C5A957B
:1004D000D1F7080D191D2A1D3B1DE7E0000F111F64
:1004E000221F331FEA95D1F7600F711F821F931FE0
:1004F0000E948F1620E030E04AE754E40E94F6158F
:100500001F910F91FF90EF90DF90CF90BF90AF9031
:100510009F908F90089521E020931D0180E090E04E
:10052000AAEFB5E480931E0190931F01A0932001D0
:10053000B0932101109222018CE0E3E2F1E0DF01AF
:10054000982F1D929A95E9F7E8E3F1E0DF011D92FB
:100550008A95E9F710922F01109230011092310123
:100560001092320110923301109234011092350131
:10057000109236011092370180E090E0A0EAB0E4DA
:100580008093440190934501A0934601B0934701A5
:100590008093480190934901A0934A01B0934B0185
:1005A00010924C0110924D0110924E0110924F0189
:1005B0008093500190935101A0935201B093530145
:1005C0008093540190935501A0935601B093570125
:1005D000109258011092590110925A0110925B0129
:1005E00010920B0120930A0120930901089581E0E4
:1005F00080930A0108950E944D09811103C081E092
:10060000809309010895CF930E944D0981111092A2
:10061000090180910A01882309F4B4C0809109017D
:10062000882311F081E401C082E40E9482000E94CC
:100630004C11C82F803211F00E948200309905C001
:10064000C43219F084E20E948200319905C0C5329B
:1006500019F085E20E948200329905C0C63219F075
:1006600086E20E948200339905C0CA3219F08AE2FC
:100670000E948200349905C0CB3219F08BE20E94AF
:100680008200359905C0CD3219F08DE20E948200BA
:100690000E9458110E94B20088E70E9482000E94C6
:1006A00069110E94B20089E70E9482000E947A11BB
:1006B0000E94B2008AE70E94820060E070E080EB56
:1006C00094E40E94B20086E70E94820060913801A3
:1006D0007091390180913A0190913B010E94B200E2
:1006E00081E60E94820060913C0170913D01809101
:1006F0003E0190913F010E94B20082E60E9482007A
:1007000060914001709141018091420190914301BB
:100710000E94B20083E60E94820060911E017091E7
:100720001F0180912001909121010E94B20086E674
:100730000E9482006091220170E080E090E00E94BF
:100740008F160E94B20083E70E94820060912F0101
:100750007091300180913101909132010E94B2007C
:1007600084E60E948200609133017091340180918F
:100770003501909136010E94B20080E70E9482000C
:1007800010920A01CF910895CF93DF93CDB7DEB7D2
:1007900028970FB6F894DEBF0FBECDBF2CE0322EE7
:1007A000222423940E94B801182F80910B018823E2
:1007B00001F10E94581160932301709324018093EA
:1007C0002501909326010E9469116093270170937F
:1007D00028018093290190932A010E947A11609345
:1007E0002B0170932C0180932D0190932E01109278
:1007F0000B010E944F11882319F020920A0170C347
:1008000017FD54C38FEB810F8A3108F09EC2412F30
:1008100050E0FA01E154F109E531F10508F088C230
:10082000EC5CFF4F0C94B51800913701A0901E01AD
:10083000B0901F01C0902001D0902101143409F024
:1008400066C083E0089F80011124F801EE0FFF1FAE
:10085000EE0FFF1FEB5DFE4F27A130A541A552A56E
:10086000609140017091410180914201909143015A
:100870000E947B1569837A838B839C83F801EE0F3A
:10088000FF1FEE0FFF1FEF5DFE4F27A130A541A513
:1008900052A560913C0170913D0180913E01909183
:1008A0003F010E947B156D837E838F839887F801BB
:1008B000EE0FFF1FEE0FFF1FE35EFE4F27A130A5D7
:1008C00041A552A5609138017091390180913A019A
:1008D00090913B010E947B152B013C0160913301FB
:1008E0007091340180913501909136010E94631618
:1008F0007F936F9380902201E980FA800B811C81A5
:100900002D813E814F815885C301B20153C0A3E0C0
:100910000A9F80011124F801EE0FFF1FEE0FFF1F49
:10092000EB5DFE4F27A130A541A552A56091400186
:100930007091410180914201909143010E947B1589
:1009400069837A838B839C83F801EE0FFF1FEE0F80
:10095000FF1FEF5DFE4F27A130A541A552A5609175
:100960003C0170913D0180913E0190913F010E94B8
:100970007B152B013C01F801EE0FFF1FEE0FFF1F4F
:10098000E35EFE4F27A130A541A552A56091380135
:100990007091390180913A0190913B010E947B1541
:1009A0001F921F9280902201E980FA800B811C81A6
:1009B000A30192010E940A0A0F900F90BCC160919E
:1009C0002F0170913001809131019091320140915D
:1009D00022010E941C09AFC110921D01ACC12092DE
:1009E0001D01A9C10E946A15E3E2F1E0DF01832D38
:1009F0001D928A95E9F7E8E3F1E0DF01832D1D926E
:100A00008A95E9F7E12CF12C8701A8019701C8012B
:100A1000B7010E947C0910923701E0923801F092F0
:100A2000390100933A0110933B01E0923C01F092AE
:100A30003D0100933E0110933F01E0924001F0928E
:100A400041010093420110934301A0901E01B09018
:100A50001F01C0902001D0902101A8019701609151
:100A60004C0170914D0180914E0190914F010E9477
:100A70007B1569837A838B839C83A801970160919E
:100A800048017091490180914A0190914B010E9467
:100A90007B152B013C01A8019701609144017091E5
:100AA000450180914601909147010E947B151F925C
:100AB0001F92812C79CF81E090E01B3411F080E00F
:100AC00090E06C01CC0CDD1CC80ED91EE090370103
:100AD000A3E0EA9E700111248601000F111F000F90
:100AE000111F035E1E4FF701EE0FFF1FEE0FFF1FDA
:100AF000E35EFE4F27A130A541A552A560912301D9
:100B00007091240180912501909126010E947B150E
:100B1000F80167A370A781A792A78601000F111F94
:100B2000000F111F0F5D1E4FF701EE0FFF1FEE0F9D
:100B3000FF1FEF5DFE4F27A130A541A552A5609193
:100B40002701709128018091290190912A010E942A
:100B50007B15D80197966D937D938D939C939A976F
:100B60008601000F111F000F111F0B5D1E4FF701B3
:100B7000EE0FFF1FEE0FFF1FEB5DFE4F27A130A50D
:100B800041A552A560912B0170912C0180912D01FE
:100B900090912E010E947B15F80167A370A781A791
:100BA00092A7109238011092390110923A011092D6
:100BB0003B0110923C0110923D0110923E011092B7
:100BC0003F01109240011092410110924201109297
:100BD0004301B1C08090380190903901A0903A0152
:100BE000B0903B018092500190925101A09252012D
:100BF000B0925301C0903C01D0903D01E0903E0185
:100C0000F0903F01C0925401D0925501E0925601FC
:100C1000F092570140904001509041016090420194
:100C200070904301409258015092590160925A01CC
:100C300070925B0190913701F3E09F9F8001112436
:100C4000F801EE0FFF1FEE0FFF1FE35EFE4F27A11F
:100C500030A541A552A56091230170912401809196
:100C60002501909126010E947B15A50194010E9407
:100C70007A15609338017093390180933A0190930B
:100C80003B01F801EE0FFF1FEE0FFF1FEF5DFE4F60
:100C900027A130A541A552A5609127017091280197
:100CA0008091290190912A010E947B15A70196014C
:100CB0000E947A1560933C0170933D0180933E0140
:100CC00090933F01F801EE0FFF1FEE0FFF1FEB5D4A
:100CD000FE4F27A130A541A552A560912B0170912F
:100CE0002C0180912D0190912E010E947B15A30172
:100CF00092010E947A1560934001709341018093A4
:100D000042019093430117C01092370114C0209202
:100D1000370111C082E009C083E007C084E005C04C
:100D200085E003C086E001C087E00E941D0903C082
:100D30008CE30E944611E8E3F1E0A3E2B1E0832DE9
:100D400001900D928A95E1F7AEC08FE9810F8A314B
:100D500008F0A6C080911C01843009F09FC01337B1
:100D600009F488C0A0F4163609F479C0103709F4E4
:100D700088C0143609F090C00E94180260932F01B9
:100D80007093300180933101909332018CC01937F8
:100D900031F11A3709F443C0183709F07DC080914A
:100DA0001D01813019F40E94180210C0C090380152
:100DB000D0903901E0903A01F0903B010E94180276
:100DC0009B01AC01C701B6010E947B1560933801FD
:100DD0007093390180933A0190933B0164C08091F4
:100DE0001D01813019F40E94180210C0C0903C010E
:100DF000D0903D01E0903E01F0903F010E9418022A
:100E00009B01AC01C701B6010E947B1560933C01B8
:100E100070933D0180933E0190933F0144C08091C7
:100E20001D01813019F40E94180210C0C0904001C9
:100E3000D0904101E0904201F09043010E941802DD
:100E40009B01AC01C701B6010E947B156093400174
:100E500070934101809342019093430124C00E940A
:100E6000180260931E0170931F01809320019093DC
:100E7000210119C00E9418020E946316609322018A
:100E800012C00E9418026093330170933401809362
:100E900035019093360107C08EE303C08AE301C099
:100EA00083E20E94461110921C011AC0E0911C01BD
:100EB000E43098F481E08E0F80931C0184E0E89F79
:100EC000F0011124E45FFE4F812F90E0A0E0B0E03C
:100ED00080839183A283B38303C08AE30E94461177
:100EE0000E9403035FCC81E080930B0108952F9251
:100EF0003F924F925F926F927F928F929F92AF92AA
:100F0000BF92CF92DF92EF92FF920F931F93CF93F6
:100F1000DF93CDB7DEB760970FB6F894DEBF0FBE94
:100F2000CDBF1C012A013B0148015901FC01628926
:100F30007389848995890E948F166B017C01A301B6
:100F400092010E94C8170E94DF150E9463162B01B0
:100F50003C01F10161A772A783A794A7A5019401A1
:100F6000C701B6010E94C8170E94DF150E946316D0
:100F70004B015C01F10165A776A787A790AB21A97A
:100F800032A943A954A9A0EEBEE20E947418698355
:100F90007A838B839C830E9491166D837E838F83DB
:100FA0009887C301B2010E948F162B013C01A70153
:100FB0009601C701B6010E94C8176B017C01A3010D
:100FC0009201C301B2010E94C81769877A878B8793
:100FD0009C872D813E814F815885CA01B9010E94AD
:100FE0007B156D877E878F87988B29853A854B8502
:100FF0005C85C701B6010E947A152D853E854F8517
:1010000058890E94F6150E94DF150E945E162B017A
:101010003C01C501B4010E948F169B01AC010E94E6
:10102000C8174B015C01A70196010E947A156B015C
:101030007C0169817A818B819C81909580957095E6
:1010400061957F4F8F4F9F4F0E9491169B01AC017E
:101050000E947B159B01AC01C701B6010E94F615E9
:101060000E94CC16F101C684D784E088F188A701DC
:101070009601241935094609570929833A834B8378
:101080005C830E945E1629813A814B815C81261B1C
:10109000370B480B590BDA01C90157FF3DC0C70197
:1010A000B6010E9491169B01AC016D857E858F85EE
:1010B00098890E94C81729853A854B855C850E94CE
:1010C0007A15A50194010E947B154B015C0120E07B
:1010D00030E040E850E46D817E818F8198850E94E8
:1010E000C8179B01AC01C501B4010E94F6150E940E
:1010F000DF150E945E1697FF03C060E070E0CB0131
:101100002B013C01C616D706E806F90614F42601A1
:10111000370180E090E0DC01F10145AA56AA67AAF8
:1011200070AE840D951DA61DB71D81AF92AFA3AF04
:10113000B4AF60960FB6F894DEBF0FBECDBFDF919F
:10114000CF911F910F91FF90EF90DF90CF90BF90C4
:10115000AF909F908F907F906F905F904F903F9057
:101160002F9008954F925F926F927F92AF92BF92AD
:10117000CF92DF92EF92FF920F931F93CF93DF9363
:101180008C01EB01FC0180A5811147C0428C538C7E
:10119000648C758CAA8CBB8CCC8CDD8C9501A601E3
:1011A000C301B2010E94F21587FF37C0A30192016B
:1011B000C301B2010E94C8172B013C0120E03AEBA9
:1011C0004BE55AECF80162A173A184A195A10E949C
:1011D000C8179B01AC01C301B2010E947A150E949D
:1011E0002F187B018C019B01AC01B501C6010E9447
:1011F000F21587FF02C0750186019701A801B501AC
:10120000C6010E94F215882341F0A701B8014A8F58
:101210005B8F6C8F7D8F81E08FA3DF91CF911F91CA
:101220000F91FF90EF90DF90CF90BF90AF907F90A5
:101230006F905F904F9008950895EF92FF921F93E3
:10124000CF93DF931F92CDB7DEB710917A011F5F66
:101250001E3009F410E0E12EFF24E7FCF094209109
:10126000790130E02E153F0529F489830E9403039C
:101270008981F5CFE0917A019FE3E99FF001112484
:10128000E558FE4F808310937A010F90DF91CF9144
:101290001F91FF90EF900C94281120917A0190916A
:1012A000790181E0291301C080E0089590917A01CD
:1012B00080917901981749F0809179012FE3829FFD
:1012C000C001112485589E4F089580E090E0089554
:1012D00090917A0180917901981741F0809179017C
:1012E0008F5F8E3009F480E0809379010895109229
:1012F0007A011092790108958F929F92AF92BF92D6
:10130000CF92DF92EF92FF920F931F9349015A0100
:10131000670178012CE137EC41EB52E40E94C817D9
:101320000E94981760936D0170936E0180936F0116
:101330009093700124E731ED45EB52E4C501B4010F
:101340000E94C8170E9498176093710170937201F0
:10135000809373019093740125E535E545E052E4EF
:10136000C701B6010E94C8170E94981760937501C3
:1013700070937601809377019093780110925C01CD
:1013800010925D0110925E0110925F018CE0E0E628
:10139000F1E0DF011D928A95E9F71F910F91FF900F
:1013A000EF90DF90CF90BF90AF909F908F90089577
:1013B000EF92FF920F931F93CF9310927A011092A6
:1013C0007901CCE0EDE6F1E0DF018C2F1D928A95EA
:1013D000E9F7E12CF12C870120E030E040EA50E40D
:1013E000CA01B9010E947C0910926C01E0E6F1E0AB
:1013F000DF011D92CA95E9F7E0925C01F0925D0170
:1014000000935E0110935F01CF911F910F91FF90A8
:10141000EF9008952F923F924F925F926F927F923A
:101420008F929F92AF92BF92CF92DF92EF92FF92F4
:101430000F931F93CF93DF93CDB7DEB7E3970FB62C
:10144000F894DEBF0FBECDBF29013A01E982FA82CE
:101450000B831C832A962EAC3FAC2A972CE137ECE9
:1014600041EB52E40E94C8170E9498176C8F7D8F41
:101470008E8F9F8F24E731ED45EB52E4C301B2011B
:101480000E94C8170E94981768A379A38AA39BA3F8
:1014900025E535E545E052E4C801B7010E94C817CB
:1014A0000E9498176CA37DA38EA39FA340907A01FE
:1014B000042D0F5F098B0E3009F4198A4988042D19
:1014C000112707FD10958091790190E08017910711
:1014D00019F40E940303F7CF80916C018823C1F0B7
:1014E0000E947A112B013C010E9469119B01AC0101
:1014F00068AB39AB4AAB5BAB0E94581183017201F8
:1015000028A939A94AA95BA90E947C0910926C01FB
:1015100080917A010FE3809F3001112483010558E7
:101520001E4F1A83098321143104A1F081E0D801F0
:101530008C93B10180E090E00E948F162CE137EC93
:1015400041EB52E40E94C8170E949817F80176AF49
:1015500065AF03C0A981BA811C92E981FA8186A294
:10156000158680916D0190916E01A0916F01B091EF
:1015700070012C8C3D8C4E8C5F8C281639064A06E7
:101580005B0614F428E02587009171011091720127
:10159000209173013091740148A059A06AA07BA0EA
:1015A00040165106620673062CF4E981FA814585DE
:1015B0004061458720907501309076014090770119
:1015C000509078016CA07DA08EA09FA0621473043F
:1015D000840495042CF4E981FA81458540624587AD
:1015E0006C8C7D8C8E8C9F8C681A790A8A0A9B0A77
:1015F000C401B3016D867E868F86988A97FE0BC0E4
:10160000662477244301661A770A880A990A6D8648
:101610007E868F86988A6D847E848F849888A9813F
:10162000BA8111966D927D928D929C92149768A0CA
:1016300079A08AA09BA0601A710A820A930A6D821F
:101640007E828F8298866A8A7B8A8C8A9D8A97FEA0
:101650000CC09094809470946094611C711C811CE7
:10166000911C6A8A7B8A8C8A9D8AEA88FB880C890D
:101670001D89A981BA811596ED92FD920D931C9357
:1016800018976CA07DA08EA09FA062187308840894
:10169000950869867A868B869C869401830197FEDD
:1016A00007C030952095109501951F4F2F4F3F4F44
:1016B000A981BA8119960D931D932D933C931C9784
:1016C0002A883B884C885D886D847E848F849888C6
:1016D000261437044804590420F46A8A7B8A8C8AC9
:1016E0009D8A4A885B886C887D8840165106620610
:1016F000730610F428013901A981BA811E964D9212
:101700005D926D927C925197411451046104710471
:1017100009F488C30E9491162CE137EC41EB52E4A6
:101720000E94F6156A8B7B8B8C8B9D8B6D817E81E5
:101730008F8198850E94911624E731ED45EB52E4A4
:101740000E94F61568A779A78AA79BA769857A855D
:101750008B859C850E94911625E535E545E052E490
:101760000E94F6156CA77DA78EA79FA72A893B89A3
:101770004C895D89CA01B9010E94C8176D837E83B7
:101780008F83988728A539A54AA55BA5CA01B90109
:101790000E94C8179B01AC016D817E818F81988565
:1017A0000E947B156D837E838F8398872CA53DA532
:1017B0004EA55FA5CA01B9010E94C8179B01AC01E3
:1017C0006D817E818F8198850E947B150E942F18E4
:1017D000688F798F8A8F9B8FE981FA8162A373A3C7
:1017E00084A395A39B01AC0160E070E080E89FE3D7
:1017F0000E94F6156D837E838F8398879B01AC01D1
:10180000C601B5010E94C8176B017C019B01AC01A8
:10181000688D798D8A8D9B8D0E94C81769877D8719
:101820008E8B9F8BCB01AE89BF89E981FA81868B34
:10183000978BA08FB18FC301B2010E9491164B010B
:101840005C01A70196010E94C8170E94DF150E9443
:101850006316A981BA8152966D937D938D939C9363
:1018600055972D813E814F815885C501B4010E9455
:10187000C81720E03AEB4BED59E40E94C81720E06E
:1018800030E84BE356E40E94F6150E94DF150E94F3
:101890005E16E981FA8161AB72AB83AB94AB2D81AB
:1018A0003E814F8158856A897B898C899D890E94F8
:1018B000C8176A8B7B8B8C8B9D8B2D813E814F81D2
:1018C000588568A579A58AA59BA50E94C8174B01D4
:1018D0005C012D813E814F8158856CA57DA58EA52B
:1018E0009FA50E94C8172B013C0190917A0180911D
:1018F0007901981709F4ACC000915C0110915D0169
:1019000020905E0130905F0120E030E0A901B80135
:10191000C1010E94941718160CF09AC080916001C2
:1019200090916101A0916201B0916301BC01CD0170
:1019300090582A893B894C895D890E94C8176B01A0
:101940007C012091640130916501409166015091C4
:101950006701C501B4010E94C8179B01AC01C70112
:10196000B6010E947A156B017C01209168013091CB
:10197000690140916A0150916B01C301B2010E945B
:10198000C8179B01AC01C701B6010E947A156B0113
:101990007C0123E333E343E75FE30E94F21587FF13
:1019A00057C029853D854E895F89B801C1010E94D4
:1019B000F21587FD04C009851D852E883F8823E325
:1019C00033E343E75FEBC701B6010E949417181693
:1019D0000CF042C0A701960160E070E080E89FE350
:1019E0000E947A1520E030E040E05FE30E94C817D3
:1019F0000E942F186B017C0120E030EC48E256E495
:101A00000E94C8176D837E838F839887A7019601F4
:101A100060E070E080E89FE30E947A159B01AC01D2
:101A20006D817E818F8198850E94F6150E942F1806
:101A30006B01F82EE92E9B01482F592FB801C101E7
:101A40000E94F21587FD08C086012F2C3E2C04C091
:101A500000E010E0212C312CC801D101E981FA818C
:101A6000868F978FA0A3B1A320E03AEB4BE55AEC09
:101A7000688D798D8A8D9B8D0E94C8179B01AC0162
:101A800060E070E0CB010E947A150E942F186B0174
:101A9000F82EE92E9B01482F592FB801C1010E9451
:101AA000F21587FF03C0302F212F04C03C2D2D2DB0
:101AB0002F2C3E2C832F922FD101E981FA81828F26
:101AC000938FA48FB58F96014F2D5E2D69857D85EF
:101AD0008E899F890E94F215181634F081E0A98141
:101AE000BA8198968C9303C0E981FA8110A681E0AF
:101AF000A981BA8197968C93EA88FB880C891D8905
:101B0000E0926001F0926101009362011093630121
:101B10008092640190926501A0926601B092670183
:101B2000409268015092690160926A0170926B0163
:101B300089859D85AE89BF8980935C0190935D0105
:101B4000A0935E01B0935F01298820927A014C8CAA
:101B50005D8C6E8C7F8C40926D0150926E01609214
:101B60006F017092700168A079A08AA09BA060921A
:101B700071017092720180927301909274012CA095
:101B80003DA04EA05FA02092750130927601409258
:101B9000770150927801D0907A01E0E0F0E000E027
:101BA00010E04FE3242E332433948091790190E0A8
:101BB0002D2D332727FD30952817390709F46FC0DD
:101BC000D11002C03EE0D32EDA94222D3D2D3203F7
:101BD00070011124A70145585E4F7A0101151105C6
:101BE00009F45AC0309709F457C0D80198968C91DF
:101BF00098975E969C905E975F96AC905F97909654
:101C0000BC9090979196CC9081113CC0428C538CA3
:101C1000648C758CA3019201692D7A2D8B2D9C2DDE
:101C20000E949417181674F5A3019201C301B20122
:101C30000E94C8172B013C0120E03AEB4BE55AEC1F
:101C4000F80162A173A184A195A10E94C8179B010C
:101C5000AC01C301B2010E947A150E942F18562EC2
:101C6000672E782E892E262F372F482F592F692D32
:101C70007A2D8B2D9C2D0E94F21587FD03C0952C8B
:101C80005301C82C892D9A2DAB2DBC2DF801828FC4
:101C9000938FA48FB58F37A2F801870186CFD0909C
:101CA000790100E010E080E090E02FE3C22E2D2DBE
:101CB000332727FD309540917A0150E024173507EE
:101CC000C9F0C29E7001C39EF00C1124F701E558C3
:101CD000FE4F7F01009731F00115110519F0B80191
:101CE0000E94B208D394FEE0DF1201C0D12CC801DB
:101CF0008701DDCF009731F00115110519F0B8010A
:101D00000E94B20830907901A12CB12C8FE3282ECB
:101D1000832D992787FD909520917A0130E08217D5
:101D2000930709F442C0289E4001299E900C11247B
:101D3000840105581E4F4801A114B10479F1D50161
:101D400097968C91811104C0F80187A1882331F105
:101D5000D5015696CD90DD90ED90FC905997A70156
:101D60009601F401628D738D848D958D0E94F61518
:101D70002B013C01A7019601D5015A966D917D91E9
:101D80008D919C915D970E94F615AB01BC0193016A
:101D90008201C5010E947707F50117A23394FEE086
:101DA0003F1201C0312C5401B3CFD5015696CD90CE
:101DB000DD90ED90FC905997A701960160E070E0EE
:101DC000CB010E94F6152B013C01A7019601F501FC
:101DD000628D738D848D958D0E94F615AB01BC01CB
:101DE00093018201C5010E947707D50197961C9245
:101DF000E3960FB6F894DEBF0FBECDBFDF91CF9153
:101E00001F910F91FF90EF90DF90CF90BF90AF9018
:101E10009F908F907F906F905F904F903F902F900A
:101E20000C942811E3960FB6F894DEBF0FBECDBF19
:101E3000DF91CF911F910F91FF90EF90DF90CF90A6
:101E4000BF90AF909F908F907F906F905F904F90DA
:101E50003F902F90089581E080936C0108958AB19E
:101E6000837F8AB987B1807C87B9089587BD08953B
:101E7000882311F05C9A08955C980895882311F0E6
:101E80005F9A08955F980895882311F05D9A0895E8
:101E90005D980895569A17BC81E884BD83E085BD9E
:101EA000549A579A80E00E94380F80E00E943E0FBB
:101EB000559A80E00C94440F8091F8049091F904B5
:101EC000A091FA04B091FB044091F4045091F50400
:101ED0006091F6047091F704840F951FA61FB71F39
:101EE000813828E3920721E0A207B10550F48093DE
:101EF000F4049093F504A093F604B093F70480E003
:101F0000089580589843A140B1098093F4049093B8
:101F1000F504A093F604B093F70481E008952F929E
:101F20003F924F925F926F927F928F929F92AF9269
:101F3000BF92CF92DF92EF92FF920F931F93CF93B6
:101F4000DF93182F6A017B0185E0C81AD108E108E8
:101F5000F108111102C08BE301C083E0C0E3C82780
:101F600095B18C2F8873977C892B85B9D6E006E0D4
:101F7000222423943324339486B1112311F09FE358
:101F80008927332049F080FD07C0011104C0A1E07A
:101F9000CA27312C01C00150222049F082FD0BC01C
:101FA000D11103C0B2E0CB2702C0D15004C033200E
:101FB00009F479C0212C85B19C2F9770892B85B9A4
:101FC0008AE18A95F1F785B1892785B9C701B601FC
:101FD0000E948F162B013C012BEA3AEA4AEA50E4B0
:101FE0000E94C8174B015C0120E030E040E85FE34D
:101FF0000E94F21587FD53C020E030E04FE753E424
:10200000C501B4010E94941718160CF043C020E0DB
:1020100030E04AE754E4C301B2010E94F6152B01F7
:102020003C0120E030E04AE755E40E94C8174B012C
:102030005C0120E030E040E85FE30E94F21587FD9C
:1020400024C020E03FEF4FE757E4C501B4010E94F0
:1020500094171816A4F420E030E040E251E4C301E4
:10206000B2010E94C8170E946316CB01009709F4C1
:1020700083CFE0E9F1E03197F1F70197F7CFC501A0
:10208000B4010E946316CB0102C081E090E0019789
:10209000F1F772CFC501B4010E94631601C061E07F
:1020A0006A95F1F769CF8CE0E0E1F5E0DF011D9280
:1020B0008A95E9F7DF91CF911F910F91FF90EF90F3
:1020C000DF90CF90BF90AF909F908F907F906F9058
:1020D0005F904F903F902F9008958F929F92AF9274
:1020E000BF92CF92DF92EF92FF920F931F93CF9305
:1020F000DF931F92CDB7DEB76B017C0180E4C81679
:1021000086E0D806E104F10430F4A0E4CA2EA6E08B
:10211000DA2EE12CF12C60E070E788E399E3A70167
:1021200096010E94931821153105E1E04E075105F3
:1021300018F4C90160E02FC021153105F8E04F0700
:102140005105A8F4BA01A901E3E076956795579582
:102150004795EA95D1F7CA019A01AB01F3E0220F46
:10216000331F441F551FFA95D1F761E014C0BA011F
:10217000A90186E076956795579547958A95D1F799
:10218000CA019A01AB0166E0220F331F441F551F9D
:102190006A95D1F762E0709181006F5F787F672B5D
:1021A0006093810090938900809388002093F804C5
:1021B0003093F9044093FA045093FB0400910E0508
:1021C00010910F05F80166A170E080E090E00E9498
:1021D00091164B015C01C701B6010E948F166B017D
:1021E0007C01F80162897389848995890E948F1620
:1021F0009B01AC01C701B6010E94F6159B01AC0121
:10220000C501B4010E94C8170E946316862F698316
:102210000E94360F6981693210F082E005C06B3090
:1022200010F083E001C084E085BD0F90DF91CF9175
:102230001F910F91FF90EF90DF90CF90BF90AF90E4
:102240009F908F9008958091EF048111FFCF0895A2
:102250008091EF0481110BC081E08093EF0480E353
:1022600080930D0580916F00826080936F000895C8
:102270001092EF0410920F0510920E05EFE6F0E0B9
:1022800080818D7F808380E00C94360F8093ED04F5
:1022900081E08093EE0408958091ED04089580918B
:1022A000EE04089580E28093ED041092EE04089508
:1022B00060911005709111058091120590911305A0
:1022C0000E9491162CE137EC41EB52E40E94F61586
:1022D00008956091140570911505809116059091EF
:1022E00017050E94911624E731ED45EB52E40E9458
:1022F000F6150895609118057091190580911A05D9
:1023000090911B050E94911625E535E545E052E4C4
:102310000E94F61508958F929F92AF92BF92CF922E
:10232000DF92EF92FF920F931F93CF93DF9300D032
:1023300000D0CDB7DEB749015A0167017801698342
:102340007A838B839C830E9423112CE137EC41EB31
:1023500052E469817A818B819C810E94C81720E0B8
:1023600030E040E05FE30E947B150E94CC160E94A3
:102370005E1660931005709311058093120590937B
:10238000130524E731ED45EB52E4C501B4010E9489
:10239000C81720E030E040E05FE30E947B150E9418
:1023A000CC160E945E1660931405709315058093F9
:1023B00016059093170525E535E545E052E4C7017C
:1023C000B6010E94C81720E030E040E05FE30E94C1
:1023D0007B150E94CC160E945E16609318057093C0
:1023E000190580931A0590931B050F900F900F907D
:1023F0000F90DF91CF911F910F91FF90EF90DF90A1
:10240000CF90BF90AF909F908F900895EF92FF92E2
:102410000F931F9384B18F6384B985B1807C8063EF
:1024200085B9E1E8F0E080818F7E808380818860DB
:102430008083E0E8F0E080818D7F808380818E7FE3
:10244000808380818F73808380818F7C80831092D2
:10245000B0001092B100E0E7F0E0808181608083FD
:1024600060E476E080E090E00E946D108CE0E0E1B6
:10247000F5E0DF011D928A95E9F7E12CF12C870147
:1024800020E030E040EA50E4CA01B9010E948B111B
:102490001092F4041092F5041092F6041092F704CE
:1024A00010920F0510920E051092EE0480E28093B8
:1024B000ED041092FC041F910F91FF90EF900C948B
:1024C00038111F920F920FB60F9211248F9385B17E
:1024D000887F85B91092B1008F910F900FBE0F9039
:1024E0001F9018951F920F920FB60F9211240F9301
:1024F0001F932F933F934F935F936F937F938F938C
:102500009F93AF93BF93CF93DF93EF93FF9380910C
:10251000FC048111CAC281E08093FC048091EE0426
:10252000882349F00E9438110E9477090E942B0FDE
:102530000E947307B8C2309B0AC0319B08C0329B0F
:1025400006C0339B04C0349B02C0359931C030991A
:1025500006C084E28093ED0481E08093EE0431991B
:1025600006C085E28093ED0481E08093EE04329909
:1025700006C086E28093ED0481E08093EE043399F7
:1025800006C08AE28093ED0481E08093EE043499E2
:1025900006C08BE28093ED0481E08093EE043599D0
:1025A00082C28DE28093ED0481E08093EE047BC2D1
:1025B00095B180910D058873977C892B85B985B17C
:1025C000887F90910D05892B85B98AEF8093B200A1
:1025D00082E08093B100789480910E0590910F0570
:1025E000892B09F05DC00E94560990930F058093D6
:1025F0000E05009719F40E94381155C2FC01208184
:10260000223008F04DC061A572A583A594A5609302
:10261000F0047093F1048093F2049093F30400E4C7
:102620001CE920E030E00093F4041093F5042093BB
:10263000F6043093F7040E946D10E0910E05F091BE
:102640000F0586859785A089B189B595A79597953A
:102650008795B095A095909581959F4FAF4FBF4FAF
:102660008093090590930A05A0930B05B0930C0580
:102670008093050590930605A0930705B093080580
:102680008093010590930205A0930305B093040580
:102690001092FD041092FE041092FF0410920005A7
:1026A000C0910E05D0910F05888190E0883091058A
:1026B00008F0F9C1FC01E75BFF4F0C94B5182D85BC
:1026C00020930D058091090590910A05A0910B05B5
:1026D000B0910C0549815A816B817C81840F951FD3
:1026E000A61FB71F8093090590930A05A0930B05B9
:1026F000B0930C054E855F8568897989181619068F
:102700001A061B0644F5216020930D05841B950BCA
:10271000A60BB70B8093090590930A05A0930B05B0
:10272000B0930C058091100590911105A0911205B0
:10273000B091130523FF04C00197A109B10903C09B
:102740000196A11DB11D8093100590931105A093D2
:102750001205B09313058091050590910605A0918F
:102760000705B09108050D811E812F813885800FE6
:10277000911FA21FB31F8093050590930605A09398
:102780000705B0930805181619061A061B0654F516
:1027900020910D05226020930D05841B950BA60B3F
:1027A000B70B8093050590930605A0930705B0939A
:1027B00008058091140590911505A0911605B0911A
:1027C000170524FF04C00197A109B10903C00196B0
:1027D000A11DB11D8093140590931505A0931605B6
:1027E000B09317058091010590910205A091030512
:1027F000B091040509851A852B853C85800F911FB2
:10280000A21FB31F8093010590930205A0930305B7
:10281000B0930405181619061A061B0654F52091E4
:102820000D05246020930D05841B950BA60BB70B9B
:102830008093010590930205A0930305B0930405CE
:102840008091180590911905A0911A05B0911B056A
:1028500025FF04C00197A109B10903C00196A11D7C
:10286000B11D8093180590931905A0931A05B09394
:102870001B058091FD049091FE04A091FF04B0918E
:1028800000050196A11DB11D8093FD049093FE04E7
:10289000A093FF04B093000520910D0530E323279A
:1028A00020930D0584179507A607B70708F0F5C014
:1028B0004DA95EA96FA978AD84179507A607B7073C
:1028C00040F50E945C0F882309F4EDC089A99AA9FC
:1028D000ABA9BCA94091F0045091F1046091F204BD
:1028E0007091F304840F951FA61FB71F8093F00407
:1028F0009093F104A093F204B093F3044A895B89A6
:102900006C897D89481759076A077B0708F04AC018
:1029100041C049AD5AAD6BAD7CAD84179507A60794
:10292000B70769F480E49CE9A0E0B0E08093F40488
:102930009093F504A093F604B093F704B4C0841701
:102940009507A607B707C8F10E945C0F882309F412
:10295000AAC08091F0049091F104A091F204B0918A
:10296000F30449A95AA96BA97CA9841B950BA60B52
:10297000B70B8093F0049093F104A093F204B0930A
:10298000F3044DA55EA56FA578A984179507A60742
:10299000B70740F44093F0045093F1046093F204BD
:1029A0007093F3046091F0047091F1048091F2044B
:1029B0009091F3040E946D1076C06A897B898C899E
:1029C0009D890091F0041091F1042091F20430915E
:1029D000F304061717072807390751F06093F0042E
:1029E0007093F1048093F2049093F3040E946D10AD
:1029F000E0910E05F0910F058081813009F053C000
:102A000025AD36AD40E050E06091FD047091FE04CC
:102A10008091FF04909100050E9493186130710528
:102A20008105910509F03FC0F8940E940202789454
:102A3000482F50E0405851092EEF31E0429FC0012D
:102A4000439F900D529F900D1124E0910E05F0913F
:102A50000F0566A170E00E947F18862FC62F0E9486
:102A6000360FC93210F082E005C0CB3010F083E0A1
:102A700001C084E085BD17C081E001C080E00E94F4
:102A8000380F0BC081E001C080E00E943E0F05C0FE
:102A900081E001C080E00E94440F10920F05109267
:102AA0000E050E9468091092FC04FF91EF91DF91DE
:102AB000CF91BF91AF919F918F917F916F915F91D6
:102AC0004F913F912F911F910F910F900FBE0F903B
:102AD0001F9018950E94231148E552E060E070E0D5
:102AE00080E00E948F0F40E157E260E070E081E0FB
:102AF0000C948F0F5058BB27AA270ED0C4C1B5D154
:102B000030F0BAD120F031F49F3F11F41EF4AAC185
:102B10000EF4E095E7FB77C1E92FC6D180F3BA1731
:102B2000620773078407950718F071F49EF5F5C1E5
:102B30000EF4E0950B2EBA2FA02D0B01B9019001D8
:102B40000C01CA01A0011124FF27591B99F0593F1C
:102B500050F4503E68F11A16F040A22F232F342F64
:102B60004427585FF3CF469537952795A795F040B2
:102B70005395C9F77EF41F16BA0B620B730B840BC7
:102B8000BAF09150A1F0FF0FBB1F661F771F881F7F
:102B9000C2F70EC0BA0F621F731F841F48F48795D7
:102BA00077956795B795F7959E3F08F0B3CF9395C6
:102BB000880F08F09927EE0F97958795089596D17D
:102BC00080F09F3740F491110EF4A8C160E070E0EE
:102BD00080E89FE3089526F01B16611D711D811D7D
:102BE00018C132C1ECD008F481E008950CD04BC17B
:102BF00043D140F03AD130F021F45F3F19F003C1E6
:102C000051118CC12FC150D198F39923C9F3552389
:102C1000B1F3951B550BBB27AA27621773078407CF
:102C200038F09F5F5F4F220F331F441FAA1FA9F385
:102C300033D00E2E3AF0E0E830D091505040E69577
:102C4000001CCAF729D0FE2F27D0660F771F881FD8
:102C5000BB1F261737074807AB07B0E809F0BB0BC7
:102C6000802DBF01FF2793585F4F2AF09E3F5105EB
:102C700068F0C9C053C15F3FECF3983EDCF3869522
:102C800077956795B795F7959F5FC9F7880F911D61
:102C90009695879597F90895E1E0660F771F881F4D
:102CA000BB1F621773078407BA0720F0621B730B00
:102CB000840BBA0BEE1F88F7E095089504D0689452
:102CC000B1112CC10895F8D088F09F5790F0B92F1A
:102CD0009927B751A0F0D1F0660F771F881F991F71
:102CE0001AF0BA95C9F712C0B13081F016D1B1E02F
:102CF000089513C1672F782F8827B85F39F0B93F3F
:102D0000CCF3869577956795B395D9F73EF4909572
:102D10008095709561957F4F8F4F9F4F0895E894F0
:102D200009C097FB3EF490958095709561957F4F13
:102D30008F4F9F4F9923A9F0F92F96E9BB279395C1
:102D4000F695879577956795B795F111F8CFFAF4D1
:102D5000BB0F11F460FF1BC06F5F7F4F8F4F9F4F02
:102D600016C0882311F096E911C0772321F09EE860
:102D7000872F762F05C0662371F096E8862F70E0C6
:102D800060E02AF09A95660F771F881FDAF7880FA0
:102D90009695879597F90895A9D080F09F3740F4CC
:102DA00091110EF0BBC060E070E080E89FEB0895E9
:102DB00026F41B16611D711D811D2BC045C0990F86
:102DC0000008550FAA0BE0E8FEEF16161706E807F5
:102DD000F907C0F012161306E407F50798F0621B16
:102DE000730B840B950B39F40A2661F0232B242BEB
:102DF000252B21F408950A2609F4A140A6958FEF0A
:102E0000811D811D089597F99F6780E870E060E05B
:102E10000895882371F4772321F09850872B762F1B
:102E200007C0662311F499270DC09051862B70E0DE
:102E300060E02AF09A95660F771F881FDAF7880FEF
:102E40009695879597F908959F3F31F0915020F41A
:102E5000879577956795B795880F911D9695879576
:102E600097F908959FEF80EC089500240A941616B0
:102E7000170618060906089500240A941216130668
:102E8000140605060895092E0394000C11F48823F6
:102E900052F0BB0F40F4BF2B11F460FF04C06F5F12
:102EA0007F4F8F4F9F4F089557FD9058440F551FE8
:102EB00059F05F3F71F04795880F97FB991F61F0BC
:102EC0009F3F79F087950895121613061406551F33
:102ED000F2CF4695F1DF08C0161617061806991F9F
:102EE000F1CF86957105610508940895E5DFA0F09E
:102EF000BEE7B91788F4BB279F3860F41616B11DDA
:102F0000672F782F8827985FF7CF869577956795F5
:102F1000B11D93959639C8F30895E894BB276627A9
:102F20007727CB0197F908954ADF08F48FEF0895CA
:102F3000C3DF58F19E5758F19851A0F0E9F098304E
:102F400020F5092E9927660F771F881F991F0A946D
:102F5000D1F712C0062E672F782F8827985F11F4BB
:102F6000000C07C0993FB4F38695779567959395C4
:102F7000D9F7611D711D811D3EF490958095709566
:102F800061957F4F8F4F9F4F08956894C7CFC5CFEE
:102F90000BD079CF6ADF28F06FDF18F0952309F0A6
:102FA00032CF60CF1124BACF7FDFA0F3959FD1F34A
:102FB000950F50E0551F629FF001729FBB27F00DE7
:102FC000B11D639FAA27F00DB11DAA1F649F66273C
:102FD000B00DA11D661F829F2227B00DA11D621F8B
:102FE000739FB00DA11D621F839FA00D611D221F45
:102FF000749F3327A00D611D231F849F600D211D29
:10300000822F762F6A2F11249F5750408AF0E1F0CB
:1030100088234AF0EE0FFF1FBB1F661F771F881F14
:1030200091505040A9F79E3F510570F0ECCE76CFFD
:103030005F3FECF3983EDCF3869577956795B795FF
:10304000F795E7959F5FC1F7FE2B880F911D969529
:10305000879597F9089511F40EF404CFF5CE2CDF7F
:10306000D0F39923D9F3CEF39F57550B87FF35D073
:103070000024A0E640EA900180585695979528F4E0
:10308000805C660F771F881F20F0261737074807D8
:1030900030F4621B730B840B202931294A2BA6952F
:1030A00017940794202531254A2758F7660F771F74
:1030B000881F20F026173707480730F4620B730B80
:1030C000840B200D311D411DA09581F7B901842F7E
:1030D0009158880F96958795089591505040660FA6
:1030E000771F881FD2F708950E94BB18A59F900DE7
:1030F000B49F900DA49F800D911D1124089597FBFE
:10310000072E16F4009407D077FD09D00E94CA1844
:1031100007FC05D03EF4909581959F4F08957095DA
:1031200061957F4F0895A1E21A2EAA1BBB1BFD01DA
:103130000DC0AA1FBB1FEE1FFF1FA217B307E40796
:10314000F50720F0A21BB30BE40BF50B661F771FEE
:10315000881F991F1A9469F76095709580959095CE
:103160009B01AC01BD01CF010895EE0FFF1F05903B
:10317000F491E02D0994A29FB001B39FC001A39FD9
:10318000700D811D1124911DB29F700D811D1124A0
:10319000911D0895AA1BBB1B51E107C0AA1FBB1FAD
:1031A000A617B70710F0A61BB70B881F991F5A95D3
:1031B000A9F780959095BC01CD010895F894FFCFB3
:0231C000FE000F
:00000001FF
